{
  "address": "0x95a7bC57c738C7f64103B93D04f49cbCa566afFD",
  "abi": [
    {
      "type": "constructor",
      "inputs": [],
      "stateMutability": "nonpayable"
    },
    {
      "type": "function",
      "name": "ORACLE_IMPLEMENTATION",
      "inputs": [],
      "outputs": [
        {
          "name": "",
          "type": "address",
          "internalType": "address"
        }
      ],
      "stateMutability": "view"
    },
    {
      "type": "function",
      "name": "create",
      "inputs": [
        {
          "name": "_config",
          "type": "tuple",
          "internalType": "struct IChainlinkV3Oracle.ChainlinkV3DeploymentConfig",
          "components": [
            {
              "name": "baseToken",
              "type": "address",
              "internalType": "contract IERC20Metadata"
            },
            {
              "name": "quoteToken",
              "type": "address",
              "internalType": "contract IERC20Metadata"
            },
            {
              "name": "primaryAggregator",
              "type": "address",
              "internalType": "contract AggregatorV3Interface"
            },
            {
              "name": "primaryHeartbeat",
              "type": "uint32",
              "internalType": "uint32"
            },
            {
              "name": "secondaryAggregator",
              "type": "address",
              "internalType": "contract AggregatorV3Interface"
            },
            {
              "name": "secondaryHeartbeat",
              "type": "uint32",
              "internalType": "uint32"
            },
            {
              "name": "normalizationDivider",
              "type": "uint256",
              "internalType": "uint256"
            },
            {
              "name": "normalizationMultiplier",
              "type": "uint256",
              "internalType": "uint256"
            },
            {
              "name": "invertSecondPrice",
              "type": "bool",
              "internalType": "bool"
            }
          ]
        },
        {
          "name": "_externalSalt",
          "type": "bytes32",
          "internalType": "bytes32"
        }
      ],
      "outputs": [
        {
          "name": "oracle",
          "type": "address",
          "internalType": "contract ChainlinkV3Oracle"
        }
      ],
      "stateMutability": "nonpayable"
    },
    {
      "type": "function",
      "name": "getConfigAddress",
      "inputs": [
        {
          "name": "",
          "type": "bytes32",
          "internalType": "bytes32"
        }
      ],
      "outputs": [
        {
          "name": "",
          "type": "address",
          "internalType": "address"
        }
      ],
      "stateMutability": "view"
    },
    {
      "type": "function",
      "name": "getOracleAddress",
      "inputs": [
        {
          "name": "",
          "type": "address",
          "internalType": "address"
        }
      ],
      "outputs": [
        {
          "name": "",
          "type": "address",
          "internalType": "address"
        }
      ],
      "stateMutability": "view"
    },
    {
      "type": "function",
      "name": "hashConfig",
      "inputs": [
        {
          "name": "_config",
          "type": "tuple",
          "internalType": "struct IChainlinkV3Oracle.ChainlinkV3DeploymentConfig",
          "components": [
            {
              "name": "baseToken",
              "type": "address",
              "internalType": "contract IERC20Metadata"
            },
            {
              "name": "quoteToken",
              "type": "address",
              "internalType": "contract IERC20Metadata"
            },
            {
              "name": "primaryAggregator",
              "type": "address",
              "internalType": "contract AggregatorV3Interface"
            },
            {
              "name": "primaryHeartbeat",
              "type": "uint32",
              "internalType": "uint32"
            },
            {
              "name": "secondaryAggregator",
              "type": "address",
              "internalType": "contract AggregatorV3Interface"
            },
            {
              "name": "secondaryHeartbeat",
              "type": "uint32",
              "internalType": "uint32"
            },
            {
              "name": "normalizationDivider",
              "type": "uint256",
              "internalType": "uint256"
            },
            {
              "name": "normalizationMultiplier",
              "type": "uint256",
              "internalType": "uint256"
            },
            {
              "name": "invertSecondPrice",
              "type": "bool",
              "internalType": "bool"
            }
          ]
        }
      ],
      "outputs": [
        {
          "name": "configId",
          "type": "bytes32",
          "internalType": "bytes32"
        }
      ],
      "stateMutability": "view"
    },
    {
      "type": "function",
      "name": "nonces",
      "inputs": [
        {
          "name": "owner",
          "type": "address",
          "internalType": "address"
        }
      ],
      "outputs": [
        {
          "name": "",
          "type": "uint256",
          "internalType": "uint256"
        }
      ],
      "stateMutability": "view"
    },
    {
      "type": "function",
      "name": "verifyConfig",
      "inputs": [
        {
          "name": "_config",
          "type": "tuple",
          "internalType": "struct IChainlinkV3Oracle.ChainlinkV3DeploymentConfig",
          "components": [
            {
              "name": "baseToken",
              "type": "address",
              "internalType": "contract IERC20Metadata"
            },
            {
              "name": "quoteToken",
              "type": "address",
              "internalType": "contract IERC20Metadata"
            },
            {
              "name": "primaryAggregator",
              "type": "address",
              "internalType": "contract AggregatorV3Interface"
            },
            {
              "name": "primaryHeartbeat",
              "type": "uint32",
              "internalType": "uint32"
            },
            {
              "name": "secondaryAggregator",
              "type": "address",
              "internalType": "contract AggregatorV3Interface"
            },
            {
              "name": "secondaryHeartbeat",
              "type": "uint32",
              "internalType": "uint32"
            },
            {
              "name": "normalizationDivider",
              "type": "uint256",
              "internalType": "uint256"
            },
            {
              "name": "normalizationMultiplier",
              "type": "uint256",
              "internalType": "uint256"
            },
            {
              "name": "invertSecondPrice",
              "type": "bool",
              "internalType": "bool"
            }
          ]
        }
      ],
      "outputs": [
        {
          "name": "secondaryPriceDecimals",
          "type": "uint256",
          "internalType": "uint256"
        }
      ],
      "stateMutability": "view"
    },
    {
      "type": "event",
      "name": "NewOracle",
      "inputs": [
        {
          "name": "oracle",
          "type": "address",
          "indexed": true,
          "internalType": "address"
        }
      ],
      "anonymous": false
    },
    {
      "type": "error",
      "name": "AddressZero",
      "inputs": []
    },
    {
      "type": "error",
      "name": "AggregatorsAreTheSame",
      "inputs": []
    },
    {
      "type": "error",
      "name": "FailedDeployment",
      "inputs": []
    },
    {
      "type": "error",
      "name": "HugeDivider",
      "inputs": []
    },
    {
      "type": "error",
      "name": "HugeMultiplier",
      "inputs": []
    },
    {
      "type": "error",
      "name": "InsufficientBalance",
      "inputs": [
        {
          "name": "balance",
          "type": "uint256",
          "internalType": "uint256"
        },
        {
          "name": "needed",
          "type": "uint256",
          "internalType": "uint256"
        }
      ]
    },
    {
      "type": "error",
      "name": "InvalidAccountNonce",
      "inputs": [
        {
          "name": "account",
          "type": "address",
          "internalType": "address"
        },
        {
          "name": "currentNonce",
          "type": "uint256",
          "internalType": "uint256"
        }
      ]
    },
    {
      "type": "error",
      "name": "MultiplierAndDividerZero",
      "inputs": []
    },
    {
      "type": "error",
      "name": "TokensAreTheSame",
      "inputs": []
    }
  ],
  "bytecode": "0x60a0604052348015600e575f5ffd5b506040516019906089565b604051809103905ff0801580156031573d5f5f3e3d5ffd5b506001600160a01b03811660795760405162461bcd60e51b815260206004820152600b60248201526a5a65726f4164647265737360a81b604482015260640160405180910390fd5b6001600160a01b03166080526096565b610ec780610f1a83390190565b608051610e656100b55f395f818161013701526104200152610e655ff3fe608060405234801561000f575f5ffd5b506004361061007a575f3560e01c80637af14d6e116100585780637af14d6e146100f75780637ecebe001461010a578063a8f39f6614610132578063f896503a14610159575f5ffd5b806328e981661461007e57806354482173146100a45780635b996c42146100e4575b5f5ffd5b61009161008c3660046107d6565b610181565b6040519081526020015b60405180910390f35b6100cc6100b23660046107f1565b60026020525f90815260409020546001600160a01b031681565b6040516001600160a01b03909116815260200161009b565b6100cc6100f236600461080c565b610390565b6100916101053660046107d6565b6104b9565b6100916101183660046107f1565b6001600160a01b03165f9081526020819052604090205490565b6100cc7f000000000000000000000000000000000000000000000000000000000000000081565b6100cc610167366004610837565b60016020525f90815260409020546001600160a01b031681565b60208101515f906001600160a01b03166101ae57604051639fabe1c160e01b815260040160405180910390fd5b81516001600160a01b03166101d657604051639fabe1c160e01b815260040160405180910390fd5b815f01516001600160a01b031682602001516001600160a01b03160361020f57604051633d4cfcc560e11b815260040160405180910390fd5b60408201516001600160a01b031661023a57604051639fabe1c160e01b815260040160405180910390fd5b81608001516001600160a01b031682604001516001600160a01b03160361027457604051630e04002960e11b815260040160405180910390fd5b60808201516001600160a01b0316156102f15781608001516001600160a01b031663313ce5676040518163ffffffff1660e01b8152600401602060405180830381865afa1580156102c7573d5f5f3e3d5ffd5b505050506040513d601f19601f820116820180604052508101906102eb919061084e565b60ff1690505b6ec097ce7bc90715b34b9f10000000008260c00151111561032557604051631fe0fdf560e11b815260040160405180910390fd5b6ec097ce7bc90715b34b9f10000000008260e00151111561035957604051631f604a8560e21b815260040160405180910390fd5b60c082015115801561036d575060e0820151155b1561038b5760405163d156ee7f60e01b815260040160405180910390fd5b919050565b5f5f61039b846104b9565b5f818152600160205260409020549091506001600160a01b031680156103de576001600160a01b039081165f908152600260205260409020541691506104b39050565b6103e785610181565b50846040516103f5906106a7565b6103ff919061086e565b604051809103905ff080158015610418573d5f5f3e3d5ffd5b50905061044d7f0000000000000000000000000000000000000000000000000000000000000000610448866104e8565b610533565b925061045a838284610546565b60405163189acdbd60e31b81526001600160a01b03828116600483015284169063c4d66de8906024015f604051808303815f87803b15801561049a575f5ffd5b505af11580156104ac573d5f5f3e3d5ffd5b5050505050505b92915050565b5f816040516020016104cb919061086e565b604051602081830303815290604052805190602001209050919050565b335f81815260208190526040812080546001810190915590919060405160609290921b6bffffffffffffffffffffffff191660208301526034820152605481018390526074016104cb565b5f61053f83835f610616565b9392505050565b5f818152600160205260409020546001600160a01b0316156105a45760405162461bcd60e51b815260206004820152601260248201527110dbdb999a59d05b1c9958591e515e1a5cdd60721b60448201526064015b60405180910390fd5b5f81815260016020908152604080832080546001600160a01b038088166001600160a01b03199283168117909355918552600290935281842080549188169190931681179092555190917fb3eacd0e351fafdfefdec84e1cd19679b38dbcd63ea7c2c24da17fd2bc3b3c0e91a2505050565b5f814710156106415760405163cf47918160e01b81524760048201526024810183905260440161059b565b6e5af43d82803e903d91602b57fd5bf360205283601152763d602d80600a3d3981f3363d3d373d3d3d363d730000008460881c175f52826037600984f590506001600160a01b03811661053f5760405163b06ebf3d60e01b815260040160405180910390fd5b6104fd8061093383390190565b604051610120810167ffffffffffffffff811182821017156106e457634e487b7160e01b5f52604160045260245ffd5b60405290565b6001600160a01b03811681146106fe575f5ffd5b50565b803561038b816106ea565b803563ffffffff8116811461038b575f5ffd5b8035801515811461038b575f5ffd5b5f610120828403121561073f575f5ffd5b6107476106b4565b905061075282610701565b815261076060208301610701565b602082015261077160408301610701565b60408201526107826060830161070c565b606082015261079360808301610701565b60808201526107a460a0830161070c565b60a082015260c0828101359082015260e080830135908201526107ca610100830161071f565b61010082015292915050565b5f61012082840312156107e7575f5ffd5b61053f838361072e565b5f60208284031215610801575f5ffd5b813561053f816106ea565b5f5f610140838503121561081e575f5ffd5b610828848461072e565b94610120939093013593505050565b5f60208284031215610847575f5ffd5b5035919050565b5f6020828403121561085e575f5ffd5b815160ff8116811461053f575f5ffd5b81516001600160a01b0316815260208083015161012083019161089b908401826001600160a01b03169052565b5060408301516108b660408401826001600160a01b03169052565b5060608301516108ce606084018263ffffffff169052565b5060808301516108e960808401826001600160a01b03169052565b5060a083015161090160a084018263ffffffff169052565b5060c083015160c083015260e083015160e083015261010083015161092b61010084018215159052565b509291505056fe6101c0604052348015610010575f5ffd5b506040516104fd3803806104fd83398101604081905261002f9161011d565b80516020820151606083015160c08085015160e08087015160a09283529092526001600160a01b0394851690915291831661010090815263ffffffff918216608090815260408601518516610120528501805185166101405292850151909116610160529051909116151561018052015115156101a0526101c6565b60405161012081016001600160401b03811182821017156100da57634e487b7160e01b5f52604160045260245ffd5b60405290565b80516001600160a01b03811681146100f6575f5ffd5b919050565b805163ffffffff811681146100f6575f5ffd5b805180151581146100f6575f5ffd5b5f61012082840312801561012f575f5ffd5b506101386100ab565b610141836100e0565b815261014f602084016100e0565b6020820152610160604084016100e0565b6040820152610171606084016100fb565b6060820152610182608084016100e0565b608082015261019360a084016100fb565b60a082015260c0838101519082015260e080840151908201526101b9610100840161010e565b6101008201529392505050565b60805160a05160c05160e05161010051610120516101405161016051610180516101a0516102cd6102305f395f61019e01525f61017501525f60b401525f606701525f604201525f61014e01525f61012601525f61010001525f60da01525f608f01526102cd5ff3fe608060405234801561000f575f5ffd5b5060043610610029575f3560e01c8063c3f909d41461002d575b5f5ffd5b60408051610140810182526001600160a01b037f0000000000000000000000000000000000000000000000000000000000000000811682527f0000000000000000000000000000000000000000000000000000000000000000811660208301527f0000000000000000000000000000000000000000000000000000000000000000828401527f000000000000000000000000000000000000000000000000000000000000000060608301527f000000000000000000000000000000000000000000000000000000000000000060808301527f000000000000000000000000000000000000000000000000000000000000000060a08301527f0000000000000000000000000000000000000000000000000000000000000000811660c08301527f00000000000000000000000000000000000000000000000000000000000000001660e08201527f000000000000000000000000000000000000000000000000000000000000000015156101008201527f0000000000000000000000000000000000000000000000000000000000000000151561012082015290516101d191906101da565b60405180910390f35b81516001600160a01b031681526101408101602083015161020660208401826001600160a01b03169052565b5060408301516040830152606083015160608301526080830151608083015260a083015160a083015260c083015161024960c08401826001600160a01b03169052565b5060e083015161026460e08401826001600160a01b03169052565b5061010083015161027a61010084018215159052565b5061012083015161029061012084018215159052565b509291505056fea2646970667358221220863901569025c3d775facf7007c2cc180b0018d3d13cf4b907988146969b8b7b64736f6c634300081c0033a2646970667358221220a055c1b0751a30f6af608a918b2ddffd1d3aa387de3eefe7eedcc14eaac010db64736f6c634300081c00336080604052348015600e575f5ffd5b5060156019565b60c9565b7ff0c57e16840df040f15088dc2f81fe391c3923bec73e23a9662efc9c229c6a00805468010000000000000000900460ff161560685760405163f92ee8a960e01b815260040160405180910390fd5b80546001600160401b039081161460c65780546001600160401b0319166001600160401b0390811782556040519081527fc7f505b2f371ae2175ee4913f4499e1f2633a7b5936321eed1cdaeb6115181d29060200160405180910390a15b50565b610df1806100d65f395ff3fe608060405234801561000f575f5ffd5b50600436106100cb575f3560e01c80639a6fc8f511610088578063c71ed1e611610063578063c71ed1e6146101dc578063f9fa619a14610206578063feaf968c14610217578063ffa1ad741461021f575f5ffd5b80639a6fc8f51461016d578063c4d66de8146101bf578063c55dae63146101d4575f5ffd5b806313b0be33146100cf578063217a4b70146100f5578063313ce56714610115578063324b8d6e1461012457806354fd4d50146101365780637284e4161461013d575b5f5ffd5b6100e26100dd366004610a07565b610258565b6040519081526020015b60405180910390f35b6100fd610428565b6040516001600160a01b0390911681526020016100ec565b604051601281526020016100ec565b5f546100fd906001600160a01b031681565b60016100e2565b60408051808201909152600b81526a53696c6f204f7261636c6560a81b60208201525b6040516100ec9190610a35565b61018861017b366004610a81565b505f908190819081908190565b6040805169ffffffffffffffffffff968716815260208101959095528401929092526060830152909116608082015260a0016100ec565b6101d26101cd366004610aa3565b61049e565b005b6100fd6105f3565b6101ef6101ea366004610acb565b610669565b6040805192151583526020830191909152016100ec565b6101d2610214366004610aa3565b50565b610188610719565b60408051808201909152601781527f436861696e6c696e6b56334f7261636c6520342e302e300000000000000000006020820152610160565b5f8054604080516330fe427560e21b8152905183926001600160a01b03169163c3f909d4916004808301926101409291908290030181865afa1580156102a0573d5f5f3e3d5ffd5b505050506040513d601f19601f820116820180604052508101906102c49190610b37565b90508060c001516001600160a01b0316836001600160a01b0316146102fc5760405163981a2a2b60e01b815260040160405180910390fd5b6fffffffffffffffffffffffffffffffff84111561032d57604051631df5999960e21b815260040160405180910390fd5b5f5f610340835f01518460400151610762565b91509150816103615760405162bfc92160e01b815260040160405180910390fd5b8261010001516103a95761037f868285608001518660a001516107ed565b9350835f036103a1576040516301a7e28b60e61b815260040160405180910390fd5b505050610422565b5f5f6103bd85602001518660600151610762565b91509150816103df57604051637c5ab47160e01b815260040160405180910390fd5b6103fa88848388608001518960a001518a6101200151610827565b9550855f0361041c576040516301a7e28b60e61b815260040160405180910390fd5b50505050505b92915050565b5f8054604080516330fe427560e21b8152905183926001600160a01b03169163c3f909d4916004808301926101409291908290030181865afa158015610470573d5f5f3e3d5ffd5b505050506040513d601f19601f820116820180604052508101906104949190610b37565b60e0015192915050565b7ff0c57e16840df040f15088dc2f81fe391c3923bec73e23a9662efc9c229c6a008054600160401b810460ff16159067ffffffffffffffff165f811580156104e35750825b90505f8267ffffffffffffffff1660011480156104ff5750303b155b90508115801561050d575080155b1561052b5760405163f92ee8a960e01b815260040160405180910390fd5b845467ffffffffffffffff19166001178555831561055557845460ff60401b1916600160401b1785555b5f80546001600160a01b0319166001600160a01b0388169081179091556040519081527f077847d1fadf50041a730385b3d6b2de1cdeb5e078cb933fb091003e7f10e07a9060200160405180910390a183156105eb57845460ff60401b19168555604051600181527fc7f505b2f371ae2175ee4913f4499e1f2633a7b5936321eed1cdaeb6115181d29060200160405180910390a15b505050505050565b5f8054604080516330fe427560e21b8152905183926001600160a01b03169163c3f909d4916004808301926101409291908290030181865afa15801561063b573d5f5f3e3d5ffd5b505050506040513d601f19601f8201168201806040525081019061065f9190610b37565b60c0015192915050565b5f5f5f5f5f9054906101000a90046001600160a01b03166001600160a01b031663c3f909d46040518163ffffffff1660e01b815260040161014060405180830381865afa1580156106bc573d5f5f3e3d5ffd5b505050506040513d601f19601f820116820180604052508101906106e09190610b37565b9050836106fe576106f981602001518260600151610762565b61070f565b61070f815f01518260400151610762565b9250925050915091565b5f80808080806107276105f3565b90505f610733826108a0565b905061075161074c61074683600a610cdc565b84610258565b61090b565b96974296508695505f945092505050565b5f5f5f846001600160a01b031663feaf968c6040518163ffffffff1660e01b815260040160a060405180830381865afa1580156107a1573d5f5f3e3d5ffd5b505050506040513d601f19601f820116820180604052508101906107c59190610ce7565b5050509150505f8113156107de576001925090506107e6565b5f5f92509250505b9250929050565b5f815f0361080e57828486028161080657610806610d3b565b04905061081f565b84840261081b8382610d4f565b9150505b949350505050565b8585025f8390036108695781610846576108418582610d4f565b610850565b6108508582610d66565b905083818161086157610861610d3b565b049050610896565b6108738382610d4f565b905081610889576108848582610d4f565b610893565b6108938582610d66565b90505b9695505050505050565b6040805160048152602481019091526020810180516001600160e01b031663313ce56760e01b1790525f90819081906108da90859061093f565b91509150816108ec57505f9392505050565b808060200190518101906109009190610d85565b60ff16949350505050565b5f6001600160ff1b0382111561093b5760405163123baf0360e11b81526004810183905260240160405180910390fd5b5090565b5f60606001600160a01b0384163b61096a576040516373d39f9d60e01b815260040160405180910390fd5b5f5f856001600160a01b0316856040516109849190610da5565b5f60405180830381855afa9150503d805f81146109bc576040519150601f19603f3d011682016040523d82523d5f602084013e6109c1565b606091505b5091509150816109e6575f60405180602001604052805f8152509350935050506107e6565b6001969095509350505050565b6001600160a01b0381168114610214575f5ffd5b5f5f60408385031215610a18575f5ffd5b823591506020830135610a2a816109f3565b809150509250929050565b602081525f82518060208401528060208501604085015e5f604082850101526040601f19601f83011684010191505092915050565b69ffffffffffffffffffff81168114610214575f5ffd5b5f60208284031215610a91575f5ffd5b8135610a9c81610a6a565b9392505050565b5f60208284031215610ab3575f5ffd5b8135610a9c816109f3565b8015158114610214575f5ffd5b5f60208284031215610adb575f5ffd5b8135610a9c81610abe565b604051610140810167ffffffffffffffff81118282101715610b1657634e487b7160e01b5f52604160045260245ffd5b60405290565b8051610b27816109f3565b919050565b8051610b2781610abe565b5f610140828403128015610b49575f5ffd5b50610b52610ae6565b610b5b83610b1c565b8152610b6960208401610b1c565b602082015260408381015190820152606080840151908201526080808401519082015260a08084015190820152610ba260c08401610b1c565b60c0820152610bb360e08401610b1c565b60e0820152610bc56101008401610b2c565b610100820152610bd86101208401610b2c565b6101208201529392505050565b634e487b7160e01b5f52601160045260245ffd5b6001815b6001841115610c3457808504811115610c1857610c18610be5565b6001841615610c2657908102905b60019390931c928002610bfd565b935093915050565b5f82610c4a57506001610422565b81610c5657505f610422565b8160018114610c6c5760028114610c7657610c92565b6001915050610422565b60ff841115610c8757610c87610be5565b50506001821b610422565b5060208310610133831016604e8410600b8410161715610cb5575081810a610422565b610cc15f198484610bf9565b805f1904821115610cd457610cd4610be5565b029392505050565b5f610a9c8383610c3c565b5f5f5f5f5f60a08688031215610cfb575f5ffd5b8551610d0681610a6a565b60208701516040880151606089015160808a015193985091965094509250610d2d81610a6a565b809150509295509295909350565b634e487b7160e01b5f52601260045260245ffd5b808202811582820484141761042257610422610be5565b5f82610d8057634e487b7160e01b5f52601260045260245ffd5b500490565b5f60208284031215610d95575f5ffd5b815160ff81168114610a9c575f5ffd5b5f82518060208501845e5f92019182525091905056fea264697066735822122037414fd370323ac2cb9993dc227888bae5cc720bae254242abdb8cfcd855ae3864736f6c634300081c0033",
  "language": "Solidity",
  "compiler": "0.8.28+commit.7893614a"
}