{
  "address": "0x228A8688C0d8Fd6D4834c33664E5Fa775C91d11c",
  "abi": [
    {
      "type": "function",
      "name": "createERC4626Oracle",
      "inputs": [
        {
          "name": "_vault",
          "type": "address",
          "internalType": "contract IERC4626"
        },
        {
          "name": "_quoteToken",
          "type": "address",
          "internalType": "address"
        },
        {
          "name": "_externalSalt",
          "type": "bytes32",
          "internalType": "bytes32"
        }
      ],
      "outputs": [
        {
          "name": "oracle",
          "type": "address",
          "internalType": "contract ISiloOracle"
        }
      ],
      "stateMutability": "nonpayable"
    },
    {
      "type": "function",
      "name": "createdInFactory",
      "inputs": [
        {
          "name": "",
          "type": "address",
          "internalType": "address"
        }
      ],
      "outputs": [
        {
          "name": "",
          "type": "bool",
          "internalType": "bool"
        }
      ],
      "stateMutability": "view"
    },
    {
      "type": "function",
      "name": "nonces",
      "inputs": [
        {
          "name": "owner",
          "type": "address",
          "internalType": "address"
        }
      ],
      "outputs": [
        {
          "name": "",
          "type": "uint256",
          "internalType": "uint256"
        }
      ],
      "stateMutability": "view"
    },
    {
      "type": "event",
      "name": "ERC4626OracleCreated",
      "inputs": [
        {
          "name": "oracle",
          "type": "address",
          "indexed": true,
          "internalType": "contract ISiloOracle"
        }
      ],
      "anonymous": false
    },
    {
      "type": "error",
      "name": "InvalidAccountNonce",
      "inputs": [
        {
          "name": "account",
          "type": "address",
          "internalType": "address"
        },
        {
          "name": "currentNonce",
          "type": "uint256",
          "internalType": "uint256"
        }
      ]
    }
  ],
  "bytecode": "0x6080604052348015600e575f5ffd5b50610a998061001c5f395ff3fe608060405234801561000f575f5ffd5b506004361061003f575f3560e01c80637ecebe0014610043578063b32d705b1461007e578063d803f579146100b0575b5f5ffd5b61006b6100513660046101f2565b6001600160a01b03165f9081526020819052604090205490565b6040519081526020015b60405180910390f35b6100a061008c3660046101f2565b60016020525f908152604090205460ff1681565b6040519015158152602001610075565b6100c36100be366004610214565b6100db565b6040516001600160a01b039091168152602001610075565b335f81815260208181526040808320805460018101909155815160609590951b6bffffffffffffffffffffffff19168584015260348501526054808501869052815180860390910181526074909401905282519201919091208484604051610142906101ce565b6001600160a01b039283168152911660208201526040018190604051809103905ff5905080158015610176573d5f5f3e3d5ffd5b506001600160a01b0381165f818152600160208190526040808320805460ff19169092179091555192935090917f6d86f9fc5b1bde243720a4aa74177ac89431d9fa2331e29ff3bf8ebe23fcec7f9190a29392505050565b6108118061025383390190565b6001600160a01b03811681146101ef575f5ffd5b50565b5f60208284031215610202575f5ffd5b813561020d816101db565b9392505050565b5f5f5f60608486031215610226575f5ffd5b8335610231816101db565b92506020840135610241816101db565b92959294505050604091909101359056fe60c060405234801561000f575f5ffd5b5060405161081138038061081183398101604081905261002e9161005c565b6001600160a01b039182166080521660a052610094565b6001600160a01b0381168114610059575f5ffd5b50565b5f5f6040838503121561006d575f5ffd5b825161007881610045565b602084015190925061008981610045565b809150509250929050565b60805160a0516107416100d05f395f60d201525f818161011e015281816101cb01528181610246015281816102ac015261034c01526107415ff3fe608060405234801561000f575f5ffd5b50600436106100a6575f3560e01c80637284e4161161006e5780637284e416146101475780639a6fc8f514610177578063c55dae63146101c9578063f9fa619a146101ef578063feaf968c14610202578063ffa1ad741461020a575f5ffd5b806313b0be33146100aa578063217a4b70146100d0578063313ce5671461010a578063411557d11461011957806354fd4d5014610140575b5f5ffd5b6100bd6100b8366004610514565b610243565b6040519081526020015b60405180910390f35b7f00000000000000000000000000000000000000000000000000000000000000005b6040516001600160a01b0390911681526020016100c7565b604051601281526020016100c7565b6100f27f000000000000000000000000000000000000000000000000000000000000000081565b60016100bd565b60408051808201909152600b81526a53696c6f204f7261636c6560a81b60208201525b6040516100c7919061053e565b610192610185366004610573565b505f908190819081908190565b6040805169ffffffffffffffffffff968716815260208101959095528401929092526060830152909116608082015260a0016100c7565b7f00000000000000000000000000000000000000000000000000000000000000006100f2565b6102006101fd3660046105a3565b50565b005b610192610345565b6040805180820190915260208082527f455243343632364f7261636c6548617264636f646551756f746520342e302e309082015261016a565b5f7f00000000000000000000000000000000000000000000000000000000000000006001600160a01b0316826001600160a01b0316146102965760405163981a2a2b60e01b815260040160405180910390fd5b6040516303d1689d60e11b8152600481018490527f00000000000000000000000000000000000000000000000000000000000000006001600160a01b0316906307a2d13a90602401602060405180830381865afa1580156102f9573d5f5f3e3d5ffd5b505050506040513d601f19601f8201168201806040525081019061031d91906105bc565b9050805f0361033f57604051634dfba02360e01b815260040160405180910390fd5b92915050565b5f808080807f000000000000000000000000000000000000000000000000000000000000000081610375826103a4565b905061039361038e61038883600a6106ca565b84610243565b61040f565b96974296508695505f945092505050565b6040805160048152602481019091526020810180516001600160e01b031663313ce56760e01b1790525f90819081906103de908590610443565b91509150816103f057505f9392505050565b8080602001905181019061040491906106d5565b60ff16949350505050565b5f6001600160ff1b0382111561043f5760405163123baf0360e11b81526004810183905260240160405180910390fd5b5090565b5f60606001600160a01b0384163b61046e576040516373d39f9d60e01b815260040160405180910390fd5b5f5f856001600160a01b03168560405161048891906106f5565b5f60405180830381855afa9150503d805f81146104c0576040519150601f19603f3d011682016040523d82523d5f602084013e6104c5565b606091505b5091509150816104ea575f60405180602001604052805f8152509350935050506104f2565b600193509150505b9250929050565b80356001600160a01b038116811461050f575f5ffd5b919050565b5f5f60408385031215610525575f5ffd5b82359150610535602084016104f9565b90509250929050565b602081525f82518060208401528060208501604085015e5f604082850101526040601f19601f83011684010191505092915050565b5f60208284031215610583575f5ffd5b813569ffffffffffffffffffff8116811461059c575f5ffd5b9392505050565b5f602082840312156105b3575f5ffd5b61059c826104f9565b5f602082840312156105cc575f5ffd5b5051919050565b634e487b7160e01b5f52601160045260245ffd5b6001815b600184111561062257808504811115610606576106066105d3565b600184161561061457908102905b60019390931c9280026105eb565b935093915050565b5f826106385750600161033f565b8161064457505f61033f565b816001811461065a576002811461066457610680565b600191505061033f565b60ff841115610675576106756105d3565b50506001821b61033f565b5060208310610133831016604e8410600b84101617156106a3575081810a61033f565b6106af5f1984846105e7565b805f19048211156106c2576106c26105d3565b029392505050565b5f61059c838361062a565b5f602082840312156106e5575f5ffd5b815160ff8116811461059c575f5ffd5b5f82518060208501845e5f92019182525091905056fea2646970667358221220c6187b3efaa19e549a6e2e2539de97aebafcfb95d481295cf0d6be9fb407097a64736f6c634300081c0033a26469706673582212204ff6cb57cba3a3a30f3000272cfd8d1f74aaf86e2278d30f8e701205c5f9ef1c64736f6c634300081c0033",
  "language": "Solidity",
  "compiler": "0.8.28+commit.7893614a"
}