{
  "address": "0xf2d6030D269Ebd8Dc406BB95aBC26Aa9A68cBCff",
  "abi": [
    {
      "type": "function",
      "name": "VERSION",
      "inputs": [],
      "outputs": [
        {
          "name": "",
          "type": "string",
          "internalType": "string"
        }
      ],
      "stateMutability": "view"
    },
    {
      "type": "function",
      "name": "borrowShare",
      "inputs": [
        {
          "name": "_silo",
          "type": "address",
          "internalType": "contract ISilo"
        },
        {
          "name": "_borrower",
          "type": "address",
          "internalType": "address"
        }
      ],
      "outputs": [
        {
          "name": "",
          "type": "uint256",
          "internalType": "uint256"
        }
      ],
      "stateMutability": "view"
    },
    {
      "type": "function",
      "name": "calculateBorrowValue",
      "inputs": [
        {
          "name": "_siloConfig",
          "type": "address",
          "internalType": "contract ISiloConfig"
        },
        {
          "name": "_borrower",
          "type": "address",
          "internalType": "address"
        }
      ],
      "outputs": [
        {
          "name": "borrowValue",
          "type": "uint256",
          "internalType": "uint256"
        }
      ],
      "stateMutability": "view"
    },
    {
      "type": "function",
      "name": "calculateCollateralValue",
      "inputs": [
        {
          "name": "_siloConfig",
          "type": "address",
          "internalType": "contract ISiloConfig"
        },
        {
          "name": "_borrower",
          "type": "address",
          "internalType": "address"
        }
      ],
      "outputs": [
        {
          "name": "collateralValue",
          "type": "uint256",
          "internalType": "uint256"
        }
      ],
      "stateMutability": "view"
    },
    {
      "type": "function",
      "name": "calculateProfitableLiquidation",
      "inputs": [
        {
          "name": "_silo",
          "type": "address",
          "internalType": "contract ISilo"
        },
        {
          "name": "_borrower",
          "type": "address",
          "internalType": "address"
        }
      ],
      "outputs": [
        {
          "name": "collateralToLiquidate",
          "type": "uint256",
          "internalType": "uint256"
        },
        {
          "name": "debtToCover",
          "type": "uint256",
          "internalType": "uint256"
        }
      ],
      "stateMutability": "view"
    },
    {
      "type": "function",
      "name": "collateralBalanceOfUnderlying",
      "inputs": [
        {
          "name": "_silo",
          "type": "address",
          "internalType": "contract ISilo"
        },
        {
          "name": "_borrower",
          "type": "address",
          "internalType": "address"
        }
      ],
      "outputs": [
        {
          "name": "borrowerCollateral",
          "type": "uint256",
          "internalType": "uint256"
        }
      ],
      "stateMutability": "view"
    },
    {
      "type": "function",
      "name": "collateralOnlyDeposits",
      "inputs": [
        {
          "name": "_silo",
          "type": "address",
          "internalType": "contract ISilo"
        }
      ],
      "outputs": [
        {
          "name": "",
          "type": "uint256",
          "internalType": "uint256"
        }
      ],
      "stateMutability": "view"
    },
    {
      "type": "function",
      "name": "debtBalanceOfUnderlying",
      "inputs": [
        {
          "name": "_silo",
          "type": "address",
          "internalType": "contract ISilo"
        },
        {
          "name": "_borrower",
          "type": "address",
          "internalType": "address"
        }
      ],
      "outputs": [
        {
          "name": "",
          "type": "uint256",
          "internalType": "uint256"
        }
      ],
      "stateMutability": "view"
    },
    {
      "type": "function",
      "name": "getAPRs",
      "inputs": [
        {
          "name": "_silos",
          "type": "address[]",
          "internalType": "contract ISilo[]"
        }
      ],
      "outputs": [
        {
          "name": "aprs",
          "type": "tuple[]",
          "internalType": "struct ISiloLens.APR[]",
          "components": [
            {
              "name": "depositAPR",
              "type": "uint256",
              "internalType": "uint256"
            },
            {
              "name": "borrowAPR",
              "type": "uint256",
              "internalType": "uint256"
            }
          ]
        }
      ],
      "stateMutability": "view"
    },
    {
      "type": "function",
      "name": "getBorrowAPR",
      "inputs": [
        {
          "name": "_silo",
          "type": "address",
          "internalType": "contract ISilo"
        }
      ],
      "outputs": [
        {
          "name": "borrowAPR",
          "type": "uint256",
          "internalType": "uint256"
        }
      ],
      "stateMutability": "view"
    },
    {
      "type": "function",
      "name": "getBorrowAmount",
      "inputs": [
        {
          "name": "_silo",
          "type": "address",
          "internalType": "contract ISilo"
        },
        {
          "name": "_borrower",
          "type": "address",
          "internalType": "address"
        }
      ],
      "outputs": [
        {
          "name": "maxRepay",
          "type": "uint256",
          "internalType": "uint256"
        }
      ],
      "stateMutability": "view"
    },
    {
      "type": "function",
      "name": "getDepositAPR",
      "inputs": [
        {
          "name": "_silo",
          "type": "address",
          "internalType": "contract ISilo"
        }
      ],
      "outputs": [
        {
          "name": "depositAPR",
          "type": "uint256",
          "internalType": "uint256"
        }
      ],
      "stateMutability": "view"
    },
    {
      "type": "function",
      "name": "getDepositAmount",
      "inputs": [
        {
          "name": "_silo",
          "type": "address",
          "internalType": "contract ISilo"
        },
        {
          "name": "_borrower",
          "type": "address",
          "internalType": "address"
        }
      ],
      "outputs": [
        {
          "name": "borrowerDeposits",
          "type": "uint256",
          "internalType": "uint256"
        }
      ],
      "stateMutability": "view"
    },
    {
      "type": "function",
      "name": "getFeesAndFeeReceivers",
      "inputs": [
        {
          "name": "_silo",
          "type": "address",
          "internalType": "contract ISilo"
        }
      ],
      "outputs": [
        {
          "name": "daoFeeReceiver",
          "type": "address",
          "internalType": "address"
        },
        {
          "name": "deployerFeeReceiver",
          "type": "address",
          "internalType": "address"
        },
        {
          "name": "daoFee",
          "type": "uint256",
          "internalType": "uint256"
        },
        {
          "name": "deployerFee",
          "type": "uint256",
          "internalType": "uint256"
        }
      ],
      "stateMutability": "view"
    },
    {
      "type": "function",
      "name": "getInterestRateModel",
      "inputs": [
        {
          "name": "_silo",
          "type": "address",
          "internalType": "contract ISilo"
        }
      ],
      "outputs": [
        {
          "name": "irm",
          "type": "address",
          "internalType": "address"
        }
      ],
      "stateMutability": "view"
    },
    {
      "type": "function",
      "name": "getLt",
      "inputs": [
        {
          "name": "_silo",
          "type": "address",
          "internalType": "contract ISilo"
        }
      ],
      "outputs": [
        {
          "name": "lt",
          "type": "uint256",
          "internalType": "uint256"
        }
      ],
      "stateMutability": "view"
    },
    {
      "type": "function",
      "name": "getLtv",
      "inputs": [
        {
          "name": "_silo",
          "type": "address",
          "internalType": "contract ISilo"
        },
        {
          "name": "_borrower",
          "type": "address",
          "internalType": "address"
        }
      ],
      "outputs": [
        {
          "name": "ltv",
          "type": "uint256",
          "internalType": "uint256"
        }
      ],
      "stateMutability": "view"
    },
    {
      "type": "function",
      "name": "getMaxLtv",
      "inputs": [
        {
          "name": "_silo",
          "type": "address",
          "internalType": "contract ISilo"
        }
      ],
      "outputs": [
        {
          "name": "maxLtv",
          "type": "uint256",
          "internalType": "uint256"
        }
      ],
      "stateMutability": "view"
    },
    {
      "type": "function",
      "name": "getModel",
      "inputs": [
        {
          "name": "_silo",
          "type": "address",
          "internalType": "contract ISilo"
        }
      ],
      "outputs": [
        {
          "name": "irm",
          "type": "address",
          "internalType": "contract IInterestRateModel"
        }
      ],
      "stateMutability": "view"
    },
    {
      "type": "function",
      "name": "getOracleAddresses",
      "inputs": [
        {
          "name": "_silo",
          "type": "address",
          "internalType": "contract ISilo"
        }
      ],
      "outputs": [
        {
          "name": "solvencyOracle",
          "type": "address",
          "internalType": "address"
        },
        {
          "name": "maxLtvOracle",
          "type": "address",
          "internalType": "address"
        }
      ],
      "stateMutability": "view"
    },
    {
      "type": "function",
      "name": "getRawLiquidity",
      "inputs": [
        {
          "name": "_silo",
          "type": "address",
          "internalType": "contract ISilo"
        }
      ],
      "outputs": [
        {
          "name": "rawLiquidity",
          "type": "uint256",
          "internalType": "uint256"
        }
      ],
      "stateMutability": "view"
    },
    {
      "type": "function",
      "name": "getSiloIncentivesControllerProgramsNames",
      "inputs": [
        {
          "name": "_siloIncentivesController",
          "type": "address",
          "internalType": "address"
        }
      ],
      "outputs": [
        {
          "name": "programsNames",
          "type": "string[]",
          "internalType": "string[]"
        }
      ],
      "stateMutability": "view"
    },
    {
      "type": "function",
      "name": "getUserLT",
      "inputs": [
        {
          "name": "_silo",
          "type": "address",
          "internalType": "contract ISilo"
        },
        {
          "name": "_borrower",
          "type": "address",
          "internalType": "address"
        }
      ],
      "outputs": [
        {
          "name": "userLT",
          "type": "uint256",
          "internalType": "uint256"
        }
      ],
      "stateMutability": "view"
    },
    {
      "type": "function",
      "name": "getUserLTV",
      "inputs": [
        {
          "name": "_silo",
          "type": "address",
          "internalType": "contract ISilo"
        },
        {
          "name": "_borrower",
          "type": "address",
          "internalType": "address"
        }
      ],
      "outputs": [
        {
          "name": "userLTV",
          "type": "uint256",
          "internalType": "uint256"
        }
      ],
      "stateMutability": "view"
    },
    {
      "type": "function",
      "name": "getUsersHealth",
      "inputs": [
        {
          "name": "_borrowers",
          "type": "tuple[]",
          "internalType": "struct ISiloLens.Borrower[]",
          "components": [
            {
              "name": "silo",
              "type": "address",
              "internalType": "contract ISilo"
            },
            {
              "name": "wallet",
              "type": "address",
              "internalType": "address"
            }
          ]
        }
      ],
      "outputs": [
        {
          "name": "healths",
          "type": "tuple[]",
          "internalType": "struct ISiloLens.BorrowerHealth[]",
          "components": [
            {
              "name": "lt",
              "type": "uint256",
              "internalType": "uint256"
            },
            {
              "name": "ltv",
              "type": "uint256",
              "internalType": "uint256"
            }
          ]
        }
      ],
      "stateMutability": "view"
    },
    {
      "type": "function",
      "name": "getUsersLT",
      "inputs": [
        {
          "name": "_borrowers",
          "type": "tuple[]",
          "internalType": "struct ISiloLens.Borrower[]",
          "components": [
            {
              "name": "silo",
              "type": "address",
              "internalType": "contract ISilo"
            },
            {
              "name": "wallet",
              "type": "address",
              "internalType": "address"
            }
          ]
        }
      ],
      "outputs": [
        {
          "name": "usersLTs",
          "type": "uint256[]",
          "internalType": "uint256[]"
        }
      ],
      "stateMutability": "view"
    },
    {
      "type": "function",
      "name": "getUtilization",
      "inputs": [
        {
          "name": "_silo",
          "type": "address",
          "internalType": "contract ISilo"
        }
      ],
      "outputs": [
        {
          "name": "utilization",
          "type": "uint256",
          "internalType": "uint256"
        }
      ],
      "stateMutability": "view"
    },
    {
      "type": "function",
      "name": "getVersion",
      "inputs": [
        {
          "name": "_contract",
          "type": "address",
          "internalType": "address"
        }
      ],
      "outputs": [
        {
          "name": "version",
          "type": "string",
          "internalType": "string"
        }
      ],
      "stateMutability": "view"
    },
    {
      "type": "function",
      "name": "hasPosition",
      "inputs": [
        {
          "name": "_siloConfig",
          "type": "address",
          "internalType": "contract ISiloConfig"
        },
        {
          "name": "_borrower",
          "type": "address",
          "internalType": "address"
        }
      ],
      "outputs": [
        {
          "name": "has",
          "type": "bool",
          "internalType": "bool"
        }
      ],
      "stateMutability": "view"
    },
    {
      "type": "function",
      "name": "inDebt",
      "inputs": [
        {
          "name": "_siloConfig",
          "type": "address",
          "internalType": "contract ISiloConfig"
        },
        {
          "name": "_borrower",
          "type": "address",
          "internalType": "address"
        }
      ],
      "outputs": [
        {
          "name": "hasDebt",
          "type": "bool",
          "internalType": "bool"
        }
      ],
      "stateMutability": "view"
    },
    {
      "type": "function",
      "name": "isSolvent",
      "inputs": [
        {
          "name": "_silo",
          "type": "address",
          "internalType": "contract ISilo"
        },
        {
          "name": "_borrower",
          "type": "address",
          "internalType": "address"
        }
      ],
      "outputs": [
        {
          "name": "",
          "type": "bool",
          "internalType": "bool"
        }
      ],
      "stateMutability": "view"
    },
    {
      "type": "function",
      "name": "liquidity",
      "inputs": [
        {
          "name": "_silo",
          "type": "address",
          "internalType": "contract ISilo"
        }
      ],
      "outputs": [
        {
          "name": "",
          "type": "uint256",
          "internalType": "uint256"
        }
      ],
      "stateMutability": "view"
    },
    {
      "type": "function",
      "name": "maxLiquidation",
      "inputs": [
        {
          "name": "_silo",
          "type": "address",
          "internalType": "contract ISilo"
        },
        {
          "name": "_hook",
          "type": "address",
          "internalType": "contract IPartialLiquidation"
        },
        {
          "name": "_borrower",
          "type": "address",
          "internalType": "address"
        }
      ],
      "outputs": [
        {
          "name": "collateralToLiquidate",
          "type": "uint256",
          "internalType": "uint256"
        },
        {
          "name": "debtToRepay",
          "type": "uint256",
          "internalType": "uint256"
        },
        {
          "name": "sTokenRequired",
          "type": "bool",
          "internalType": "bool"
        },
        {
          "name": "fullLiquidation",
          "type": "bool",
          "internalType": "bool"
        }
      ],
      "stateMutability": "view"
    },
    {
      "type": "function",
      "name": "protocolFees",
      "inputs": [
        {
          "name": "_silo",
          "type": "address",
          "internalType": "contract ISilo"
        }
      ],
      "outputs": [
        {
          "name": "daoAndDeployerRevenue",
          "type": "uint256",
          "internalType": "uint256"
        }
      ],
      "stateMutability": "view"
    },
    {
      "type": "function",
      "name": "totalBorrowAmount",
      "inputs": [
        {
          "name": "_silo",
          "type": "address",
          "internalType": "contract ISilo"
        }
      ],
      "outputs": [
        {
          "name": "",
          "type": "uint256",
          "internalType": "uint256"
        }
      ],
      "stateMutability": "view"
    },
    {
      "type": "function",
      "name": "totalBorrowAmountWithInterest",
      "inputs": [
        {
          "name": "_silo",
          "type": "address",
          "internalType": "contract ISilo"
        }
      ],
      "outputs": [
        {
          "name": "amount",
          "type": "uint256",
          "internalType": "uint256"
        }
      ],
      "stateMutability": "view"
    },
    {
      "type": "function",
      "name": "totalBorrowShare",
      "inputs": [
        {
          "name": "_silo",
          "type": "address",
          "internalType": "contract ISilo"
        }
      ],
      "outputs": [
        {
          "name": "",
          "type": "uint256",
          "internalType": "uint256"
        }
      ],
      "stateMutability": "view"
    },
    {
      "type": "function",
      "name": "totalDeposits",
      "inputs": [
        {
          "name": "_silo",
          "type": "address",
          "internalType": "contract ISilo"
        }
      ],
      "outputs": [
        {
          "name": "totalDepositsAmount",
          "type": "uint256",
          "internalType": "uint256"
        }
      ],
      "stateMutability": "view"
    },
    {
      "type": "function",
      "name": "totalDepositsWithInterest",
      "inputs": [
        {
          "name": "_silo",
          "type": "address",
          "internalType": "contract ISilo"
        }
      ],
      "outputs": [
        {
          "name": "amount",
          "type": "uint256",
          "internalType": "uint256"
        }
      ],
      "stateMutability": "view"
    },
    {
      "type": "error",
      "name": "InvalidAsset",
      "inputs": []
    },
    {
      "type": "error",
      "name": "StringsInsufficientHexLength",
      "inputs": [
        {
          "name": "value",
          "type": "uint256",
          "internalType": "uint256"
        },
        {
          "name": "length",
          "type": "uint256",
          "internalType": "uint256"
        }
      ]
    }
  ],
  "bytecode": "0x6080604052348015600e575f5ffd5b506145c18061001c5f395ff3fe608060405234801561000f575f5ffd5b5060043610610233575f3560e01c80638ec109da11610135578063dcf844a7116100b4578063f2a07bc911610079578063f2a07bc9146105ae578063f45b1b3a146105c1578063f5125d3f1461031d578063fdce8643146105d4578063ffa1ad74146105e7575f5ffd5b8063dcf844a71461053a578063dd718ab41461054d578063e218721814610560578063e40aaf7814610573578063e94032561461059b575f5ffd5b8063b1ff4d6c116100fa578063b1ff4d6c146104c1578063b8c876b1146104d4578063bac2aba6146104e7578063c3f82bc31461051a578063d9bd0ea21461030a575f5ffd5b80638ec109da146104205780639848b19c146104335780639bbafd5314610453578063aab2353a14610466578063b1696c6e146104a1575f5ffd5b8063480defa9116101c1578063647e0c2011610186578063647e0c20146103c15780636c15c9ba146103d457806374cd15f3146103e7578063868682cb146103fa5780638705c3591461040d575f5ffd5b8063480defa9146103305780634f6a57b61461035057806354a0577114610363578063590630f01461038e5780635d1e7c2f146103a1575f5ffd5b806324bc00b01161020757806324bc00b0146102c157806336e49658146102e457806337febff4146102f757806338bad5e51461030a57806343afdad21461031d575f5ffd5b8062e0f7a01461023757806306b39a771461025d5780631fe0226914610270578063249a649614610283575b5f5ffd5b61024a610245366004613a74565b610614565b6040519081526020015b60405180910390f35b61024a61026b366004613a74565b610624565b61024a61027e366004613a8f565b610685565b610296610291366004613a74565b610697565b604080516001600160a01b039586168152949093166020850152918301526060820152608001610254565b6102d46102cf366004613a8f565b6106b4565b6040519015158152602001610254565b61024a6102f2366004613a74565b6106bf565b61024a610305366004613a74565b610709565b61024a610318366004613a8f565b610713565b61024a61032b366004613a8f565b61077f565b61034361033e366004613ac6565b61078a565b6040516102549190613b35565b61024a61035e366004613a74565b610866565b610376610371366004613a74565b610870565b6040516001600160a01b039091168152602001610254565b6102d461039c366004613a8f565b61087a565b6103b46103af366004613b8c565b6108e5565b6040516102549190613beb565b61024a6103cf366004613a74565b6109c5565b61024a6103e2366004613a8f565b6109cf565b61024a6103f5366004613a74565b6109da565b61024a610408366004613a8f565b610a17565b6102d461041b366004613a8f565b610a77565b61024a61042e366004613a8f565b610a82565b610446610441366004613ac6565b610a95565b6040516102549190613c37565b61024a610461366004613a74565b610b47565b610479610474366004613c6e565b610b75565b6040805194855260208501939093529015159183019190915215156060820152608001610254565b6104b46104af366004613a74565b610ec8565b6040516102549190613ce4565b61024a6104cf366004613a74565b61103c565b61024a6104e2366004613a74565b611046565b6104fa6104f5366004613a74565b611083565b604080516001600160a01b03938416815292909116602083015201610254565b61052d610528366004613a74565b611168565b6040516102549190613d47565b61024a610548366004613a74565b61122d565b61024a61055b366004613a8f565b6112a3565b61037661056e366004613a74565b6112b6565b610586610581366004613a8f565b61138d565b60408051928352602083019190915201610254565b61024a6105a9366004613a74565b6113a4565b61024a6105bc366004613a74565b6113d3565b61024a6105cf366004613a8f565b6113dd565b61024a6105e2366004613a74565b61146e565b61052d6040518060400160405280600e81526020016d053696c6f4c656e7320342e302e360941b81525081565b5f61061e82611507565b92915050565b5f816001600160a01b03166301e1d1146040518163ffffffff1660e01b8152600401602060405180830381865afa158015610661573d5f5f3e3d5ffd5b505050506040513d601f19601f8201168201806040525081019061061e9190613d59565b5f610690838361164b565b9392505050565b5f5f5f5f6106a485611742565b5092989197509550909350915050565b5f61069083836118f6565b60405163b6d821c760e01b81525f906001600160a01b0383169063b6d821c7906106ee90600290600401613d98565b602060405180830381865afa158015610661573d5f5f3e3d5ffd5b5f61061e82611d45565b604051635f30114960e01b81526001600160a01b0382811660048301525f9190841690635f301149906024015b602060405180830381865afa15801561075b573d5f5f3e3d5ffd5b505050506040513d601f19601f820116820180604052508101906106909190613d59565b5f6106908383611e1c565b6060816001600160401b038111156107a4576107a4613da6565b6040519080825280602002602001820160405280156107e857816020015b604080518082019091525f80825260208201528152602001906001900390816107c25790505b5090505f5b8281101561085f575f84848381811061080857610808613dba565b90506040020180360381019061081e9190613e27565b90505f83838151811061083357610833613dba565b6020026020010151905061084e825f01518360200151611f97565b8252602090910152506001016107ed565b5092915050565b5f61061e826120da565b5f61061e826112b6565b6040516338b51ce160e01b81526001600160a01b0382811660048301525f91908416906338b51ce190602401602060405180830381865afa1580156108c1573d5f5f3e3d5ffd5b505050506040513d601f19601f820116820180604052508101906106909190613e94565b6060816001600160401b038111156108ff576108ff613da6565b60405190808252806020026020018201604052801561094357816020015b604080518082019091525f808252602082015281526020019060019003908161091d5790505b5090505f5b8281101561085f575f84848381811061096357610963613dba565b90506020020160208101906109789190613a74565b9050604051806040016040528061098e836120da565b815260200161099c83611507565b8152508383815181106109b1576109b1613dba565b602090810291909101015250600101610948565b5f61061e826122d5565b5f61069083836123ac565b5f816001600160a01b031663ecd658b46040518163ffffffff1660e01b8152600401602060405180830381865afa158015610661573d5f5f3e3d5ffd5b60405163c99ee7b760e01b81526001600160a01b038084166004830152821660248201525f9073__$89d37a64e3ccc21ed0741d2ae8390c2e12$__9063c99ee7b790604401602060405180830381865af415801561075b573d5f5f3e3d5ffd5b5f610690838361265a565b5f610a8d838361275a565b949350505050565b6060816001600160401b03811115610aaf57610aaf613da6565b604051908082528060200260200182016040528015610ad8578160200160208202803683370190505b5090505f5b8281101561085f575f848483818110610af857610af8613dba565b905060400201803603810190610b0e9190613e27565b9050610b21815f0151826020015161164b565b838381518110610b3357610b33613dba565b602090810291909101015250600101610add565b60405163b6d821c760e01b81525f906001600160a01b0383169063b6d821c7906106ee908490600401613d98565b6040516317a05b0960e31b81526001600160a01b0382811660048301525f9182918291829187169063bd02d84890602401606060405180830381865afa158015610bc1573d5f5f3e3d5ffd5b505050506040513d601f19601f82011682018060405250810190610be59190613ead565b604051635f30114960e01b81526001600160a01b03898116600483015293975091955093505f91891690635f30114990602401602060405180830381865afa158015610c33573d5f5f3e3d5ffd5b505050506040513d601f19601f82011682018060405250810190610c579190613d59565b9050838114915082610c695750610ebf565b5f886001600160a01b03166379502c556040518163ffffffff1660e01b8152600401602060405180830381865afa158015610ca6573d5f5f3e3d5ffd5b505050506040513d601f19601f82011682018060405250810190610cca9190613ee0565b6040516394c0527d60e01b81526001600160a01b0389811660048301529192505f918316906394c0527d9060240161044060405180830381865afa158015610d14573d5f5f3e3d5ffd5b505050506040513d601f19601f82011682018060405250810190610d38919061401e565b5060808101516040516370a0823160e01b81526001600160a01b038b811660048301529293505f92909116906370a0823190602401602060405180830381865afa158015610d88573d5f5f3e3d5ffd5b505050506040513d601f19601f82011682018060405250810190610dac9190613d59565b9050805f03610dbe5750505050610ebf565b5f82604001516001600160a01b0316637ff00077835f6040518363ffffffff1660e01b8152600401610df1929190614053565b602060405180830381865afa158015610e0c573d5f5f3e3d5ffd5b505050506040513d601f19601f82011682018060405250810190610e309190613d59565b9050805f03610e43575050505050610ebf565b5f83604001516001600160a01b0316630910a5106040518163ffffffff1660e01b8152600401602060405180830381865afa158015610e84573d5f5f3e3d5ffd5b505050506040513d601f19601f82011682018060405250810190610ea89190613d59565b905089610eb5838361407b565b1097505050505050505b93509350935093565b60605f8290505f816001600160a01b031663fb71aec56040518163ffffffff1660e01b81526004015f60405180830381865afa158015610f0a573d5f5f3e3d5ffd5b505050506040513d5f823e601f3d908101601f19168201604052610f3191908101906140f9565b905080516001600160401b03811115610f4c57610f4c613da6565b604051908082528060200260200182016040528015610f7f57816020015b6060815260200190600190039081610f6a5790505b5092505f5b8151811015611034575f828281518110610fa057610fa0613dba565b60200260200101519050610fb381612897565b15610ff3575f610fc2826141c2565b60601c9050610fd08161293e565b868481518110610fe257610fe2613dba565b60200260200101819052505061102b565b82828151811061100557611005613dba565b602002602001015185838151811061101f5761101f613dba565b60200260200101819052505b50600101610f84565b505050919050565b5f61061e82612954565b5f816001600160a01b0316630910a5106040518163ffffffff1660e01b8152600401602060405180830381865afa158015610661573d5f5f3e3d5ffd5b5f5f5f836001600160a01b03166379502c556040518163ffffffff1660e01b8152600401602060405180830381865afa1580156110c2573d5f5f3e3d5ffd5b505050506040513d601f19601f820116820180604052508101906110e69190613ee0565b60405163e48a5f7b60e01b81526001600160a01b038681166004830152919091169063e48a5f7b9060240161022060405180830381865afa15801561112d573d5f5f3e3d5ffd5b505050506040513d601f19601f820116820180604052508101906111519190614215565b90508060e001519250806101000151915050915091565b6060816001600160a01b03163b5f036111a557505060408051808201909152600e81526d139bdd08184818dbdb9d1c9858dd60921b602082015290565b816001600160a01b031663ffa1ad746040518163ffffffff1660e01b81526004015f60405180830381865afa92505050801561120257506040513d5f823e601f3d908101601f191682016040526111ff9190810190614230565b60015b61061e5750506040805180820190915260068152656c656761637960d01b602082015290565b919050565b5f816001600160a01b0316639d35abaf6040518163ffffffff1660e01b815260040160a060405180830381865afa15801561126a573d5f5f3e3d5ffd5b505050506040513d601f19601f8201168201806040525081019061128e9190614277565b50506001600160c01b03909216949350505050565b5f6112ae838361275a565b509392505050565b5f816001600160a01b03166379502c556040518163ffffffff1660e01b8152600401602060405180830381865afa1580156112f3573d5f5f3e3d5ffd5b505050506040513d601f19601f820116820180604052508101906113179190613ee0565b60405163e48a5f7b60e01b81526001600160a01b038481166004830152919091169063e48a5f7b9060240161022060405180830381865afa15801561135e573d5f5f3e3d5ffd5b505050506040513d601f19601f820116820180604052508101906113829190614215565b610120015192915050565b5f5f6113998484612a60565b909590945092505050565b60405163b6d821c760e01b81525f906001600160a01b0383169063b6d821c7906106ee90600190600401613d98565b5f61061e82612da6565b6040516370a0823160e01b81526001600160a01b0382811660048301525f9190841690634cdad5069082906370a0823190602401602060405180830381865afa15801561142c573d5f5f3e3d5ffd5b505050506040513d601f19601f820116820180604052508101906114509190613d59565b6040518263ffffffff1660e01b815260040161074091815260200190565b5f5f826001600160a01b0316639ef2fda06040518163ffffffff1660e01b8152600401606060405180830381865afa1580156114ac573d5f5f3e3d5ffd5b505050506040513d601f19601f820116820180604052508101906114d091906142ce565b80519091501561150157805160208201516114f490670de0b6b3a76400009061432c565b6114fe9190614357565b91505b50919050565b5f5f826001600160a01b03166379502c556040518163ffffffff1660e01b8152600401602060405180830381865afa158015611545573d5f5f3e3d5ffd5b505050506040513d601f19601f820116820180604052508101906115699190613ee0565b60405163e48a5f7b60e01b81526001600160a01b038581166004830152919091169063e48a5f7b9060240161022060405180830381865afa1580156115b0573d5f5f3e3d5ffd5b505050506040513d601f19601f820116820180604052508101906115d49190614215565b61012001516040516364efe17760e01b81526001600160a01b038581166004830152426024830152919250908216906364efe17790604401602060405180830381865afa158015611627573d5f5f3e3d5ffd5b505050506040513d601f19601f820116820180604052508101906114fe9190613d59565b5f5f5f846001600160a01b03166379502c556040518163ffffffff1660e01b8152600401602060405180830381865afa15801561168a573d5f5f3e3d5ffd5b505050506040513d601f19601f820116820180604052508101906116ae9190613ee0565b6040516394c0527d60e01b81526001600160a01b03868116600483015291909116906394c0527d9060240161044060405180830381865afa1580156116f5573d5f5f3e3d5ffd5b505050506040513d601f19601f82011682018060405250810190611719919061401e565b604081015191935091506001600160a01b03161561173a5781610160015192505b505092915050565b5f5f5f5f5f856001600160a01b03166379502c556040518163ffffffff1660e01b8152600401602060405180830381865afa158015611783573d5f5f3e3d5ffd5b505050506040513d601f19601f820116820180604052508101906117a79190613ee0565b604051630509af0560e51b81526001600160a01b038881166004830152919091169063a135e0a090602401608060405180830381865afa1580156117ed573d5f5f3e3d5ffd5b505050506040513d601f19601f82011682018060405250810190611811919061436a565b9050809350819450829550505050856001600160a01b031663c45a01556040518163ffffffff1660e01b8152600401602060405180830381865afa15801561185b573d5f5f3e3d5ffd5b505050506040513d601f19601f8201168201806040525081019061187f9190613ee0565b604051630c0d053960e11b81526001600160a01b038881166004830152919091169063181a0a72906024016040805180830381865afa1580156118c4573d5f5f3e3d5ffd5b505050506040513d601f19601f820116820180604052508101906118e891906143aa565b909790965092945090925090565b5f5f5f846001600160a01b031663aecc90cb6040518163ffffffff1660e01b81526004016040805180830381865afa158015611934573d5f5f3e3d5ffd5b505050506040513d601f19601f8201168201806040525081019061195891906143aa565b60405163e48a5f7b60e01b81526001600160a01b0380841660048301529294509092505f9187169063e48a5f7b9060240161022060405180830381865afa1580156119a5573d5f5f3e3d5ffd5b505050506040513d601f19601f820116820180604052508101906119c99190614215565b60405163e48a5f7b60e01b81526001600160a01b0384811660048301529192505f9188169063e48a5f7b9060240161022060405180830381865afa158015611a13573d5f5f3e3d5ffd5b505050506040513d601f19601f82011682018060405250810190611a379190614215565b60a08301516040516370a0823160e01b81526001600160a01b0389811660048301529293509116906370a0823190602401602060405180830381865afa158015611a83573d5f5f3e3d5ffd5b505050506040513d601f19601f82011682018060405250810190611aa79190613d59565b15611ab957600194505050505061061e565b60808201516040516370a0823160e01b81526001600160a01b038881166004830152909116906370a0823190602401602060405180830381865afa158015611b03573d5f5f3e3d5ffd5b505050506040513d601f19601f82011682018060405250810190611b279190613d59565b15611b3957600194505050505061061e565b60a08101516040516370a0823160e01b81526001600160a01b038881166004830152909116906370a0823190602401602060405180830381865afa158015611b83573d5f5f3e3d5ffd5b505050506040513d601f19601f82011682018060405250810190611ba79190613d59565b15611bb957600194505050505061061e565b60808101516040516370a0823160e01b81526001600160a01b038881166004830152909116906370a0823190602401602060405180830381865afa158015611c03573d5f5f3e3d5ffd5b505050506040513d601f19601f82011682018060405250810190611c279190613d59565b15611c3957600194505050505061061e565b60c08201516040516370a0823160e01b81526001600160a01b038881166004830152909116906370a0823190602401602060405180830381865afa158015611c83573d5f5f3e3d5ffd5b505050506040513d601f19601f82011682018060405250810190611ca79190613d59565b15611cb957600194505050505061061e565b60c08101516040516370a0823160e01b81526001600160a01b038881166004830152909116906370a0823190602401602060405180830381865afa158015611d03573d5f5f3e3d5ffd5b505050506040513d601f19601f82011682018060405250810190611d279190613d59565b15611d3957600194505050505061061e565b505f9695505050505050565b5f816001600160a01b03166379502c556040518163ffffffff1660e01b8152600401602060405180830381865afa158015611d82573d5f5f3e3d5ffd5b505050506040513d601f19601f82011682018060405250810190611da69190613ee0565b60405163e48a5f7b60e01b81526001600160a01b038481166004830152919091169063e48a5f7b9060240161022060405180830381865afa158015611ded573d5f5f3e3d5ffd5b505050506040513d601f19601f82011682018060405250810190611e119190614215565b610160015192915050565b5f5f5f846001600160a01b03166379502c556040518163ffffffff1660e01b8152600401602060405180830381865afa158015611e5b573d5f5f3e3d5ffd5b505050506040513d601f19601f82011682018060405250810190611e7f9190613ee0565b6040516394c0527d60e01b81526001600160a01b03868116600483015291909116906394c0527d9060240161044060405180830381865afa158015611ec6573d5f5f3e3d5ffd5b505050506040513d601f19601f82011682018060405250810190611eea919061401e565b604081015191935091506001600160a01b03161561173a57611f8e8282865f60018660c001516001600160a01b03166370a082318b6040518263ffffffff1660e01b8152600401611f4a91906001600160a01b0391909116815260200190565b602060405180830381865afa158015611f65573d5f5f3e3d5ffd5b505050506040513d601f19601f82011682018060405250810190611f899190613d59565b612e87565b95945050505050565b5f5f5f5f856001600160a01b03166379502c556040518163ffffffff1660e01b8152600401602060405180830381865afa158015611fd7573d5f5f3e3d5ffd5b505050506040513d601f19601f82011682018060405250810190611ffb9190613ee0565b6040516394c0527d60e01b81526001600160a01b03878116600483015291909116906394c0527d9060240161044060405180830381865afa158015612042573d5f5f3e3d5ffd5b505050506040513d601f19601f82011682018060405250810190612066919061401e565b604081015191935091506001600160a01b0316156120d1576120c68282875f60018660c001516001600160a01b03166370a082318c6040518263ffffffff1660e01b8152600401611f4a91906001600160a01b0391909116815260200190565b935081610160015192505b50509250929050565b5f5f826001600160a01b031663a1ff9bee6040518163ffffffff1660e01b8152600401602060405180830381865afa158015612118573d5f5f3e3d5ffd5b505050506040513d601f19601f8201168201806040525081019061213c9190613d59565b9050805f0361214d57505f92915050565b5f836001600160a01b03166379502c556040518163ffffffff1660e01b8152600401602060405180830381865afa15801561218a573d5f5f3e3d5ffd5b505050506040513d601f19601f820116820180604052508101906121ae9190613ee0565b60405163e48a5f7b60e01b81526001600160a01b038681166004830152919091169063e48a5f7b9060240161022060405180830381865afa1580156121f5573d5f5f3e3d5ffd5b505050506040513d601f19601f820116820180604052508101906122199190614215565b905081846001600160a01b031663ecd658b46040518163ffffffff1660e01b8152600401602060405180830381865afa158015612258573d5f5f3e3d5ffd5b505050506040513d601f19601f8201168201806040525081019061227c9190613d59565b61228586611507565b61228f919061432c565b6122999190614357565b60208201518251919450670de0b6b3a7640000916122b790836143d7565b6122c191906143d7565b6122cb908561432c565b610a8d9190614357565b5f816001600160a01b03166379502c556040518163ffffffff1660e01b8152600401602060405180830381865afa158015612312573d5f5f3e3d5ffd5b505050506040513d601f19601f820116820180604052508101906123369190613ee0565b60405163e48a5f7b60e01b81526001600160a01b038481166004830152919091169063e48a5f7b9060240161022060405180830381865afa15801561237d573d5f5f3e3d5ffd5b505050506040513d601f19601f820116820180604052508101906123a19190614215565b610140015192915050565b5f5f5f846001600160a01b03166379502c556040518163ffffffff1660e01b8152600401602060405180830381865afa1580156123eb573d5f5f3e3d5ffd5b505050506040513d601f19601f8201168201806040525081019061240f9190613ee0565b604051630483b24f60e41b81526001600160a01b038781166004830152919091169063483b24f090602401606060405180830381865afa158015612455573d5f5f3e3d5ffd5b505050506040513d601f19601f8201168201806040525081019061247991906143ea565b506040516370a0823160e01b81526001600160a01b0387811660048301529294509092505f918416906370a0823190602401602060405180830381865afa1580156124c6573d5f5f3e3d5ffd5b505050506040513d601f19601f820116820180604052508101906124ea9190613d59565b6040516370a0823160e01b81526001600160a01b0387811660048301529192505f918416906370a0823190602401602060405180830381865afa158015612533573d5f5f3e3d5ffd5b505050506040513d601f19601f820116820180604052508101906125579190613d59565b905081156125cf5760405163a7d6e44b60e01b81526001600160a01b0388169063a7d6e44b9061258d9085905f90600401614429565b602060405180830381865afa1580156125a8573d5f5f3e3d5ffd5b505050506040513d601f19601f820116820180604052508101906125cc9190613d59565b94505b80156126505760405163a7d6e44b60e01b81526001600160a01b0388169063a7d6e44b90612604908490600190600401614429565b602060405180830381865afa15801561261f573d5f5f3e3d5ffd5b505050506040513d601f19601f820116820180604052508101906126439190613d59565b61264d908661407b565b94505b5050505092915050565b6040516394c0527d60e01b81526001600160a01b0382811660048301525f9182918516906394c0527d9060240161044060405180830381865afa1580156126a3573d5f5f3e3d5ffd5b505050506040513d601f19601f820116820180604052508101906126c7919061401e565b60c08101519092506001600160a01b03161580159150610a8d575060c08101516040516370a0823160e01b81526001600160a01b038581166004830152909116906370a0823190602401602060405180830381865afa15801561272c573d5f5f3e3d5ffd5b505050506040513d601f19601f820116820180604052508101906127509190613d59565b1515949350505050565b6040516394c0527d60e01b81526001600160a01b0382811660048301525f918291829182918716906394c0527d9060240161044060405180830381865afa1580156127a7573d5f5f3e3d5ffd5b505050506040513d601f19601f820116820180604052508101906127cb919061401e565b606082015191935091506001600160a01b03166127ef575f5f935093505050612890565b60c08101516040516370a0823160e01b81526001600160a01b0380881660048301525f9261287192869286928b92879260019216906370a0823190602401602060405180830381865afa158015612848573d5f5f3e3d5ffd5b505050506040513d601f19601f8201168201806040525081019061286c9190613d59565b612ede565b9050612886818460600151846060015161315b565b5090955093505050505b9250929050565b5f81516014146128a857505f919050565b5f6128b2836141c2565b60601c90506128c0816131b1565b515f036128cf57505f92915050565b6040516370a0823160e01b81523060048201526001600160a01b038216906370a0823190602401602060405180830381865afa92505050801561292f575060408051601f3d908101601f1916820190925261292c91810190613d59565b60015b15611501575060019392505050565b606061061e6001600160a01b03831660146131d7565b5f5f826001600160a01b03166379502c556040518163ffffffff1660e01b8152600401602060405180830381865afa158015612992573d5f5f3e3d5ffd5b505050506040513d601f19601f820116820180604052508101906129b69190613ee0565b604051630483b24f60e41b81526001600160a01b038581166004830152919091169063483b24f090602401606060405180830381865afa1580156129fc573d5f5f3e3d5ffd5b505050506040513d601f19601f82011682018060405250810190612a2091906143ea565b92505050806001600160a01b03166318160ddd6040518163ffffffff1660e01b8152600401602060405180830381865afa158015611627573d5f5f3e3d5ffd5b5f5f5f846001600160a01b0316638fea80626040518163ffffffff1660e01b8152600401602060405180830381865afa158015612a9f573d5f5f3e3d5ffd5b505050506040513d601f19601f82011682018060405250810190612ac39190613ee0565b6040516317a05b0960e31b81526001600160a01b0386811660048301529192509082169063bd02d84890602401606060405180830381865afa158015612b0b573d5f5f3e3d5ffd5b505050506040513d601f19601f82011682018060405250810190612b2f9190613ead565b5090935091505f839003612b49575f5f9250925050612890565b5f5f866001600160a01b03166379502c556040518163ffffffff1660e01b8152600401602060405180830381865afa158015612b87573d5f5f3e3d5ffd5b505050506040513d601f19601f82011682018060405250810190612bab9190613ee0565b6040516394c0527d60e01b81526001600160a01b03888116600483015291909116906394c0527d9060240161044060405180830381865afa158015612bf2573d5f5f3e3d5ffd5b505050506040513d601f19601f82011682018060405250810190612c16919061401e565b60e082015191935091505f906001600160a01b031615612cae5760e083015160608401516040516313b0be3360e01b8152600481018990526001600160a01b0391821660248201529116906313b0be3390604401602060405180830381865afa158015612c85573d5f5f3e3d5ffd5b505050506040513d601f19601f82011682018060405250810190612ca99190613d59565b612cb0565b855b60e08301519091505f906001600160a01b031615612d465760e083015160608401516040516313b0be3360e01b8152600481018990526001600160a01b0391821660248201529116906313b0be3390604401602060405180830381865afa158015612d1d573d5f5f3e3d5ffd5b505050506040513d601f19601f82011682018060405250810190612d419190613d59565b612d48565b855b90505f846101a00151670de0b6b3a7640000612d64919061407b565b612d76670de0b6b3a76400008561432c565b612d809190614357565b905081612d8d828961432c565b612d979190614357565b96505050505050509250929050565b5f61061e826001600160a01b031663b6d821c760016040518263ffffffff1660e01b8152600401612dd79190613d98565b602060405180830381865afa158015612df2573d5f5f3e3d5ffd5b505050506040513d601f19601f82011682018060405250810190612e169190613d59565b60405163b6d821c760e01b81526001600160a01b0385169063b6d821c790612e4390600290600401613d98565b602060405180830381865afa158015612e5e573d5f5f3e3d5ffd5b505050506040513d601f19601f82011682018060405250810190612e829190613d59565b61334c565b5f815f03612e9657505f612ed4565b5f612ea5888888888888612ede565b905080608001515f03612ebb575f915050612ed4565b612ece818960600151896060015161315b565b93505050505b9695505050505050565b612f1d6040518060a001604052805f6001600160a01b031681526020015f6001600160a01b031681526020015f81526020015f81526020015f81525090565b85606001516001600160a01b031687606001516001600160a01b031614612f87576001846001811115612f5257612f52613d70565b14612f66578660e001518660e00151612f73565b8661010001518661010001515b6001600160a01b0390811660208401521681525b5f5f612f988960800151885f613364565b80935081925050505f5f8a604001516001600160a01b031663ffbaaf7a6040518163ffffffff1660e01b81526004016040805180830381865afa158015612fe1573d5f5f3e3d5ffd5b505050506040513d601f19601f82011682018060405250810190613005919061444d565b915091506130168382865f5f61344c565b604086015260a08b015161302b908a5f613364565b94509250600187600181111561304357613043613d70565b1461304e578161306a565b61306a8b604001518c61012001518d5f01518e60200151613487565b915061307a8383865f600161344c565b606086015260c08a015161308f908a88613364565b945092505f60018860018111156130a8576130a8613d70565b14613122578a604001516001600160a01b031663b6d821c760026040518263ffffffff1660e01b81526004016130de9190613d98565b602060405180830381865afa1580156130f9573d5f5f3e3d5ffd5b505050506040513d601f19601f8201168201806040525081019061311d9190613d59565b613135565b6131358b604001518c610120015161357d565b90506131468482876001600261344c565b608087015250939a9950505050505050505050565b5f5f5f613169868686613670565b90935091508215801561317a575081155b1561318c57505f9150819050806131a8565b825f0361319b57505f196131a8565b6131a582846137c6565b90505b93509350939050565b60408051603f833b908101601f1916820190925281815290805f60208401853c50919050565b6060825f6131e684600261432c565b6131f190600261407b565b6001600160401b0381111561320857613208613da6565b6040519080825280601f01601f191660200182016040528015613232576020820181803683370190505b509050600360fc1b815f8151811061324c5761324c613dba565b60200101906001600160f81b03191690815f1a905350600f60fb1b8160018151811061327a5761327a613dba565b60200101906001600160f81b03191690815f1a9053505f61329c85600261432c565b6132a790600161407b565b90505b600181111561331e576f181899199a1a9b1b9c1cb0b131b232b360811b83600f16601081106132db576132db613dba565b1a60f81b8282815181106132f1576132f1613dba565b60200101906001600160f81b03191690815f1a90535060049290921c916133178161446f565b90506132aa565b508115610a8d5760405163e22e27eb60e01b8152600481018690526024810185905260440160405180910390fd5b5f82821161335c57818303610690565b5f9392505050565b5f5f825f036133de5760405163dce5c2db60e01b81526001600160a01b03858116600483015286169063dce5c2db906024016040805180830381865afa1580156133b0573d5f5f3e3d5ffd5b505050506040513d601f19601f820116820180604052508101906133d4919061444d565b9092509050613444565b829150846001600160a01b03166318160ddd6040518163ffffffff1660e01b8152600401602060405180830381865afa15801561341d573d5f5f3e3d5ffd5b505050506040513d601f19601f820116820180604052508101906134419190613d59565b90505b935093915050565b5f5f5f61345a8787866137dc565b91509150815f0361346f578792505050611f8e565b61347b88828488613837565b98975050505050505050565b6040516367efe7fd60e11b81526001600160a01b0385811660048301524260248301525f91829186169063cfdfcffa90604401602060405180830381865afa9250505080156134f3575060408051601f3d908101601f191682019092526134f091810190613d59565b60015b156134fb5790505b5f5f876001600160a01b03166339c5c5056040518163ffffffff1660e01b81526004016040805180830381865afa158015613538573d5f5f3e3d5ffd5b505050506040513d601f19601f8201168201806040525081019061355c919061444d565b9150915061356d8282858989613879565b50919a9950505050505050505050565b6040516367efe7fd60e11b81526001600160a01b0383811660048301524260248301525f91829184169063cfdfcffa90604401602060405180830381865afa9250505080156135e9575060408051601f3d908101601f191682019092526135e691810190613d59565b60015b156135f15790505b60405163b6d821c760e01b8152613667906001600160a01b0386169063b6d821c79061362290600290600401613d98565b602060405180830381865afa15801561363d573d5f5f3e3d5ffd5b505050506040513d601f19601f820116820180604052508101906136619190613d59565b826138d3565b50949350505050565b5f5f5f85606001518660400151613687919061407b565b905080156137195785516001600160a01b03166136a45780613716565b85516040516313b0be3360e01b8152600481018390526001600160a01b038781166024830152909116906313b0be3390604401602060405180830381865afa1580156136f2573d5f5f3e3d5ffd5b505050506040513d601f19601f820116820180604052508101906137169190613d59565b92505b6080860151156137bd5760208601516001600160a01b031661373f5785608001516137ba565b602086015160808701516040516313b0be3360e01b815260048101919091526001600160a01b038681166024830152909116906313b0be3390604401602060405180830381865afa158015613796573d5f5f3e3d5ffd5b505050506040513d601f19601f820116820180604052508101906137ba9190613d59565b91505b50935093915050565b5f61069083670de0b6b3a7640000846001613837565b5f5f835f036137e9575f94505b60028360028111156137fd576137fd613d70565b146138285761380e6003600a61455f565b613818908561407b565b61382386600161407b565b61382b565b83855b90969095509350505050565b5f6138646138448361391b565b801561385f57505f848061385a5761385a614343565b868809115b151590565b61386f868686613947565b611f8e919061407b565b5f5f5f5f61388788886138d3565b90935090508585016138a28282670de0b6b3a7640000613a04565b92505f6138af84846143d7565b90508a19818110156138bf578091505b818c01965050505095509550955095915050565b5f808315806138e0575082155b156138ef57508290505f612890565b6139028484670de0b6b3a7640000613a04565b9050808401915083821015612890575091925f92509050565b5f600282600381111561393057613930613d70565b61393a919061456a565b60ff166001149050919050565b5f838302815f1985870982811083820303915050805f0361397b5783828161397157613971614343565b0492505050610690565b808411613999576139998415613992576011613a4c565b6012613a4c565b5f848688095f868103871696879004966002600389028118808a02820302808a02820302808a02820302808a02820302808a02820302808a02909103029181900381900460010186841190950394909402919094039290920491909117919091029150509392505050565b5f835f03613a1357505f610690565b5082820282848281613a2757613a27614343565b0414613a3457505f610690565b818181613a4357613a43614343565b04949350505050565b634e487b715f52806020526024601cfd5b6001600160a01b0381168114613a71575f5ffd5b50565b5f60208284031215613a84575f5ffd5b813561069081613a5d565b5f5f60408385031215613aa0575f5ffd5b8235613aab81613a5d565b91506020830135613abb81613a5d565b809150509250929050565b5f5f60208385031215613ad7575f5ffd5b82356001600160401b03811115613aec575f5ffd5b8301601f81018513613afc575f5ffd5b80356001600160401b03811115613b11575f5ffd5b8560208260061b8401011115613b25575f5ffd5b6020919091019590945092505050565b602080825282518282018190525f918401906040840190835b81811015613b8157613b6b83855180518252602090810151910152565b6020939093019260409290920191600101613b4e565b509095945050505050565b5f5f60208385031215613b9d575f5ffd5b82356001600160401b03811115613bb2575f5ffd5b8301601f81018513613bc2575f5ffd5b80356001600160401b03811115613bd7575f5ffd5b8560208260051b8401011115613b25575f5ffd5b602080825282518282018190525f918401906040840190835b81811015613b8157613c2183855180518252602090810151910152565b6020939093019260409290920191600101613c04565b602080825282518282018190525f918401906040840190835b81811015613b81578351835260209384019390920191600101613c50565b5f5f5f60608486031215613c80575f5ffd5b8335613c8b81613a5d565b92506020840135613c9b81613a5d565b91506040840135613cab81613a5d565b809150509250925092565b5f81518084528060208401602086015e5f602082860101526020601f19601f83011685010191505092915050565b5f602082016020835280845180835260408501915060408160051b8601019250602086015f5b82811015613d3b57603f19878603018452613d26858351613cb6565b94506020938401939190910190600101613d0a565b50929695505050505050565b602081525f6106906020830184613cb6565b5f60208284031215613d69575f5ffd5b5051919050565b634e487b7160e01b5f52602160045260245ffd5b60038110613d9457613d94613d70565b9052565b6020810161061e8284613d84565b634e487b7160e01b5f52604160045260245ffd5b634e487b7160e01b5f52603260045260245ffd5b60405161022081016001600160401b0381118282101715613df157613df1613da6565b60405290565b604051601f8201601f191681016001600160401b0381118282101715613e1f57613e1f613da6565b604052919050565b5f6040828403128015613e38575f5ffd5b50604080519081016001600160401b0381118282101715613e5b57613e5b613da6565b6040528235613e6981613a5d565b81526020830135613e7981613a5d565b60208201529392505050565b80518015158114611228575f5ffd5b5f60208284031215613ea4575f5ffd5b61069082613e85565b5f5f5f60608486031215613ebf575f5ffd5b835160208501519093509150613ed760408501613e85565b90509250925092565b5f60208284031215613ef0575f5ffd5b815161069081613a5d565b805161122881613a5d565b5f6102208284031215613f17575f5ffd5b613f1f613dce565b82518152602080840151908201529050613f3b60408301613efb565b6040820152613f4c60608301613efb565b6060820152613f5d60808301613efb565b6080820152613f6e60a08301613efb565b60a0820152613f7f60c08301613efb565b60c0820152613f9060e08301613efb565b60e0820152613fa26101008301613efb565b610100820152613fb56101208301613efb565b6101208201526101408281015190820152610160808301519082015261018080830151908201526101a080830151908201526101c08083015190820152613fff6101e08301613efb565b6101e08201526140126102008301613e85565b61020082015292915050565b5f5f6104408385031215614030575f5ffd5b61403a8484613f06565b915061404a846102208501613f06565b90509250929050565b828152604081016106906020830184613d84565b634e487b7160e01b5f52601160045260245ffd5b8082018082111561061e5761061e614067565b5f82601f83011261409d575f5ffd5b81516001600160401b038111156140b6576140b6613da6565b6140c9601f8201601f1916602001613df7565b8181528460208386010111156140dd575f5ffd5b8160208501602083015e5f918101602001919091529392505050565b5f60208284031215614109575f5ffd5b81516001600160401b0381111561411e575f5ffd5b8201601f8101841361412e575f5ffd5b80516001600160401b0381111561414757614147613da6565b8060051b61415760208201613df7565b91825260208184018101929081019087841115614172575f5ffd5b6020850192505b838310156141b75782516001600160401b03811115614196575f5ffd5b6141a58960208389010161408e565b83525060209283019290910190614179565b979650505050505050565b805160208201516bffffffffffffffffffffffff1981169190601482101561420e576bffffffffffffffffffffffff196bffffffffffffffffffffffff198360140360031b1b82161692505b5050919050565b5f6102208284031215614226575f5ffd5b6106908383613f06565b5f60208284031215614240575f5ffd5b81516001600160401b03811115614255575f5ffd5b610a8d8482850161408e565b80516001600160401b0381168114611228575f5ffd5b5f5f5f5f5f60a0868803121561428b575f5ffd5b85516001600160c01b03811681146142a1575f5ffd5b94506142af60208701614261565b6040870151606088015160809098015196999198509695945092505050565b5f60608284031280156142df575f5ffd5b50604051606081016001600160401b038111828210171561430257614302613da6565b60409081528351825260208085015190830152614320908401614261565b60408201529392505050565b808202811582820484141761061e5761061e614067565b634e487b7160e01b5f52601260045260245ffd5b5f8261436557614365614343565b500490565b5f5f5f5f6080858703121561437d575f5ffd5b8451602086015160408701516060880151929650909450925061439f81613a5d565b939692955090935050565b5f5f604083850312156143bb575f5ffd5b82516143c681613a5d565b6020840151909250613abb81613a5d565b8181038181111561061e5761061e614067565b5f5f5f606084860312156143fc575f5ffd5b835161440781613a5d565b602085015190935061441881613a5d565b6040850151909250613cab81613a5d565b828152604081016002831061444057614440613d70565b8260208301529392505050565b5f5f6040838503121561445e575f5ffd5b505080516020909101519092909150565b5f8161447d5761447d614067565b505f190190565b6001815b6001841115613444578085048111156144a3576144a3614067565b60018416156144b157908102905b60019390931c928002614488565b5f826144cd5750600161061e565b816144d957505f61061e565b81600181146144ef57600281146144f957614515565b600191505061061e565b60ff84111561450a5761450a614067565b50506001821b61061e565b5060208310610133831016604e8410600b8410161715614538575081810a61061e565b6145445f198484614484565b805f190482111561455757614557614067565b029392505050565b5f61069083836144bf565b5f60ff83168061457c5761457c614343565b8060ff8416069150509291505056fea26469706673582212200752b27b40213d53ffc5a2fbd927bc7a8b4d2effd725e17c1d77a5687446989a64736f6c634300081c0033",
  "language": "Solidity",
  "compiler": "0.8.28+commit.7893614a"
}