{
  "address": "0x38D712F9E105CDbe9367be9D8061d63BCba7A725",
  "abi": [
    {
      "type": "function",
      "name": "createOracleForwarder",
      "inputs": [
        {
          "name": "_oracle",
          "type": "address",
          "internalType": "contract ISiloOracle"
        },
        {
          "name": "_owner",
          "type": "address",
          "internalType": "address"
        },
        {
          "name": "_externalSalt",
          "type": "bytes32",
          "internalType": "bytes32"
        }
      ],
      "outputs": [
        {
          "name": "oracleForwarder",
          "type": "address",
          "internalType": "contract IOracleForwarder"
        }
      ],
      "stateMutability": "nonpayable"
    },
    {
      "type": "function",
      "name": "createdInFactory",
      "inputs": [
        {
          "name": "",
          "type": "address",
          "internalType": "address"
        }
      ],
      "outputs": [
        {
          "name": "",
          "type": "bool",
          "internalType": "bool"
        }
      ],
      "stateMutability": "view"
    },
    {
      "type": "function",
      "name": "nonces",
      "inputs": [
        {
          "name": "owner",
          "type": "address",
          "internalType": "address"
        }
      ],
      "outputs": [
        {
          "name": "",
          "type": "uint256",
          "internalType": "uint256"
        }
      ],
      "stateMutability": "view"
    },
    {
      "type": "event",
      "name": "OracleForwarderCreated",
      "inputs": [
        {
          "name": "oracleForwarder",
          "type": "address",
          "indexed": true,
          "internalType": "address"
        }
      ],
      "anonymous": false
    },
    {
      "type": "error",
      "name": "InvalidAccountNonce",
      "inputs": [
        {
          "name": "account",
          "type": "address",
          "internalType": "address"
        },
        {
          "name": "currentNonce",
          "type": "uint256",
          "internalType": "uint256"
        }
      ]
    }
  ],
  "bytecode": "0x6080604052348015600e575f5ffd5b50610adf8061001c5f395ff3fe608060405234801561000f575f5ffd5b506004361061003f575f3560e01c80631b07dccf146100435780637ecebe0014610073578063b32d705b146100a9575b5f5ffd5b6100566100513660046101f2565b6100db565b6040516001600160a01b0390911681526020015b60405180910390f35b61009b610081366004610230565b6001600160a01b03165f9081526020819052604090205490565b60405190815260200161006a565b6100cb6100b7366004610230565b60016020525f908152604090205460ff1681565b604051901515815260200161006a565b335f81815260208181526040808320805460018101909155815160609590951b6bffffffffffffffffffffffff19168584015260348501526054808501869052815180860390910181526074909401905282519201919091208484604051610142906101ce565b6001600160a01b039283168152911660208201526040018190604051809103905ff5905080158015610176573d5f5f3e3d5ffd5b506001600160a01b0381165f818152600160208190526040808320805460ff19169092179091555192935090917fc41044415d7fb7803a4578183b0edf5ea245a06953bcf3612665368a9e186f209190a29392505050565b6108578061025383390190565b6001600160a01b03811681146101ef575f5ffd5b50565b5f5f5f60608486031215610204575f5ffd5b833561020f816101db565b9250602084013561021f816101db565b929592945050506040919091013590565b5f60208284031215610240575f5ffd5b813561024b816101db565b939250505056fe60a060405234801561000f575f5ffd5b5060405161085738038061085783398101604081905261002e916101aa565b806001600160a01b03811661005c57604051631e4fbdf760e01b81525f600482015260240160405180910390fd5b610065816100e2565b50816001600160a01b031663217a4b706040518163ffffffff1660e01b8152600401602060405180830381865afa1580156100a2573d5f5f3e3d5ffd5b505050506040513d601f19601f820116820180604052508101906100c691906101e2565b6001600160a01b03166080526100db826100fe565b5050610204565b600180546001600160a01b03191690556100fb81610147565b50565b600280546001600160a01b0319166001600160a01b0383169081179091556040517f3f32684a32a11dabdbb8c0177de80aa3ae36a004d75210335b49e544e48cd0aa905f90a250565b5f80546001600160a01b038381166001600160a01b0319831681178455604051919092169283917f8be0079c531659141344cd1fd0a4f28419497f9722a3daafe3b4186f6b6457e09190a35050565b6001600160a01b03811681146100fb575f5ffd5b5f5f604083850312156101bb575f5ffd5b82516101c681610196565b60208401519092506101d781610196565b809150509250929050565b5f602082840312156101f2575f5ffd5b81516101fd81610196565b9392505050565b60805161062e6102295f395f818160dd0152818161012401526102d2015261062e5ff3fe608060405234801561000f575f5ffd5b50600436106100b1575f3560e01c80637dc0d1d01161006e5780637dc0d1d0146101615780638da5cb5b14610174578063e30c397814610184578063f2fde38b14610195578063f9fa619a146101a8578063ffa1ad74146101bb575f5ffd5b806313b0be33146100b5578063217a4b70146100db578063715018a61461011557806378892cea1461011f57806379ba5097146101465780637adbf9731461014e575b5f5ffd5b6100c86100c3366004610548565b6101f2565b6040519081526020015b60405180910390f35b7f00000000000000000000000000000000000000000000000000000000000000005b6040516001600160a01b0390911681526020016100d2565b61011d61026c565b005b6100fd7f000000000000000000000000000000000000000000000000000000000000000081565b61011d61027f565b61011d61015c366004610576565b6102c8565b6002546100fd906001600160a01b031681565b5f546001600160a01b03166100fd565b6001546001600160a01b03166100fd565b61011d6101a3366004610576565b61038a565b61011d6101b6366004610576565b6103fa565b604080518082018252601581527404f7261636c65466f7277617264657220342e302e3605c1b602082015290516100d29190610591565b6002546040516313b0be3360e01b8152600481018490526001600160a01b0383811660248301525f9216906313b0be3390604401602060405180830381865afa158015610241573d5f5f3e3d5ffd5b505050506040513d601f19601f8201168201806040525081019061026591906105c6565b9392505050565b610274610457565b61027d5f610483565b565b60015433906001600160a01b031681146102bc5760405163118cdaa760e01b81526001600160a01b03821660048201526024015b60405180910390fd5b6102c581610483565b50565b6102d0610457565b7f00000000000000000000000000000000000000000000000000000000000000006001600160a01b0316816001600160a01b031663217a4b706040518163ffffffff1660e01b8152600401602060405180830381865afa158015610336573d5f5f3e3d5ffd5b505050506040513d601f19601f8201168201806040525081019061035a91906105dd565b6001600160a01b0316146103815760405163ef02469960e01b815260040160405180910390fd5b6102c58161049c565b610392610457565b600180546001600160a01b0383166001600160a01b031990911681179091556103c25f546001600160a01b031690565b6001600160a01b03167f38d16b8cac22d99fc7c124b9cd0de2d3fa1faef420bfe791d8c362d765e2270060405160405180910390a350565b600254604051637cfd30cd60e11b81526001600160a01b0383811660048301529091169063f9fa619a906024015f604051808303815f87803b15801561043e575f5ffd5b505af1158015610450573d5f5f3e3d5ffd5b5050505050565b5f546001600160a01b0316331461027d5760405163118cdaa760e01b81523360048201526024016102b3565b600180546001600160a01b03191690556102c5816104e5565b600280546001600160a01b0319166001600160a01b0383169081179091556040517f3f32684a32a11dabdbb8c0177de80aa3ae36a004d75210335b49e544e48cd0aa905f90a250565b5f80546001600160a01b038381166001600160a01b0319831681178455604051919092169283917f8be0079c531659141344cd1fd0a4f28419497f9722a3daafe3b4186f6b6457e09190a35050565b6001600160a01b03811681146102c5575f5ffd5b5f5f60408385031215610559575f5ffd5b82359150602083013561056b81610534565b809150509250929050565b5f60208284031215610586575f5ffd5b813561026581610534565b602081525f82518060208401528060208501604085015e5f604082850101526040601f19601f83011684010191505092915050565b5f602082840312156105d6575f5ffd5b5051919050565b5f602082840312156105ed575f5ffd5b81516102658161053456fea2646970667358221220c27ae970c889b49135e9ad2ae6db3a703544d117b9913b401f1903f32b298f8864736f6c634300081c0033a26469706673582212204d6a70ff45a8fc85ba5c5103796781b8e095989f85deb90791c21fe16eb6a10c64736f6c634300081c0033",
  "language": "Solidity",
  "compiler": "0.8.28+commit.7893614a"
}