{
  "address": "0x8cB5473553944689c53De976119b40E9beF3B5BA",
  "abi": [
    {
      "type": "constructor",
      "inputs": [
        {
          "name": "_pendleOracle",
          "type": "address",
          "internalType": "contract IPyYtLpOracleLike"
        }
      ],
      "stateMutability": "nonpayable"
    },
    {
      "type": "function",
      "name": "PENDLE_ORACLE",
      "inputs": [],
      "outputs": [
        {
          "name": "",
          "type": "address",
          "internalType": "contract IPyYtLpOracleLike"
        }
      ],
      "stateMutability": "view"
    },
    {
      "type": "function",
      "name": "create",
      "inputs": [
        {
          "name": "_underlyingOracle",
          "type": "address",
          "internalType": "contract ISiloOracle"
        },
        {
          "name": "_market",
          "type": "address",
          "internalType": "address"
        },
        {
          "name": "_externalSalt",
          "type": "bytes32",
          "internalType": "bytes32"
        }
      ],
      "outputs": [
        {
          "name": "pendlePTOracle",
          "type": "address",
          "internalType": "contract ISiloOracle"
        }
      ],
      "stateMutability": "nonpayable"
    },
    {
      "type": "function",
      "name": "createdInFactory",
      "inputs": [
        {
          "name": "",
          "type": "address",
          "internalType": "contract ISiloOracle"
        }
      ],
      "outputs": [
        {
          "name": "",
          "type": "bool",
          "internalType": "bool"
        }
      ],
      "stateMutability": "view"
    },
    {
      "type": "function",
      "name": "nonces",
      "inputs": [
        {
          "name": "owner",
          "type": "address",
          "internalType": "address"
        }
      ],
      "outputs": [
        {
          "name": "",
          "type": "uint256",
          "internalType": "uint256"
        }
      ],
      "stateMutability": "view"
    },
    {
      "type": "event",
      "name": "PendlePTOracleCreated",
      "inputs": [
        {
          "name": "pendlePTOracle",
          "type": "address",
          "indexed": true,
          "internalType": "contract ISiloOracle"
        }
      ],
      "anonymous": false
    },
    {
      "type": "error",
      "name": "InvalidAccountNonce",
      "inputs": [
        {
          "name": "account",
          "type": "address",
          "internalType": "address"
        },
        {
          "name": "currentNonce",
          "type": "uint256",
          "internalType": "uint256"
        }
      ]
    },
    {
      "type": "error",
      "name": "PendleOracleIsZero",
      "inputs": []
    }
  ],
  "bytecode": "0x60a0604052348015600e575f5ffd5b5060405161187c38038061187c833981016040819052602b916061565b6001600160a01b038116605157604051635d26e47b60e11b815260040160405180910390fd5b6001600160a01b0316608052608c565b5f602082840312156070575f5ffd5b81516001600160a01b03811681146085575f5ffd5b9392505050565b6080516117d26100aa5f395f8181608e015261016401526117d25ff3fe608060405234801561000f575f5ffd5b506004361061004a575f3560e01c80637ecebe001461004e5780639c977cf014610089578063b32d705b146100c8578063d1692f56146100fa575b5f5ffd5b61007661005c366004610249565b6001600160a01b03165f9081526020819052604090205490565b6040519081526020015b60405180910390f35b6100b07f000000000000000000000000000000000000000000000000000000000000000081565b6040516001600160a01b039091168152602001610080565b6100ea6100d6366004610249565b60016020525f908152604090205460ff1681565b6040519015158152602001610080565b6100b061010836600461026b565b335f81815260208181526040808320805460018101909155815160609590951b6bffffffffffffffffffffffff1916858401526034850152605480850186905281518086039091018152607490940190528251920191909120847f00000000000000000000000000000000000000000000000000000000000000008560405161019090610225565b6001600160a01b039384168152918316602083015290911660408201526060018190604051809103905ff59050801580156101cd573d5f5f3e3d5ffd5b506001600160a01b0381165f818152600160208190526040808320805460ff19169092179091555192935090917fbaf8ec7d598cbe2ba31c564e5e35ff01d41b83c9429995a4ff25ede25a482d229190a29392505050565b6114f3806102aa83390190565b6001600160a01b0381168114610246575f5ffd5b50565b5f60208284031215610259575f5ffd5b813561026481610232565b9392505050565b5f5f5f6060848603121561027d575f5ffd5b833561028881610232565b9250602084013561029881610232565b92959294505050604091909101359056fe610140604052348015610010575f5ffd5b506040516114f33803806114f383398101604081905261002f9161053a565b5f610039826102c7565b90505f61004583610330565b90505f610051826103fd565b60405162439f4b60e91b81526001600160a01b03868116600483015261070860248301529192505f9182919088169063873e960090604401606060405180830381865afa1580156100a4573d5f5f3e3d5ffd5b505050506040513d601f19601f820116820180604052508101906100c89190610598565b92505091508080156100d8575081155b6100f55760405163b498fea160e01b815260040160405180910390fd5b60405163a31426d160e01b81526001600160a01b038781166004830152610708602483015288169063a31426d190604401602060405180830381865afa158015610141573d5f5f3e3d5ffd5b505050506040513d601f19601f8201168201806040525081019061016591906105e0565b5f036101845760405163386fdf2d60e11b815260040160405180910390fd5b5f61019084600a6106f0565b6040516313b0be3360e01b8152600481018290526001600160a01b038781166024830152919250908a16906313b0be3390604401602060405180830381865afa1580156101df573d5f5f3e3d5ffd5b505050506040513d601f19601f8201168201806040525081019061020391906105e0565b5f03610225576040516001620cca2360e01b0319815260040160405180910390fd5b6001600160a01b03808a16608081905289821660a05287821660c05286821660e0529088166101005260408051630217a4b760e41b8152905163217a4b70916004808201926020929091908290030181865afa158015610287573d5f5f3e3d5ffd5b505050506040513d601f19601f820116820180604052508101906102ab91906106fb565b6001600160a01b0316610120525061074c975050505050505050565b5f816001600160a01b0316632c8ce6bc6040518163ffffffff1660e01b8152600401606060405180830381865afa158015610304573d5f5f3e3d5ffd5b505050506040513d601f19601f82011682018060405250810190610328919061053a565b509392505050565b5f5f826001600160a01b0316632c8ce6bc6040518163ffffffff1660e01b8152600401606060405180830381865afa15801561036e573d5f5f3e3d5ffd5b505050506040513d601f19601f82011682018060405250810190610392919061053a565b50509050806001600160a01b03166376d5de856040518163ffffffff1660e01b8152600401602060405180830381865afa1580156103d2573d5f5f3e3d5ffd5b505050506040513d601f19601f820116820180604052508101906103f691906106fb565b9392505050565b6040805160048152602481019091526020810180516001600160e01b0390811663313ce56760e01b179091525f918291829161043c9186919061046d16565b915091508161044e57505f9392505050565b808060200190518101906104629190610716565b60ff16949350505050565b5f60606001600160a01b0384163b610498576040516373d39f9d60e01b815260040160405180910390fd5b5f5f856001600160a01b0316856040516104b29190610736565b5f60405180830381855afa9150503d805f81146104ea576040519150601f19603f3d011682016040523d82523d5f602084013e6104ef565b606091505b509150915081610514575f60405180602001604052805f81525093509350505061051c565b600193509150505b9250929050565b6001600160a01b0381168114610537575f5ffd5b50565b5f5f5f6060848603121561054c575f5ffd5b835161055781610523565b602085015190935061056881610523565b604085015190925061057981610523565b809150509250925092565b80518015158114610593575f5ffd5b919050565b5f5f5f606084860312156105aa575f5ffd5b6105b384610584565b9250602084015161ffff811681146105c9575f5ffd5b91506105d760408501610584565b90509250925092565b5f602082840312156105f0575f5ffd5b5051919050565b634e487b7160e01b5f52601160045260245ffd5b6001815b60018411156106465780850481111561062a5761062a6105f7565b600184161561063857908102905b60019390931c92800261060f565b935093915050565b5f8261065c575060016106ea565b8161066857505f6106ea565b816001811461067e5760028114610688576106a4565b60019150506106ea565b60ff841115610699576106996105f7565b50506001821b6106ea565b5060208310610133831016604e8410600b84101617156106c7575081810a6106ea565b6106d35f19848461060b565b805f19048211156106e6576106e66105f7565b0290505b92915050565b5f6103f6838361064e565b5f6020828403121561070b575f5ffd5b81516103f681610523565b5f60208284031215610726575f5ffd5b815160ff811681146103f6575f5ffd5b5f82518060208501845e5f920191825250919050565b60805160a05160c05160e0516101005161012051610d1a6107d95f395f818161015301526101fc01525f8181610364015261043b01525f818161033d0152818161050701526105e601525f81816102f001528181610314015281816103d401526107e401525f81816102a2015261046d01525f81816102c90152818161052f01526106110152610d1a5ff3fe608060405234801561000f575f5ffd5b5060043610610127575f3560e01c80639a6fc8f5116100a9578063e928bf9a1161006e578063e928bf9a14610338578063f46f16c21461035f578063f9fa619a14610386578063feaf968c14610399578063ffa1ad74146103a1575f5ffd5b80639a6fc8f51461024b5780639c977cf01461029d578063ac912490146102c4578063bce2e8d9146102eb578063c55dae6314610312575f5ffd5b806354fd4d50116100ef57806354fd4d50146101c05780637284e416146101c757806378892cea146101f75780637ab7e36d1461021e578063879ac8f81461022d575f5ffd5b806313b0be331461012b578063217a4b701461015157806321d118ef1461018b578063313ce5671461019e5780634a5eabc2146101ad575b5f5ffd5b61013e610139366004610a73565b6103d1565b6040519081526020015b60405180910390f35b7f00000000000000000000000000000000000000000000000000000000000000005b6040516001600160a01b039091168152602001610148565b610173610199366004610aa1565b6106a7565b60405160128152602001610148565b6101736101bb366004610aa1565b610710565b600161013e565b60408051808201909152600b81526a53696c6f204f7261636c6560a81b60208201525b6040516101489190610abc565b6101737f000000000000000000000000000000000000000000000000000000000000000081565b61013e670de0b6b3a764000081565b61023661070881565b60405163ffffffff9091168152602001610148565b610266610259366004610af1565b505f908190819081908190565b6040805169ffffffffffffffffffff968716815260208101959095528401929092526060830152909116608082015260a001610148565b6101737f000000000000000000000000000000000000000000000000000000000000000081565b6101737f000000000000000000000000000000000000000000000000000000000000000081565b6101737f000000000000000000000000000000000000000000000000000000000000000081565b7f0000000000000000000000000000000000000000000000000000000000000000610173565b6101737f000000000000000000000000000000000000000000000000000000000000000081565b6101737f000000000000000000000000000000000000000000000000000000000000000081565b610397610394366004610aa1565b50565b005b6102666107dd565b604080518082019091526014815273050656e646c6550544f7261636c6520342e302e360641b60208201526101ea565b5f7f00000000000000000000000000000000000000000000000000000000000000006001600160a01b0316826001600160a01b0316146104245760405163981a2a2b60e01b815260040160405180910390fd5b60405163a31426d160e01b81526001600160a01b037f00000000000000000000000000000000000000000000000000000000000000008116600483015261070860248301525f917f00000000000000000000000000000000000000000000000000000000000000009091169063a31426d190604401602060405180830381865afa1580156104b4573d5f5f3e3d5ffd5b505050506040513d601f19601f820116820180604052508101906104d89190610b1a565b9050670de0b6b3a764000081116105b4576040516313b0be3360e01b8152600481018590526001600160a01b037f0000000000000000000000000000000000000000000000000000000000000000811660248301527f000000000000000000000000000000000000000000000000000000000000000016906313b0be3390604401602060405180830381865afa158015610574573d5f5f3e3d5ffd5b505050506040513d601f19601f820116820180604052508101906105989190610b1a565b91506105ad8282670de0b6b3a764000061083c565b9150610680565b5f6105c88583670de0b6b3a764000061083c565b6040516313b0be3360e01b8152600481018290526001600160a01b037f0000000000000000000000000000000000000000000000000000000000000000811660248301529192507f0000000000000000000000000000000000000000000000000000000000000000909116906313b0be3390604401602060405180830381865afa158015610658573d5f5f3e3d5ffd5b505050506040513d601f19601f8201168201806040525081019061067c9190610b1a565b9250505b815f036106a057604051634dfba02360e01b815260040160405180910390fd5b5092915050565b5f816001600160a01b0316632c8ce6bc6040518163ffffffff1660e01b8152600401606060405180830381865afa1580156106e4573d5f5f3e3d5ffd5b505050506040513d601f19601f820116820180604052508101906107089190610b31565b509392505050565b5f5f826001600160a01b0316632c8ce6bc6040518163ffffffff1660e01b8152600401606060405180830381865afa15801561074e573d5f5f3e3d5ffd5b505050506040513d601f19601f820116820180604052508101906107729190610b31565b50509050806001600160a01b03166376d5de856040518163ffffffff1660e01b8152600401602060405180830381865afa1580156107b2573d5f5f3e3d5ffd5b505050506040513d601f19601f820116820180604052508101906107d69190610b7b565b9392505050565b5f808080807f00000000000000000000000000000000000000000000000000000000000000008161080d826108f9565b905061082b61082661082083600a610c8f565b846103d1565b610964565b96974296508695505f945092505050565b5f838302815f1985870982811083820303915050805f036108705783828161086657610866610c9a565b04925050506107d6565b80841161088e5761088e8415610887576011610998565b6012610998565b5f848688095f868103871696879004966002600389028118808a02820302808a02820302808a02820302808a02820302808a02820302808a02909103029181900381900460010186841190950394909402919094039290920491909117919091029150509392505050565b6040805160048152602481019091526020810180516001600160e01b031663313ce56760e01b1790525f90819081906109339085906109a9565b915091508161094557505f9392505050565b808060200190518101906109599190610cae565b60ff16949350505050565b5f6001600160ff1b038211156109945760405163123baf0360e11b81526004810183905260240160405180910390fd5b5090565b634e487b715f52806020526024601cfd5b5f60606001600160a01b0384163b6109d4576040516373d39f9d60e01b815260040160405180910390fd5b5f5f856001600160a01b0316856040516109ee9190610cce565b5f60405180830381855afa9150503d805f8114610a26576040519150601f19603f3d011682016040523d82523d5f602084013e610a2b565b606091505b509150915081610a50575f60405180602001604052805f815250935093505050610a58565b600193509150505b9250929050565b6001600160a01b0381168114610394575f5ffd5b5f5f60408385031215610a84575f5ffd5b823591506020830135610a9681610a5f565b809150509250929050565b5f60208284031215610ab1575f5ffd5b81356107d681610a5f565b602081525f82518060208401528060208501604085015e5f604082850101526040601f19601f83011684010191505092915050565b5f60208284031215610b01575f5ffd5b813569ffffffffffffffffffff811681146107d6575f5ffd5b5f60208284031215610b2a575f5ffd5b5051919050565b5f5f5f60608486031215610b43575f5ffd5b8351610b4e81610a5f565b6020850151909350610b5f81610a5f565b6040850151909250610b7081610a5f565b809150509250925092565b5f60208284031215610b8b575f5ffd5b81516107d681610a5f565b634e487b7160e01b5f52601160045260245ffd5b6001815b6001841115610be557808504811115610bc957610bc9610b96565b6001841615610bd757908102905b60019390931c928002610bae565b935093915050565b5f82610bfb57506001610c89565b81610c0757505f610c89565b8160018114610c1d5760028114610c2757610c43565b6001915050610c89565b60ff841115610c3857610c38610b96565b50506001821b610c89565b5060208310610133831016604e8410600b8410161715610c66575081810a610c89565b610c725f198484610baa565b805f1904821115610c8557610c85610b96565b0290505b92915050565b5f6107d68383610bed565b634e487b7160e01b5f52601260045260245ffd5b5f60208284031215610cbe575f5ffd5b815160ff811681146107d6575f5ffd5b5f82518060208501845e5f92019182525091905056fea2646970667358221220c200df0f0c3f5fb955b8431474c3ef56f57e6ff35c8e4c5edc645b9343c744ab64736f6c634300081c0033a26469706673582212204d4e39c8ecd49c099fa48b53319bd6f3d4c285fbe3d7d8928d838b08f9bcc1f264736f6c634300081c0033",
  "language": "Solidity",
  "compiler": "0.8.28+commit.7893614a"
}