{
  "address": "0xEDef341cC26f3385A8Df8304907361DD4Da6d154",
  "abi": [
    {
      "type": "constructor",
      "inputs": [
        {
          "name": "_implementation",
          "type": "address",
          "internalType": "contract DynamicKinkModel"
        }
      ],
      "stateMutability": "nonpayable"
    },
    {
      "type": "function",
      "name": "DP",
      "inputs": [],
      "outputs": [
        {
          "name": "",
          "type": "int256",
          "internalType": "int256"
        }
      ],
      "stateMutability": "view"
    },
    {
      "type": "function",
      "name": "IRM",
      "inputs": [],
      "outputs": [
        {
          "name": "",
          "type": "address",
          "internalType": "contract DynamicKinkModel"
        }
      ],
      "stateMutability": "view"
    },
    {
      "type": "function",
      "name": "ONE_YEAR",
      "inputs": [],
      "outputs": [
        {
          "name": "",
          "type": "int256",
          "internalType": "int256"
        }
      ],
      "stateMutability": "view"
    },
    {
      "type": "function",
      "name": "create",
      "inputs": [
        {
          "name": "_config",
          "type": "tuple",
          "internalType": "struct IDynamicKinkModel.Config",
          "components": [
            {
              "name": "ulow",
              "type": "int256",
              "internalType": "int256"
            },
            {
              "name": "u1",
              "type": "int256",
              "internalType": "int256"
            },
            {
              "name": "u2",
              "type": "int256",
              "internalType": "int256"
            },
            {
              "name": "ucrit",
              "type": "int256",
              "internalType": "int256"
            },
            {
              "name": "rmin",
              "type": "int256",
              "internalType": "int256"
            },
            {
              "name": "kmin",
              "type": "int96",
              "internalType": "int96"
            },
            {
              "name": "kmax",
              "type": "int96",
              "internalType": "int96"
            },
            {
              "name": "alpha",
              "type": "int256",
              "internalType": "int256"
            },
            {
              "name": "cminus",
              "type": "int256",
              "internalType": "int256"
            },
            {
              "name": "cplus",
              "type": "int256",
              "internalType": "int256"
            },
            {
              "name": "c1",
              "type": "int256",
              "internalType": "int256"
            },
            {
              "name": "c2",
              "type": "int256",
              "internalType": "int256"
            },
            {
              "name": "dmax",
              "type": "int256",
              "internalType": "int256"
            }
          ]
        },
        {
          "name": "_immutableArgs",
          "type": "tuple",
          "internalType": "struct IDynamicKinkModel.ImmutableArgs",
          "components": [
            {
              "name": "timelock",
              "type": "uint32",
              "internalType": "uint32"
            },
            {
              "name": "rcompCap",
              "type": "int96",
              "internalType": "int96"
            }
          ]
        },
        {
          "name": "_initialOwner",
          "type": "address",
          "internalType": "address"
        },
        {
          "name": "_silo",
          "type": "address",
          "internalType": "address"
        },
        {
          "name": "_externalSalt",
          "type": "bytes32",
          "internalType": "bytes32"
        }
      ],
      "outputs": [
        {
          "name": "irm",
          "type": "address",
          "internalType": "contract IInterestRateModel"
        }
      ],
      "stateMutability": "nonpayable"
    },
    {
      "type": "function",
      "name": "createdByFactory",
      "inputs": [
        {
          "name": "irm",
          "type": "address",
          "internalType": "address"
        }
      ],
      "outputs": [
        {
          "name": "",
          "type": "bool",
          "internalType": "bool"
        }
      ],
      "stateMutability": "view"
    },
    {
      "type": "function",
      "name": "generateConfig",
      "inputs": [
        {
          "name": "_default",
          "type": "tuple",
          "internalType": "struct IDynamicKinkModel.UserFriendlyConfig",
          "components": [
            {
              "name": "ulow",
              "type": "uint64",
              "internalType": "uint64"
            },
            {
              "name": "ucrit",
              "type": "uint64",
              "internalType": "uint64"
            },
            {
              "name": "u1",
              "type": "uint64",
              "internalType": "uint64"
            },
            {
              "name": "u2",
              "type": "uint64",
              "internalType": "uint64"
            },
            {
              "name": "rmin",
              "type": "uint72",
              "internalType": "uint72"
            },
            {
              "name": "rcritMin",
              "type": "uint72",
              "internalType": "uint72"
            },
            {
              "name": "rcritMax",
              "type": "uint72",
              "internalType": "uint72"
            },
            {
              "name": "r100",
              "type": "uint72",
              "internalType": "uint72"
            },
            {
              "name": "t1",
              "type": "uint32",
              "internalType": "uint32"
            },
            {
              "name": "t2",
              "type": "uint32",
              "internalType": "uint32"
            },
            {
              "name": "tlow",
              "type": "uint32",
              "internalType": "uint32"
            },
            {
              "name": "tcrit",
              "type": "uint32",
              "internalType": "uint32"
            },
            {
              "name": "tMin",
              "type": "uint32",
              "internalType": "uint32"
            }
          ]
        }
      ],
      "outputs": [
        {
          "name": "config",
          "type": "tuple",
          "internalType": "struct IDynamicKinkModel.Config",
          "components": [
            {
              "name": "ulow",
              "type": "int256",
              "internalType": "int256"
            },
            {
              "name": "u1",
              "type": "int256",
              "internalType": "int256"
            },
            {
              "name": "u2",
              "type": "int256",
              "internalType": "int256"
            },
            {
              "name": "ucrit",
              "type": "int256",
              "internalType": "int256"
            },
            {
              "name": "rmin",
              "type": "int256",
              "internalType": "int256"
            },
            {
              "name": "kmin",
              "type": "int96",
              "internalType": "int96"
            },
            {
              "name": "kmax",
              "type": "int96",
              "internalType": "int96"
            },
            {
              "name": "alpha",
              "type": "int256",
              "internalType": "int256"
            },
            {
              "name": "cminus",
              "type": "int256",
              "internalType": "int256"
            },
            {
              "name": "cplus",
              "type": "int256",
              "internalType": "int256"
            },
            {
              "name": "c1",
              "type": "int256",
              "internalType": "int256"
            },
            {
              "name": "c2",
              "type": "int256",
              "internalType": "int256"
            },
            {
              "name": "dmax",
              "type": "int256",
              "internalType": "int256"
            }
          ]
        }
      ],
      "stateMutability": "view"
    },
    {
      "type": "function",
      "name": "nonces",
      "inputs": [
        {
          "name": "owner",
          "type": "address",
          "internalType": "address"
        }
      ],
      "outputs": [
        {
          "name": "",
          "type": "uint256",
          "internalType": "uint256"
        }
      ],
      "stateMutability": "view"
    },
    {
      "type": "function",
      "name": "predictAddress",
      "inputs": [
        {
          "name": "_deployer",
          "type": "address",
          "internalType": "address"
        },
        {
          "name": "_externalSalt",
          "type": "bytes32",
          "internalType": "bytes32"
        }
      ],
      "outputs": [
        {
          "name": "predictedAddress",
          "type": "address",
          "internalType": "address"
        }
      ],
      "stateMutability": "view"
    },
    {
      "type": "function",
      "name": "verifyConfig",
      "inputs": [
        {
          "name": "_config",
          "type": "tuple",
          "internalType": "struct IDynamicKinkModel.Config",
          "components": [
            {
              "name": "ulow",
              "type": "int256",
              "internalType": "int256"
            },
            {
              "name": "u1",
              "type": "int256",
              "internalType": "int256"
            },
            {
              "name": "u2",
              "type": "int256",
              "internalType": "int256"
            },
            {
              "name": "ucrit",
              "type": "int256",
              "internalType": "int256"
            },
            {
              "name": "rmin",
              "type": "int256",
              "internalType": "int256"
            },
            {
              "name": "kmin",
              "type": "int96",
              "internalType": "int96"
            },
            {
              "name": "kmax",
              "type": "int96",
              "internalType": "int96"
            },
            {
              "name": "alpha",
              "type": "int256",
              "internalType": "int256"
            },
            {
              "name": "cminus",
              "type": "int256",
              "internalType": "int256"
            },
            {
              "name": "cplus",
              "type": "int256",
              "internalType": "int256"
            },
            {
              "name": "c1",
              "type": "int256",
              "internalType": "int256"
            },
            {
              "name": "c2",
              "type": "int256",
              "internalType": "int256"
            },
            {
              "name": "dmax",
              "type": "int256",
              "internalType": "int256"
            }
          ]
        }
      ],
      "outputs": [],
      "stateMutability": "view"
    },
    {
      "type": "event",
      "name": "NewDynamicKinkModel",
      "inputs": [
        {
          "name": "irm",
          "type": "address",
          "indexed": true,
          "internalType": "contract IDynamicKinkModel"
        }
      ],
      "anonymous": false
    },
    {
      "type": "error",
      "name": "DeployerCannotBeZero",
      "inputs": []
    },
    {
      "type": "error",
      "name": "FailedDeployment",
      "inputs": []
    },
    {
      "type": "error",
      "name": "InsufficientBalance",
      "inputs": [
        {
          "name": "balance",
          "type": "uint256",
          "internalType": "uint256"
        },
        {
          "name": "needed",
          "type": "uint256",
          "internalType": "uint256"
        }
      ]
    },
    {
      "type": "error",
      "name": "InvalidAccountNonce",
      "inputs": [
        {
          "name": "account",
          "type": "address",
          "internalType": "address"
        },
        {
          "name": "currentNonce",
          "type": "uint256",
          "internalType": "uint256"
        }
      ]
    },
    {
      "type": "error",
      "name": "InvalidDefaultConfig",
      "inputs": []
    },
    {
      "type": "error",
      "name": "InvalidRcritMax",
      "inputs": []
    },
    {
      "type": "error",
      "name": "InvalidRcritMin",
      "inputs": []
    },
    {
      "type": "error",
      "name": "InvalidT1",
      "inputs": []
    },
    {
      "type": "error",
      "name": "InvalidT2",
      "inputs": []
    },
    {
      "type": "error",
      "name": "InvalidTCrit",
      "inputs": []
    },
    {
      "type": "error",
      "name": "InvalidTLow",
      "inputs": []
    },
    {
      "type": "error",
      "name": "InvalidTMin",
      "inputs": []
    },
    {
      "type": "error",
      "name": "InvalidU1",
      "inputs": []
    },
    {
      "type": "error",
      "name": "InvalidU2",
      "inputs": []
    },
    {
      "type": "error",
      "name": "InvalidUcrit",
      "inputs": []
    },
    {
      "type": "error",
      "name": "SafeCastOverflowedIntDowncast",
      "inputs": [
        {
          "name": "bits",
          "type": "uint8",
          "internalType": "uint8"
        },
        {
          "name": "value",
          "type": "int256",
          "internalType": "int256"
        }
      ]
    },
    {
      "type": "error",
      "name": "SafeCastOverflowedUintToInt",
      "inputs": [
        {
          "name": "value",
          "type": "uint256",
          "internalType": "uint256"
        }
      ]
    }
  ],
  "bytecode": "0x60a060405234801561000f575f5ffd5b5060405161155a38038061155a83398101604081905261002e9161003f565b6001600160a01b031660805261006c565b5f6020828403121561004f575f5ffd5b81516001600160a01b0381168114610065575f5ffd5b9392505050565b6080516114b46100a65f395f818160b701528181610272015281816108f101528181610972015281816109ef0152610abf01526114b45ff3fe608060405234801561000f575f5ffd5b5060043610610090575f3560e01c80637ecebe00116100635780637ecebe0014610113578063cb1939421461013b578063e8f96c031461014e578063f012c6071461016e578063fa55dc6c14610183575f5ffd5b806316d3bfbb146100945780631e75db16146100b2578063357820e4146100f15780636bcc821614610104575b5f5ffd5b61009f6301e1338081565b6040519081526020015b60405180910390f35b6100d97f000000000000000000000000000000000000000000000000000000000000000081565b6040516001600160a01b0390911681526020016100a9565b6100d96100ff366004610f59565b6101b5565b61009f670de0b6b3a764000081565b61009f610121366004610fc3565b6001600160a01b03165f9081526020819052604090205490565b6100d9610149366004610fdc565b6101e9565b61016161015c366004611004565b61029e565b6040516100a991906110bf565b61018161017c366004611004565b61095b565b005b6101a5610191366004610fc3565b60016020525f908152604090205460ff1681565b60405190151581526020016100a9565b5f6101df6101c836889003880188611115565b6101d7368890038801886111db565b8686866109d6565b9695505050505050565b5f6001600160a01b0383166102115760405163e4452e2b60e01b815260040160405180910390fd5b6001600160a01b0383165f90815260208181526040918290205482516bffffffffffffffffffffffff19606088901b1681840152603481019190915260548082018690528351808303909101815260749091019092528151910120610297907f000000000000000000000000000000000000000000000000000000000000000090610b9b565b9392505050565b610302604051806101a001604052805f81526020015f81526020015f81526020015f81526020015f81526020015f600b0b81526020015f600b0b81526020015f81526020015f81526020015f81526020015f81526020015f81526020015f81525090565b5f61030c83610c00565b805160608201516040830151929350610326929190610dcf565b61034357604051633aa4f48d60e11b815260040160405180910390fd5b60408101516020820151606083015161035d929091610dcf565b61037a57604051634545e7cd60e11b815260040160405180910390fd5b6060810151602082015161039691670de0b6b3a7640000610dcf565b6103b3576040516339bda99160e11b815260040160405180910390fd5b805182526040808201516020808501919091526060808401519285019290925282015190830152608081015160c082015160a08301516103f4929091610de6565b6104115760405163fd1776e160e01b815260040160405180910390fd5b60a081015160e082015160c083015161042b929091610dfb565b61044857604051635f0dc6a560e11b815260040160405180910390fd5b6101808101516301e13380905f0361047357604051633729f1fb60e11b815260040160405180910390fd5b610180820151610120830151610160840151610490929091610e10565b6104ad576040516339b4c0d960e11b815260040160405180910390fd5b6101608201516104cf906104c2836064611256565b6101208501519190610dfb565b6104ec57604051633d70c9a160e11b815260040160405180910390fd5b8161014001515f03610511576040516347be282760e01b815260040160405180910390fd5b61014082015161053390610526836064611256565b6101008501519190610dfb565b610550576040516329efd04160e21b815260040160405180910390fd5b5f82608001518360c001516105659190611285565b670de0b6b3a764000084608001518560e001516105829190611285565b61058c9190611256565b61059691906112ab565b90505f835f015184602001516105ac9190611285565b8451670de0b6b3a7640000906105c29082611285565b6105cc9190611256565b6105d691906112ab565b9050808212156105f95760405163c338890960e01b815260040160405180910390fd5b82846080015161060991906112ab565b6080860152835160208501516106659185916106259190611285565b670de0b6b3a764000087608001518860a001516106429190611285565b61064c9190611256565b61065691906112ab565b61066091906112ab565b610e26565b600b0b60a0860152835160208501516106a19185916106849190611285565b670de0b6b3a764000087608001518860c001516106429190611285565b600b0b60c086015260208401516106c090670de0b6b3a7640000611285565b8451670de0b6b3a7640000906106d69082611285565b6106e09190611256565b855160208701516106f19190611285565b6106fb9085611256565b6107059190611285565b61070f91906112ab565b60e086015261010084015160a086015160c0870151670de0b6b3a764000091610737916112e3565b600b0b6107449190611256565b61074e91906112ab565b61014086015261012084015160a086015160c0870151670de0b6b3a764000091610777916112e3565b600b0b6107849190611256565b61078e91906112ab565b610160860152835160408501516107a59190611285565b856101400151856101400151670de0b6b3a76400008860a001518960c001516107ce91906112e3565b600b0b6107db9190611256565b6107e591906112ab565b6107ef9190611285565b6107f991906112ab565b610100860152606084015160208501516108139190611285565b856101600151856101600151670de0b6b3a76400008860a001518960c0015161083c91906112e3565b600b0b6108499190611256565b61085391906112ab565b61085d9190611285565b61086791906112ab565b61012086015261014085018051670de0b6b3a7640000919061088a9083906112ab565b90525061016085018051670de0b6b3a764000091906108aa9083906112ab565b90525061018084015160a086015160c08701516108c791906112e3565b600b0b6108d491906112ab565b61018086015260405163f012c60760e01b81526001600160a01b037f0000000000000000000000000000000000000000000000000000000000000000169063f012c607906109269088906004016110bf565b5f6040518083038186803b15801561093c575f5ffd5b505afa15801561094e573d5f5f3e3d5ffd5b5050505050505050919050565b60405163f012c60760e01b81526001600160a01b037f0000000000000000000000000000000000000000000000000000000000000000169063f012c607906109a790849060040161131a565b5f6040518083038186803b1580156109bd575f5ffd5b505afa1580156109cf573d5f5f3e3d5ffd5b5050505050565b60405163f012c60760e01b81525f906001600160a01b037f0000000000000000000000000000000000000000000000000000000000000000169063f012c60790610a249089906004016110bf565b5f6040518083038186803b158015610a3a575f5ffd5b505afa158015610a4c573d5f5f3e3d5ffd5b505050505f610ab883335f81815260208190526040812080546001810190915590919060405160609290921b6bffffffffffffffffffffffff19166020830152603482015260548101839052607401604051602081830303815290604052805190602001209050919050565b9050610ae47f000000000000000000000000000000000000000000000000000000000000000082610e5f565b6040516328a313ef60e21b81529092506001600160a01b0383169063a28c4fbc90610b19908a908a908a908a906004016113cb565b5f604051808303815f87803b158015610b30575f5ffd5b505af1158015610b42573d5f5f3e3d5ffd5b505050506001600160a01b0382165f818152600160208190526040808320805460ff1916909217909155517f9bc3588919b999e2f870ba12d7f51dd4a367201f6aa80426cb1fd775cf90671d9190a25095945050505050565b6040513060388201526f5af43d82803e903d91602b57fd5bf3ff602482015260148101839052733d602d80600a3d3981f3363d3d373d3d3d363d738152605881018290526037600c820120607882015260556043909101205f90610297565b92915050565b610c5e604051806101a001604052805f81526020015f81526020015f81526020015f81526020015f81526020015f81526020015f81526020015f81526020015f81526020015f81526020015f81526020015f81526020015f81525090565b610c7d610c6e6020840184611416565b67ffffffffffffffff16610e6b565b8152610c92610c6e6060840160408501611416565b6040820152610caa610c6e6080840160608501611416565b6060820152610cc2610c6e6040840160208501611416565b6020820152610cea610cda60a084016080850161143d565b68ffffffffffffffffff16610e6b565b6080820152610d02610cda60c0840160a0850161143d565b60a0820152610d1a610cda60e0840160c0850161143d565b60c0820152610d33610cda610100840160e0850161143d565b60e0820152610d58610d4d61012084016101008501611465565b63ffffffff16610e6b565b610100820152610d73610d4d61014084016101208501611465565b610120820152610d8e610d4d61016084016101408501611465565b610140820152610da9610d4d61018084016101608501611465565b610160820152610dc4610d4d6101a084016101808501611465565b610180820152919050565b5f8383128015610dde57508184125b949350505050565b5f8383128015610dde57505090911315919050565b5f838313158015610dde575050909112919050565b5f838313158015610dde57505090911315919050565b80600b81900b8114610e5a5760405163327269a760e01b815260606004820152602481018390526044015b60405180910390fd5b919050565b5f61029783835f610e9b565b5f6001600160ff1b03821115610e975760405163123baf0360e11b815260048101839052602401610e51565b5090565b5f81471015610ec65760405163cf47918160e01b815247600482015260248101839052604401610e51565b6e5af43d82803e903d91602b57fd5bf360205283601152763d602d80600a3d3981f3363d3d373d3d3d363d730000008460881c175f52826037600984f590506001600160a01b0381166102975760405163b06ebf3d60e01b815260040160405180910390fd5b5f6101a08284031215610f3d575f5ffd5b50919050565b80356001600160a01b0381168114610e5a575f5ffd5b5f5f5f5f5f858703610240811215610f6f575f5ffd5b610f798888610f2c565b9550604061019f1982011215610f8d575f5ffd5b506101a086019350610fa26101e08701610f43565b9250610fb16102008701610f43565b94979396509194610220013592915050565b5f60208284031215610fd3575f5ffd5b61029782610f43565b5f5f60408385031215610fed575f5ffd5b610ff683610f43565b946020939093013593505050565b5f6101a08284031215611015575f5ffd5b6102978383610f2c565b805182526020810151602083015260408101516040830152606081015160608301526080810151608083015260a081015161105f60a0840182600b0b9052565b5060c081015161107460c0840182600b0b9052565b5060e081015160e08301526101008101516101008301526101208101516101208301526101408101516101408301526101608101516101608301526101808101516101808301525050565b6101a08101610bfa828461101f565b6040516101a0810167ffffffffffffffff811182821017156110fe57634e487b7160e01b5f52604160045260245ffd5b60405290565b8035600b81900b8114610e5a575f5ffd5b5f6101a0828403128015611127575f5ffd5b506111306110ce565b823581526020808401359082015260408084013590820152606080840135908201526080808401359082015261116860a08401611104565b60a082015261117960c08401611104565b60c082015260e083810135908201526101008084013590820152610120808401359082015261014080840135908201526101608084013590820152610180928301359281019290925250919050565b803563ffffffff81168114610e5a575f5ffd5b5f60408284031280156111ec575f5ffd5b506040805190810167ffffffffffffffff8111828210171561121c57634e487b7160e01b5f52604160045260245ffd5b604052611228836111c8565b815261123660208401611104565b60208201529392505050565b634e487b7160e01b5f52601160045260245ffd5b8082025f8212600160ff1b8414161561127157611271611242565b8181058314821517610bfa57610bfa611242565b8181035f8312801583831316838312821617156112a4576112a4611242565b5092915050565b5f826112c557634e487b7160e01b5f52601260045260245ffd5b600160ff1b82145f19841416156112de576112de611242565b500590565b600b82810b9082900b036b7fffffffffffffffffffffff1981126b7fffffffffffffffffffffff82131715610bfa57610bfa611242565b81358152602080830135908201526040808301359082015260608083013590820152608080830135908201526101a0810161135760a08401611104565b61136660a0840182600b0b9052565b5061137360c08401611104565b61138260c0840182600b0b9052565b5060e08381013590830152610100808401359083015261012080840135908301526101408084013590830152610160808401359083015261018092830135929091019190915290565b61022081016113da828761101f565b845163ffffffff166101a0830152602090940151600b0b6101c08201526001600160a01b039283166101e0820152911661020090910152919050565b5f60208284031215611426575f5ffd5b813567ffffffffffffffff81168114610297575f5ffd5b5f6020828403121561144d575f5ffd5b813568ffffffffffffffffff81168114610297575f5ffd5b5f60208284031215611475575f5ffd5b610297826111c856fea2646970667358221220fd509706fc79d7d132a525740127c889e82c3fc3f4be4d10f97a263a4cdb50ec64736f6c634300081c0033",
  "language": "Solidity",
  "compiler": "0.8.28+commit.7893614a"
}