{
  "address": "0x205451eB57b1C302EC58443223B52AadD13d69B9",
  "abi": [
    {
      "type": "function",
      "name": "acceptOwnership",
      "inputs": [],
      "outputs": [],
      "stateMutability": "nonpayable"
    },
    {
      "type": "function",
      "name": "afterAction",
      "inputs": [
        {
          "name": "_silo",
          "type": "address",
          "internalType": "address"
        },
        {
          "name": "_action",
          "type": "uint256",
          "internalType": "uint256"
        },
        {
          "name": "_inputAndOutput",
          "type": "bytes",
          "internalType": "bytes"
        }
      ],
      "outputs": [],
      "stateMutability": "nonpayable"
    },
    {
      "type": "function",
      "name": "beforeAction",
      "inputs": [
        {
          "name": "",
          "type": "address",
          "internalType": "address"
        },
        {
          "name": "",
          "type": "uint256",
          "internalType": "uint256"
        },
        {
          "name": "",
          "type": "bytes",
          "internalType": "bytes"
        }
      ],
      "outputs": [],
      "stateMutability": "nonpayable"
    },
    {
      "type": "function",
      "name": "configuredGauges",
      "inputs": [
        {
          "name": "",
          "type": "address",
          "internalType": "contract IShareToken"
        }
      ],
      "outputs": [
        {
          "name": "",
          "type": "address",
          "internalType": "contract ISiloIncentivesController"
        }
      ],
      "stateMutability": "view"
    },
    {
      "type": "function",
      "name": "hookReceiverConfig",
      "inputs": [
        {
          "name": "_silo",
          "type": "address",
          "internalType": "address"
        }
      ],
      "outputs": [
        {
          "name": "hooksBefore",
          "type": "uint24",
          "internalType": "uint24"
        },
        {
          "name": "hooksAfter",
          "type": "uint24",
          "internalType": "uint24"
        }
      ],
      "stateMutability": "view"
    },
    {
      "type": "function",
      "name": "initialize",
      "inputs": [
        {
          "name": "_config",
          "type": "address",
          "internalType": "contract ISiloConfig"
        },
        {
          "name": "_data",
          "type": "bytes",
          "internalType": "bytes"
        }
      ],
      "outputs": [],
      "stateMutability": "nonpayable"
    },
    {
      "type": "function",
      "name": "liquidationCall",
      "inputs": [
        {
          "name": "_collateralAsset",
          "type": "address",
          "internalType": "address"
        },
        {
          "name": "_debtAsset",
          "type": "address",
          "internalType": "address"
        },
        {
          "name": "_borrower",
          "type": "address",
          "internalType": "address"
        },
        {
          "name": "_maxDebtToCover",
          "type": "uint256",
          "internalType": "uint256"
        },
        {
          "name": "_receiveSToken",
          "type": "bool",
          "internalType": "bool"
        }
      ],
      "outputs": [
        {
          "name": "withdrawCollateral",
          "type": "uint256",
          "internalType": "uint256"
        },
        {
          "name": "repayDebtAssets",
          "type": "uint256",
          "internalType": "uint256"
        }
      ],
      "stateMutability": "nonpayable"
    },
    {
      "type": "function",
      "name": "maxLiquidation",
      "inputs": [
        {
          "name": "_borrower",
          "type": "address",
          "internalType": "address"
        }
      ],
      "outputs": [
        {
          "name": "collateralToLiquidate",
          "type": "uint256",
          "internalType": "uint256"
        },
        {
          "name": "debtToRepay",
          "type": "uint256",
          "internalType": "uint256"
        },
        {
          "name": "sTokenRequired",
          "type": "bool",
          "internalType": "bool"
        }
      ],
      "stateMutability": "view"
    },
    {
      "type": "function",
      "name": "owner",
      "inputs": [],
      "outputs": [
        {
          "name": "",
          "type": "address",
          "internalType": "address"
        }
      ],
      "stateMutability": "view"
    },
    {
      "type": "function",
      "name": "pendingOwner",
      "inputs": [],
      "outputs": [
        {
          "name": "",
          "type": "address",
          "internalType": "address"
        }
      ],
      "stateMutability": "view"
    },
    {
      "type": "function",
      "name": "removeGauge",
      "inputs": [
        {
          "name": "_shareToken",
          "type": "address",
          "internalType": "contract IShareToken"
        }
      ],
      "outputs": [],
      "stateMutability": "nonpayable"
    },
    {
      "type": "function",
      "name": "renounceOwnership",
      "inputs": [],
      "outputs": [],
      "stateMutability": "nonpayable"
    },
    {
      "type": "function",
      "name": "setGauge",
      "inputs": [
        {
          "name": "_gauge",
          "type": "address",
          "internalType": "contract ISiloIncentivesController"
        },
        {
          "name": "_shareToken",
          "type": "address",
          "internalType": "contract IShareToken"
        }
      ],
      "outputs": [],
      "stateMutability": "nonpayable"
    },
    {
      "type": "function",
      "name": "siloConfig",
      "inputs": [],
      "outputs": [
        {
          "name": "",
          "type": "address",
          "internalType": "contract ISiloConfig"
        }
      ],
      "stateMutability": "view"
    },
    {
      "type": "function",
      "name": "transferOwnership",
      "inputs": [
        {
          "name": "newOwner",
          "type": "address",
          "internalType": "address"
        }
      ],
      "outputs": [],
      "stateMutability": "nonpayable"
    },
    {
      "type": "function",
      "name": "transferOwnership1Step",
      "inputs": [
        {
          "name": "newOwner",
          "type": "address",
          "internalType": "address"
        }
      ],
      "outputs": [],
      "stateMutability": "nonpayable"
    },
    {
      "type": "event",
      "name": "GaugeConfigured",
      "inputs": [
        {
          "name": "gauge",
          "type": "address",
          "indexed": false,
          "internalType": "address"
        },
        {
          "name": "shareToken",
          "type": "address",
          "indexed": false,
          "internalType": "address"
        }
      ],
      "anonymous": false
    },
    {
      "type": "event",
      "name": "GaugeRemoved",
      "inputs": [
        {
          "name": "shareToken",
          "type": "address",
          "indexed": false,
          "internalType": "address"
        }
      ],
      "anonymous": false
    },
    {
      "type": "event",
      "name": "HookConfigured",
      "inputs": [
        {
          "name": "silo",
          "type": "address",
          "indexed": false,
          "internalType": "address"
        },
        {
          "name": "hooksBefore",
          "type": "uint24",
          "indexed": false,
          "internalType": "uint24"
        },
        {
          "name": "hooksAfter",
          "type": "uint24",
          "indexed": false,
          "internalType": "uint24"
        }
      ],
      "anonymous": false
    },
    {
      "type": "event",
      "name": "Initialized",
      "inputs": [
        {
          "name": "version",
          "type": "uint64",
          "indexed": false,
          "internalType": "uint64"
        }
      ],
      "anonymous": false
    },
    {
      "type": "event",
      "name": "LiquidationCall",
      "inputs": [
        {
          "name": "liquidator",
          "type": "address",
          "indexed": true,
          "internalType": "address"
        },
        {
          "name": "silo",
          "type": "address",
          "indexed": true,
          "internalType": "address"
        },
        {
          "name": "borrower",
          "type": "address",
          "indexed": true,
          "internalType": "address"
        },
        {
          "name": "repayDebtAssets",
          "type": "uint256",
          "indexed": false,
          "internalType": "uint256"
        },
        {
          "name": "withdrawCollateral",
          "type": "uint256",
          "indexed": false,
          "internalType": "uint256"
        },
        {
          "name": "receiveSToken",
          "type": "bool",
          "indexed": false,
          "internalType": "bool"
        }
      ],
      "anonymous": false
    },
    {
      "type": "event",
      "name": "OwnershipTransferStarted",
      "inputs": [
        {
          "name": "previousOwner",
          "type": "address",
          "indexed": true,
          "internalType": "address"
        },
        {
          "name": "newOwner",
          "type": "address",
          "indexed": true,
          "internalType": "address"
        }
      ],
      "anonymous": false
    },
    {
      "type": "event",
      "name": "OwnershipTransferred",
      "inputs": [
        {
          "name": "previousOwner",
          "type": "address",
          "indexed": true,
          "internalType": "address"
        },
        {
          "name": "newOwner",
          "type": "address",
          "indexed": true,
          "internalType": "address"
        }
      ],
      "anonymous": false
    },
    {
      "type": "error",
      "name": "AddressEmptyCode",
      "inputs": [
        {
          "name": "target",
          "type": "address",
          "internalType": "address"
        }
      ]
    },
    {
      "type": "error",
      "name": "AlreadyConfigured",
      "inputs": []
    },
    {
      "type": "error",
      "name": "CantRemoveActiveGauge",
      "inputs": []
    },
    {
      "type": "error",
      "name": "EmptyGaugeAddress",
      "inputs": []
    },
    {
      "type": "error",
      "name": "EmptySiloConfig",
      "inputs": []
    },
    {
      "type": "error",
      "name": "FailedCall",
      "inputs": []
    },
    {
      "type": "error",
      "name": "FullLiquidationRequired",
      "inputs": []
    },
    {
      "type": "error",
      "name": "GaugeAlreadyConfigured",
      "inputs": []
    },
    {
      "type": "error",
      "name": "GaugeIsNotConfigured",
      "inputs": []
    },
    {
      "type": "error",
      "name": "InsufficientBalance",
      "inputs": [
        {
          "name": "balance",
          "type": "uint256",
          "internalType": "uint256"
        },
        {
          "name": "needed",
          "type": "uint256",
          "internalType": "uint256"
        }
      ]
    },
    {
      "type": "error",
      "name": "InvalidInitialization",
      "inputs": []
    },
    {
      "type": "error",
      "name": "InvalidShareToken",
      "inputs": []
    },
    {
      "type": "error",
      "name": "NoCollateralToLiquidate",
      "inputs": []
    },
    {
      "type": "error",
      "name": "NoDebtToCover",
      "inputs": []
    },
    {
      "type": "error",
      "name": "NoRepayAssets",
      "inputs": []
    },
    {
      "type": "error",
      "name": "NotInitializing",
      "inputs": []
    },
    {
      "type": "error",
      "name": "OnlySilo",
      "inputs": []
    },
    {
      "type": "error",
      "name": "OnlySiloOrShareToken",
      "inputs": []
    },
    {
      "type": "error",
      "name": "OwnableInvalidOwner",
      "inputs": [
        {
          "name": "owner",
          "type": "address",
          "internalType": "address"
        }
      ]
    },
    {
      "type": "error",
      "name": "OwnableUnauthorizedAccount",
      "inputs": [
        {
          "name": "account",
          "type": "address",
          "internalType": "address"
        }
      ]
    },
    {
      "type": "error",
      "name": "OwnerIsZeroAddress",
      "inputs": []
    },
    {
      "type": "error",
      "name": "ReentrancyGuardReentrantCall",
      "inputs": []
    },
    {
      "type": "error",
      "name": "RequestNotSupported",
      "inputs": []
    },
    {
      "type": "error",
      "name": "SafeERC20FailedOperation",
      "inputs": [
        {
          "name": "token",
          "type": "address",
          "internalType": "address"
        }
      ]
    },
    {
      "type": "error",
      "name": "UnexpectedCollateralToken",
      "inputs": []
    },
    {
      "type": "error",
      "name": "UnexpectedDebtToken",
      "inputs": []
    },
    {
      "type": "error",
      "name": "UnknownRatio",
      "inputs": []
    },
    {
      "type": "error",
      "name": "UserIsSolvent",
      "inputs": []
    },
    {
      "type": "error",
      "name": "WrongGaugeShareToken",
      "inputs": []
    }
  ],
  "bytecode": "0x608060405234801561000f575f5ffd5b50338061001a610061565b6001600160a01b03811661004757604051631e4fbdf760e01b81525f600482015260240160405180910390fd5b61005081610113565b5061005c90505f610113565b610178565b7ff0c57e16840df040f15088dc2f81fe391c3923bec73e23a9662efc9c229c6a00805468010000000000000000900460ff16156100b15760405163f92ee8a960e01b815260040160405180910390fd5b80546001600160401b03908116146101105780546001600160401b0319166001600160401b0390811782556040519081527fc7f505b2f371ae2175ee4913f4499e1f2633a7b5936321eed1cdaeb6115181d29060200160405180910390a15b50565b600380546001600160a01b031916905561011081600280546001600160a01b038381166001600160a01b0319831681179093556040519116919082907f8be0079c531659141344cd1fd0a4f28419497f9722a3daafe3b4186f6b6457e0905f90a35050565b612afa806101855f395ff3fe608060405234801561000f575f5ffd5b50600436106100fa575f3560e01c8063aef2823511610093578063e1b9713911610063578063e1b971391461022b578063e30c39781461023e578063e4784fa91461024f578063f2fde38b146102b9575f5ffd5b8063aef28235146101c3578063bd02d848146101d6578063d1f5789414610206578063d714fd1914610219575f5ffd5b8063715018a6116100ce578063715018a61461016657806379ba50971461016e5780638da5cb5b14610176578063a37d94111461019b575f5ffd5b8062a718a9146100fe578063237e6d641461012b57806335cb1099146101405780633a04514514610153575b5f5ffd5b61011161010c366004612249565b6102cc565b604080519283526020830191909152015b60405180910390f35b61013e6101393660046122ad565b6107ef565b005b61013e61014e366004612329565b610a2c565b61013e610161366004612381565b610a6b565b61013e610b08565b61013e610b1b565b6002546001600160a01b03165b6040516001600160a01b039091168152602001610122565b6101836101a9366004612381565b60046020525f90815260409020546001600160a01b031681565b61013e6101d1366004612329565b610b64565b6101e96101e4366004612381565b610b9c565b604080519384526020840192909252151590820152606001610122565b61013e61021436600461239c565b610c33565b5f54610183906001600160a01b031681565b61013e610239366004612381565b610d5c565b6003546001600160a01b0316610183565b61029d61025d366004612381565b6001600160a01b03165f9081526001602090815260409182902082518084019093525462ffffff8082168085526301000000909204169290910182905291565b6040805162ffffff938416815292909116602083015201610122565b61013e6102c7366004612381565b610d8d565b5f8060ff815c16156102f157604051633ee5aeb560e01b815260040160405180910390fd5b60015f805c60ff19168217905d505f546001600160a01b031680610328576040516379c39cf960e01b815260040160405180910390fd5b845f03610348576040516317ff0e0960e11b815260040160405180910390fd5b806001600160a01b0316639dd413306040518163ffffffff1660e01b81526004015f604051808303815f87803b158015610380575f5ffd5b505af1158015610392573d5f5f3e3d5ffd5b505050505f5f6103a4838b8b8b610dfe565b915091506103df6040518060a001604052805f81526020015f81526020015f81526020015f81526020015f6001600160e01b03191681525090565b6101a0830151604051636da707db60e01b815273__$13ae51f56eab8417585cbbba140ac4e457$__91636da707db9161042391879187918f918f9190600401612545565b608060405180830381865af415801561043e573d5f5f3e3d5ffd5b505050506040513d601f19601f82011682018060405250810190610462919061258a565b6001600160e01b031916608085018190526060850192909252604084019290925290955061048f9061101b565b878511156104b05760405163d65db62d60e01b815260040160405180910390fd5b60608201516104ca906001600160a01b0316333088611038565b6104f082604001518684606001516001600160a01b031661109f9092919063ffffffff16565b5f876104fc57306104fe565b335b905061051b84604001518b8385604001518860a001516001611126565b825260408401516060830151608086015161053c92918d918591905f611126565b826020018181525050846001600160a01b03166362402b046040518163ffffffff1660e01b81526004015f604051808303815f87803b15801561057d575f5ffd5b505af115801561058f573d5f5f3e3d5ffd5b505050604080850151905163acb7081560e01b8152600481018990526001600160a01b038d81166024830152909116915063acb70815906044016020604051808303815f875af11580156105e5573d5f5f3e3d5ffd5b505050506040513d601f19601f8201168201806040525081019061060991906125d6565b50815115158061061c5750602082015115155b6106395760405163797c40e160e01b815260040160405180910390fd5b8715610747578151156106be576040808501518351915163a7d6e44b60e01b81526001600160a01b039091169163a7d6e44b9161067c9190600190600401612615565b602060405180830381865afa158015610697573d5f5f3e3d5ffd5b505050506040513d601f19601f820116820180604052508101906106bb91906125d6565b96505b6020820151156107425783604001516001600160a01b031663a7d6e44b83602001515f6040518363ffffffff1660e01b81526004016106fe929190612615565b602060405180830381865afa158015610719573d5f5f3e3d5ffd5b505050506040513d601f19601f8201168201806040525081019061073d91906125d6565b870196505b61077e565b61075f84604001518560a00151845f0151600161128b565b96506107798460400151856080015184602001515f61128b565b870196505b6040838101518151888152602081018a90528a15158184015291516001600160a01b038d81169392169133917f3a84f64446e8eada995aa9da2ddbfcd9b5d5d650503b19f024096d04c05ef2a99181900360600190a4505f93505050815c60ff19169050815d509550959350505050565b6107f76113e4565b6001600160a01b03821661081e5760405163d1af83ef60e01b815260040160405180910390fd5b806001600160a01b0316826001600160a01b0316631d7e35566040518163ffffffff1660e01b8152600401602060405180830381865afa158015610864573d5f5f3e3d5ffd5b505050506040513d601f19601f820116820180604052508101906108889190612639565b6001600160a01b0316146108af5760405163060a0aaf60e41b815260040160405180910390fd5b6001600160a01b038082165f908152600460205260409020541680156108e85760405163d0c7225560e01b815260040160405180910390fd5b5f826001600160a01b031663eb3beb296040518163ffffffff1660e01b8152600401602060405180830381865afa158015610925573d5f5f3e3d5ffd5b505050506040513d601f19601f820116820180604052508101906109499190612639565b90505f6109568285611411565b6001600160a01b0383165f90815260016020526040812054919250906301000000900462ffffff169050610400821761098e82821790565b91506109bd846109b7866001600160a01b03165f9081526001602052604090205462ffffff1690565b8461151a565b6001600160a01b038681165f8181526004602090815260409182902080546001600160a01b031916948c16948517905581519384528301919091527f213d54ca7d6adb897962b4f78f6c2424aa527ee584f57a6000f961c507e0ec27910160405180910390a150505050505050565b610a35336115fd565b610a52576040516310528c6d60e11b815260040160405180910390fd5b604051632a188cb160e21b815260040160405180910390fd5b610a736113e4565b6001600160a01b038082165f908152600460205260409020541680610aab57604051632e77844760e21b815260040160405180910390fd5b6001600160a01b0382165f8181526004602090815260409182902080546001600160a01b031916905590519182527f94ac12f5301759f065db9de7f23677e50bef009f062b028d4d4612f620f0f5fb910160405180910390a15050565b610b106113e4565b610b195f6116a4565b565b60035433906001600160a01b03168114610b585760405163118cdaa760e01b81526001600160a01b03821660048201526024015b60405180910390fd5b610b61816116a4565b50565b610b6d336116bd565b610b8a576040516358ec9b7760e11b815260040160405180910390fd5b610b96848484846118d4565b50505050565b5f8054604051631c2b1ded60e01b81526001600160a01b03918216600482015290831660248201528190819073__$13ae51f56eab8417585cbbba140ac4e457$__90631c2b1ded90604401606060405180830381865af4158015610c02573d5f5f3e3d5ffd5b505050506040513d601f19601f82011682018060405250810190610c26919061265f565b9250925092509193909250565b7ff0c57e16840df040f15088dc2f81fe391c3923bec73e23a9662efc9c229c6a008054600160401b810460ff16159067ffffffffffffffff165f81158015610c785750825b90505f8267ffffffffffffffff166001148015610c945750303b155b905081158015610ca2575080155b15610cc05760405163f92ee8a960e01b815260040160405180910390fd5b845467ffffffffffffffff191660011785558315610cea57845460ff60401b1916600160401b1785555b5f610cf787890189612381565b9050610d0289611a13565b610d0b81611a8c565b508315610d5257845460ff60401b19168555604051600181527fc7f505b2f371ae2175ee4913f4499e1f2633a7b5936321eed1cdaeb6115181d29060200160405180910390a15b5050505050505050565b610d646113e4565b6001600160a01b038116610b5857604051631e4fbdf760e01b81525f6004820152602401610b4f565b610d956113e4565b600380546001600160a01b0383166001600160a01b03199091168117909155610dc66002546001600160a01b031690565b6001600160a01b03167f38d16b8cac22d99fc7c124b9cd0de2d3fa1faef420bfe791d8c362d765e2270060405160405180910390a350565b610e0661219d565b610e0e61219d565b6040516394c0527d60e01b81526001600160a01b0384811660048301528716906394c0527d9060240161044060405180830381865afa158015610e53573d5f5f3e3d5ffd5b505050506040513d601f19601f82011682018060405250810190610e7791906127e4565b604081015191935091506001600160a01b0316610ea757604051632f13551560e11b815260040160405180910390fd5b81606001516001600160a01b0316856001600160a01b031614610edd5760405163055692d760e21b815260040160405180910390fd5b80606001516001600160a01b0316846001600160a01b031614610f135760405163129e080d60e21b815260040160405180910390fd5b80604001516001600160a01b031663a6afed956040518163ffffffff1660e01b81526004016020604051808303815f875af1158015610f54573d5f5f3e3d5ffd5b505050506040513d601f19601f82011682018060405250810190610f7891906125d6565b5080604001516001600160a01b031682604001516001600160a01b0316146110125781604001516001600160a01b031663a6afed956040518163ffffffff1660e01b81526004016020604051808303815f875af1158015610fdb573d5f5f3e3d5ffd5b505050506040513d601f19601f82011682018060405250810190610fff91906125d6565b5061100982611abb565b61101281611abb565b94509492505050565b6001600160e01b031981165f0361102f5750565b610b6181611b41565b6040516001600160a01b038481166024830152838116604483015260648201839052610b969186918216906323b872dd906084015b604051602081830303815290604052915060e01b6020820180516001600160e01b038381831617835250505050611b72565b604051636eb1769f60e11b81523060048201526001600160a01b0383811660248301525f919085169063dd62ed3e90604401602060405180830381865afa1580156110ec573d5f5f3e3d5ffd5b505050506040513d601f19601f8201168201806040525081019061111091906125d6565b9050610b968484611121858561282d565b611bd8565b5f835f0361113557505f611281565b61120b84886001600160a01b031663b6d821c7856040518263ffffffff1660e01b81526004016111659190612840565b602060405180830381865afa158015611180573d5f5f3e3d5ffd5b505050506040513d601f19601f820116820180604052508101906111a491906125d6565b856001600160a01b03166318160ddd6040518163ffffffff1660e01b8152600401602060405180830381865afa1580156111e0573d5f5f3e3d5ffd5b505050506040513d601f19601f8201168201806040525081019061120491906125d6565b5f86611c67565b9050805f0361121b57505f611281565b604051633661585b60e21b81526001600160a01b03878116600483015286811660248301526044820183905284169063d985616c906064015f604051808303815f87803b15801561126a575f5ffd5b505af115801561127c573d5f5f3e3d5ffd5b505050505b9695505050505050565b5f825f0361129a57505f6113dc565b6040516306d29bb360e51b81526001600160a01b0386169063da537660906112cc90869033903090889060040161285a565b6020604051808303815f875af1925050508015611306575060408051601f3d908101601f19168201909252611303918101906125d6565b60015b6113d9573d808015611333576040519150601f19603f3d011682016040523d82523d5f602084013e611338565b606091505b5061134281611ca4565b156113bb5760405163a9059cbb60e01b8152336004820152602481018590526001600160a01b0386169063a9059cbb906044016020604051808303815f875af1158015611391573d5f5f3e3d5ffd5b505050506040513d601f19601f820116820180604052508101906113b59190612885565b506113d3565b6113d38160405180602001604052805f815250611cd3565b506113dc565b90505b949350505050565b6002546001600160a01b03163314610b195760405163118cdaa760e01b8152336004820152602401610b4f565b5f8054604051630483b24f60e41b81526001600160a01b0385811660048301528392839283929091169063483b24f090602401606060405180830381865afa15801561145f573d5f5f3e3d5ffd5b505050506040513d601f19601f8201168201806040525081019061148391906128a0565b925092509250816001600160a01b0316856001600160a01b0316036114af576108009350505050611514565b826001600160a01b0316856001600160a01b0316036114d5576110009350505050611514565b806001600160a01b0316856001600160a01b0316036114fb576120009350505050611514565b60405163d938fa3760e01b815260040160405180910390fd5b92915050565b60408051808201825262ffffff84811680835284821660208085018281526001600160a01b038a165f81815260018452889020965187549251871663010000000265ffffffffffff1990931696169590951717909455845192835292820152918201527f1c26a8451bc890d476a0e7bb8310f00750604879bb30d4813a7718a1ee089fa69060600160405180910390a1826001600160a01b031663cad1aacf6040518163ffffffff1660e01b81526004015f604051808303815f87803b1580156115e2575f5ffd5b505af11580156115f4573d5f5f3e3d5ffd5b50505050505050565b5f80546040805163aecc90cb60e01b81528151849384936001600160a01b039091169263aecc90cb92600480830193928290030181865afa158015611644573d5f5f3e3d5ffd5b505050506040513d601f19601f8201168201806040525081019061166891906128df565b91509150816001600160a01b0316846001600160a01b031614806113dc5750806001600160a01b0316846001600160a01b031614949350505050565b600380546001600160a01b0319169055610b6181611cfc565b5f80546040805163aecc90cb60e01b81528151849384936001600160a01b039091169263aecc90cb92600480830193928290030181865afa158015611704573d5f5f3e3d5ffd5b505050506040513d601f19601f8201168201806040525081019061172891906128df565b91509150816001600160a01b0316846001600160a01b0316148061175d5750806001600160a01b0316846001600160a01b0316145b1561176c575060019392505050565b5f8054604051630483b24f60e41b81526001600160a01b0385811660048301528392169063483b24f090602401606060405180830381865afa1580156117b4573d5f5f3e3d5ffd5b505050506040513d601f19601f820116820180604052508101906117d891906128a0565b919350909150506001600160a01b03868116908316148061180a5750806001600160a01b0316866001600160a01b0316145b1561181b5750600195945050505050565b5f54604051630483b24f60e41b81526001600160a01b0385811660048301529091169063483b24f090602401606060405180830381865afa158015611862573d5f5f3e3d5ffd5b505050506040513d601f19601f8201168201806040525081019061188691906128a0565b919350909150506001600160a01b0386811690831614806118b85750806001600160a01b0316866001600160a01b0316145b156118c95750600195945050505050565b505f95945050505050565b335f908152600460205260409020546001600160a01b0316806118f75750610b96565b61192c84611926876001600160a01b03165f9081526001602052604090205462ffffff63010000009091041690565b81161490565b6119365750610b96565b5f61197584848080601f0160208091040260200160405190810160405280939291908181526020018383808284375f92019190915250611d4d92505050565b805160608201516020830151608084015160a0850151604080870151905163bbdc013b60e01b81526001600160a01b039687166004820152602481019590955292851660448501526064840191909152608483015260a482015291925083169063bbdc013b9060c4015f604051808303815f87803b1580156119f5575f5ffd5b505af1158015611a07573d5f5f3e3d5ffd5b50505050505050505050565b611a1b611df1565b6001600160a01b038116611a42576040516379c39cf960e01b815260040160405180910390fd5b5f546001600160a01b031615611a6b576040516308db0db560e11b815260040160405180910390fd5b5f80546001600160a01b0319166001600160a01b0392909216919091179055565b611a94611df1565b6001600160a01b038116610b58576040516354a4010f60e01b815260040160405180910390fd5b8061020001518015611ad9575060e08101516001600160a01b031615155b15610b615760e08101516060820151604051637cfd30cd60e11b81526001600160a01b03918216600482015291169063f9fa619a906024015f604051808303815f87803b158015611b28575f5ffd5b505af1158015611b3a573d5f5f3e3d5ffd5b5050505050565b6040805160048152602481019091526020810180516001600160e01b03166001600160e01b03198416178152815190fd5b5f611b866001600160a01b03841683611e3a565b905080515f14158015611baa575080806020019051810190611ba89190612885565b155b15611bd357604051635274afe760e01b81526001600160a01b0384166004820152602401610b4f565b505050565b604080516001600160a01b038416602482015260448082018490528251808303909101815260649091019091526020810180516001600160e01b031663095ea7b360e01b179052611c298482611e4e565b610b96576040516001600160a01b0384811660248301525f6044830152611c5d91869182169063095ea7b39060640161106d565b610b968482611b72565b5f5f5f611c75878786611eeb565b91509150815f03611c8a578792505050611c9b565b611c9688838388611f46565b925050505b95945050505050565b5f81516004148015611514575063284fe51560e01b611cc28361290c565b6001600160e01b0319161492915050565b815115611ce257815182602001fd5b8060405162461bcd60e51b8152600401610b4f919061294a565b600280546001600160a01b038381166001600160a01b0319831681179093556040519116919082907f8be0079c531659141344cd1fd0a4f28419497f9722a3daafe3b4186f6b6457e0905f90a35050565b611d926040518060c001604052805f6001600160a01b031681526020015f6001600160a01b031681526020015f81526020015f81526020015f81526020015f81525090565b506014810151602882015160488301516068840151608885015160a8909501516040805160c0810182526001600160a01b039687168152959094166020860152928401919091526060830152608082019290925260a081019190915290565b7ff0c57e16840df040f15088dc2f81fe391c3923bec73e23a9662efc9c229c6a0054600160401b900460ff16610b1957604051631afcd79f60e31b815260040160405180910390fd5b6060611e4783835f611f88565b9392505050565b5f5f5f846001600160a01b031684604051611e69919061297f565b5f604051808303815f865af19150503d805f8114611ea2576040519150601f19603f3d011682016040523d82523d5f602084013e611ea7565b606091505b5091509150818015611ed1575080511580611ed1575080806020019051810190611ed19190612885565b8015611c9b5750505050506001600160a01b03163b151590565b5f5f835f03611ef8575f94505b6002836002811115611f0c57611f0c6125ed565b14611f3757611f1d6003600a612a78565b611f27908561282d565b611f3286600161282d565b611f3a565b83855b90969095509350505050565b5f611f73611f538361201e565b8015611f6e57505f8480611f6957611f69612a83565b868809115b151590565b611f7e86868661204a565b6113d9919061282d565b606081471015611fb45760405163cf47918160e01b815247600482015260248101839052604401610b4f565b5f5f856001600160a01b03168486604051611fcf919061297f565b5f6040518083038185875af1925050503d805f8114612009576040519150601f19603f3d011682016040523d82523d5f602084013e61200e565b606091505b5091509150611281868383612107565b5f6002826003811115612033576120336125ed565b61203d9190612a97565b60ff166001149050919050565b5f838302815f1985870982811083820303915050805f0361207e5783828161207457612074612a83565b0492505050611e47565b80841161209c5761209c8415612095576011612163565b6012612163565b5f848688095f868103871696879004966002600389028118808a02820302808a02820302808a02820302808a02820302808a02820302808a02909103029181900381900460010186841190950394909402919094039290920491909117919091029150509392505050565b60608261211c5761211782612174565b611e47565b815115801561213357506001600160a01b0384163b155b1561215c57604051639996b31560e01b81526001600160a01b0385166004820152602401610b4f565b5080611e47565b634e487b715f52806020526024601cfd5b8051156121845780518082602001fd5b60405163d6bda27560e01b815260040160405180910390fd5b60408051610220810182525f80825260208201819052918101829052606081018290526080810182905260a0810182905260c0810182905260e08101829052610100810182905261012081018290526101408101829052610160810182905261018081018290526101a081018290526101c081018290526101e0810182905261020081019190915290565b6001600160a01b0381168114610b61575f5ffd5b8015158114610b61575f5ffd5b5f5f5f5f5f60a0868803121561225d575f5ffd5b853561226881612228565b9450602086013561227881612228565b9350604086013561228881612228565b925060608601359150608086013561229f8161223c565b809150509295509295909350565b5f5f604083850312156122be575f5ffd5b82356122c981612228565b915060208301356122d981612228565b809150509250929050565b5f5f83601f8401126122f4575f5ffd5b50813567ffffffffffffffff81111561230b575f5ffd5b602083019150836020828501011115612322575f5ffd5b9250929050565b5f5f5f5f6060858703121561233c575f5ffd5b843561234781612228565b935060208501359250604085013567ffffffffffffffff811115612369575f5ffd5b612375878288016122e4565b95989497509550505050565b5f60208284031215612391575f5ffd5b8135611e4781612228565b5f5f5f604084860312156123ae575f5ffd5b83356123b981612228565b9250602084013567ffffffffffffffff8111156123d4575f5ffd5b6123e0868287016122e4565b9497909650939450505050565b8051825260208101516020830152604081015161241560408401826001600160a01b03169052565b50606081015161243060608401826001600160a01b03169052565b50608081015161244b60808401826001600160a01b03169052565b5060a081015161246660a08401826001600160a01b03169052565b5060c081015161248160c08401826001600160a01b03169052565b5060e081015161249c60e08401826001600160a01b03169052565b506101008101516124b96101008401826001600160a01b03169052565b506101208101516124d66101208401826001600160a01b03169052565b506101408101516101408301526101608101516101608301526101808101516101808301526101a08101516101a08301526101c08101516101c08301526101e081015161252f6101e08401826001600160a01b03169052565b50610200810151611bd361020084018215159052565b6104a0810161255482886123ed565b6125626102208301876123ed565b6001600160a01b03949094166104408201526104608101929092526104809091015292915050565b5f5f5f5f6080858703121561259d575f5ffd5b845160208601516040870151606088015192965090945092506001600160e01b0319811681146125cb575f5ffd5b939692955090935050565b5f602082840312156125e6575f5ffd5b5051919050565b634e487b7160e01b5f52602160045260245ffd5b60028110612611576126116125ed565b9052565b82815260408101611e476020830184612601565b805161263481612228565b919050565b5f60208284031215612649575f5ffd5b8151611e4781612228565b80516126348161223c565b5f5f5f60608486031215612671575f5ffd5b835160208501516040860151919450925061268b8161223c565b809150509250925092565b604051610220810167ffffffffffffffff811182821017156126c657634e487b7160e01b5f52604160045260245ffd5b60405290565b5f61022082840312156126dd575f5ffd5b6126e5612696565b8251815260208084015190820152905061270160408301612629565b604082015261271260608301612629565b606082015261272360808301612629565b608082015261273460a08301612629565b60a082015261274560c08301612629565b60c082015261275660e08301612629565b60e08201526127686101008301612629565b61010082015261277b6101208301612629565b6101208201526101408281015190820152610160808301519082015261018080830151908201526101a080830151908201526101c080830151908201526127c56101e08301612629565b6101e08201526127d86102008301612654565b61020082015292915050565b5f5f61044083850312156127f6575f5ffd5b61280084846126cc565b91506128108461022085016126cc565b90509250929050565b634e487b7160e01b5f52601160045260245ffd5b8082018082111561151457611514612819565b6020810160038310612854576128546125ed565b91905290565b8481526001600160a01b0384811660208301528316604082015260808101611c9b6060830184612601565b5f60208284031215612895575f5ffd5b8151611e478161223c565b5f5f5f606084860312156128b2575f5ffd5b83516128bd81612228565b60208501519093506128ce81612228565b604085015190925061268b81612228565b5f5f604083850312156128f0575f5ffd5b82516128fb81612228565b60208401519092506122d981612228565b805160208201516001600160e01b0319811691906004821015612943576001600160e01b0319600483900360031b81901b82161692505b5050919050565b602081525f82518060208401528060208501604085015e5f604082850101526040601f19601f83011684010191505092915050565b5f82518060208501845e5f920191825250919050565b6001815b60018411156129d0578085048111156129b4576129b4612819565b60018416156129c257908102905b60019390931c928002612999565b935093915050565b5f826129e657506001611514565b816129f257505f611514565b8160018114612a085760028114612a1257612a2e565b6001915050611514565b60ff841115612a2357612a23612819565b50506001821b611514565b5060208310610133831016604e8410600b8410161715612a51575081810a611514565b612a5d5f198484612995565b805f1904821115612a7057612a70612819565b029392505050565b5f611e4783836129d8565b634e487b7160e01b5f52601260045260245ffd5b5f60ff831680612ab557634e487b7160e01b5f52601260045260245ffd5b8060ff8416069150509291505056fea2646970667358221220e55f655a225c54eefeccfef1a027ec2f44c255f7fe0950657ab56b9ddf1fd67664736f6c634300081c0033",
  "language": "Solidity",
  "compiler": "0.8.28+commit.7893614a"
}