{
  "address": "0x08A52Ec31E0E981bBd64082224185e420d3f9849",
  "abi": [
    {
      "type": "constructor",
      "inputs": [
        {
          "name": "_pendleLinearOracleFactory",
          "type": "address",
          "internalType": "address"
        }
      ],
      "stateMutability": "nonpayable"
    },
    {
      "type": "function",
      "name": "ORACLE_IMPLEMENTATION",
      "inputs": [],
      "outputs": [
        {
          "name": "",
          "type": "address",
          "internalType": "address"
        }
      ],
      "stateMutability": "view"
    },
    {
      "type": "function",
      "name": "PENDLE_SPARK_LINEAR_DISCOUNT_FACTORY",
      "inputs": [],
      "outputs": [
        {
          "name": "",
          "type": "address",
          "internalType": "contract ISparkLinearDiscountOracleFactory"
        }
      ],
      "stateMutability": "view"
    },
    {
      "type": "function",
      "name": "create",
      "inputs": [
        {
          "name": "_deploymentConfig",
          "type": "tuple",
          "internalType": "struct IPTLinearOracleFactory.DeploymentConfig",
          "components": [
            {
              "name": "ptToken",
              "type": "address",
              "internalType": "address"
            },
            {
              "name": "maxYield",
              "type": "uint256",
              "internalType": "uint256"
            },
            {
              "name": "hardcodedQuoteToken",
              "type": "address",
              "internalType": "address"
            }
          ]
        },
        {
          "name": "_externalSalt",
          "type": "bytes32",
          "internalType": "bytes32"
        }
      ],
      "outputs": [
        {
          "name": "oracle",
          "type": "address",
          "internalType": "contract IPTLinearOracle"
        }
      ],
      "stateMutability": "nonpayable"
    },
    {
      "type": "function",
      "name": "createAndVerifyOracleConfig",
      "inputs": [
        {
          "name": "_deploymentConfig",
          "type": "tuple",
          "internalType": "struct IPTLinearOracleFactory.DeploymentConfig",
          "components": [
            {
              "name": "ptToken",
              "type": "address",
              "internalType": "address"
            },
            {
              "name": "maxYield",
              "type": "uint256",
              "internalType": "uint256"
            },
            {
              "name": "hardcodedQuoteToken",
              "type": "address",
              "internalType": "address"
            }
          ]
        }
      ],
      "outputs": [
        {
          "name": "oracleConfig",
          "type": "tuple",
          "internalType": "struct IPTLinearOracleConfig.OracleConfig",
          "components": [
            {
              "name": "linearOracle",
              "type": "address",
              "internalType": "address"
            },
            {
              "name": "ptToken",
              "type": "address",
              "internalType": "address"
            },
            {
              "name": "hardcodedQuoteToken",
              "type": "address",
              "internalType": "address"
            },
            {
              "name": "normalizationDivider",
              "type": "uint256",
              "internalType": "uint256"
            }
          ]
        }
      ],
      "stateMutability": "nonpayable"
    },
    {
      "type": "function",
      "name": "getConfigAddress",
      "inputs": [
        {
          "name": "",
          "type": "bytes32",
          "internalType": "bytes32"
        }
      ],
      "outputs": [
        {
          "name": "",
          "type": "address",
          "internalType": "address"
        }
      ],
      "stateMutability": "view"
    },
    {
      "type": "function",
      "name": "getOracleAddress",
      "inputs": [
        {
          "name": "",
          "type": "address",
          "internalType": "address"
        }
      ],
      "outputs": [
        {
          "name": "",
          "type": "address",
          "internalType": "address"
        }
      ],
      "stateMutability": "view"
    },
    {
      "type": "function",
      "name": "hashConfig",
      "inputs": [
        {
          "name": "_deploymentConfig",
          "type": "tuple",
          "internalType": "struct IPTLinearOracleFactory.DeploymentConfig",
          "components": [
            {
              "name": "ptToken",
              "type": "address",
              "internalType": "address"
            },
            {
              "name": "maxYield",
              "type": "uint256",
              "internalType": "uint256"
            },
            {
              "name": "hardcodedQuoteToken",
              "type": "address",
              "internalType": "address"
            }
          ]
        }
      ],
      "outputs": [
        {
          "name": "configId",
          "type": "bytes32",
          "internalType": "bytes32"
        }
      ],
      "stateMutability": "view"
    },
    {
      "type": "function",
      "name": "nonces",
      "inputs": [
        {
          "name": "owner",
          "type": "address",
          "internalType": "address"
        }
      ],
      "outputs": [
        {
          "name": "",
          "type": "uint256",
          "internalType": "uint256"
        }
      ],
      "stateMutability": "view"
    },
    {
      "type": "function",
      "name": "predictAddress",
      "inputs": [
        {
          "name": "_deploymentConfig",
          "type": "tuple",
          "internalType": "struct IPTLinearOracleFactory.DeploymentConfig",
          "components": [
            {
              "name": "ptToken",
              "type": "address",
              "internalType": "address"
            },
            {
              "name": "maxYield",
              "type": "uint256",
              "internalType": "uint256"
            },
            {
              "name": "hardcodedQuoteToken",
              "type": "address",
              "internalType": "address"
            }
          ]
        },
        {
          "name": "_deployer",
          "type": "address",
          "internalType": "address"
        },
        {
          "name": "_externalSalt",
          "type": "bytes32",
          "internalType": "bytes32"
        }
      ],
      "outputs": [
        {
          "name": "predictedAddress",
          "type": "address",
          "internalType": "address"
        }
      ],
      "stateMutability": "view"
    },
    {
      "type": "function",
      "name": "resolveExistingOracle",
      "inputs": [
        {
          "name": "_configId",
          "type": "bytes32",
          "internalType": "bytes32"
        }
      ],
      "outputs": [
        {
          "name": "oracle",
          "type": "address",
          "internalType": "address"
        }
      ],
      "stateMutability": "view"
    },
    {
      "type": "event",
      "name": "NewOracle",
      "inputs": [
        {
          "name": "oracle",
          "type": "address",
          "indexed": true,
          "internalType": "address"
        }
      ],
      "anonymous": false
    },
    {
      "type": "error",
      "name": "AddressZero",
      "inputs": []
    },
    {
      "type": "error",
      "name": "DeployerCannotBeZero",
      "inputs": []
    },
    {
      "type": "error",
      "name": "FailedDeployment",
      "inputs": []
    },
    {
      "type": "error",
      "name": "InsufficientBalance",
      "inputs": [
        {
          "name": "balance",
          "type": "uint256",
          "internalType": "uint256"
        },
        {
          "name": "needed",
          "type": "uint256",
          "internalType": "uint256"
        }
      ]
    },
    {
      "type": "error",
      "name": "InvalidAccountNonce",
      "inputs": [
        {
          "name": "account",
          "type": "address",
          "internalType": "address"
        },
        {
          "name": "currentNonce",
          "type": "uint256",
          "internalType": "uint256"
        }
      ]
    },
    {
      "type": "error",
      "name": "InvalidMaxYield",
      "inputs": []
    },
    {
      "type": "error",
      "name": "LinearOracleCannotBeZero",
      "inputs": []
    },
    {
      "type": "error",
      "name": "MaturityDateInvalid",
      "inputs": []
    },
    {
      "type": "error",
      "name": "MaturityDateIsInThePast",
      "inputs": []
    },
    {
      "type": "error",
      "name": "NormalizationDividerTooLarge",
      "inputs": []
    },
    {
      "type": "error",
      "name": "TokenIsNotAContract",
      "inputs": []
    }
  ],
  "bytecode": "0x60c060405234801561000f575f5ffd5b506040516120c73803806120c783398101604081905261002e916100e7565b60405161003a906100da565b604051809103905ff080158015610053573d5f5f3e3d5ffd5b506001600160a01b03811661009c5760405162461bcd60e51b815260206004820152600b60248201526a5a65726f4164647265737360a81b604482015260640160405180910390fd5b6001600160a01b0390811660805281166100c957604051639fabe1c160e01b815260040160405180910390fd5b6001600160a01b031660a052610114565b610f5b8061116c83390190565b5f602082840312156100f7575f5ffd5b81516001600160a01b038116811461010d575f5ffd5b9392505050565b60805160a05161102261014a5f395f81816101a301526102be01525f81816101690152818161048501526105d901526110225ff3fe608060405234801561000f575f5ffd5b506004361061009b575f3560e01c8063a8f39f6611610063578063a8f39f6614610164578063c5f873341461018b578063e8eb066c1461019e578063eda5f11c146101c5578063f896503a146101d8575f5ffd5b80634a666cd31461009f57806354482173146100c85780635f4ec94114610108578063609366141461011b5780637ecebe001461013c575b5f5ffd5b6100b26100ad366004610b19565b610200565b6040516100bf9190610b33565b60405180910390f35b6100f06100d6366004610b6e565b60026020525f90815260409020546001600160a01b031681565b6040516001600160a01b0390911681526020016100bf565b6100f0610116366004610b89565b61037a565b61012e610129366004610b19565b6103bf565b6040519081526020016100bf565b61012e61014a366004610b6e565b6001600160a01b03165f9081526020819052604090205490565b6100f07f000000000000000000000000000000000000000000000000000000000000000081565b6100f0610199366004610ba0565b61040f565b6100f07f000000000000000000000000000000000000000000000000000000000000000081565b6100f06101d3366004610bc9565b610520565b6100f06101e6366004610b89565b60016020525f90815260409020546001600160a01b031681565b604080516080810182525f8082526020808301829052928201819052606082015290820151670de0b6b3a76400001161024c5760405163342c103960e11b815260040160405180910390fd5b81516001600160a01b031661027457604051639fabe1c160e01b815260040160405180910390fd5b5f610281835f0151610608565b604080516080810191829052855160208701516380245dad60e01b9093526001600160a01b03908116608483015260a482019290925291925081907f0000000000000000000000000000000000000000000000000000000000000000166380245dad60c483016020604051808303815f875af1158015610303573d5f5f3e3d5ffd5b505050506040513d601f19601f820116820180604052508101906103279190610c06565b6001600160a01b03168152602001845f01516001600160a01b0316815260200184604001516001600160a01b0316815260200182600a6103679190610d18565b9052915061037482610673565b50919050565b5f818152600160205260408120546001600160a01b031680156103b6576001600160a01b038082165f90815260026020526040902054166103b8565b5f5b9392505050565b6040805182516001600160a01b03908116602080840191909152840151828401529183015190911660608201525f906080015b604051602081830303815290604052805190602001209050919050565b5f5f61041a846103bf565b90505f6104268261037a565b90506001600160a01b0381161561044057915061051a9050565b5f61044a86610200565b90505f8160405161045a90610a7e565b6104649190610b33565b604051809103905ff08015801561047d573d5f5f3e3d5ffd5b5090506104b27f00000000000000000000000000000000000000000000000000000000000000006104ad886107b1565b6107fc565b94506104bf858286610808565b60405163189acdbd60e31b81526001600160a01b03828116600483015286169063c4d66de8906024015f604051808303815f87803b1580156104ff575f5ffd5b505af1158015610511573d5f5f3e3d5ffd5b50505050505050505b92915050565b5f5f61052b856103bf565b90505f6105378261037a565b90506001600160a01b038116156105515791506103b89050565b6001600160a01b0385166105785760405163e4452e2b60e01b815260040160405180910390fd5b6001600160a01b0385165f90815260208181526040918290205482516bffffffffffffffffffffffff1960608a901b16818401526034810191909152605480820188905283518083039091018152607490910190925281519101206105fe907f0000000000000000000000000000000000000000000000000000000000000000906108d8565b9695505050505050565b6040805160048152602481019091526020810180516001600160e01b031663313ce56760e01b1790525f9081908190610642908590610937565b915091508161065457505f9392505050565b808060200190518101906106689190610d23565b60ff16949350505050565b5f81602001516001600160a01b031663e184c9be6040518163ffffffff1660e01b8152600401602060405180830381865afa1580156106b4573d5f5f3e3d5ffd5b505050506040513d601f19601f820116820180604052508101906106d89190610d43565b905080158015906106f0575067ffffffffffffffff81105b61070d57604051633b2e410960e21b815260040160405180910390fd5b42811161072d576040516370ae21ad60e11b815260040160405180910390fd5b60408201516001600160a01b031661075857604051639fabe1c160e01b815260040160405180910390fd5b81516001600160a01b031661078057604051630d4f8ca960e01b815260040160405180910390fd5b670de0b6b3a7640000826060015111156107ad57604051634c2caa7f60e01b815260040160405180910390fd5b5050565b335f81815260208190526040812080546001810190915590919060405160609290921b6bffffffffffffffffffffffff191660208301526034820152605481018390526074016103f2565b5f6103b883835f6109ed565b5f818152600160205260409020546001600160a01b0316156108665760405162461bcd60e51b815260206004820152601260248201527110dbdb999a59d05b1c9958591e515e1a5cdd60721b60448201526064015b60405180910390fd5b5f81815260016020908152604080832080546001600160a01b038088166001600160a01b03199283168117909355918552600290935281842080549188169190931681179092555190917fb3eacd0e351fafdfefdec84e1cd19679b38dbcd63ea7c2c24da17fd2bc3b3c0e91a2505050565b6040513060388201526f5af43d82803e903d91602b57fd5bf3ff602482015260148101839052733d602d80600a3d3981f3363d3d373d3d3d363d738152605881018290526037600c820120607882015260556043909101205f906103b8565b5f60606001600160a01b0384163b610962576040516373d39f9d60e01b815260040160405180910390fd5b5f5f856001600160a01b03168560405161097c9190610d5a565b5f60405180830381855afa9150503d805f81146109b4576040519150601f19603f3d011682016040523d82523d5f602084013e6109b9565b606091505b5091509150816109de575f60405180602001604052805f8152509350935050506109e6565b600193509150505b9250929050565b5f81471015610a185760405163cf47918160e01b81524760048201526024810183905260440161085d565b6e5af43d82803e903d91602b57fd5bf360205283601152763d602d80600a3d3981f3363d3d373d3d3d363d730000008460881c175f52826037600984f590506001600160a01b0381166103b85760405163b06ebf3d60e01b815260040160405180910390fd5b61027c80610d7183390190565b6001600160a01b0381168114610a9f575f5ffd5b50565b5f60608284031215610ab2575f5ffd5b6040516060810181811067ffffffffffffffff82111715610ae157634e487b7160e01b5f52604160045260245ffd5b6040529050808235610af281610a8b565b8152602083810135908201526040830135610b0c81610a8b565b6040919091015292915050565b5f60608284031215610b29575f5ffd5b6103b88383610aa2565b81516001600160a01b039081168252602080840151821690830152604080840151909116908201526060918201519181019190915260800190565b5f60208284031215610b7e575f5ffd5b81356103b881610a8b565b5f60208284031215610b99575f5ffd5b5035919050565b5f5f60808385031215610bb1575f5ffd5b610bbb8484610aa2565b946060939093013593505050565b5f5f5f60a08486031215610bdb575f5ffd5b610be58585610aa2565b92506060840135610bf581610a8b565b929592945050506080919091013590565b5f60208284031215610c16575f5ffd5b81516103b881610a8b565b634e487b7160e01b5f52601160045260245ffd5b6001815b6001841115610c7057808504811115610c5457610c54610c21565b6001841615610c6257908102905b60019390931c928002610c39565b935093915050565b5f82610c865750600161051a565b81610c9257505f61051a565b8160018114610ca85760028114610cb257610cce565b600191505061051a565b60ff841115610cc357610cc3610c21565b50506001821b61051a565b5060208310610133831016604e8410600b8410161715610cf1575081810a61051a565b610cfd5f198484610c35565b805f1904821115610d1057610d10610c21565b029392505050565b5f6103b88383610c78565b5f60208284031215610d33575f5ffd5b815160ff811681146103b8575f5ffd5b5f60208284031215610d53575f5ffd5b5051919050565b5f82518060208501845e5f92019182525091905056fe610100604052348015610010575f5ffd5b5060405161027c38038061027c83398101604081905261002f91610079565b80516001600160a01b039081166080526020820151811660a05260408201511660c0526060015160e0526100fc565b80516001600160a01b0381168114610074575f5ffd5b919050565b5f608082840312801561008a575f5ffd5b50604051608081016001600160401b03811182821017156100b957634e487b7160e01b5f52604160045260245ffd5b6040526100c58361005e565b81526100d36020840161005e565b60208201526100e46040840161005e565b60408201526060928301519281019290925250919050565b60805160a05160c05160e05161015161012b5f395f60b701525f608e01525f606601525f604101526101515ff3fe608060405234801561000f575f5ffd5b5060043610610029575f3560e01c8063c3f909d41461002d575b5f5ffd5b604080516080810182526001600160a01b037f0000000000000000000000000000000000000000000000000000000000000000811682527f0000000000000000000000000000000000000000000000000000000000000000811660208301527f000000000000000000000000000000000000000000000000000000000000000016918101919091527f000000000000000000000000000000000000000000000000000000000000000060608201526040805182516001600160a01b03908116825260208085015182169083015283830151168183015260609283015192810192909252519081900360800190f3fea264697066735822122066335cf5efadd2b0471c91651bc8e3e83c758756296c59f4faf383fffdc7161764736f6c634300081c0033a2646970667358221220a572cb29fa18a05f0e9ace3fdb814e3cc6e639a9d3a955646d7d90cbdfef3ab064736f6c634300081c00336080604052348015600e575f5ffd5b5060156019565b60c9565b7ff0c57e16840df040f15088dc2f81fe391c3923bec73e23a9662efc9c229c6a00805468010000000000000000900460ff161560685760405163f92ee8a960e01b815260040160405180910390fd5b80546001600160401b039081161460c65780546001600160401b0319166001600160401b0390811782556040519081527fc7f505b2f371ae2175ee4913f4499e1f2633a7b5936321eed1cdaeb6115181d29060200160405180910390a15b50565b610e85806100d65f395ff3fe608060405234801561000f575f5ffd5b50600436106100cb575f3560e01c80637284e41611610088578063c55dae6311610063578063c55dae63146101c1578063f9fa619a146101c9578063feaf968c146101da578063ffa1ad74146101e2575f5ffd5b80637284e416146101455780639a6fc8f51461015a578063c4d66de8146101ac575f5ffd5b806313b0be33146100cf578063217a4b70146100f5578063313ce56714610115578063324b8d6e1461012457806354fd4d5014610136578063598e54511461013d575b5f5ffd5b6100e26100dd366004610aee565b610212565b6040519081526020015b60405180910390f35b6100fd6103b6565b6040516001600160a01b0390911681526020016100ec565b604051601281526020016100ec565b5f546100fd906001600160a01b031681565b60016100e2565b6100e2610433565b61014d61050e565b6040516100ec9190610b1c565b610175610168366004610b68565b505f908190819081908190565b6040805169ffffffffffffffffffff968716815260208101959095528401929092526060830152909116608082015260a0016100ec565b6101bf6101ba366004610b8a565b61063d565b005b6100fd6107b0565b6101bf6101d7366004610b8a565b50565b610175610825565b604080518082019091526014815273050544c696e6561724f7261636c6520342e302e360641b602082015261014d565b5f80546001600160a01b03168061023c576040516321c4e35760e21b815260040160405180910390fd5b5f816001600160a01b031663c3f909d46040518163ffffffff1660e01b8152600401608060405180830381865afa158015610279573d5f5f3e3d5ffd5b505050506040513d601f19601f8201168201806040525081019061029d9190610bea565b905080602001516001600160a01b0316846001600160a01b0316146102d55760405163981a2a2b60e01b815260040160405180910390fd5b6fffffffffffffffffffffffffffffffff85111561030657604051631df5999960e21b815260040160405180910390fd5b5f815f01516001600160a01b031663feaf968c6040518163ffffffff1660e01b815260040160a060405180830381865afa158015610346573d5f5f3e3d5ffd5b505050506040513d601f19601f8201168201806040525081019061036a9190610c68565b505050915050816060015181876103819190610cbc565b61038b9190610ce5565b9350835f036103ad576040516301a7e28b60e61b815260040160405180910390fd5b50505092915050565b5f5f5f9054906101000a90046001600160a01b03166001600160a01b031663c3f909d46040518163ffffffff1660e01b8152600401608060405180830381865afa158015610406573d5f5f3e3d5ffd5b505050506040513d601f19601f8201168201806040525081019061042a9190610bea565b60400151905090565b5f5f5f9054906101000a90046001600160a01b03166001600160a01b031663c3f909d46040518163ffffffff1660e01b8152600401608060405180830381865afa158015610483573d5f5f3e3d5ffd5b505050506040513d601f19601f820116820180604052508101906104a79190610bea565b5f01516001600160a01b031663598e54516040518163ffffffff1660e01b8152600401602060405180830381865afa1580156104e5573d5f5f3e3d5ffd5b505050506040513d601f19601f820116820180604052508101906105099190610d04565b905090565b60605f6105905f5f9054906101000a90046001600160a01b03166001600160a01b031663c3f909d46040518163ffffffff1660e01b8152600401608060405180830381865afa158015610563573d5f5f3e3d5ffd5b505050506040513d601f19601f820116820180604052508101906105879190610bea565b602001516108cd565b90505f6106125f5f9054906101000a90046001600160a01b03166001600160a01b031663c3f909d46040518163ffffffff1660e01b8152600401608060405180830381865afa1580156105e5573d5f5f3e3d5ffd5b505050506040513d601f19601f820116820180604052508101906106099190610bea565b604001516108cd565b90508181604051602001610627929190610d32565b6040516020818303038152906040529250505090565b7ff0c57e16840df040f15088dc2f81fe391c3923bec73e23a9662efc9c229c6a008054600160401b810460ff16159067ffffffffffffffff165f811580156106825750825b90505f8267ffffffffffffffff16600114801561069e5750303b155b9050811580156106ac575080155b156106ca5760405163f92ee8a960e01b815260040160405180910390fd5b845467ffffffffffffffff1916600117855583156106f457845460ff60401b1916600160401b1785555b6001600160a01b03861661071e57604051600162089b9d60e21b0319815260040160405180910390fd5b5f80546001600160a01b0319166001600160a01b038816908117825560405190917ff8498d9c590d981ffb722123b267ee9ee723623d2406332ab6d713b7c7e30cec91a283156107a857845460ff60401b19168555604051600181527fc7f505b2f371ae2175ee4913f4499e1f2633a7b5936321eed1cdaeb6115181d29060200160405180910390a15b505050505050565b5f8054604080516330fe427560e21b8152905183926001600160a01b03169163c3f909d49160048083019260809291908290030181865afa1580156107f7573d5f5f3e3d5ffd5b505050506040513d601f19601f8201168201806040525081019061081b9190610bea565b6020015192915050565b5f5f5f5f5f5f5f5f9054906101000a90046001600160a01b03166001600160a01b031663c3f909d46040518163ffffffff1660e01b8152600401608060405180830381865afa15801561087a573d5f5f3e3d5ffd5b505050506040513d601f19601f8201168201806040525081019061089e9190610bea565b90506108ba6108b582606001518360200151610212565b610972565b5f97909650879550859450849350915050565b6040805160048152602481019091526020810180516001600160e01b03166395d89b4160e01b1790526060905f9081906109089085906109a6565b9150915081158061091857508051155b1561093d5750506040805180820190915260018152603f60f81b602082015292915050565b60208151036109575761094f81610a5c565b949350505050565b8080602001905181019061094f9190610d78565b5050919050565b5f6001600160ff1b038211156109a25760405163123baf0360e11b81526004810183905260240160405180910390fd5b5090565b5f60606001600160a01b0384163b6109d1576040516373d39f9d60e01b815260040160405180910390fd5b5f5f856001600160a01b0316856040516109eb9190610e0c565b5f60405180830381855afa9150503d805f8114610a23576040519150601f19603f3d011682016040523d82523d5f602084013e610a28565b606091505b509150915081610a4d575f60405180602001604052805f815250935093505050610a55565b600193509150505b9250929050565b80516060905f5b8181101561096b57838181518110610a7d57610a7d610e17565b01602001516001600160f81b03191615610ad25782848281518110610aa457610aa4610e17565b602001015160f81c60f81b604051602001610ac0929190610e2b565b60405160208183030381529060405292505b600101610a63565b6001600160a01b03811681146101d7575f5ffd5b5f5f60408385031215610aff575f5ffd5b823591506020830135610b1181610ada565b809150509250929050565b602081525f82518060208401528060208501604085015e5f604082850101526040601f19601f83011684010191505092915050565b69ffffffffffffffffffff811681146101d7575f5ffd5b5f60208284031215610b78575f5ffd5b8135610b8381610b51565b9392505050565b5f60208284031215610b9a575f5ffd5b8135610b8381610ada565b634e487b7160e01b5f52604160045260245ffd5b604051601f8201601f1916810167ffffffffffffffff81118282101715610be257610be2610ba5565b604052919050565b5f6080828403128015610bfb575f5ffd5b506040516080810167ffffffffffffffff81118282101715610c1f57610c1f610ba5565b6040528251610c2d81610ada565b81526020830151610c3d81610ada565b60208201526040830151610c5081610ada565b60408201526060928301519281019290925250919050565b5f5f5f5f5f60a08688031215610c7c575f5ffd5b8551610c8781610b51565b60208701516040880151606089015160808a015193985091965094509250610cae81610b51565b809150509295509295909350565b8082028115828204841417610cdf57634e487b7160e01b5f52601160045260245ffd5b92915050565b5f82610cff57634e487b7160e01b5f52601260045260245ffd5b500490565b5f60208284031215610d14575f5ffd5b5051919050565b5f81518060208401855e5f93019283525090919050565b720282a2634b732b0b927b930b1b632903337b91606d1b81525f610d596013830185610d1b565b6201017960ed1b8152610d6f6003820185610d1b565b95945050505050565b5f60208284031215610d88575f5ffd5b815167ffffffffffffffff811115610d9e575f5ffd5b8201601f81018413610dae575f5ffd5b805167ffffffffffffffff811115610dc857610dc8610ba5565b610ddb601f8201601f1916602001610bb9565b818152856020838501011115610def575f5ffd5b8160208401602083015e5f91810160200191909152949350505050565b5f610b838284610d1b565b634e487b7160e01b5f52603260045260245ffd5b5f610e368285610d1b565b6001600160f81b0319939093168352505060010191905056fea264697066735822122024a3915a48abd2d939f35d6ee4f5ca20ee65c0c3f80b3b00a0d22c8de2eb597764736f6c634300081c0033",
  "language": "Solidity",
  "compiler": "0.8.28+commit.7893614a"
}