{
  "address": "0x228A8688C0d8Fd6D4834c33664E5Fa775C91d11c",
  "abi": [
    {
      "type": "function",
      "name": "createERC4626Oracle",
      "inputs": [
        {
          "name": "_vault",
          "type": "address",
          "internalType": "contract IERC4626"
        },
        {
          "name": "_externalSalt",
          "type": "bytes32",
          "internalType": "bytes32"
        }
      ],
      "outputs": [
        {
          "name": "oracle",
          "type": "address",
          "internalType": "contract ISiloOracle"
        }
      ],
      "stateMutability": "nonpayable"
    },
    {
      "type": "function",
      "name": "createdInFactory",
      "inputs": [
        {
          "name": "",
          "type": "address",
          "internalType": "address"
        }
      ],
      "outputs": [
        {
          "name": "",
          "type": "bool",
          "internalType": "bool"
        }
      ],
      "stateMutability": "view"
    },
    {
      "type": "function",
      "name": "nonces",
      "inputs": [
        {
          "name": "owner",
          "type": "address",
          "internalType": "address"
        }
      ],
      "outputs": [
        {
          "name": "",
          "type": "uint256",
          "internalType": "uint256"
        }
      ],
      "stateMutability": "view"
    },
    {
      "type": "event",
      "name": "ERC4626OracleCreated",
      "inputs": [
        {
          "name": "oracle",
          "type": "address",
          "indexed": true,
          "internalType": "contract ISiloOracle"
        }
      ],
      "anonymous": false
    },
    {
      "type": "error",
      "name": "InvalidAccountNonce",
      "inputs": [
        {
          "name": "account",
          "type": "address",
          "internalType": "address"
        },
        {
          "name": "currentNonce",
          "type": "uint256",
          "internalType": "uint256"
        }
      ]
    }
  ],
  "bytecode": "0x6080604052348015600e575f5ffd5b50610acf8061001c5f395ff3fe608060405234801561000f575f5ffd5b506004361061003f575f3560e01c8063246e581b146100435780637ecebe0014610073578063b32d705b146100a9575b5f5ffd5b6100566100513660046101e9565b6100db565b6040516001600160a01b0390911681526020015b60405180910390f35b61009b610081366004610213565b6001600160a01b03165f9081526020819052604090205490565b60405190815260200161006a565b6100cb6100b7366004610213565b60016020525f908152604090205460ff1681565b604051901515815260200161006a565b335f81815260208181526040808320805460018101909155815160609590951b6bffffffffffffffffffffffff191685840152603485015260548085018690528151808603909101815260749094019052825192019190912083604051610141906101c5565b6001600160a01b0390911681526020018190604051809103905ff590508015801561016e573d5f5f3e3d5ffd5b506001600160a01b0381165f818152600160208190526040808320805460ff19169092179091555192935090917f6d86f9fc5b1bde243720a4aa74177ac89431d9fa2331e29ff3bf8ebe23fcec7f9190a292915050565b6108648061023683390190565b6001600160a01b03811681146101e6575f5ffd5b50565b5f5f604083850312156101fa575f5ffd5b8235610205816101d2565b946020939093013593505050565b5f60208284031215610223575f5ffd5b813561022e816101d2565b939250505056fe60a060405234801561000f575f5ffd5b5060405161086438038061086483398101604081905261002e9161003f565b6001600160a01b031660805261006c565b5f6020828403121561004f575f5ffd5b81516001600160a01b0381168114610065575f5ffd5b9392505050565b6080516107bd6100a75f395f8181610104015281816101b101528181610222015281816102880152818161032401526103ae01526107bd5ff3fe608060405234801561000f575f5ffd5b50600436106100a6575f3560e01c80637284e4161161006e5780637284e4161461012d5780639a6fc8f51461015d578063c55dae63146101af578063f9fa619a146101d5578063feaf968c146101e8578063ffa1ad74146101f0575f5ffd5b806313b0be33146100aa578063217a4b70146100d0578063313ce567146100f0578063411557d1146100ff57806354fd4d5014610126575b5f5ffd5b6100bd6100b836600461056f565b61021f565b6040519081526020015b60405180910390f35b6100d8610321565b6040516001600160a01b0390911681526020016100c7565b604051601281526020016100c7565b6100d87f000000000000000000000000000000000000000000000000000000000000000081565b60016100bd565b60408051808201909152600b81526a53696c6f204f7261636c6560a81b60208201525b6040516100c7919061059d565b61017861016b3660046105d2565b505f908190819081908190565b6040805169ffffffffffffffffffff968716815260208101959095528401929092526060830152909116608082015260a0016100c7565b7f00000000000000000000000000000000000000000000000000000000000000006100d8565b6101e66101e3366004610602565b50565b005b6101786103a7565b6040805180820190915260138152720455243343632364f7261636c6520342e302e3606c1b6020820152610150565b5f7f00000000000000000000000000000000000000000000000000000000000000006001600160a01b0316826001600160a01b0316146102725760405163981a2a2b60e01b815260040160405180910390fd5b6040516303d1689d60e11b8152600481018490527f00000000000000000000000000000000000000000000000000000000000000006001600160a01b0316906307a2d13a90602401602060405180830381865afa1580156102d5573d5f5f3e3d5ffd5b505050506040513d601f19601f820116820180604052508101906102f9919061061d565b9050805f0361031b57604051634dfba02360e01b815260040160405180910390fd5b92915050565b5f7f00000000000000000000000000000000000000000000000000000000000000006001600160a01b03166338d52e0f6040518163ffffffff1660e01b8152600401602060405180830381865afa15801561037e573d5f5f3e3d5ffd5b505050506040513d601f19601f820116820180604052508101906103a29190610634565b905090565b5f808080807f0000000000000000000000000000000000000000000000000000000000000000816103d782610406565b90506103f56103f06103ea83600a610746565b8461021f565b610471565b96974296508695505f945092505050565b6040805160048152602481019091526020810180516001600160e01b031663313ce56760e01b1790525f90819081906104409085906104a5565b915091508161045257505f9392505050565b808060200190518101906104669190610751565b60ff16949350505050565b5f6001600160ff1b038211156104a15760405163123baf0360e11b81526004810183905260240160405180910390fd5b5090565b5f60606001600160a01b0384163b6104d0576040516373d39f9d60e01b815260040160405180910390fd5b5f5f856001600160a01b0316856040516104ea9190610771565b5f60405180830381855afa9150503d805f8114610522576040519150601f19603f3d011682016040523d82523d5f602084013e610527565b606091505b50915091508161054c575f60405180602001604052805f815250935093505050610554565b600193509150505b9250929050565b6001600160a01b03811681146101e3575f5ffd5b5f5f60408385031215610580575f5ffd5b8235915060208301356105928161055b565b809150509250929050565b602081525f82518060208401528060208501604085015e5f604082850101526040601f19601f83011684010191505092915050565b5f602082840312156105e2575f5ffd5b813569ffffffffffffffffffff811681146105fb575f5ffd5b9392505050565b5f60208284031215610612575f5ffd5b81356105fb8161055b565b5f6020828403121561062d575f5ffd5b5051919050565b5f60208284031215610644575f5ffd5b81516105fb8161055b565b634e487b7160e01b5f52601160045260245ffd5b6001815b600184111561069e578085048111156106825761068261064f565b600184161561069057908102905b60019390931c928002610667565b935093915050565b5f826106b45750600161031b565b816106c057505f61031b565b81600181146106d657600281146106e0576106fc565b600191505061031b565b60ff8411156106f1576106f161064f565b50506001821b61031b565b5060208310610133831016604e8410600b841016171561071f575081810a61031b565b61072b5f198484610663565b805f190482111561073e5761073e61064f565b029392505050565b5f6105fb83836106a6565b5f60208284031215610761575f5ffd5b815160ff811681146105fb575f5ffd5b5f82518060208501845e5f92019182525091905056fea2646970667358221220ef9d4dbbb2e1c98e491ada16170be923306d1d61772653a5a236510367bae57564736f6c634300081c0033a2646970667358221220b6d5ef474c6312e9d32ba54a13ffe19d85a51efcffcc9042c7901e9549a4625b64736f6c634300081c0033",
  "language": "Solidity",
  "compiler": "0.8.28+commit.7893614a"
}