{
  "address": "0x74bd907B32bD0aAaC118fC81Bc79a48601F188fd",
  "abi": [
    {
      "type": "constructor",
      "inputs": [],
      "stateMutability": "nonpayable"
    },
    {
      "type": "function",
      "name": "ORACLE_IMPLEMENTATION",
      "inputs": [],
      "outputs": [
        {
          "name": "",
          "type": "address",
          "internalType": "contract IManageableOracle"
        }
      ],
      "stateMutability": "view"
    },
    {
      "type": "function",
      "name": "create",
      "inputs": [
        {
          "name": "_oracle",
          "type": "address",
          "internalType": "contract ISiloOracle"
        },
        {
          "name": "_owner",
          "type": "address",
          "internalType": "address"
        },
        {
          "name": "_timelock",
          "type": "uint32",
          "internalType": "uint32"
        },
        {
          "name": "_externalSalt",
          "type": "bytes32",
          "internalType": "bytes32"
        }
      ],
      "outputs": [
        {
          "name": "manageableOracle",
          "type": "address",
          "internalType": "contract IManageableOracle"
        }
      ],
      "stateMutability": "nonpayable"
    },
    {
      "type": "function",
      "name": "create",
      "inputs": [
        {
          "name": "_underlyingOracleFactory",
          "type": "address",
          "internalType": "address"
        },
        {
          "name": "_underlyingOracleInitData",
          "type": "bytes",
          "internalType": "bytes"
        },
        {
          "name": "_owner",
          "type": "address",
          "internalType": "address"
        },
        {
          "name": "_timelock",
          "type": "uint32",
          "internalType": "uint32"
        },
        {
          "name": "_externalSalt",
          "type": "bytes32",
          "internalType": "bytes32"
        }
      ],
      "outputs": [
        {
          "name": "manageableOracle",
          "type": "address",
          "internalType": "contract IManageableOracle"
        }
      ],
      "stateMutability": "nonpayable"
    },
    {
      "type": "function",
      "name": "createdInFactory",
      "inputs": [
        {
          "name": "oracle",
          "type": "address",
          "internalType": "address"
        }
      ],
      "outputs": [
        {
          "name": "created",
          "type": "bool",
          "internalType": "bool"
        }
      ],
      "stateMutability": "view"
    },
    {
      "type": "function",
      "name": "nonces",
      "inputs": [
        {
          "name": "owner",
          "type": "address",
          "internalType": "address"
        }
      ],
      "outputs": [
        {
          "name": "",
          "type": "uint256",
          "internalType": "uint256"
        }
      ],
      "stateMutability": "view"
    },
    {
      "type": "function",
      "name": "predictAddress",
      "inputs": [
        {
          "name": "_deployer",
          "type": "address",
          "internalType": "address"
        },
        {
          "name": "_externalSalt",
          "type": "bytes32",
          "internalType": "bytes32"
        }
      ],
      "outputs": [
        {
          "name": "predictedAddress",
          "type": "address",
          "internalType": "address"
        }
      ],
      "stateMutability": "view"
    },
    {
      "type": "event",
      "name": "ManageableOracleCreated",
      "inputs": [
        {
          "name": "oracle",
          "type": "address",
          "indexed": true,
          "internalType": "address"
        }
      ],
      "anonymous": false
    },
    {
      "type": "error",
      "name": "DeployerCannotBeZero",
      "inputs": []
    },
    {
      "type": "error",
      "name": "FailedDeployment",
      "inputs": []
    },
    {
      "type": "error",
      "name": "FailedToCreateUnderlyingOracle",
      "inputs": []
    },
    {
      "type": "error",
      "name": "InsufficientBalance",
      "inputs": [
        {
          "name": "balance",
          "type": "uint256",
          "internalType": "uint256"
        },
        {
          "name": "needed",
          "type": "uint256",
          "internalType": "uint256"
        }
      ]
    },
    {
      "type": "error",
      "name": "InvalidAccountNonce",
      "inputs": [
        {
          "name": "account",
          "type": "address",
          "internalType": "address"
        },
        {
          "name": "currentNonce",
          "type": "uint256",
          "internalType": "uint256"
        }
      ]
    },
    {
      "type": "error",
      "name": "ZeroFactory",
      "inputs": []
    }
  ],
  "bytecode": "0x60a0604052348015600e575f5ffd5b506040516019906042565b604051809103905ff0801580156031573d5f5f3e3d5ffd5b506001600160a01b0316608052604f565b611d438061077983390190565b6080516107056100745f395f818160a4015281816101d1015261037701526107055ff3fe608060405234801561000f575f5ffd5b5060043610610060575f3560e01c80637ecebe0014610064578063a8f39f661461009f578063b32d705b146100de578063cb19394214610110578063ceb3c64c14610123578063d43fb0b214610136575b5f5ffd5b61008c610072366004610556565b6001600160a01b03165f9081526020819052604090205490565b6040519081526020015b60405180910390f35b6100c67f000000000000000000000000000000000000000000000000000000000000000081565b6040516001600160a01b039091168152602001610096565b6101006100ec366004610556565b60016020525f908152604090205460ff1681565b6040519015158152602001610096565b6100c661011e366004610571565b610149565b6100c66101313660046105ae565b6101fe565b6100c66101443660046105fa565b61027e565b5f6001600160a01b0383166101715760405163e4452e2b60e01b815260040160405180910390fd5b6001600160a01b0383165f9081526020818152604091829020548251606087901b6bffffffffffffffffffffffff1916818401526034810191909152605480820186905283518083039091018152607490910190925281519101206101f67f0000000000000000000000000000000000000000000000000000000000000000826102a5565b949350505050565b5f61020882610307565b604051633767959160e11b81526001600160a01b038781166004830152868116602483015263ffffffff8616604483015291925090821690636ecf2b22906064015f604051808303815f87803b158015610260575f5ffd5b505af1158015610272573d5f5f3e3d5ffd5b50505050949350505050565b5f5f61028b8888886103f2565b9050610299818686866101fe565b98975050505050505050565b6040513060388201526f5af43d82803e903d91602b57fd5bf3ff602482015260148101839052733d602d80600a3d3981f3363d3d373d3d3d363d738152605881018290526037600c820120607882015260556043909101205f905b9392505050565b5f5f61037083335f81815260208190526040812080546001810190915590919060405160609290921b6bffffffffffffffffffffffff19166020830152603482015260548101839052607401604051602081830303815290604052805190602001209050919050565b905061039c7f0000000000000000000000000000000000000000000000000000000000000000826104c1565b6001600160a01b0381165f818152600160208190526040808320805460ff19169092179091555192945090917fc96108308b2a23269e8eb26bf7b8f02a194a806311fa0eeedae4dfc8277fcf5c9190a250919050565b5f6001600160a01b0384166104195760405162821e6f60e01b815260040160405180910390fd5b5f5f856001600160a01b031685856040516104359291906106a5565b5f604051808303815f865af19150503d805f811461046e576040519150601f19603f3d011682016040523d82523d5f602084013e610473565b606091505b5091509150818015610486575080516020145b6104a3576040516359705d0360e01b815260040160405180910390fd5b808060200190518101906104b791906106b4565b9695505050505050565b5f610300838383806e5af43d82803e903d91602b57fd5bf360205283601152763d602d80600a3d3981f3363d3d373d3d3d363d730000008460881c175f52826037600984f590506001600160a01b0381166103005760405163b06ebf3d60e01b815260040160405180910390fd5b6001600160a01b0381168114610543575f5ffd5b50565b80356105518161052f565b919050565b5f60208284031215610566575f5ffd5b81356103008161052f565b5f5f60408385031215610582575f5ffd5b823561058d8161052f565b946020939093013593505050565b803563ffffffff81168114610551575f5ffd5b5f5f5f5f608085870312156105c1575f5ffd5b84356105cc8161052f565b935060208501356105dc8161052f565b92506105ea6040860161059b565b9396929550929360600135925050565b5f5f5f5f5f5f60a0878903121561060f575f5ffd5b863561061a8161052f565b9550602087013567ffffffffffffffff811115610635575f5ffd5b8701601f81018913610645575f5ffd5b803567ffffffffffffffff81111561065b575f5ffd5b89602082840101111561066c575f5ffd5b6020919091019550935061068260408801610546565b92506106906060880161059b565b95989497509295919493608090920135925050565b818382375f9101908152919050565b5f602082840312156106c4575f5ffd5b81516103008161052f56fea264697066735822122038769fdfe2b3461d867679983a89a7496e282cc546dabaa78b17e7673fd90d6a64736f6c634300081c00336080604052348015600e575f5ffd5b5060156019565b60c9565b7ff0c57e16840df040f15088dc2f81fe391c3923bec73e23a9662efc9c229c6a00805468010000000000000000900460ff161560685760405163f92ee8a960e01b815260040160405180910390fd5b80546001600160401b039081161460c65780546001600160401b0319166001600160401b0390811782556040519081527fc7f505b2f371ae2175ee4913f4499e1f2633a7b5936321eed1cdaeb6115181d29060200160405180910390a15b50565b611c6d806100d65f395ff3fe608060405234801561000f575f5ffd5b50600436106101f2575f3560e01c806382aa1c8811610114578063b451b812116100a9578063e84de60a11610079578063e84de60a146104b2578063f9fa619a146104ba578063fb0c7549146104cd578063feaf968c146104d7578063ffa1ad74146104df575f5ffd5b8063b451b8121461045d578063c55dae6314610465578063d33219b414610476578063e47fd73a1461048d575f5ffd5b806392fede00116100e457806392fede00146103d157806394f1825b146103d95780639a6fc8f5146103f8578063adc565e11461044a575f5ffd5b806382aa1c88146103a657806387898ca5146103af5780638a2c7b39146103b75780638da5cb5b146103bf575f5ffd5b80637284e4161161018a5780637dc0d1d01161015a5780637dc0d1d0146103705780637f2d9575146103835780637f93690a1461038b5780637fe8a46914610393575f5ffd5b80637284e416146102e457806379ba5097146103145780637b3c34871461031c5780637cc4d9a114610324575f5ffd5b8063425e5d70116101c5578063425e5d70146102a257806354fd4d50146102b757806369693489146102be5780636ecf2b22146102d1575f5ffd5b80630607e5bb146101f657806313b0be3314610247578063217a4b7014610268578063313ce56714610293575b5f5ffd5b60045461021b906001600160a01b03811690600160a01b90046001600160401b031682565b604080516001600160a01b0390931683526001600160401b039091166020830152015b60405180910390f35b61025a61025536600461199c565b610511565b60405190815260200161023e565b60015461027b906001600160a01b031681565b6040516001600160a01b03909116815260200161023e565b6040516012815260200161023e565b6102b56102b03660046119ca565b61058b565b005b600161025a565b6102b56102cc3660046119ca565b610806565b6102b56102df3660046119fd565b61092f565b60408051808201909152600b81526a53696c6f204f7261636c6560a81b60208201525b60405161023e9190611a41565b6102b5610c9b565b6102b5610d6e565b600554610349906001600160c01b03811690600160c01b90046001600160401b031682565b604080516001600160c01b0390931683526001600160401b0390911660208301520161023e565b60035461027b906001600160a01b031681565b6102b5610ea0565b6102b5610f8d565b6102b56103a1366004611a76565b61101a565b61025a60025481565b6102b5611160565b6102b56111fe565b5f5461027b906001600160a01b031681565b6102b56112fe565b6103e36212750081565b60405163ffffffff909116815260200161023e565b610413610406366004611a8f565b505f908190819081908190565b6040805169ffffffffffffffffffff968716815260208101959095528401929092526060830152909116608082015260a00161023e565b6102b56104583660046119ca565b6113c5565b6102b56114c9565b6007546001600160a01b031661027b565b6003546103e390600160a01b900463ffffffff1681565b60065461021b906001600160a01b03811690600160a01b90046001600160401b031682565b6102b5611591565b6102b56104c83660046119ca565b611652565b6103e36201518081565b6104136116af565b60408051808201909152601681527504d616e61676561626c654f7261636c6520342e302e360541b6020820152610307565b6003546040516313b0be3360e01b8152600481018490526001600160a01b0383811660248301525f9216906313b0be3390604401602060405180830381865afa158015610560573d5f5f3e3d5ffd5b505050506040513d601f19601f820116820180604052508101906105849190611ab8565b9392505050565b5f61059e6007546001600160a01b031690565b90506001600160a01b0381166105c7576040516334d7fec960e11b815260040160405180910390fd5b6001600160a01b0382166105ee57604051636ab74eb360e11b815260040160405180910390fd5b60015460408051630217a4b760e41b815290516001600160a01b039283169285169163217a4b709160048083019260209291908290030181865afa158015610638573d5f5f3e3d5ffd5b505050506040513d601f19601f8201168201806040525081019061065c9190611acf565b6001600160a01b0316146106835760405163ef02469960e01b815260040160405180910390fd5b806001600160a01b0316826001600160a01b031663c55dae636040518163ffffffff1660e01b8152600401602060405180830381865afa1580156106c9573d5f5f3e3d5ffd5b505050506040513d601f19601f820116820180604052508101906106ed9190611acf565b6001600160a01b0316146107145760405163ea4286cd60e01b815260040160405180910390fd5b816001600160a01b03166313b0be33600254600a6107329190611be3565b6040516001600160e01b031960e084901b16815260048101919091526001600160a01b0384166024820152604401602060405180830381865afa925050508015610799575060408051601f3d908101601f1916820190925261079691810190611ab8565b60015b6107e2573d8080156107c6576040519150601f19603f3d011682016040523d82523d5f602084013e6107cb565b606091505b506107dd816305d62b0760e11b611702565b505050565b805f036107dd576040516305d62b0760e11b815260040160405180910390fd5b5050565b5f546001600160a01b0316331461083057604051635fc483c560e01b815260040160405180910390fd5b600654600160a01b90046001600160401b031680156108625760405163d8801bad60e01b815260040160405180910390fd5b5f546001600160a01b03908116908316036108905760405163a88ee57760e01b815260040160405180910390fd5b6001600160a01b0382166108b757604051639905827b60e01b815260040160405180910390fd5b6003546108d990600690849063ffffffff600160a01b90910481169061171a16565b600654604051600160a01b9091046001600160401b031681526001600160a01b038316907f33f8c445ef0e51f998451db411d0a9c0874fff4b0dd1281bc6c9ffe52d479736906020015b60405180910390a25050565b7ff0c57e16840df040f15088dc2f81fe391c3923bec73e23a9662efc9c229c6a008054600160401b810460ff1615906001600160401b03165f811580156109735750825b90505f826001600160401b0316600114801561098e5750303b155b90508115801561099c575080155b156109ba5760405163f92ee8a960e01b815260040160405180910390fd5b845467ffffffffffffffff1916600117855583156109e457845460ff60401b1916600160401b1785555b6001600160a01b038816610a0b57604051636ab74eb360e11b815260040160405180910390fd5b6001600160a01b038716610a3257604051639905827b60e01b815260040160405180910390fd5b6201518063ffffffff871610801590610a5457506212750063ffffffff871611155b610a7157604051637c68874160e11b815260040160405180910390fd5b876001600160a01b031663217a4b706040518163ffffffff1660e01b8152600401602060405180830381865afa158015610aad573d5f5f3e3d5ffd5b505050506040513d601f19601f82011682018060405250810190610ad19190611acf565b60015f6101000a8154816001600160a01b0302191690836001600160a01b031602179055505f886001600160a01b031663c55dae636040518163ffffffff1660e01b8152600401602060405180830381865afa158015610b33573d5f5f3e3d5ffd5b505050506040513d601f19601f82011682018060405250810190610b579190611acf565b600780546001600160a01b0319166001600160a01b0383161790559050610b7d81611769565b60028190555f03610ba1576040516379c4335760e11b815260040160405180910390fd5b6003805463ffffffff8916600160a01b026001600160c01b03199091166001600160a01b038c1617179055610bd58961058b565b610bde886117d4565b6040516001600160a01b038a16907f3df77beb5db05fcdd70a30fc8adf3f83f9501b68579455adbd100b8180940394905f90a260405163ffffffff881681527f98c16bc82d0966a125683b44a0de98dbf89dec4b77b9110ff6a3c79ac6a78ae49060200160405180910390a1508315610c9157845460ff60401b19168555604051600181527fc7f505b2f371ae2175ee4913f4499e1f2633a7b5936321eed1cdaeb6115181d29060200160405180910390a15b5050505050505050565b600654600160a01b90046001600160401b03165f819003610ccf576040516319b2c6ef60e31b815260040160405180910390fd5b806001600160401b0316421015610cf95760405163621e25c360e01b815260040160405180910390fd5b6006546001600160a01b0316610d22576040516347546fbb60e01b815260040160405180910390fd5b6006546001600160a01b03163314610d4d57604051635fc483c560e01b815260040160405180910390fd5b610d62600680546001600160e01b0319169055565b610d6b336117d4565b50565b5f546001600160a01b03163314610d9857604051635fc483c560e01b815260040160405180910390fd5b600654600160a01b90046001600160401b03165f819003610dcc576040516319b2c6ef60e31b815260040160405180910390fd5b806001600160401b0316421015610df65760405163621e25c360e01b815260040160405180910390fd5b6006546001600160a01b031615610e20576040516347546fbb60e01b815260040160405180910390fd5b600454600160a01b90046001600160401b031615610e515760405163f4d3387d60e01b815260040160405180910390fd5b600554600160c01b90046001600160401b031615610e82576040516325d2b20160e11b815260040160405180910390fd5b610e97600680546001600160e01b0319169055565b610d6b5f6117d4565b5f546001600160a01b03163314610eca57604051635fc483c560e01b815260040160405180910390fd5b600454600160a01b90046001600160401b03165f819003610efe576040516319b2c6ef60e31b815260040160405180910390fd5b806001600160401b0316421015610f285760405163621e25c360e01b815260040160405180910390fd5b60048054600380546001600160a01b0319166001600160a01b0383161790556001600160e01b03191690556003546040516001600160a01b03909116907f3df77beb5db05fcdd70a30fc8adf3f83f9501b68579455adbd100b8180940394905f90a250565b5f546001600160a01b03163314610fb757604051635fc483c560e01b815260040160405180910390fd5b600554600160c01b90046001600160401b03165f819003610feb576040516308cff98d60e41b815260040160405180910390fd5b5f6005556040517f6eca18829c1ad5bdbdd519870446570502609edddef9bfc86ad228e87d512eea905f90a150565b5f546001600160a01b0316331461104457604051635fc483c560e01b815260040160405180910390fd5b600554600160c01b90046001600160401b031680156110765760405163d8801bad60e01b815260040160405180910390fd5b60035463ffffffff600160a01b9091048116908316036110a95760405163a88ee57760e01b815260040160405180910390fd5b6201518063ffffffff8316108015906110cb57506212750063ffffffff831611155b6110e857604051637c68874160e11b815260040160405180910390fd5b60035461110b9060059063ffffffff80861691600160a01b900481169061182316565b6005546040805163ffffffff85168152600160c01b9092046001600160401b031660208301527ffb79bf113879e985630a9f4c0ad3a8502f92740adb19f2ee994aa7db40282a6a910160405180910390a15050565b5f546001600160a01b0316331461118a57604051635fc483c560e01b815260040160405180910390fd5b600454600160a01b90046001600160401b03165f8190036111be576040516308cff98d60e41b815260040160405180910390fd5b6111d3600480546001600160e01b0319169055565b6040517fb39dc2ecb77d215b7c10e85cafbf102c5146fddbc9c45ddad38f582ea6bf3ec0905f90a150565b5f546001600160a01b0316331461122857604051635fc483c560e01b815260040160405180910390fd5b600554600160c01b90046001600160401b03165f81900361125c576040516319b2c6ef60e31b815260040160405180910390fd5b806001600160401b03164210156112865760405163621e25c360e01b815260040160405180910390fd5b600580546003805463ffffffff909216600160a01b0263ffffffff60a01b199092169190911790556112b7905f9055565b600354604051600160a01b90910463ffffffff1681527f98c16bc82d0966a125683b44a0de98dbf89dec4b77b9110ff6a3c79ac6a78ae4906020015b60405180910390a150565b5f546001600160a01b0316331461132857604051635fc483c560e01b815260040160405180910390fd5b600654600160a01b90046001600160401b03165f81900361135c576040516308cff98d60e41b815260040160405180910390fd5b6006546001600160a01b0316611385576040516347546fbb60e01b815260040160405180910390fd5b61139a600680546001600160e01b0319169055565b6040517f670699162ea7ba4de638b5a57c2148aed9ee8bd69740a5e6a7db727e3886c88b905f90a150565b5f546001600160a01b031633146113ef57604051635fc483c560e01b815260040160405180910390fd5b600454600160a01b90046001600160401b031680156114215760405163d8801bad60e01b815260040160405180910390fd5b6003546001600160a01b03908116908316036114505760405163a88ee57760e01b815260040160405180910390fd5b6114598261058b565b60035461147b90600490849063ffffffff600160a01b90910481169061171a16565b600454604051600160a01b9091046001600160401b031681526001600160a01b038316907fcb890383d036053b96967d07ad1ac55622c530238d99adaa0eefb77266a5531590602001610923565b5f546001600160a01b031633146114f357604051635fc483c560e01b815260040160405180910390fd5b600654600160a01b90046001600160401b03165f819003611527576040516308cff98d60e41b815260040160405180910390fd5b6006546001600160a01b031615611551576040516347546fbb60e01b815260040160405180910390fd5b611566600680546001600160e01b0319169055565b6040517fe376a30308b1371385de901a7b76ff7dd547767c689aeab00d204edc91349e1d905f90a150565b5f546001600160a01b031633146115bb57604051635fc483c560e01b815260040160405180910390fd5b600654600160a01b90046001600160401b031680156115ed5760405163d8801bad60e01b815260040160405180910390fd5b60035461160f906006905f9063ffffffff600160a01b90910481169061171a16565b600654604051600160a01b9091046001600160401b031681527ff13443ef571d28f9ea1bf72740925474d0f128d20496333ef058a8ab298f3e4b906020016112f3565b600354604051637cfd30cd60e11b81526001600160a01b0383811660048301529091169063f9fa619a906024015f604051808303815f87803b158015611696575f5ffd5b505af11580156116a8573d5f5f3e3d5ffd5b5050505050565b5f80808080806116c76007546001600160a01b031690565b90505f6116d382611769565b90506116f16116ec6116e683600a611be3565b84610511565b61186d565b96974296508695505f945092505050565b81511561171157815182602001fd5b610802816118a1565b82546001600160a01b0319166001600160a01b03831617835561173d8142611bee565b83546001600160401b0391909116600160a01b0267ffffffffffffffff60a01b19909116179092555050565b6040805160048152602481019091526020810180516001600160e01b031663313ce56760e01b1790525f90819081906117a39085906118d2565b91509150816117b557505f9392505050565b808060200190518101906117c99190611c01565b60ff16949350505050565b5f80546001600160a01b038381166001600160a01b0319831681178455604051919092169283917f8be0079c531659141344cd1fd0a4f28419497f9722a3daafe3b4186f6b6457e09190a35050565b82546001600160c01b0319166001600160b81b0383161783556118468142611bee565b83546001600160401b0391909116600160c01b026001600160c01b03909116179092555050565b5f6001600160ff1b0382111561189d5760405163123baf0360e11b81526004810183905260240160405180910390fd5b5090565b6040805160048152602481019091526020810180516001600160e01b03166001600160e01b03198416178152815190fd5b5f60606001600160a01b0384163b6118fd576040516373d39f9d60e01b815260040160405180910390fd5b5f5f856001600160a01b0316856040516119179190611c21565b5f60405180830381855afa9150503d805f811461194f576040519150601f19603f3d011682016040523d82523d5f602084013e611954565b606091505b509150915081611979575f60405180602001604052805f815250935093505050611981565b600193509150505b9250929050565b6001600160a01b0381168114610d6b575f5ffd5b5f5f604083850312156119ad575f5ffd5b8235915060208301356119bf81611988565b809150509250929050565b5f602082840312156119da575f5ffd5b813561058481611988565b803563ffffffff811681146119f8575f5ffd5b919050565b5f5f5f60608486031215611a0f575f5ffd5b8335611a1a81611988565b92506020840135611a2a81611988565b9150611a38604085016119e5565b90509250925092565b602081525f82518060208401528060208501604085015e5f604082850101526040601f19601f83011684010191505092915050565b5f60208284031215611a86575f5ffd5b610584826119e5565b5f60208284031215611a9f575f5ffd5b813569ffffffffffffffffffff81168114610584575f5ffd5b5f60208284031215611ac8575f5ffd5b5051919050565b5f60208284031215611adf575f5ffd5b815161058481611988565b634e487b7160e01b5f52601160045260245ffd5b6001815b6001841115611b3957808504811115611b1d57611b1d611aea565b6001841615611b2b57908102905b60019390931c928002611b02565b935093915050565b5f82611b4f57506001611bdd565b81611b5b57505f611bdd565b8160018114611b715760028114611b7b57611b97565b6001915050611bdd565b60ff841115611b8c57611b8c611aea565b50506001821b611bdd565b5060208310610133831016604e8410600b8410161715611bba575081810a611bdd565b611bc65f198484611afe565b805f1904821115611bd957611bd9611aea565b0290505b92915050565b5f6105848383611b41565b80820180821115611bdd57611bdd611aea565b5f60208284031215611c11575f5ffd5b815160ff81168114610584575f5ffd5b5f82518060208501845e5f92019182525091905056fea26469706673582212201a39d11729854b1d474f41b51669f78a33be698f6c083a5de2a0a6570aa2b34d64736f6c634300081c0033",
  "language": "Solidity",
  "compiler": "0.8.28+commit.7893614a"
}