{
  "address": "0x774C5984E30545199928D85cD417E051E65067BF",
  "abi": [
    {
      "type": "function",
      "name": "createERC4626Oracle",
      "inputs": [
        {
          "name": "_vault",
          "type": "address",
          "internalType": "contract IERC4626"
        },
        {
          "name": "_quoteToken",
          "type": "address",
          "internalType": "address"
        },
        {
          "name": "_externalSalt",
          "type": "bytes32",
          "internalType": "bytes32"
        }
      ],
      "outputs": [
        {
          "name": "oracle",
          "type": "address",
          "internalType": "contract ISiloOracle"
        }
      ],
      "stateMutability": "nonpayable"
    },
    {
      "type": "function",
      "name": "createdInFactory",
      "inputs": [
        {
          "name": "",
          "type": "address",
          "internalType": "address"
        }
      ],
      "outputs": [
        {
          "name": "",
          "type": "bool",
          "internalType": "bool"
        }
      ],
      "stateMutability": "view"
    },
    {
      "type": "function",
      "name": "nonces",
      "inputs": [
        {
          "name": "owner",
          "type": "address",
          "internalType": "address"
        }
      ],
      "outputs": [
        {
          "name": "",
          "type": "uint256",
          "internalType": "uint256"
        }
      ],
      "stateMutability": "view"
    },
    {
      "type": "event",
      "name": "ERC4626OracleCreated",
      "inputs": [
        {
          "name": "oracle",
          "type": "address",
          "indexed": true,
          "internalType": "contract ISiloOracle"
        }
      ],
      "anonymous": false
    },
    {
      "type": "error",
      "name": "InvalidAccountNonce",
      "inputs": [
        {
          "name": "account",
          "type": "address",
          "internalType": "address"
        },
        {
          "name": "currentNonce",
          "type": "uint256",
          "internalType": "uint256"
        }
      ]
    }
  ],
  "bytecode": "0x6080604052348015600e575f5ffd5b506105e48061001c5f395ff3fe608060405234801561000f575f5ffd5b506004361061003f575f3560e01c80637ecebe0014610043578063b32d705b1461007e578063d803f579146100b0575b5f5ffd5b61006b6100513660046101f2565b6001600160a01b03165f9081526020819052604090205490565b6040519081526020015b60405180910390f35b6100a061008c3660046101f2565b60016020525f908152604090205460ff1681565b6040519015158152602001610075565b6100c36100be366004610214565b6100db565b6040516001600160a01b039091168152602001610075565b335f81815260208181526040808320805460018101909155815160609590951b6bffffffffffffffffffffffff19168584015260348501526054808501869052815180860390910181526074909401905282519201919091208484604051610142906101ce565b6001600160a01b039283168152911660208201526040018190604051809103905ff5905080158015610176573d5f5f3e3d5ffd5b506001600160a01b0381165f818152600160208190526040808320805460ff19169092179091555192935090917f6d86f9fc5b1bde243720a4aa74177ac89431d9fa2331e29ff3bf8ebe23fcec7f9190a29392505050565b61035c8061025383390190565b6001600160a01b03811681146101ef575f5ffd5b50565b5f60208284031215610202575f5ffd5b813561020d816101db565b9392505050565b5f5f5f60608486031215610226575f5ffd5b8335610231816101db565b92506020840135610241816101db565b92959294505050604091909101359056fe60c060405234801561000f575f5ffd5b5060405161035c38038061035c83398101604081905261002e9161005c565b6001600160a01b039182166080521660a052610094565b6001600160a01b0381168114610059575f5ffd5b50565b5f5f6040838503121561006d575f5ffd5b825161007881610045565b602084015190925061008981610045565b809150509250929050565b60805160a05161029c6100c05f395f607601525f818160b30152818160eb0152610151015261029c5ff3fe608060405234801561000f575f5ffd5b506004361061004a575f3560e01c806313b0be331461004e578063217a4b7014610074578063411557d1146100ae578063f9fa619a146100d5575b5f5ffd5b61006161005c366004610205565b6100e8565b6040519081526020015b60405180910390f35b7f00000000000000000000000000000000000000000000000000000000000000005b6040516001600160a01b03909116815260200161006b565b6100967f000000000000000000000000000000000000000000000000000000000000000081565b6100e66100e336600461022f565b50565b005b5f7f00000000000000000000000000000000000000000000000000000000000000006001600160a01b0316826001600160a01b03161461013b5760405163981a2a2b60e01b815260040160405180910390fd5b6040516303d1689d60e11b8152600481018490527f00000000000000000000000000000000000000000000000000000000000000006001600160a01b0316906307a2d13a90602401602060405180830381865afa15801561019e573d5f5f3e3d5ffd5b505050506040513d601f19601f820116820180604052508101906101c2919061024f565b9050805f036101e457604051634dfba02360e01b815260040160405180910390fd5b92915050565b80356001600160a01b0381168114610200575f5ffd5b919050565b5f5f60408385031215610216575f5ffd5b82359150610226602084016101ea565b90509250929050565b5f6020828403121561023f575f5ffd5b610248826101ea565b9392505050565b5f6020828403121561025f575f5ffd5b505191905056fea2646970667358221220457da59f37e2e6a3c9967254ad301c76e3d7de66ce14bcaf73932fd2829e504b64736f6c634300081c0033a26469706673582212201e414f1e40d76421090d4c289985380b5fca50c6c479d6f56c80636bbcde9da264736f6c634300081c0033",
  "language": "Solidity",
  "compiler": "0.8.28+commit.7893614a"
}