{
  "address": "0xcf827892dbFe1F1B4756789620F5f87357Bf8627",
  "abi": [
    {
      "type": "function",
      "name": "createERC4626Oracle",
      "inputs": [
        {
          "name": "_vault",
          "type": "address",
          "internalType": "contract IERC4626"
        },
        {
          "name": "_externalSalt",
          "type": "bytes32",
          "internalType": "bytes32"
        }
      ],
      "outputs": [
        {
          "name": "oracle",
          "type": "address",
          "internalType": "contract ISiloOracle"
        }
      ],
      "stateMutability": "nonpayable"
    },
    {
      "type": "function",
      "name": "createdInFactory",
      "inputs": [
        {
          "name": "",
          "type": "address",
          "internalType": "address"
        }
      ],
      "outputs": [
        {
          "name": "",
          "type": "bool",
          "internalType": "bool"
        }
      ],
      "stateMutability": "view"
    },
    {
      "type": "function",
      "name": "nonces",
      "inputs": [
        {
          "name": "owner",
          "type": "address",
          "internalType": "address"
        }
      ],
      "outputs": [
        {
          "name": "",
          "type": "uint256",
          "internalType": "uint256"
        }
      ],
      "stateMutability": "view"
    },
    {
      "type": "event",
      "name": "ERC4626OracleCreated",
      "inputs": [
        {
          "name": "oracle",
          "type": "address",
          "indexed": true,
          "internalType": "contract ISiloOracle"
        }
      ],
      "anonymous": false
    },
    {
      "type": "error",
      "name": "InvalidAccountNonce",
      "inputs": [
        {
          "name": "account",
          "type": "address",
          "internalType": "address"
        },
        {
          "name": "currentNonce",
          "type": "uint256",
          "internalType": "uint256"
        }
      ]
    }
  ],
  "bytecode": "0x6080604052348015600e575f5ffd5b506106248061001c5f395ff3fe608060405234801561000f575f5ffd5b506004361061003f575f3560e01c8063246e581b146100435780637ecebe0014610073578063b32d705b146100a9575b5f5ffd5b6100566100513660046101e9565b6100db565b6040516001600160a01b0390911681526020015b60405180910390f35b61009b610081366004610213565b6001600160a01b03165f9081526020819052604090205490565b60405190815260200161006a565b6100cb6100b7366004610213565b60016020525f908152604090205460ff1681565b604051901515815260200161006a565b335f81815260208181526040808320805460018101909155815160609590951b6bffffffffffffffffffffffff191685840152603485015260548085018690528151808603909101815260749094019052825192019190912083604051610141906101c5565b6001600160a01b0390911681526020018190604051809103905ff590508015801561016e573d5f5f3e3d5ffd5b506001600160a01b0381165f818152600160208190526040808320805460ff19169092179091555192935090917f6d86f9fc5b1bde243720a4aa74177ac89431d9fa2331e29ff3bf8ebe23fcec7f9190a292915050565b6103b98061023683390190565b6001600160a01b03811681146101e6575f5ffd5b50565b5f5f604083850312156101fa575f5ffd5b8235610205816101d2565b946020939093013593505050565b5f60208284031215610223575f5ffd5b813561022e816101d2565b939250505056fe60a060405234801561000f575f5ffd5b506040516103b93803806103b983398101604081905261002e9161003f565b6001600160a01b031660805261006c565b5f6020828403121561004f575f5ffd5b81516001600160a01b0381168114610065575f5ffd5b9392505050565b6080516103226100975f395f818160990152818160d10152818161013701526101d301526103225ff3fe608060405234801561000f575f5ffd5b506004361061004a575f3560e01c806313b0be331461004e578063217a4b7014610074578063411557d114610094578063f9fa619a146100bb575b5f5ffd5b61006161005c36600461026a565b6100ce565b6040519081526020015b60405180910390f35b61007c6101d0565b6040516001600160a01b03909116815260200161006b565b61007c7f000000000000000000000000000000000000000000000000000000000000000081565b6100cc6100c9366004610298565b50565b005b5f7f00000000000000000000000000000000000000000000000000000000000000006001600160a01b0316826001600160a01b0316146101215760405163981a2a2b60e01b815260040160405180910390fd5b6040516303d1689d60e11b8152600481018490527f00000000000000000000000000000000000000000000000000000000000000006001600160a01b0316906307a2d13a90602401602060405180830381865afa158015610184573d5f5f3e3d5ffd5b505050506040513d601f19601f820116820180604052508101906101a891906102ba565b9050805f036101ca57604051634dfba02360e01b815260040160405180910390fd5b92915050565b5f7f00000000000000000000000000000000000000000000000000000000000000006001600160a01b03166338d52e0f6040518163ffffffff1660e01b8152600401602060405180830381865afa15801561022d573d5f5f3e3d5ffd5b505050506040513d601f19601f8201168201806040525081019061025191906102d1565b905090565b6001600160a01b03811681146100c9575f5ffd5b5f5f6040838503121561027b575f5ffd5b82359150602083013561028d81610256565b809150509250929050565b5f602082840312156102a8575f5ffd5b81356102b381610256565b9392505050565b5f602082840312156102ca575f5ffd5b5051919050565b5f602082840312156102e1575f5ffd5b81516102b38161025656fea264697066735822122087cce838cbdb3602cdf0d276e88c7d3262b9956fc77990b0be3115cab0fb538464736f6c634300081c0033a26469706673582212202578f20104e91701fb2f08acb955ed2ea0fd5c213fa41a2ffd900049d3a32a2e64736f6c634300081c0033",
  "language": "Solidity",
  "compiler": "0.8.28+commit.7893614a"
}