{
  "address": "0x26Dd1FD7a429Ced75E5042fA20D80539A6624D90",
  "abi": [
    {
      "type": "function",
      "name": "createOracleScaler",
      "inputs": [
        {
          "name": "_quoteToken",
          "type": "address",
          "internalType": "address"
        },
        {
          "name": "_externalSalt",
          "type": "bytes32",
          "internalType": "bytes32"
        }
      ],
      "outputs": [
        {
          "name": "oracleScaler",
          "type": "address",
          "internalType": "contract ISiloOracle"
        }
      ],
      "stateMutability": "nonpayable"
    },
    {
      "type": "function",
      "name": "createdInFactory",
      "inputs": [
        {
          "name": "",
          "type": "address",
          "internalType": "contract ISiloOracle"
        }
      ],
      "outputs": [
        {
          "name": "",
          "type": "bool",
          "internalType": "bool"
        }
      ],
      "stateMutability": "view"
    },
    {
      "type": "function",
      "name": "nonces",
      "inputs": [
        {
          "name": "owner",
          "type": "address",
          "internalType": "address"
        }
      ],
      "outputs": [
        {
          "name": "",
          "type": "uint256",
          "internalType": "uint256"
        }
      ],
      "stateMutability": "view"
    },
    {
      "type": "event",
      "name": "OracleScalerCreated",
      "inputs": [
        {
          "name": "oracleScaler",
          "type": "address",
          "indexed": true,
          "internalType": "contract ISiloOracle"
        }
      ],
      "anonymous": false
    },
    {
      "type": "error",
      "name": "InvalidAccountNonce",
      "inputs": [
        {
          "name": "account",
          "type": "address",
          "internalType": "address"
        },
        {
          "name": "currentNonce",
          "type": "uint256",
          "internalType": "uint256"
        }
      ]
    }
  ],
  "bytecode": "0x6080604052348015600e575f5ffd5b50610cea8061001c5f395ff3fe608060405234801561000f575f5ffd5b506004361061003f575f3560e01c80632ef8a828146100435780637ecebe0014610073578063b32d705b146100a9575b5f5ffd5b6100566100513660046101e9565b6100db565b6040516001600160a01b0390911681526020015b60405180910390f35b61009b610081366004610213565b6001600160a01b03165f9081526020819052604090205490565b60405190815260200161006a565b6100cb6100b7366004610213565b60016020525f908152604090205460ff1681565b604051901515815260200161006a565b335f81815260208181526040808320805460018101909155815160609590951b6bffffffffffffffffffffffff191685840152603485015260548085018690528151808603909101815260749094019052825192019190912083604051610141906101c5565b6001600160a01b0390911681526020018190604051809103905ff590508015801561016e573d5f5f3e3d5ffd5b506001600160a01b0381165f818152600160208190526040808320805460ff19169092179091555192935090917fbb706ea96deb6edf25f6e205044c7df4bacee2faf98bac84430437d00f6f524d9190a292915050565b610a7f8061023683390190565b6001600160a01b03811681146101e6575f5ffd5b50565b5f5f604083850312156101fa575f5ffd5b8235610205816101d2565b946020939093013593505050565b5f60208284031215610223575f5ffd5b813561022e816101d2565b939250505056fe60c060405234801561000f575f5ffd5b50604051610a7f380380610a7f83398101604081905261002e916101b2565b5f6100388261008c565b9050601260ff82161061005e5760405163a7617b4560e01b815260040160405180910390fd5b6100698160126101f3565b6100779060ff16600a6102f5565b60a052506001600160a01b0316608052610336565b6040805160048152602481019091526020810180516001600160e01b0390811663313ce56760e01b179091525f91829182916100cb918691906100fc16565b91509150816100dd57505f9392505050565b808060200190518101906100f19190610300565b60ff16949350505050565b5f60606001600160a01b0384163b610127576040516373d39f9d60e01b815260040160405180910390fd5b5f5f856001600160a01b0316856040516101419190610320565b5f60405180830381855afa9150503d805f8114610179576040519150601f19603f3d011682016040523d82523d5f602084013e61017e565b606091505b5091509150816101a3575f60405180602001604052805f8152509350935050506101ab565b600193509150505b9250929050565b5f602082840312156101c2575f5ffd5b81516001600160a01b03811681146101d8575f5ffd5b9392505050565b634e487b7160e01b5f52601160045260245ffd5b60ff828116828216039081111561020c5761020c6101df565b92915050565b6001815b600184111561024d57808504811115610231576102316101df565b600184161561023f57908102905b60019390931c928002610216565b935093915050565b5f826102635750600161020c565b8161026f57505f61020c565b8160018114610285576002811461028f576102ab565b600191505061020c565b60ff8411156102a0576102a06101df565b50506001821b61020c565b5060208310610133831016604e8410600b84101617156102ce575081810a61020c565b6102da5f198484610212565b805f19048211156102ed576102ed6101df565b029392505050565b5f6101d88383610255565b5f60208284031215610310575f5ffd5b815160ff811681146101d8575f5ffd5b5f82518060208501845e5f920191825250919050565b60805160a05161070d6103725f395f818161020101526102c401525f818160f7015281816101800152818161026f0152610318015261070d5ff3fe608060405234801561000f575f5ffd5b50600436106100cb575f3560e01c80639a6fc8f511610088578063ce4b5bbe11610063578063ce4b5bbe146101fc578063f9fa619a14610223578063feaf968c14610236578063ffa1ad741461023e575f5ffd5b80639a6fc8f5146101a2578063a6391566146101f4578063c55dae63146100f5575f5ffd5b806313b0be33146100cf578063217a4b70146100f5578063313ce5671461012f57806354fd4d50146101445780637284e4161461014b57806378892cea1461017b575b5f5ffd5b6100e26100dd3660046104e0565b61026c565b6040519081526020015b60405180910390f35b7f00000000000000000000000000000000000000000000000000000000000000005b6040516001600160a01b0390911681526020016100ec565b60125b60405160ff90911681526020016100ec565b60016100e2565b60408051808201909152600b81526a53696c6f204f7261636c6560a81b60208201525b6040516100ec919061050a565b6101177f000000000000000000000000000000000000000000000000000000000000000081565b6101bd6101b036600461053f565b505f908190819081908190565b6040805169ffffffffffffffffffff968716815260208101959095528401929092526060830152909116608082015260a0016100ec565b610132601281565b6100e27f000000000000000000000000000000000000000000000000000000000000000081565b61023461023136600461056f565b50565b005b6101bd610311565b60408051808201909152601281527104f7261636c655363616c657220342e302e360741b602082015261016e565b5f7f00000000000000000000000000000000000000000000000000000000000000006001600160a01b0316826001600160a01b0316146102bf5760405163981a2a2b60e01b815260040160405180910390fd5b6102e97f00000000000000000000000000000000000000000000000000000000000000008461059c565b9050805f0361030b57604051634dfba02360e01b815260040160405180910390fd5b92915050565b5f808080807f00000000000000000000000000000000000000000000000000000000000000008161034182610370565b905061035f61035a61035483600a610696565b8461026c565b6103db565b96974296508695505f945092505050565b6040805160048152602481019091526020810180516001600160e01b031663313ce56760e01b1790525f90819081906103aa90859061040f565b91509150816103bc57505f9392505050565b808060200190518101906103d091906106a1565b60ff16949350505050565b5f6001600160ff1b0382111561040b5760405163123baf0360e11b81526004810183905260240160405180910390fd5b5090565b5f60606001600160a01b0384163b61043a576040516373d39f9d60e01b815260040160405180910390fd5b5f5f856001600160a01b03168560405161045491906106c1565b5f60405180830381855afa9150503d805f811461048c576040519150601f19603f3d011682016040523d82523d5f602084013e610491565b606091505b5091509150816104b6575f60405180602001604052805f8152509350935050506104be565b600193509150505b9250929050565b80356001600160a01b03811681146104db575f5ffd5b919050565b5f5f604083850312156104f1575f5ffd5b82359150610501602084016104c5565b90509250929050565b602081525f82518060208401528060208501604085015e5f604082850101526040601f19601f83011684010191505092915050565b5f6020828403121561054f575f5ffd5b813569ffffffffffffffffffff81168114610568575f5ffd5b9392505050565b5f6020828403121561057f575f5ffd5b610568826104c5565b634e487b7160e01b5f52601160045260245ffd5b808202811582820484141761030b5761030b610588565b6001815b60018411156105ee578085048111156105d2576105d2610588565b60018416156105e057908102905b60019390931c9280026105b7565b935093915050565b5f826106045750600161030b565b8161061057505f61030b565b816001811461062657600281146106305761064c565b600191505061030b565b60ff84111561064157610641610588565b50506001821b61030b565b5060208310610133831016604e8410600b841016171561066f575081810a61030b565b61067b5f1984846105b3565b805f190482111561068e5761068e610588565b029392505050565b5f61056883836105f6565b5f602082840312156106b1575f5ffd5b815160ff81168114610568575f5ffd5b5f82518060208501845e5f92019182525091905056fea2646970667358221220bffb7f4b03cf85943ab4d587e50c52ab60a002869b0f8e29a9c5b493405c913264736f6c634300081c0033a2646970667358221220b240358496dccd8a272230cfec32f08087f939cc2be6553478c00a8e45acf54b64736f6c634300081c0033",
  "language": "Solidity",
  "compiler": "0.8.28+commit.7893614a"
}