{
  "address": "0x504B8ca9C664AFe72324388122caBAFb72F9269f",
  "abi": [
    {
      "type": "function",
      "name": "create",
      "inputs": [
        {
          "name": "_underlyingOracle",
          "type": "address",
          "internalType": "contract ISiloOracle"
        },
        {
          "name": "_wrapper",
          "type": "address",
          "internalType": "contract IPendleLPWrapperLike"
        },
        {
          "name": "_externalSalt",
          "type": "bytes32",
          "internalType": "bytes32"
        }
      ],
      "outputs": [
        {
          "name": "pendleWrapperLPTToSyOracle",
          "type": "address",
          "internalType": "contract ISiloOracle"
        }
      ],
      "stateMutability": "nonpayable"
    },
    {
      "type": "function",
      "name": "createdInFactory",
      "inputs": [
        {
          "name": "",
          "type": "address",
          "internalType": "contract ISiloOracle"
        }
      ],
      "outputs": [
        {
          "name": "",
          "type": "bool",
          "internalType": "bool"
        }
      ],
      "stateMutability": "view"
    },
    {
      "type": "function",
      "name": "nonces",
      "inputs": [
        {
          "name": "owner",
          "type": "address",
          "internalType": "address"
        }
      ],
      "outputs": [
        {
          "name": "",
          "type": "uint256",
          "internalType": "uint256"
        }
      ],
      "stateMutability": "view"
    },
    {
      "type": "event",
      "name": "PendleWrapperLPTToSyOracleCreated",
      "inputs": [
        {
          "name": "pendleWrapperLPTToSyOracle",
          "type": "address",
          "indexed": true,
          "internalType": "contract ISiloOracle"
        }
      ],
      "anonymous": false
    },
    {
      "type": "error",
      "name": "InvalidAccountNonce",
      "inputs": [
        {
          "name": "account",
          "type": "address",
          "internalType": "address"
        },
        {
          "name": "currentNonce",
          "type": "uint256",
          "internalType": "uint256"
        }
      ]
    }
  ],
  "bytecode": "0x6080604052348015600e575f5ffd5b5061147c8061001c5f395ff3fe608060405234801561000f575f5ffd5b506004361061003f575f3560e01c80637ecebe0014610043578063b32d705b1461007e578063d1692f56146100b0575b5f5ffd5b61006b6100513660046101f2565b6001600160a01b03165f9081526020819052604090205490565b6040519081526020015b60405180910390f35b6100a061008c3660046101f2565b60016020525f908152604090205460ff1681565b6040519015158152602001610075565b6100c36100be366004610214565b6100db565b6040516001600160a01b039091168152602001610075565b335f81815260208181526040808320805460018101909155815160609590951b6bffffffffffffffffffffffff19168584015260348501526054808501869052815180860390910181526074909401905282519201919091208484604051610142906101ce565b6001600160a01b039283168152911660208201526040018190604051809103905ff5905080158015610176573d5f5f3e3d5ffd5b506001600160a01b0381165f818152600160208190526040808320805460ff19169092179091555192935090917f2d43e2f2f7b8622fb480305e6bf799e65271622715d6c0eb7b22ecccb86b0fcd9190a29392505050565b6111f48061025383390190565b6001600160a01b03811681146101ef575f5ffd5b50565b5f60208284031215610202575f5ffd5b813561020d816101db565b9392505050565b5f5f5f60608486031215610226575f5ffd5b8335610231816101db565b92506020840135610241816101db565b92959294505050604091909101359056fe610120604052348015610010575f5ffd5b506040516111f43803806111f483398101604081905261002f91610573565b81816001600160a01b031663b6fccf8a6040518163ffffffff1660e01b8152600401602060405180830381865afa15801561006c573d5f5f3e3d5ffd5b505050506040513d601f19601f8201168201806040525081019061009091906105ab565b6001600160a01b03811660c05281815f6100a86102db565b60405162439f4b60e91b81526001600160a01b038416600482015261070860248201529091505f908190739a9fa8338dd5e5b2188006f1cd2ef26d921650c29063873e960090604401606060405180830381865afa15801561010c573d5f5f3e3d5ffd5b505050506040513d601f19601f8201168201806040525081019061013091906105e1565b9250509150811561015457604051636d75962960e01b815260040160405180910390fd5b8061017257604051637388288f60e11b815260040160405180910390fd5b61017a6103a9565b5f0361019957604051632ef8cd3960e11b815260040160405180910390fd5b5f6101a384610436565b6101ae90600a610722565b6040516313b0be3360e01b8152600481018290526001600160a01b038681166024830152919250908716906313b0be3390604401602060405180830381865afa1580156101fd573d5f5f3e3d5ffd5b505050506040513d601f19601f82011682018060405250810190610221919061072d565b5f03610243576040516001620cca2360e01b0319815260040160405180910390fd5b6001600160a01b03808716608081905290851660a05260408051630217a4b760e41b8152905163217a4b70916004808201926020929091908290030181865afa158015610292573d5f5f3e3d5ffd5b505050506040513d601f19601f820116820180604052508101906102b691906105ab565b6001600160a01b0390811660e0529890981661010052506107c4975050505050505050565b5f5f60c0516001600160a01b0316632c8ce6bc6040518163ffffffff1660e01b8152600401606060405180830381865afa15801561031b573d5f5f3e3d5ffd5b505050506040513d601f19601f8201168201806040525081019061033f9190610744565b50509050806001600160a01b03166376d5de856040518163ffffffff1660e01b8152600401602060405180830381865afa15801561037f573d5f5f3e3d5ffd5b505050506040513d601f19601f820116820180604052508101906103a391906105ab565b91505090565b60c051604051634d44ca8960e01b81526001600160a01b03909116600482015261070860248201525f90739a9fa8338dd5e5b2188006f1cd2ef26d921650c290634d44ca8990604401602060405180830381865afa15801561040d573d5f5f3e3d5ffd5b505050506040513d601f19601f82011682018060405250810190610431919061072d565b905090565b6040805160048152602481019091526020810180516001600160e01b0390811663313ce56760e01b179091525f9182918291610475918691906104a616565b915091508161048757505f9392505050565b8080602001905181019061049b919061078e565b60ff16949350505050565b5f60606001600160a01b0384163b6104d1576040516373d39f9d60e01b815260040160405180910390fd5b5f5f856001600160a01b0316856040516104eb91906107ae565b5f60405180830381855afa9150503d805f8114610523576040519150601f19603f3d011682016040523d82523d5f602084013e610528565b606091505b50915091508161054d575f60405180602001604052805f815250935093505050610555565b600193509150505b9250929050565b6001600160a01b0381168114610570575f5ffd5b50565b5f5f60408385031215610584575f5ffd5b825161058f8161055c565b60208401519092506105a08161055c565b809150509250929050565b5f602082840312156105bb575f5ffd5b81516105c68161055c565b9392505050565b805180151581146105dc575f5ffd5b919050565b5f5f5f606084860312156105f3575f5ffd5b6105fc846105cd565b9250602084015161ffff81168114610612575f5ffd5b9150610620604085016105cd565b90509250925092565b634e487b7160e01b5f52601160045260245ffd5b6001815b60018411156106785780850481111561065c5761065c610629565b600184161561066a57908102905b60019390931c928002610641565b935093915050565b5f8261068e5750600161071c565b8161069a57505f61071c565b81600181146106b057600281146106ba576106d6565b600191505061071c565b60ff8411156106cb576106cb610629565b50506001821b61071c565b5060208310610133831016604e8410600b84101617156106f9575081810a61071c565b6107055f19848461063d565b805f190482111561071857610718610629565b0290505b92915050565b5f6105c68383610680565b5f6020828403121561073d575f5ffd5b5051919050565b5f5f5f60608486031215610756575f5ffd5b83516107618161055c565b60208501519093506107728161055c565b60408501519092506107838161055c565b809150509250925092565b5f6020828403121561079e575f5ffd5b815160ff811681146105c6575f5ffd5b5f82518060208501845e5f920191825250919050565b60805160a05160c05160e051610100516109c26108325f395f81816101db0152818161031e0152818161039901526104f301525f818161017c015261023901525f818161011a015261056201525f81816101a5015261040701525f81816102fa015261042f01526109c25ff3fe608060405234801561000f575f5ffd5b5060043610610111575f3560e01c80637ab7e36d1161009e578063ac9124901161006e578063ac912490146102f5578063c55dae631461031c578063f9fa619a14610342578063feaf968c14610355578063ffa1ad741461035d575f5ffd5b80637ab7e36d1461025b578063879ac8f81461026a5780639a6fc8f5146102885780639c977cf0146102da575f5ffd5b8063313ce567116100e4578063313ce567146101c75780633b5bfb8a146101d657806354fd4d50146101fd5780637284e4161461020457806378892cea14610234575f5ffd5b80630f61ac821461011557806313b0be3314610159578063217a4b701461017a57806329db1be6146101a0575b5f5ffd5b61013c7f000000000000000000000000000000000000000000000000000000000000000081565b6040516001600160a01b0390911681526020015b60405180910390f35b61016c61016736600461075f565b610396565b604051908152602001610150565b7f000000000000000000000000000000000000000000000000000000000000000061013c565b61013c7f000000000000000000000000000000000000000000000000000000000000000081565b60405160128152602001610150565b61013c7f000000000000000000000000000000000000000000000000000000000000000081565b600161016c565b60408051808201909152600b81526a53696c6f204f7261636c6560a81b60208201525b6040516101509190610789565b61013c7f000000000000000000000000000000000000000000000000000000000000000081565b61016c670de0b6b3a764000081565b61027361070881565b60405163ffffffff9091168152602001610150565b6102a36102963660046107be565b505f908190819081908190565b6040805169ffffffffffffffffffff968716815260208101959095528401929092526060830152909116608082015260a001610150565b61013c739a9fa8338dd5e5b2188006f1cd2ef26d921650c281565b61013c7f000000000000000000000000000000000000000000000000000000000000000081565b7f000000000000000000000000000000000000000000000000000000000000000061013c565b6103536103503660046107ee565b50565b005b6102a36104ec565b6040805180820190915260208082527f50656e646c65577261707065724c5054546f53794f7261636c6520342e302e3090820152610227565b5f7f00000000000000000000000000000000000000000000000000000000000000006001600160a01b0316826001600160a01b0316146103e95760405163981a2a2b60e01b815260040160405180910390fd5b6040516313b0be3360e01b8152600481018490526001600160a01b037f0000000000000000000000000000000000000000000000000000000000000000811660248301527f000000000000000000000000000000000000000000000000000000000000000016906313b0be3390604401602060405180830381865afa158015610474573d5f5f3e3d5ffd5b505050506040513d601f19601f820116820180604052508101906104989190610807565b9050670de0b6b3a76400006104ab61054b565b6104b59083610832565b6104bf9190610849565b9050805f036104e157604051634dfba02360e01b815260040160405180910390fd5b92915050565b905090565b5f808080807f00000000000000000000000000000000000000000000000000000000000000008161051c826105ef565b905061053a61053561052f83600a61094b565b84610396565b61065a565b96974296508695505f945092505050565b604051634d44ca8960e01b81526001600160a01b037f000000000000000000000000000000000000000000000000000000000000000016600482015261070860248201525f90739a9fa8338dd5e5b2188006f1cd2ef26d921650c290634d44ca8990604401602060405180830381865afa1580156105cb573d5f5f3e3d5ffd5b505050506040513d601f19601f820116820180604052508101906104e79190610807565b6040805160048152602481019091526020810180516001600160e01b031663313ce56760e01b1790525f908190819061062990859061068e565b915091508161063b57505f9392505050565b8080602001905181019061064f9190610956565b60ff16949350505050565b5f6001600160ff1b0382111561068a5760405163123baf0360e11b81526004810183905260240160405180910390fd5b5090565b5f60606001600160a01b0384163b6106b9576040516373d39f9d60e01b815260040160405180910390fd5b5f5f856001600160a01b0316856040516106d39190610976565b5f60405180830381855afa9150503d805f811461070b576040519150601f19603f3d011682016040523d82523d5f602084013e610710565b606091505b509150915081610735575f60405180602001604052805f81525093509350505061073d565b600193509150505b9250929050565b80356001600160a01b038116811461075a575f5ffd5b919050565b5f5f60408385031215610770575f5ffd5b8235915061078060208401610744565b90509250929050565b602081525f82518060208401528060208501604085015e5f604082850101526040601f19601f83011684010191505092915050565b5f602082840312156107ce575f5ffd5b813569ffffffffffffffffffff811681146107e7575f5ffd5b9392505050565b5f602082840312156107fe575f5ffd5b6107e782610744565b5f60208284031215610817575f5ffd5b5051919050565b634e487b7160e01b5f52601160045260245ffd5b80820281158282048414176104e1576104e161081e565b5f8261086357634e487b7160e01b5f52601260045260245ffd5b500490565b6001815b60018411156108a3578085048111156108875761088761081e565b600184161561089557908102905b60019390931c92800261086c565b935093915050565b5f826108b9575060016104e1565b816108c557505f6104e1565b81600181146108db57600281146108e557610901565b60019150506104e1565b60ff8411156108f6576108f661081e565b50506001821b6104e1565b5060208310610133831016604e8410600b8410161715610924575081810a6104e1565b6109305f198484610868565b805f19048211156109435761094361081e565b029392505050565b5f6107e783836108ab565b5f60208284031215610966575f5ffd5b815160ff811681146107e7575f5ffd5b5f82518060208501845e5f92019182525091905056fea26469706673582212205f35f8f1a2cbf6d711ae1dc0998ac8d507ba1e9b98c656ad90aab04b08be3a4264736f6c634300081c0033a26469706673582212208bcfbd320111e4f9b3f86dd8a5f58b9e349faefa7d56275719036ac179efaa4a64736f6c634300081c0033",
  "language": "Solidity",
  "compiler": "0.8.28+commit.7893614a"
}