{
  "address": "0xBF3C74f202Fc4C2B39A48992901D4E5C3a023446",
  "abi": [
    {
      "type": "constructor",
      "inputs": [
        {
          "name": "_pendleOracle",
          "type": "address",
          "internalType": "contract IPyYtLpOracleLike"
        }
      ],
      "stateMutability": "nonpayable"
    },
    {
      "type": "function",
      "name": "PENDLE_ORACLE",
      "inputs": [],
      "outputs": [
        {
          "name": "",
          "type": "address",
          "internalType": "contract IPyYtLpOracleLike"
        }
      ],
      "stateMutability": "view"
    },
    {
      "type": "function",
      "name": "create",
      "inputs": [
        {
          "name": "_underlyingOracle",
          "type": "address",
          "internalType": "contract ISiloOracle"
        },
        {
          "name": "_market",
          "type": "address",
          "internalType": "address"
        },
        {
          "name": "_externalSalt",
          "type": "bytes32",
          "internalType": "bytes32"
        }
      ],
      "outputs": [
        {
          "name": "pendlePTOracle",
          "type": "address",
          "internalType": "contract ISiloOracle"
        }
      ],
      "stateMutability": "nonpayable"
    },
    {
      "type": "function",
      "name": "createdInFactory",
      "inputs": [
        {
          "name": "",
          "type": "address",
          "internalType": "contract ISiloOracle"
        }
      ],
      "outputs": [
        {
          "name": "",
          "type": "bool",
          "internalType": "bool"
        }
      ],
      "stateMutability": "view"
    },
    {
      "type": "function",
      "name": "nonces",
      "inputs": [
        {
          "name": "owner",
          "type": "address",
          "internalType": "address"
        }
      ],
      "outputs": [
        {
          "name": "",
          "type": "uint256",
          "internalType": "uint256"
        }
      ],
      "stateMutability": "view"
    },
    {
      "type": "event",
      "name": "PendlePTOracleCreated",
      "inputs": [
        {
          "name": "pendlePTOracle",
          "type": "address",
          "indexed": true,
          "internalType": "contract ISiloOracle"
        }
      ],
      "anonymous": false
    },
    {
      "type": "error",
      "name": "InvalidAccountNonce",
      "inputs": [
        {
          "name": "account",
          "type": "address",
          "internalType": "address"
        },
        {
          "name": "currentNonce",
          "type": "uint256",
          "internalType": "uint256"
        }
      ]
    },
    {
      "type": "error",
      "name": "PendleOracleIsZero",
      "inputs": []
    }
  ],
  "bytecode": "0x60a0604052348015600e575f5ffd5b50604051611914380380611914833981016040819052602b916061565b6001600160a01b038116605157604051635d26e47b60e11b815260040160405180910390fd5b6001600160a01b0316608052608c565b5f602082840312156070575f5ffd5b81516001600160a01b03811681146085575f5ffd5b9392505050565b60805161186a6100aa5f395f8181608e0152610164015261186a5ff3fe608060405234801561000f575f5ffd5b506004361061004a575f3560e01c80637ecebe001461004e5780639c977cf014610089578063b32d705b146100c8578063d1692f56146100fa575b5f5ffd5b61007661005c366004610249565b6001600160a01b03165f9081526020819052604090205490565b6040519081526020015b60405180910390f35b6100b07f000000000000000000000000000000000000000000000000000000000000000081565b6040516001600160a01b039091168152602001610080565b6100ea6100d6366004610249565b60016020525f908152604090205460ff1681565b6040519015158152602001610080565b6100b061010836600461026b565b335f81815260208181526040808320805460018101909155815160609590951b6bffffffffffffffffffffffff1916858401526034850152605480850186905281518086039091018152607490940190528251920191909120847f00000000000000000000000000000000000000000000000000000000000000008560405161019090610225565b6001600160a01b039384168152918316602083015290911660408201526060018190604051809103905ff59050801580156101cd573d5f5f3e3d5ffd5b506001600160a01b0381165f818152600160208190526040808320805460ff19169092179091555192935090917fbaf8ec7d598cbe2ba31c564e5e35ff01d41b83c9429995a4ff25ede25a482d229190a29392505050565b61158b806102aa83390190565b6001600160a01b0381168114610246575f5ffd5b50565b5f60208284031215610259575f5ffd5b813561026481610232565b9392505050565b5f5f5f6060848603121561027d575f5ffd5b833561028881610232565b9250602084013561029881610232565b92959294505050604091909101359056fe610140604052348015610010575f5ffd5b5060405161158b38038061158b83398101604081905261002f9161053c565b5f610039826102c7565b90505f61004583610330565b90505f610051826103ff565b60405162439f4b60e91b81526001600160a01b03868116600483015261070860248301529192505f9182919088169063873e960090604401606060405180830381865afa1580156100a4573d5f5f3e3d5ffd5b505050506040513d601f19601f820116820180604052508101906100c8919061059a565b92505091508080156100d8575081155b6100f55760405163b498fea160e01b815260040160405180910390fd5b60405163abca0eab60e01b81526001600160a01b038781166004830152610708602483015288169063abca0eab90604401602060405180830381865afa158015610141573d5f5f3e3d5ffd5b505050506040513d601f19601f8201168201806040525081019061016591906105e2565b5f03610184576040516303350ef560e31b815260040160405180910390fd5b5f61019084600a6106f2565b6040516313b0be3360e01b8152600481018290526001600160a01b038781166024830152919250908a16906313b0be3390604401602060405180830381865afa1580156101df573d5f5f3e3d5ffd5b505050506040513d601f19601f8201168201806040525081019061020391906105e2565b5f03610225576040516001620cca2360e01b0319815260040160405180910390fd5b6001600160a01b03808a16608081905289821660a05287821660c05286821660e0529088166101005260408051630217a4b760e41b8152905163217a4b70916004808201926020929091908290030181865afa158015610287573d5f5f3e3d5ffd5b505050506040513d601f19601f820116820180604052508101906102ab9190610704565b6001600160a01b0316610120525061079d975050505050505050565b5f816001600160a01b0316632c8ce6bc6040518163ffffffff1660e01b8152600401606060405180830381865afa158015610304573d5f5f3e3d5ffd5b505050506040513d601f19601f82011682018060405250810190610328919061053c565b509392505050565b5f5f826001600160a01b0316632c8ce6bc6040518163ffffffff1660e01b8152600401606060405180830381865afa15801561036e573d5f5f3e3d5ffd5b505050506040513d601f19601f82011682018060405250810190610392919061053c565b50509050806001600160a01b031663a40bee506040518163ffffffff1660e01b8152600401606060405180830381865afa1580156103d2573d5f5f3e3d5ffd5b505050506040513d601f19601f820116820180604052508101906103f6919061072f565b50949350505050565b6040805160048152602481019091526020810180516001600160e01b0390811663313ce56760e01b179091525f918291829161043e9186919061046f16565b915091508161045057505f9392505050565b80806020019051810190610464919061076e565b60ff16949350505050565b5f60606001600160a01b0384163b61049a576040516373d39f9d60e01b815260040160405180910390fd5b5f5f856001600160a01b0316856040516104b49190610787565b5f60405180830381855afa9150503d805f81146104ec576040519150601f19603f3d011682016040523d82523d5f602084013e6104f1565b606091505b509150915081610516575f60405180602001604052805f81525093509350505061051e565b600193509150505b9250929050565b6001600160a01b0381168114610539575f5ffd5b50565b5f5f5f6060848603121561054e575f5ffd5b835161055981610525565b602085015190935061056a81610525565b604085015190925061057b81610525565b809150509250925092565b80518015158114610595575f5ffd5b919050565b5f5f5f606084860312156105ac575f5ffd5b6105b584610586565b9250602084015161ffff811681146105cb575f5ffd5b91506105d960408501610586565b90509250925092565b5f602082840312156105f2575f5ffd5b5051919050565b634e487b7160e01b5f52601160045260245ffd5b6001815b60018411156106485780850481111561062c5761062c6105f9565b600184161561063a57908102905b60019390931c928002610611565b935093915050565b5f8261065e575060016106ec565b8161066a57505f6106ec565b8160018114610680576002811461068a576106a6565b60019150506106ec565b60ff84111561069b5761069b6105f9565b50506001821b6106ec565b5060208310610133831016604e8410600b84101617156106c9575081810a6106ec565b6106d55f19848461060d565b805f19048211156106e8576106e86105f9565b0290505b92915050565b5f6106fd8383610650565b9392505050565b5f60208284031215610714575f5ffd5b81516106fd81610525565b805160ff81168114610595575f5ffd5b5f5f5f60608486031215610741575f5ffd5b83516002811061074f575f5ffd5b602085015190935061076081610525565b91506105d96040850161071f565b5f6020828403121561077e575f5ffd5b6106fd8261071f565b5f82518060208501845e5f920191825250919050565b60805160a05160c05160e0516101005161012051610d6161082a5f395f818161015301526101fc01525f8181610364015261044401525f818161033d0152818161051001526105ef01525f81816102f001528181610314015281816103dd01526107ef01525f81816102a2015261047601525f81816102c901528181610538015261061a0152610d615ff3fe608060405234801561000f575f5ffd5b5060043610610127575f3560e01c80639a6fc8f5116100a9578063cdc0cfb11161006e578063cdc0cfb114610338578063f46f16c21461035f578063f9fa619a14610386578063feaf968c14610399578063ffa1ad74146103a1575f5ffd5b80639a6fc8f51461024b5780639c977cf01461029d578063ac912490146102c4578063bce2e8d9146102eb578063c55dae6314610312575f5ffd5b80635dd3991e116100ef5780635dd3991e146101b45780637284e416146101c757806378892cea146101f75780637ab7e36d1461021e578063879ac8f81461022d575f5ffd5b806313b0be331461012b578063217a4b701461015157806321d118ef1461018b578063313ce5671461019e57806354fd4d50146101ad575b5f5ffd5b61013e610139366004610a7f565b6103da565b6040519081526020015b60405180910390f35b7f00000000000000000000000000000000000000000000000000000000000000005b6040516001600160a01b039091168152602001610148565b610173610199366004610aad565b6106b0565b60405160128152602001610148565b600161013e565b6101736101c2366004610aad565b610719565b60408051808201909152600b81526a53696c6f204f7261636c6560a81b60208201525b6040516101489190610ac8565b6101737f000000000000000000000000000000000000000000000000000000000000000081565b61013e670de0b6b3a764000081565b61023661070881565b60405163ffffffff9091168152602001610148565b610266610259366004610afd565b505f908190819081908190565b6040805169ffffffffffffffffffff968716815260208101959095528401929092526060830152909116608082015260a001610148565b6101737f000000000000000000000000000000000000000000000000000000000000000081565b6101737f000000000000000000000000000000000000000000000000000000000000000081565b6101737f000000000000000000000000000000000000000000000000000000000000000081565b7f0000000000000000000000000000000000000000000000000000000000000000610173565b6101737f000000000000000000000000000000000000000000000000000000000000000081565b6101737f000000000000000000000000000000000000000000000000000000000000000081565b610397610394366004610aad565b50565b005b6102666107e8565b60408051808201909152601b81527f50656e646c655054546f41737365744f7261636c6520342e302e30000000000060208201526101ea565b5f7f00000000000000000000000000000000000000000000000000000000000000006001600160a01b0316826001600160a01b03161461042d5760405163981a2a2b60e01b815260040160405180910390fd5b60405163abca0eab60e01b81526001600160a01b037f00000000000000000000000000000000000000000000000000000000000000008116600483015261070860248301525f917f00000000000000000000000000000000000000000000000000000000000000009091169063abca0eab90604401602060405180830381865afa1580156104bd573d5f5f3e3d5ffd5b505050506040513d601f19601f820116820180604052508101906104e19190610b26565b9050670de0b6b3a764000081116105bd576040516313b0be3360e01b8152600481018590526001600160a01b037f0000000000000000000000000000000000000000000000000000000000000000811660248301527f000000000000000000000000000000000000000000000000000000000000000016906313b0be3390604401602060405180830381865afa15801561057d573d5f5f3e3d5ffd5b505050506040513d601f19601f820116820180604052508101906105a19190610b26565b91506105b68282670de0b6b3a7640000610847565b9150610689565b5f6105d18583670de0b6b3a7640000610847565b6040516313b0be3360e01b8152600481018290526001600160a01b037f0000000000000000000000000000000000000000000000000000000000000000811660248301529192507f0000000000000000000000000000000000000000000000000000000000000000909116906313b0be3390604401602060405180830381865afa158015610661573d5f5f3e3d5ffd5b505050506040513d601f19601f820116820180604052508101906106859190610b26565b9250505b815f036106a957604051634dfba02360e01b815260040160405180910390fd5b5092915050565b5f816001600160a01b0316632c8ce6bc6040518163ffffffff1660e01b8152600401606060405180830381865afa1580156106ed573d5f5f3e3d5ffd5b505050506040513d601f19601f820116820180604052508101906107119190610b3d565b509392505050565b5f5f826001600160a01b0316632c8ce6bc6040518163ffffffff1660e01b8152600401606060405180830381865afa158015610757573d5f5f3e3d5ffd5b505050506040513d601f19601f8201168201806040525081019061077b9190610b3d565b50509050806001600160a01b031663a40bee506040518163ffffffff1660e01b8152600401606060405180830381865afa1580156107bb573d5f5f3e3d5ffd5b505050506040513d601f19601f820116820180604052508101906107df9190610b9c565b50949350505050565b5f808080807f00000000000000000000000000000000000000000000000000000000000000008161081882610905565b905061083661083161082b83600a610cdd565b846103da565b610970565b96974296508695505f945092505050565b5f838302815f1985870982811083820303915050805f0361087b5783828161087157610871610ce8565b04925050506108fe565b8084116108995761089984156108925760116109a4565b60126109a4565b5f848688095f868103871696879004966002600389028118808a02820302808a02820302808a02820302808a02820302808a02820302808a02909103029181900381900460010186841190950394909402919094039290920491909117919091029150505b9392505050565b6040805160048152602481019091526020810180516001600160e01b031663313ce56760e01b1790525f908190819061093f9085906109b5565b915091508161095157505f9392505050565b808060200190518101906109659190610cfc565b60ff16949350505050565b5f6001600160ff1b038211156109a05760405163123baf0360e11b81526004810183905260240160405180910390fd5b5090565b634e487b715f52806020526024601cfd5b5f60606001600160a01b0384163b6109e0576040516373d39f9d60e01b815260040160405180910390fd5b5f5f856001600160a01b0316856040516109fa9190610d15565b5f60405180830381855afa9150503d805f8114610a32576040519150601f19603f3d011682016040523d82523d5f602084013e610a37565b606091505b509150915081610a5c575f60405180602001604052805f815250935093505050610a64565b600193509150505b9250929050565b6001600160a01b0381168114610394575f5ffd5b5f5f60408385031215610a90575f5ffd5b823591506020830135610aa281610a6b565b809150509250929050565b5f60208284031215610abd575f5ffd5b81356108fe81610a6b565b602081525f82518060208401528060208501604085015e5f604082850101526040601f19601f83011684010191505092915050565b5f60208284031215610b0d575f5ffd5b813569ffffffffffffffffffff811681146108fe575f5ffd5b5f60208284031215610b36575f5ffd5b5051919050565b5f5f5f60608486031215610b4f575f5ffd5b8351610b5a81610a6b565b6020850151909350610b6b81610a6b565b6040850151909250610b7c81610a6b565b809150509250925092565b805160ff81168114610b97575f5ffd5b919050565b5f5f5f60608486031215610bae575f5ffd5b835160028110610bbc575f5ffd5b6020850151909350610bcd81610a6b565b9150610bdb60408501610b87565b90509250925092565b634e487b7160e01b5f52601160045260245ffd5b6001815b6001841115610c3357808504811115610c1757610c17610be4565b6001841615610c2557908102905b60019390931c928002610bfc565b935093915050565b5f82610c4957506001610cd7565b81610c5557505f610cd7565b8160018114610c6b5760028114610c7557610c91565b6001915050610cd7565b60ff841115610c8657610c86610be4565b50506001821b610cd7565b5060208310610133831016604e8410600b8410161715610cb4575081810a610cd7565b610cc05f198484610bf8565b805f1904821115610cd357610cd3610be4565b0290505b92915050565b5f6108fe8383610c3b565b634e487b7160e01b5f52601260045260245ffd5b5f60208284031215610d0c575f5ffd5b6108fe82610b87565b5f82518060208501845e5f92019182525091905056fea2646970667358221220d5ce312ef4dd07607d3ff3565316a3fa71ebe9e12f202442a04d91699716651b64736f6c634300081c0033a264697066735822122051ec6955866f47201791e92f3e6f9fad04ae4ed9ef03aabad16a6ee693d2017264736f6c634300081c0033",
  "language": "Solidity",
  "compiler": "0.8.28+commit.7893614a"
}