{
  "address": "0x92b70a15283d6b5dD7078cc4085fea8e4b7940df",
  "abi": [
    {
      "type": "function",
      "name": "STETH",
      "inputs": [],
      "outputs": [
        {
          "name": "",
          "type": "address",
          "internalType": "contract IStEthLike"
        }
      ],
      "stateMutability": "view"
    },
    {
      "type": "function",
      "name": "decimals",
      "inputs": [],
      "outputs": [
        {
          "name": "",
          "type": "uint8",
          "internalType": "uint8"
        }
      ],
      "stateMutability": "view"
    },
    {
      "type": "function",
      "name": "description",
      "inputs": [],
      "outputs": [
        {
          "name": "",
          "type": "string",
          "internalType": "string"
        }
      ],
      "stateMutability": "pure"
    },
    {
      "type": "function",
      "name": "getRoundData",
      "inputs": [
        {
          "name": "",
          "type": "uint80",
          "internalType": "uint80"
        }
      ],
      "outputs": [
        {
          "name": "",
          "type": "uint80",
          "internalType": "uint80"
        },
        {
          "name": "",
          "type": "int256",
          "internalType": "int256"
        },
        {
          "name": "",
          "type": "uint256",
          "internalType": "uint256"
        },
        {
          "name": "",
          "type": "uint256",
          "internalType": "uint256"
        },
        {
          "name": "",
          "type": "uint80",
          "internalType": "uint80"
        }
      ],
      "stateMutability": "pure"
    },
    {
      "type": "function",
      "name": "latestRoundData",
      "inputs": [],
      "outputs": [
        {
          "name": "roundId",
          "type": "uint80",
          "internalType": "uint80"
        },
        {
          "name": "answer",
          "type": "int256",
          "internalType": "int256"
        },
        {
          "name": "startedAt",
          "type": "uint256",
          "internalType": "uint256"
        },
        {
          "name": "updatedAt",
          "type": "uint256",
          "internalType": "uint256"
        },
        {
          "name": "answeredInRound",
          "type": "uint80",
          "internalType": "uint80"
        }
      ],
      "stateMutability": "view"
    },
    {
      "type": "function",
      "name": "version",
      "inputs": [],
      "outputs": [
        {
          "name": "",
          "type": "uint256",
          "internalType": "uint256"
        }
      ],
      "stateMutability": "pure"
    },
    {
      "type": "error",
      "name": "NotImplemented",
      "inputs": []
    },
    {
      "type": "error",
      "name": "SafeCastOverflowedUintToInt",
      "inputs": [
        {
          "name": "value",
          "type": "uint256",
          "internalType": "uint256"
        }
      ]
    }
  ],
  "bytecode": "0x6080604052348015600e575f5ffd5b506102e48061001c5f395ff3fe608060405234801561000f575f5ffd5b5060043610610060575f3560e01c8063313ce5671461006457806354fd4d50146100785780637284e416146100875780639a6fc8f5146100bf578063e00bfe5014610109578063feaf968c1461013c575b5f5ffd5b604051601281526020015b60405180910390f35b6040516001815260200161006f565b60408051808201825260168152753bb9ba22aa2410179039ba22aa241030b230b83a32b960511b6020820152905161006f9190610232565b6100d26100cd366004610267565b610144565b6040805169ffffffffffffffffffff968716815260208101959095528401929092526060830152909116608082015260a00161006f565b61012473ae7ab96520de3a18e5e111b5eaab095312d7fe8481565b6040516001600160a01b03909116815260200161006f565b6100d2610162565b5f5f5f5f5f60405163d623472560e01b815260040160405180910390fd5b604051630f451f7160e31b8152670de0b6b3a764000060048201526001905f908190819081906101ef9073ae7ab96520de3a18e5e111b5eaab095312d7fe8490637a28fb8890602401602060405180830381865afa1580156101c6573d5f5f3e3d5ffd5b505050506040513d601f19601f820116820180604052508101906101ea9190610297565b6101fe565b94954294508493508692509050565b5f6001600160ff1b0382111561022e5760405163123baf0360e11b81526004810183905260240160405180910390fd5b5090565b602081525f82518060208401528060208501604085015e5f604082850101526040601f19601f83011684010191505092915050565b5f60208284031215610277575f5ffd5b813569ffffffffffffffffffff81168114610290575f5ffd5b9392505050565b5f602082840312156102a7575f5ffd5b505191905056fea264697066735822122056a218474125e6a2093d98b31636a40d52e4a427d9444ea97d04c7266abbdfe464736f6c634300081c0033",
  "language": "Solidity",
  "compiler": "0.8.28+commit.7893614a"
}