{
  "address": "0xfdA5f0b51910C3D9Ac654BbA13b722DE30b45a39",
  "abi": [
    {
      "type": "function",
      "name": "DOMAIN_SEPARATOR",
      "inputs": [],
      "outputs": [
        {
          "name": "",
          "type": "bytes32",
          "internalType": "bytes32"
        }
      ],
      "stateMutability": "view"
    },
    {
      "type": "function",
      "name": "VERSION",
      "inputs": [],
      "outputs": [
        {
          "name": "",
          "type": "string",
          "internalType": "string"
        }
      ],
      "stateMutability": "pure"
    },
    {
      "type": "function",
      "name": "allowance",
      "inputs": [
        {
          "name": "owner",
          "type": "address",
          "internalType": "address"
        },
        {
          "name": "spender",
          "type": "address",
          "internalType": "address"
        }
      ],
      "outputs": [
        {
          "name": "",
          "type": "uint256",
          "internalType": "uint256"
        }
      ],
      "stateMutability": "view"
    },
    {
      "type": "function",
      "name": "approve",
      "inputs": [
        {
          "name": "spender",
          "type": "address",
          "internalType": "address"
        },
        {
          "name": "value",
          "type": "uint256",
          "internalType": "uint256"
        }
      ],
      "outputs": [
        {
          "name": "result",
          "type": "bool",
          "internalType": "bool"
        }
      ],
      "stateMutability": "nonpayable"
    },
    {
      "type": "function",
      "name": "balanceOf",
      "inputs": [
        {
          "name": "account",
          "type": "address",
          "internalType": "address"
        }
      ],
      "outputs": [
        {
          "name": "",
          "type": "uint256",
          "internalType": "uint256"
        }
      ],
      "stateMutability": "view"
    },
    {
      "type": "function",
      "name": "balanceOfAndTotalSupply",
      "inputs": [
        {
          "name": "_account",
          "type": "address",
          "internalType": "address"
        }
      ],
      "outputs": [
        {
          "name": "",
          "type": "uint256",
          "internalType": "uint256"
        },
        {
          "name": "",
          "type": "uint256",
          "internalType": "uint256"
        }
      ],
      "stateMutability": "view"
    },
    {
      "type": "function",
      "name": "burn",
      "inputs": [
        {
          "name": "_owner",
          "type": "address",
          "internalType": "address"
        },
        {
          "name": "_spender",
          "type": "address",
          "internalType": "address"
        },
        {
          "name": "_amount",
          "type": "uint256",
          "internalType": "uint256"
        }
      ],
      "outputs": [],
      "stateMutability": "nonpayable"
    },
    {
      "type": "function",
      "name": "callOnBehalfOfShareToken",
      "inputs": [
        {
          "name": "_target",
          "type": "address",
          "internalType": "address"
        },
        {
          "name": "_value",
          "type": "uint256",
          "internalType": "uint256"
        },
        {
          "name": "_callType",
          "type": "uint8",
          "internalType": "enum ISilo.CallType"
        },
        {
          "name": "_input",
          "type": "bytes",
          "internalType": "bytes"
        }
      ],
      "outputs": [
        {
          "name": "success",
          "type": "bool",
          "internalType": "bool"
        },
        {
          "name": "result",
          "type": "bytes",
          "internalType": "bytes"
        }
      ],
      "stateMutability": "payable"
    },
    {
      "type": "function",
      "name": "decimals",
      "inputs": [],
      "outputs": [
        {
          "name": "",
          "type": "uint8",
          "internalType": "uint8"
        }
      ],
      "stateMutability": "view"
    },
    {
      "type": "function",
      "name": "decimalsOffset",
      "inputs": [],
      "outputs": [
        {
          "name": "",
          "type": "uint256",
          "internalType": "uint256"
        }
      ],
      "stateMutability": "view"
    },
    {
      "type": "function",
      "name": "eip712Domain",
      "inputs": [],
      "outputs": [
        {
          "name": "fields",
          "type": "bytes1",
          "internalType": "bytes1"
        },
        {
          "name": "name",
          "type": "string",
          "internalType": "string"
        },
        {
          "name": "version",
          "type": "string",
          "internalType": "string"
        },
        {
          "name": "chainId",
          "type": "uint256",
          "internalType": "uint256"
        },
        {
          "name": "verifyingContract",
          "type": "address",
          "internalType": "address"
        },
        {
          "name": "salt",
          "type": "bytes32",
          "internalType": "bytes32"
        },
        {
          "name": "extensions",
          "type": "uint256[]",
          "internalType": "uint256[]"
        }
      ],
      "stateMutability": "view"
    },
    {
      "type": "function",
      "name": "forwardTransferFromNoChecks",
      "inputs": [
        {
          "name": "_from",
          "type": "address",
          "internalType": "address"
        },
        {
          "name": "_to",
          "type": "address",
          "internalType": "address"
        },
        {
          "name": "_amount",
          "type": "uint256",
          "internalType": "uint256"
        }
      ],
      "outputs": [],
      "stateMutability": "nonpayable"
    },
    {
      "type": "function",
      "name": "hookReceiver",
      "inputs": [],
      "outputs": [
        {
          "name": "",
          "type": "address",
          "internalType": "address"
        }
      ],
      "stateMutability": "view"
    },
    {
      "type": "function",
      "name": "hookSetup",
      "inputs": [],
      "outputs": [
        {
          "name": "",
          "type": "tuple",
          "internalType": "struct IShareToken.HookSetup",
          "components": [
            {
              "name": "hookReceiver",
              "type": "address",
              "internalType": "address"
            },
            {
              "name": "hooksBefore",
              "type": "uint24",
              "internalType": "uint24"
            },
            {
              "name": "hooksAfter",
              "type": "uint24",
              "internalType": "uint24"
            },
            {
              "name": "tokenType",
              "type": "uint24",
              "internalType": "uint24"
            }
          ]
        }
      ],
      "stateMutability": "view"
    },
    {
      "type": "function",
      "name": "initialize",
      "inputs": [
        {
          "name": "_silo",
          "type": "address",
          "internalType": "contract ISilo"
        },
        {
          "name": "_hookReceiver",
          "type": "address",
          "internalType": "address"
        },
        {
          "name": "_tokenType",
          "type": "uint24",
          "internalType": "uint24"
        }
      ],
      "outputs": [],
      "stateMutability": "nonpayable"
    },
    {
      "type": "function",
      "name": "mint",
      "inputs": [
        {
          "name": "_owner",
          "type": "address",
          "internalType": "address"
        },
        {
          "name": "",
          "type": "address",
          "internalType": "address"
        },
        {
          "name": "_amount",
          "type": "uint256",
          "internalType": "uint256"
        }
      ],
      "outputs": [],
      "stateMutability": "nonpayable"
    },
    {
      "type": "function",
      "name": "name",
      "inputs": [],
      "outputs": [
        {
          "name": "",
          "type": "string",
          "internalType": "string"
        }
      ],
      "stateMutability": "view"
    },
    {
      "type": "function",
      "name": "nonces",
      "inputs": [
        {
          "name": "owner",
          "type": "address",
          "internalType": "address"
        }
      ],
      "outputs": [
        {
          "name": "",
          "type": "uint256",
          "internalType": "uint256"
        }
      ],
      "stateMutability": "view"
    },
    {
      "type": "function",
      "name": "permit",
      "inputs": [
        {
          "name": "owner",
          "type": "address",
          "internalType": "address"
        },
        {
          "name": "spender",
          "type": "address",
          "internalType": "address"
        },
        {
          "name": "value",
          "type": "uint256",
          "internalType": "uint256"
        },
        {
          "name": "deadline",
          "type": "uint256",
          "internalType": "uint256"
        },
        {
          "name": "v",
          "type": "uint8",
          "internalType": "uint8"
        },
        {
          "name": "r",
          "type": "bytes32",
          "internalType": "bytes32"
        },
        {
          "name": "s",
          "type": "bytes32",
          "internalType": "bytes32"
        }
      ],
      "outputs": [],
      "stateMutability": "nonpayable"
    },
    {
      "type": "function",
      "name": "silo",
      "inputs": [],
      "outputs": [
        {
          "name": "",
          "type": "address",
          "internalType": "contract ISilo"
        }
      ],
      "stateMutability": "view"
    },
    {
      "type": "function",
      "name": "siloConfig",
      "inputs": [],
      "outputs": [
        {
          "name": "",
          "type": "address",
          "internalType": "contract ISiloConfig"
        }
      ],
      "stateMutability": "view"
    },
    {
      "type": "function",
      "name": "symbol",
      "inputs": [],
      "outputs": [
        {
          "name": "",
          "type": "string",
          "internalType": "string"
        }
      ],
      "stateMutability": "view"
    },
    {
      "type": "function",
      "name": "synchronizeHooks",
      "inputs": [
        {
          "name": "_hooksBefore",
          "type": "uint24",
          "internalType": "uint24"
        },
        {
          "name": "_hooksAfter",
          "type": "uint24",
          "internalType": "uint24"
        }
      ],
      "outputs": [],
      "stateMutability": "nonpayable"
    },
    {
      "type": "function",
      "name": "totalSupply",
      "inputs": [],
      "outputs": [
        {
          "name": "",
          "type": "uint256",
          "internalType": "uint256"
        }
      ],
      "stateMutability": "view"
    },
    {
      "type": "function",
      "name": "transfer",
      "inputs": [
        {
          "name": "_to",
          "type": "address",
          "internalType": "address"
        },
        {
          "name": "_amount",
          "type": "uint256",
          "internalType": "uint256"
        }
      ],
      "outputs": [
        {
          "name": "result",
          "type": "bool",
          "internalType": "bool"
        }
      ],
      "stateMutability": "nonpayable"
    },
    {
      "type": "function",
      "name": "transferFrom",
      "inputs": [
        {
          "name": "_from",
          "type": "address",
          "internalType": "address"
        },
        {
          "name": "_to",
          "type": "address",
          "internalType": "address"
        },
        {
          "name": "_amount",
          "type": "uint256",
          "internalType": "uint256"
        }
      ],
      "outputs": [
        {
          "name": "result",
          "type": "bool",
          "internalType": "bool"
        }
      ],
      "stateMutability": "nonpayable"
    },
    {
      "type": "event",
      "name": "Approval",
      "inputs": [
        {
          "name": "owner",
          "type": "address",
          "indexed": true,
          "internalType": "address"
        },
        {
          "name": "spender",
          "type": "address",
          "indexed": true,
          "internalType": "address"
        },
        {
          "name": "value",
          "type": "uint256",
          "indexed": false,
          "internalType": "uint256"
        }
      ],
      "anonymous": false
    },
    {
      "type": "event",
      "name": "EIP712DomainChanged",
      "inputs": [],
      "anonymous": false
    },
    {
      "type": "event",
      "name": "Initialized",
      "inputs": [
        {
          "name": "version",
          "type": "uint64",
          "indexed": false,
          "internalType": "uint64"
        }
      ],
      "anonymous": false
    },
    {
      "type": "event",
      "name": "NotificationSent",
      "inputs": [
        {
          "name": "notificationReceiver",
          "type": "address",
          "indexed": true,
          "internalType": "address"
        },
        {
          "name": "success",
          "type": "bool",
          "indexed": false,
          "internalType": "bool"
        }
      ],
      "anonymous": false
    },
    {
      "type": "event",
      "name": "Transfer",
      "inputs": [
        {
          "name": "from",
          "type": "address",
          "indexed": true,
          "internalType": "address"
        },
        {
          "name": "to",
          "type": "address",
          "indexed": true,
          "internalType": "address"
        },
        {
          "name": "value",
          "type": "uint256",
          "indexed": false,
          "internalType": "uint256"
        }
      ],
      "anonymous": false
    },
    {
      "type": "error",
      "name": "AmountExceedsAllowance",
      "inputs": []
    },
    {
      "type": "error",
      "name": "CrossReentrantCall",
      "inputs": []
    },
    {
      "type": "error",
      "name": "ECDSAInvalidSignature",
      "inputs": []
    },
    {
      "type": "error",
      "name": "ECDSAInvalidSignatureLength",
      "inputs": [
        {
          "name": "length",
          "type": "uint256",
          "internalType": "uint256"
        }
      ]
    },
    {
      "type": "error",
      "name": "ECDSAInvalidSignatureS",
      "inputs": [
        {
          "name": "s",
          "type": "bytes32",
          "internalType": "bytes32"
        }
      ]
    },
    {
      "type": "error",
      "name": "ERC20InsufficientAllowance",
      "inputs": [
        {
          "name": "spender",
          "type": "address",
          "internalType": "address"
        },
        {
          "name": "allowance",
          "type": "uint256",
          "internalType": "uint256"
        },
        {
          "name": "needed",
          "type": "uint256",
          "internalType": "uint256"
        }
      ]
    },
    {
      "type": "error",
      "name": "ERC20InsufficientBalance",
      "inputs": [
        {
          "name": "sender",
          "type": "address",
          "internalType": "address"
        },
        {
          "name": "balance",
          "type": "uint256",
          "internalType": "uint256"
        },
        {
          "name": "needed",
          "type": "uint256",
          "internalType": "uint256"
        }
      ]
    },
    {
      "type": "error",
      "name": "ERC20InvalidApprover",
      "inputs": [
        {
          "name": "approver",
          "type": "address",
          "internalType": "address"
        }
      ]
    },
    {
      "type": "error",
      "name": "ERC20InvalidReceiver",
      "inputs": [
        {
          "name": "receiver",
          "type": "address",
          "internalType": "address"
        }
      ]
    },
    {
      "type": "error",
      "name": "ERC20InvalidSender",
      "inputs": [
        {
          "name": "sender",
          "type": "address",
          "internalType": "address"
        }
      ]
    },
    {
      "type": "error",
      "name": "ERC20InvalidSpender",
      "inputs": [
        {
          "name": "spender",
          "type": "address",
          "internalType": "address"
        }
      ]
    },
    {
      "type": "error",
      "name": "ERC2612ExpiredSignature",
      "inputs": [
        {
          "name": "deadline",
          "type": "uint256",
          "internalType": "uint256"
        }
      ]
    },
    {
      "type": "error",
      "name": "ERC2612InvalidSigner",
      "inputs": [
        {
          "name": "signer",
          "type": "address",
          "internalType": "address"
        },
        {
          "name": "owner",
          "type": "address",
          "internalType": "address"
        }
      ]
    },
    {
      "type": "error",
      "name": "InvalidAccountNonce",
      "inputs": [
        {
          "name": "account",
          "type": "address",
          "internalType": "address"
        },
        {
          "name": "currentNonce",
          "type": "uint256",
          "internalType": "uint256"
        }
      ]
    },
    {
      "type": "error",
      "name": "InvalidInitialization",
      "inputs": []
    },
    {
      "type": "error",
      "name": "InvalidTokenType",
      "inputs": []
    },
    {
      "type": "error",
      "name": "NotInitializing",
      "inputs": []
    },
    {
      "type": "error",
      "name": "OnlyHookReceiver",
      "inputs": []
    },
    {
      "type": "error",
      "name": "OnlySilo",
      "inputs": []
    },
    {
      "type": "error",
      "name": "OnlySiloConfig",
      "inputs": []
    },
    {
      "type": "error",
      "name": "OwnerIsZero",
      "inputs": []
    },
    {
      "type": "error",
      "name": "RecipientIsZero",
      "inputs": []
    },
    {
      "type": "error",
      "name": "RecipientNotSolventAfterTransfer",
      "inputs": []
    },
    {
      "type": "error",
      "name": "SenderNotSolventAfterTransfer",
      "inputs": []
    },
    {
      "type": "error",
      "name": "ZeroTransfer",
      "inputs": []
    }
  ],
  "bytecode": "0x6080604052348015600e575f5ffd5b5060156019565b60c9565b7ff0c57e16840df040f15088dc2f81fe391c3923bec73e23a9662efc9c229c6a00805468010000000000000000900460ff161560685760405163f92ee8a960e01b815260040160405180910390fd5b80546001600160401b039081161460c65780546001600160401b0319166001600160401b0390811782556040519081527fc7f505b2f371ae2175ee4913f4499e1f2633a7b5936321eed1cdaeb6115181d29060200160405180910390a15b50565b612370806100d65f395ff3fe60806040526004361061017b575f3560e01c80638fea8062116100cd578063d714fd1911610087578063dd62ed3e11610062578063dd62ed3e14610549578063eb3beb2914610568578063f6b911bc1461057c578063ffa1ad741461059b575f5ffd5b8063d714fd19146104e2578063d985616c146104f6578063dce5c2db14610515575f5ffd5b80638fea80621461040e57806395d89b411461045e57806396b298c514610472578063a9059cbb14610485578063c6c3bbe6146104a4578063d505accf146104c3575f5ffd5b8063336c8d70116101385780634c7b0f3c116101135780634c7b0f3c1461038a57806370a08231146103a95780637ecebe00146103c857806384b0196e146103e7575f5ffd5b8063336c8d70146103345780633644e5151461035557806338a67cf514610369575f5ffd5b806306fdde031461017f578063095ea7b3146101a95780630ed4fe31146101d857806318160ddd146102b257806323b872dd146102ef578063313ce5671461030e575b5f5ffd5b34801561018a575f5ffd5b506101936105af565b6040516101a09190611cf4565b60405180910390f35b3480156101b4575f5ffd5b506101c86101c3366004611d1a565b610623565b60405190151581526020016101a0565b3480156101e3575f5ffd5b50610269604080516080810182525f8082526020820181905291810182905260608101919091525f5160206122d85f395f51905f5260408051608081018252600292909201546001600160a01b038116835262ffffff600160a01b820481166020850152600160b81b8204811692840192909252600160d01b9004166060820152919050565b6040516101a0919081516001600160a01b0316815260208083015162ffffff90811691830191909152604080840151821690830152606092830151169181019190915260800190565b3480156102bd575f5ffd5b507f52c63247e1f47db19d5ce0460030c497f067ca4cebf71ba98eeadabe20bace02545b6040519081526020016101a0565b3480156102fa575f5ffd5b506101c8610309366004611d44565b610645565b348015610319575f5ffd5b506103226106b4565b60405160ff90911681526020016101a0565b34801561033f575f5ffd5b5061035361034e366004611d99565b610720565b005b348015610360575f5ffd5b506102e1610730565b61037c610377366004611ddd565b610739565b6040516101a0929190611e79565b348015610395575f5ffd5b506103536103a4366004611e9b565b610791565b3480156103b4575f5ffd5b506102e16103c3366004611ecc565b610825565b3480156103d3575f5ffd5b506102e16103e2366004611ecc565b610868565b3480156103f2575f5ffd5b506103fb610878565b6040516101a09796959493929190611ee7565b348015610419575f5ffd5b507f01b0b3f9d6e360167e522fa2b18ba597ad7b2b35841fec7e1ca4dbb0adea1202546001600160a01b03165b6040516001600160a01b0390911681526020016101a0565b348015610469575f5ffd5b50610193610926565b34801561047d575f5ffd5b5060036102e1565b348015610490575f5ffd5b506101c861049f366004611d1a565b61096e565b3480156104af575f5ffd5b506103536104be366004611d44565b6109db565b3480156104ce575f5ffd5b506103536104dd366004611f8b565b610a1e565b3480156104ed575f5ffd5b50610446610a41565b348015610501575f5ffd5b50610353610510366004611d44565b610a4a565b348015610520575f5ffd5b5061053461052f366004611ecc565b610ad9565b604080519283526020830191909152016101a0565b348015610554575f5ffd5b506102e1610563366004611ff7565b610b0f565b348015610573575f5ffd5b50610446610b58565b348015610587575f5ffd5b50610353610596366004611d44565b610b61565b3480156105a6575f5ffd5b50610193610bc8565b606073__$e36323ec861de5853ea34405a6a6c240f5$__6306fdde036040518163ffffffff1660e01b81526004015f60405180830381865af41580156105f7573d5f5f3e3d5ffd5b505050506040513d5f823e601f3d908101601f1916820160405261061e9190810190612042565b905090565b5f61063461062f610be8565b610c16565b61063e8383610c97565b9392505050565b5f5f61064f610cae565b905061065c858585610d0a565b9150806001600160a01b03166362402b046040518163ffffffff1660e01b81526004015f604051808303815f87803b158015610696575f5ffd5b505af11580156106a8573d5f5f3e3d5ffd5b50505050509392505050565b5f73__$e36323ec861de5853ea34405a6a6c240f5$__63313ce5676040518163ffffffff1660e01b8152600401602060405180830381865af41580156106fc573d5f5f3e3d5ffd5b505050506040513d601f19601f8201168201806040525081019061061e91906120f5565b61072b838383610d2d565b505050565b5f61061e610eec565b5f60605f5160206122d85f395f51905f52600201546001600160a01b03163314610776576040516380897acb60e01b815260040160405180910390fd5b6107838787878787610ef5565b909890975095505050505050565b610799610fde565b6001600160a01b0316336001600160a01b0316146107ca576040516310528c6d60e11b815260040160405180910390fd5b7f01b0b3f9d6e360167e522fa2b18ba597ad7b2b35841fec7e1ca4dbb0adea1202805465ffffffffffff60a01b1916600160a01b62ffffff9485160262ffffff60b81b191617600160b81b9290931691909102919091179055565b5f807f52c63247e1f47db19d5ce0460030c497f067ca4cebf71ba98eeadabe20bace005b6001600160a01b039093165f9081526020939093525050604090205490565b5f61087282610ff9565b92915050565b5f60608082808083815f5160206122f85f395f51905f5280549091501580156108a357506001810154155b6108ec5760405162461bcd60e51b81526020600482015260156024820152741152540dcc4c8e88155b9a5b9a5d1a585b1a5e9959605a1b60448201526064015b60405180910390fd5b6108f4611021565b6108fc6110e1565b604080515f80825260208201909252600f60f81b9c939b5091995046985030975095509350915050565b606073__$e36323ec861de5853ea34405a6a6c240f5$__6395d89b416040518163ffffffff1660e01b81526004015f60405180830381865af41580156105f7573d5f5f3e3d5ffd5b5f5f610978610cae565b9050610984848461111f565b9150806001600160a01b03166362402b046040518163ffffffff1660e01b81526004015f604051808303815f87803b1580156109be575f5ffd5b505af11580156109d0573d5f5f3e3d5ffd5b505050505092915050565b6109e3610fde565b6001600160a01b0316336001600160a01b031614610a14576040516310528c6d60e11b815260040160405180910390fd5b61072b838261112c565b610a2961062f610be8565b610a3887878787878787611164565b50505050505050565b5f61061e610be8565b5f5160206122d85f395f51905f52600201546001600160a01b03163314610a84576040516380897acb60e01b815260040160405180910390fd5b7f01b0b3f9d6e360167e522fa2b18ba597ad7b2b35841fec7e1ca4dbb0adea1203805460ff191690555f5160206122d85f395f51905f52610ac68484846112b9565b600301805460ff19166001179055505050565b5f5f610ae483610825565b7f52c63247e1f47db19d5ce0460030c497f067ca4cebf71ba98eeadabe20bace025491509150915091565b6001600160a01b039182165f9081527f52c63247e1f47db19d5ce0460030c497f067ca4cebf71ba98eeadabe20bace016020908152604080832093909416825291909152205490565b5f61061e610fde565b610b69610fde565b6001600160a01b0316336001600160a01b031614610b9a576040516310528c6d60e11b815260040160405180910390fd5b816001600160a01b0316836001600160a01b031614610bbe57610bbe838383611316565b61072b8382611379565b606060405180606001604052806023815260200161231860239139905090565b7f01b0b3f9d6e360167e522fa2b18ba597ad7b2b35841fec7e1ca4dbb0adea1201546001600160a01b031690565b806001600160a01b031663d2c725e06040518163ffffffff1660e01b8152600401602060405180830381865afa158015610c52573d5f5f3e3d5ffd5b505050506040513d601f19601f82011682018060405250810190610c769190612110565b15610c945760405163e17fbf8960e01b815260040160405180910390fd5b50565b5f33610ca48185856113ad565b5060019392505050565b5f610cb7610be8565b9050806001600160a01b0316639dd413306040518163ffffffff1660e01b81526004015f604051808303815f87803b158015610cf1575f5ffd5b505af1158015610d03573d5f5f3e3d5ffd5b5050505090565b5f33610d17858285611316565b610d228585856112b9565b506001949350505050565b7ff0c57e16840df040f15088dc2f81fe391c3923bec73e23a9662efc9c229c6a008054600160401b810460ff16159067ffffffffffffffff165f81158015610d725750825b90505f8267ffffffffffffffff166001148015610d8e5750303b155b905081158015610d9c575080155b15610dba5760405163f92ee8a960e01b815260040160405180910390fd5b845467ffffffffffffffff191660011785558315610de457845460ff60401b1916600160401b1785555b610e226040518060400160405280601881526020017f53696c6f5368617265546f6b656e4549503731324e616d6500000000000000008152506113ba565b604051631983f68f60e21b81526001600160a01b03808a1660048301528816602482015262ffffff8716604482015273__$e36323ec861de5853ea34405a6a6c240f5$__9063660fda3c906064015f6040518083038186803b158015610e86575f5ffd5b505af4158015610e98573d5f5f3e3d5ffd5b505050508315610ee257845460ff60401b19168555604051600181527fc7f505b2f371ae2175ee4913f4499e1f2633a7b5936321eed1cdaeb6115181d29060200160405180910390a15b5050505050505050565b5f61061e6113e5565b5f60606001856001811115610f0c57610f0c61212f565b03610f7357866001600160a01b03168484604051610f2b929190612143565b5f60405180830381855af49150503d805f8114610f63576040519150601f19603f3d011682016040523d82523d5f602084013e610f68565b606091505b509092509050610fd4565b866001600160a01b0316868585604051610f8e929190612143565b5f6040518083038185875af1925050503d805f8114610fc8576040519150601f19603f3d011682016040523d82523d5f602084013e610fcd565b606091505b5090925090505b9550959350505050565b5f5160206122d85f395f51905f52546001600160a01b031690565b5f807f5ab42ced628888259c08ac98db1eb0cf702fc1501344311d8b100cd1bfe4bb00610849565b7fa16a46d94261c7517cc8ff89f61c0ce93598e3c849801011dee649a6a557d10280546060915f5160206122f85f395f51905f529161105f90612152565b80601f016020809104026020016040519081016040528092919081815260200182805461108b90612152565b80156110d65780601f106110ad576101008083540402835291602001916110d6565b820191905f5260205f20905b8154815290600101906020018083116110b957829003601f168201915b505050505091505090565b7fa16a46d94261c7517cc8ff89f61c0ce93598e3c849801011dee649a6a557d10380546060915f5160206122f85f395f51905f529161105f90612152565b5f33610ca48185856112b9565b6001600160a01b0382166111555760405163ec442f0560e01b81525f60048201526024016108e3565b6111605f8383611458565b5050565b834211156111885760405163313c898160e11b8152600481018590526024016108e3565b5f7f6e71edae12b1b97f4d1f60370fef10105fa2faae0126114a169c64845d6126c98888886111f28c6001600160a01b03165f9081527f5ab42ced628888259c08ac98db1eb0cf702fc1501344311d8b100cd1bfe4bb006020526040902080546001810190915590565b6040805160208101969096526001600160a01b0394851690860152929091166060840152608083015260a082015260c0810186905260e0016040516020818303038152906040528051906020012090505f61124c8261148e565b90505f61125b828787876114ba565b9050896001600160a01b0316816001600160a01b0316146112a2576040516325c0072360e11b81526001600160a01b0380831660048301528b1660248201526044016108e3565b6112ad8a8a8a6113ad565b50505050505050505050565b6001600160a01b0383166112e257604051634b637e8f60e11b81525f60048201526024016108e3565b6001600160a01b03821661130b5760405163ec442f0560e01b81525f60048201526024016108e3565b61072b838383611458565b5f6113218484610b0f565b90505f198114611373578181101561136557604051637dc7a0d960e11b81526001600160a01b038416600482015260248101829052604481018390526064016108e3565b61137384848484035f6114e6565b50505050565b6001600160a01b0382166113a257604051634b637e8f60e11b81525f60048201526024016108e3565b611160825f83611458565b61072b83838360016114e6565b6113c26115dd565b610c9481604051806040016040528060018152602001603160f81b815250611628565b5f7f8b73c3c69bb8fe3d512ecc4cf759cc79239f7b179b0ffacaa9a75d522b39400f61140f611687565b6114176116ef565b60408051602081019490945283019190915260608201524660808201523060a082015260c00160405160208183030381529060405280519060200120905090565b805f03611478576040516310cadee360e01b815260040160405180910390fd5b611483838383611731565b61072b83838361187d565b5f61087261149a610eec565b8360405161190160f01b8152600281019290925260228201526042902090565b5f5f5f5f6114ca88888888611953565b9250925092506114da8282611a1b565b50909695505050505050565b7f52c63247e1f47db19d5ce0460030c497f067ca4cebf71ba98eeadabe20bace006001600160a01b0385166115305760405163e602df0560e01b81525f60048201526024016108e3565b6001600160a01b03841661155957604051634a1406b160e11b81525f60048201526024016108e3565b6001600160a01b038086165f908152600183016020908152604080832093881683529290522083905581156115d657836001600160a01b0316856001600160a01b03167f8c5be1e5ebec7d5bd14f71427d1e84f3dd0314c0f7b2291e5b200ac8c7c3b925856040516115cd91815260200190565b60405180910390a35b5050505050565b7ff0c57e16840df040f15088dc2f81fe391c3923bec73e23a9662efc9c229c6a0054600160401b900460ff1661162657604051631afcd79f60e31b815260040160405180910390fd5b565b6116306115dd565b5f5160206122f85f395f51905f527fa16a46d94261c7517cc8ff89f61c0ce93598e3c849801011dee649a6a557d10261166984826121ce565b506003810161167883826121ce565b505f8082556001909101555050565b5f5f5160206122f85f395f51905f528161169f611021565b8051909150156116b757805160209091012092915050565b815480156116c6579392505050565b7fc5d2460186f7233c927e7db2dcc703c0e500b653ca82273b7bfad8045d85a470935050505090565b5f5f5160206122f85f395f51905f52816117076110e1565b80519091501561171f57805160209091012092915050565b600182015480156116c6579392505050565b7f52c63247e1f47db19d5ce0460030c497f067ca4cebf71ba98eeadabe20bace006001600160a01b03841661177e5781816002015f8282546117739190612289565b909155506117ee9050565b6001600160a01b0384165f90815260208290526040902054828110156117d05760405163391434e360e21b81526001600160a01b038616600482015260248101829052604481018490526064016108e3565b6001600160a01b0385165f9081526020839052604090209083900390555b6001600160a01b03831661180c57600281018054839003905561182a565b6001600160a01b0383165f9081526020829052604090208054830190555b826001600160a01b0316846001600160a01b03167fddf252ad1be2c89b69c2b068fc378daa952ba7f163c4a11628f55a4df523b3ef8460405161186f91815260200190565b60405180910390a350505050565b5f5160206122d85f395f51905f526118958484611ad3565b80156118a55750600381015460ff165b1561194857604051636f15550f60e11b81526001600160a01b03851660048201525f9073__$0c603b63fef61d2abd9717344845f11cca$__9063de2aaa1e90602401602060405180830381865af4158015611902573d5f5f3e3d5ffd5b505050506040513d601f19601f820116820180604052508101906119269190612110565b90508061194657604051633c3b8e1b60e21b815260040160405180910390fd5b505b611373848484611af8565b5f80807f7fffffffffffffffffffffffffffffff5d576e7357a4501ddfe92f46681b20a084111561198c57505f91506003905082611a11565b604080515f808252602082018084528a905260ff891692820192909252606081018790526080810186905260019060a0016020604051602081039080840390855afa1580156119dd573d5f5f3e3d5ffd5b5050604051601f1901519150506001600160a01b038116611a0857505f925060019150829050611a11565b92505f91508190505b9450945094915050565b5f826003811115611a2e57611a2e61212f565b03611a37575050565b6001826003811115611a4b57611a4b61212f565b03611a695760405163f645eedf60e01b815260040160405180910390fd5b6002826003811115611a7d57611a7d61212f565b03611a9e5760405163fce698f760e01b8152600481018290526024016108e3565b6003826003811115611ab257611ab261212f565b03611160576040516335e2f38360e21b8152600481018290526024016108e3565b5f6001600160a01b0383161580159061063e5750506001600160a01b03161515919050565b604080516080810182527f01b0b3f9d6e360167e522fa2b18ba597ad7b2b35841fec7e1ca4dbb0adea1202546001600160a01b038116825262ffffff600160a01b820481166020840152600160b81b8204811693830193909352600160d01b9004909116606082018190525f5160206122d85f395f51905f5291905f90611b7e90611c83565b6040830151909150811662ffffff168114611b9b57505050505050565b815183546001600160a01b039182169163aef28235911683898989611bbf83610825565b611bc88d610825565b7f52c63247e1f47db19d5ce0460030c497f067ca4cebf71ba98eeadabe20bace02546040516bffffffffffffffffffffffff19606097881b811660208301529590961b909416603486015260488501929092526068840152608883015260a882015260c8016040516020818303038152906040526040518463ffffffff1660e01b8152600401611c5a939291906122a8565b5f604051808303815f87803b158015611c71575f5ffd5b505af11580156112ad573d5f5f3e3d5ffd5b5f610800821480611c95575061100082145b80611ca1575061200082145b611cbe5760405163a1e9dd9d60e01b815260040160405180910390fd5b506104001790565b5f81518084528060208401602086015e5f602082860101526020601f19601f83011685010191505092915050565b602081525f61063e6020830184611cc6565b6001600160a01b0381168114610c94575f5ffd5b5f5f60408385031215611d2b575f5ffd5b8235611d3681611d06565b946020939093013593505050565b5f5f5f60608486031215611d56575f5ffd5b8335611d6181611d06565b92506020840135611d7181611d06565b929592945050506040919091013590565b803562ffffff81168114611d94575f5ffd5b919050565b5f5f5f60608486031215611dab575f5ffd5b8335611db681611d06565b92506020840135611dc681611d06565b9150611dd460408501611d82565b90509250925092565b5f5f5f5f5f60808688031215611df1575f5ffd5b8535611dfc81611d06565b945060208601359350604086013560028110611e16575f5ffd5b9250606086013567ffffffffffffffff811115611e31575f5ffd5b8601601f81018813611e41575f5ffd5b803567ffffffffffffffff811115611e57575f5ffd5b886020828401011115611e68575f5ffd5b959894975092955050506020019190565b8215158152604060208201525f611e936040830184611cc6565b949350505050565b5f5f60408385031215611eac575f5ffd5b611eb583611d82565b9150611ec360208401611d82565b90509250929050565b5f60208284031215611edc575f5ffd5b813561063e81611d06565b60ff60f81b8816815260e060208201525f611f0560e0830189611cc6565b8281036040840152611f178189611cc6565b606084018890526001600160a01b038716608085015260a0840186905283810360c0850152845180825260208087019350909101905f5b81811015611f6c578351835260209384019390920191600101611f4e565b50909b9a5050505050505050505050565b60ff81168114610c94575f5ffd5b5f5f5f5f5f5f5f60e0888a031215611fa1575f5ffd5b8735611fac81611d06565b96506020880135611fbc81611d06565b955060408801359450606088013593506080880135611fda81611f7d565b9699959850939692959460a0840135945060c09093013592915050565b5f5f60408385031215612008575f5ffd5b823561201381611d06565b9150602083013561202381611d06565b809150509250929050565b634e487b7160e01b5f52604160045260245ffd5b5f60208284031215612052575f5ffd5b815167ffffffffffffffff811115612068575f5ffd5b8201601f81018413612078575f5ffd5b805167ffffffffffffffff8111156120925761209261202e565b604051601f8201601f19908116603f0116810167ffffffffffffffff811182821017156120c1576120c161202e565b6040528181528282016020018610156120d8575f5ffd5b8160208401602083015e5f91810160200191909152949350505050565b5f60208284031215612105575f5ffd5b815161063e81611f7d565b5f60208284031215612120575f5ffd5b8151801515811461063e575f5ffd5b634e487b7160e01b5f52602160045260245ffd5b818382375f9101908152919050565b600181811c9082168061216657607f821691505b60208210810361218457634e487b7160e01b5f52602260045260245ffd5b50919050565b601f82111561072b57805f5260205f20601f840160051c810160208510156121af5750805b601f840160051c820191505b818110156115d6575f81556001016121bb565b815167ffffffffffffffff8111156121e8576121e861202e565b6121fc816121f68454612152565b8461218a565b6020601f82116001811461222e575f83156122175750848201515b5f19600385901b1c1916600184901b1784556115d6565b5f84815260208120601f198516915b8281101561225d578785015182556020948501946001909201910161223d565b508482101561227a57868401515f19600387901b60f8161c191681555b50505050600190811b01905550565b8082018082111561087257634e487b7160e01b5f52601160045260245ffd5b60018060a01b0384168152826020820152606060408201525f6122ce6060830184611cc6565b9594505050505056fe01b0b3f9d6e360167e522fa2b18ba597ad7b2b35841fec7e1ca4dbb0adea1200a16a46d94261c7517cc8ff89f61c0ce93598e3c849801011dee649a6a557d100536861726550726f746563746564436f6c6c61746572616c546f6b656e20342e302e30a2646970667358221220a55d4ffa9db498706fe2433cf5cb4db4f2cdb62b05ae19a0e6b65fc535cb695c64736f6c634300081c0033",
  "language": "Solidity",
  "compiler": "0.8.28+commit.7893614a"
}