{
  "address": "0x30d3E6873118147bA84172490F35DbaB002fA230",
  "abi": [
    {
      "type": "function",
      "name": "DOMAIN_SEPARATOR",
      "inputs": [],
      "outputs": [
        {
          "name": "",
          "type": "bytes32",
          "internalType": "bytes32"
        }
      ],
      "stateMutability": "view"
    },
    {
      "type": "function",
      "name": "VERSION",
      "inputs": [],
      "outputs": [
        {
          "name": "",
          "type": "string",
          "internalType": "string"
        }
      ],
      "stateMutability": "pure"
    },
    {
      "type": "function",
      "name": "allowance",
      "inputs": [
        {
          "name": "owner",
          "type": "address",
          "internalType": "address"
        },
        {
          "name": "spender",
          "type": "address",
          "internalType": "address"
        }
      ],
      "outputs": [
        {
          "name": "",
          "type": "uint256",
          "internalType": "uint256"
        }
      ],
      "stateMutability": "view"
    },
    {
      "type": "function",
      "name": "approve",
      "inputs": [
        {
          "name": "spender",
          "type": "address",
          "internalType": "address"
        },
        {
          "name": "value",
          "type": "uint256",
          "internalType": "uint256"
        }
      ],
      "outputs": [
        {
          "name": "result",
          "type": "bool",
          "internalType": "bool"
        }
      ],
      "stateMutability": "nonpayable"
    },
    {
      "type": "function",
      "name": "balanceOf",
      "inputs": [
        {
          "name": "account",
          "type": "address",
          "internalType": "address"
        }
      ],
      "outputs": [
        {
          "name": "",
          "type": "uint256",
          "internalType": "uint256"
        }
      ],
      "stateMutability": "view"
    },
    {
      "type": "function",
      "name": "balanceOfAndTotalSupply",
      "inputs": [
        {
          "name": "_account",
          "type": "address",
          "internalType": "address"
        }
      ],
      "outputs": [
        {
          "name": "",
          "type": "uint256",
          "internalType": "uint256"
        },
        {
          "name": "",
          "type": "uint256",
          "internalType": "uint256"
        }
      ],
      "stateMutability": "view"
    },
    {
      "type": "function",
      "name": "burn",
      "inputs": [
        {
          "name": "_owner",
          "type": "address",
          "internalType": "address"
        },
        {
          "name": "",
          "type": "address",
          "internalType": "address"
        },
        {
          "name": "_amount",
          "type": "uint256",
          "internalType": "uint256"
        }
      ],
      "outputs": [],
      "stateMutability": "nonpayable"
    },
    {
      "type": "function",
      "name": "callOnBehalfOfShareToken",
      "inputs": [
        {
          "name": "_target",
          "type": "address",
          "internalType": "address"
        },
        {
          "name": "_value",
          "type": "uint256",
          "internalType": "uint256"
        },
        {
          "name": "_callType",
          "type": "uint8",
          "internalType": "enum ISilo.CallType"
        },
        {
          "name": "_input",
          "type": "bytes",
          "internalType": "bytes"
        }
      ],
      "outputs": [
        {
          "name": "success",
          "type": "bool",
          "internalType": "bool"
        },
        {
          "name": "result",
          "type": "bytes",
          "internalType": "bytes"
        }
      ],
      "stateMutability": "payable"
    },
    {
      "type": "function",
      "name": "decimals",
      "inputs": [],
      "outputs": [
        {
          "name": "",
          "type": "uint8",
          "internalType": "uint8"
        }
      ],
      "stateMutability": "view"
    },
    {
      "type": "function",
      "name": "decimalsOffset",
      "inputs": [],
      "outputs": [
        {
          "name": "",
          "type": "uint256",
          "internalType": "uint256"
        }
      ],
      "stateMutability": "view"
    },
    {
      "type": "function",
      "name": "decreaseReceiveAllowance",
      "inputs": [
        {
          "name": "_owner",
          "type": "address",
          "internalType": "address"
        },
        {
          "name": "_subtractedValue",
          "type": "uint256",
          "internalType": "uint256"
        }
      ],
      "outputs": [],
      "stateMutability": "nonpayable"
    },
    {
      "type": "function",
      "name": "eip712Domain",
      "inputs": [],
      "outputs": [
        {
          "name": "fields",
          "type": "bytes1",
          "internalType": "bytes1"
        },
        {
          "name": "name",
          "type": "string",
          "internalType": "string"
        },
        {
          "name": "version",
          "type": "string",
          "internalType": "string"
        },
        {
          "name": "chainId",
          "type": "uint256",
          "internalType": "uint256"
        },
        {
          "name": "verifyingContract",
          "type": "address",
          "internalType": "address"
        },
        {
          "name": "salt",
          "type": "bytes32",
          "internalType": "bytes32"
        },
        {
          "name": "extensions",
          "type": "uint256[]",
          "internalType": "uint256[]"
        }
      ],
      "stateMutability": "view"
    },
    {
      "type": "function",
      "name": "forwardTransferFromNoChecks",
      "inputs": [
        {
          "name": "_from",
          "type": "address",
          "internalType": "address"
        },
        {
          "name": "_to",
          "type": "address",
          "internalType": "address"
        },
        {
          "name": "_amount",
          "type": "uint256",
          "internalType": "uint256"
        }
      ],
      "outputs": [],
      "stateMutability": "nonpayable"
    },
    {
      "type": "function",
      "name": "hookReceiver",
      "inputs": [],
      "outputs": [
        {
          "name": "",
          "type": "address",
          "internalType": "address"
        }
      ],
      "stateMutability": "view"
    },
    {
      "type": "function",
      "name": "hookSetup",
      "inputs": [],
      "outputs": [
        {
          "name": "",
          "type": "tuple",
          "internalType": "struct IShareToken.HookSetup",
          "components": [
            {
              "name": "hookReceiver",
              "type": "address",
              "internalType": "address"
            },
            {
              "name": "hooksBefore",
              "type": "uint24",
              "internalType": "uint24"
            },
            {
              "name": "hooksAfter",
              "type": "uint24",
              "internalType": "uint24"
            },
            {
              "name": "tokenType",
              "type": "uint24",
              "internalType": "uint24"
            }
          ]
        }
      ],
      "stateMutability": "view"
    },
    {
      "type": "function",
      "name": "increaseReceiveAllowance",
      "inputs": [
        {
          "name": "_owner",
          "type": "address",
          "internalType": "address"
        },
        {
          "name": "_addedValue",
          "type": "uint256",
          "internalType": "uint256"
        }
      ],
      "outputs": [],
      "stateMutability": "nonpayable"
    },
    {
      "type": "function",
      "name": "initialize",
      "inputs": [
        {
          "name": "_silo",
          "type": "address",
          "internalType": "contract ISilo"
        },
        {
          "name": "_hookReceiver",
          "type": "address",
          "internalType": "address"
        },
        {
          "name": "_tokenType",
          "type": "uint24",
          "internalType": "uint24"
        }
      ],
      "outputs": [],
      "stateMutability": "nonpayable"
    },
    {
      "type": "function",
      "name": "mint",
      "inputs": [
        {
          "name": "_owner",
          "type": "address",
          "internalType": "address"
        },
        {
          "name": "_spender",
          "type": "address",
          "internalType": "address"
        },
        {
          "name": "_amount",
          "type": "uint256",
          "internalType": "uint256"
        }
      ],
      "outputs": [],
      "stateMutability": "nonpayable"
    },
    {
      "type": "function",
      "name": "name",
      "inputs": [],
      "outputs": [
        {
          "name": "",
          "type": "string",
          "internalType": "string"
        }
      ],
      "stateMutability": "view"
    },
    {
      "type": "function",
      "name": "nonces",
      "inputs": [
        {
          "name": "owner",
          "type": "address",
          "internalType": "address"
        }
      ],
      "outputs": [
        {
          "name": "",
          "type": "uint256",
          "internalType": "uint256"
        }
      ],
      "stateMutability": "view"
    },
    {
      "type": "function",
      "name": "permit",
      "inputs": [
        {
          "name": "owner",
          "type": "address",
          "internalType": "address"
        },
        {
          "name": "spender",
          "type": "address",
          "internalType": "address"
        },
        {
          "name": "value",
          "type": "uint256",
          "internalType": "uint256"
        },
        {
          "name": "deadline",
          "type": "uint256",
          "internalType": "uint256"
        },
        {
          "name": "v",
          "type": "uint8",
          "internalType": "uint8"
        },
        {
          "name": "r",
          "type": "bytes32",
          "internalType": "bytes32"
        },
        {
          "name": "s",
          "type": "bytes32",
          "internalType": "bytes32"
        }
      ],
      "outputs": [],
      "stateMutability": "nonpayable"
    },
    {
      "type": "function",
      "name": "receiveAllowance",
      "inputs": [
        {
          "name": "_owner",
          "type": "address",
          "internalType": "address"
        },
        {
          "name": "_recipient",
          "type": "address",
          "internalType": "address"
        }
      ],
      "outputs": [
        {
          "name": "",
          "type": "uint256",
          "internalType": "uint256"
        }
      ],
      "stateMutability": "view"
    },
    {
      "type": "function",
      "name": "setReceiveApproval",
      "inputs": [
        {
          "name": "owner",
          "type": "address",
          "internalType": "address"
        },
        {
          "name": "_amount",
          "type": "uint256",
          "internalType": "uint256"
        }
      ],
      "outputs": [],
      "stateMutability": "nonpayable"
    },
    {
      "type": "function",
      "name": "silo",
      "inputs": [],
      "outputs": [
        {
          "name": "",
          "type": "address",
          "internalType": "contract ISilo"
        }
      ],
      "stateMutability": "view"
    },
    {
      "type": "function",
      "name": "siloConfig",
      "inputs": [],
      "outputs": [
        {
          "name": "",
          "type": "address",
          "internalType": "contract ISiloConfig"
        }
      ],
      "stateMutability": "view"
    },
    {
      "type": "function",
      "name": "symbol",
      "inputs": [],
      "outputs": [
        {
          "name": "",
          "type": "string",
          "internalType": "string"
        }
      ],
      "stateMutability": "view"
    },
    {
      "type": "function",
      "name": "synchronizeHooks",
      "inputs": [
        {
          "name": "_hooksBefore",
          "type": "uint24",
          "internalType": "uint24"
        },
        {
          "name": "_hooksAfter",
          "type": "uint24",
          "internalType": "uint24"
        }
      ],
      "outputs": [],
      "stateMutability": "nonpayable"
    },
    {
      "type": "function",
      "name": "totalSupply",
      "inputs": [],
      "outputs": [
        {
          "name": "",
          "type": "uint256",
          "internalType": "uint256"
        }
      ],
      "stateMutability": "view"
    },
    {
      "type": "function",
      "name": "transfer",
      "inputs": [
        {
          "name": "_to",
          "type": "address",
          "internalType": "address"
        },
        {
          "name": "_amount",
          "type": "uint256",
          "internalType": "uint256"
        }
      ],
      "outputs": [
        {
          "name": "result",
          "type": "bool",
          "internalType": "bool"
        }
      ],
      "stateMutability": "nonpayable"
    },
    {
      "type": "function",
      "name": "transferFrom",
      "inputs": [
        {
          "name": "_from",
          "type": "address",
          "internalType": "address"
        },
        {
          "name": "_to",
          "type": "address",
          "internalType": "address"
        },
        {
          "name": "_amount",
          "type": "uint256",
          "internalType": "uint256"
        }
      ],
      "outputs": [
        {
          "name": "result",
          "type": "bool",
          "internalType": "bool"
        }
      ],
      "stateMutability": "nonpayable"
    },
    {
      "type": "event",
      "name": "Approval",
      "inputs": [
        {
          "name": "owner",
          "type": "address",
          "indexed": true,
          "internalType": "address"
        },
        {
          "name": "spender",
          "type": "address",
          "indexed": true,
          "internalType": "address"
        },
        {
          "name": "value",
          "type": "uint256",
          "indexed": false,
          "internalType": "uint256"
        }
      ],
      "anonymous": false
    },
    {
      "type": "event",
      "name": "EIP712DomainChanged",
      "inputs": [],
      "anonymous": false
    },
    {
      "type": "event",
      "name": "Initialized",
      "inputs": [
        {
          "name": "version",
          "type": "uint64",
          "indexed": false,
          "internalType": "uint64"
        }
      ],
      "anonymous": false
    },
    {
      "type": "event",
      "name": "NotificationSent",
      "inputs": [
        {
          "name": "notificationReceiver",
          "type": "address",
          "indexed": true,
          "internalType": "address"
        },
        {
          "name": "success",
          "type": "bool",
          "indexed": false,
          "internalType": "bool"
        }
      ],
      "anonymous": false
    },
    {
      "type": "event",
      "name": "ReceiveApproval",
      "inputs": [
        {
          "name": "_owner",
          "type": "address",
          "indexed": true,
          "internalType": "address"
        },
        {
          "name": "_receiver",
          "type": "address",
          "indexed": true,
          "internalType": "address"
        },
        {
          "name": "_value",
          "type": "uint256",
          "indexed": false,
          "internalType": "uint256"
        }
      ],
      "anonymous": false
    },
    {
      "type": "event",
      "name": "Transfer",
      "inputs": [
        {
          "name": "from",
          "type": "address",
          "indexed": true,
          "internalType": "address"
        },
        {
          "name": "to",
          "type": "address",
          "indexed": true,
          "internalType": "address"
        },
        {
          "name": "value",
          "type": "uint256",
          "indexed": false,
          "internalType": "uint256"
        }
      ],
      "anonymous": false
    },
    {
      "type": "error",
      "name": "AmountExceedsAllowance",
      "inputs": []
    },
    {
      "type": "error",
      "name": "CrossReentrantCall",
      "inputs": []
    },
    {
      "type": "error",
      "name": "ECDSAInvalidSignature",
      "inputs": []
    },
    {
      "type": "error",
      "name": "ECDSAInvalidSignatureLength",
      "inputs": [
        {
          "name": "length",
          "type": "uint256",
          "internalType": "uint256"
        }
      ]
    },
    {
      "type": "error",
      "name": "ECDSAInvalidSignatureS",
      "inputs": [
        {
          "name": "s",
          "type": "bytes32",
          "internalType": "bytes32"
        }
      ]
    },
    {
      "type": "error",
      "name": "ERC20InsufficientAllowance",
      "inputs": [
        {
          "name": "spender",
          "type": "address",
          "internalType": "address"
        },
        {
          "name": "allowance",
          "type": "uint256",
          "internalType": "uint256"
        },
        {
          "name": "needed",
          "type": "uint256",
          "internalType": "uint256"
        }
      ]
    },
    {
      "type": "error",
      "name": "ERC20InsufficientBalance",
      "inputs": [
        {
          "name": "sender",
          "type": "address",
          "internalType": "address"
        },
        {
          "name": "balance",
          "type": "uint256",
          "internalType": "uint256"
        },
        {
          "name": "needed",
          "type": "uint256",
          "internalType": "uint256"
        }
      ]
    },
    {
      "type": "error",
      "name": "ERC20InvalidApprover",
      "inputs": [
        {
          "name": "approver",
          "type": "address",
          "internalType": "address"
        }
      ]
    },
    {
      "type": "error",
      "name": "ERC20InvalidReceiver",
      "inputs": [
        {
          "name": "receiver",
          "type": "address",
          "internalType": "address"
        }
      ]
    },
    {
      "type": "error",
      "name": "ERC20InvalidSender",
      "inputs": [
        {
          "name": "sender",
          "type": "address",
          "internalType": "address"
        }
      ]
    },
    {
      "type": "error",
      "name": "ERC20InvalidSpender",
      "inputs": [
        {
          "name": "spender",
          "type": "address",
          "internalType": "address"
        }
      ]
    },
    {
      "type": "error",
      "name": "ERC2612ExpiredSignature",
      "inputs": [
        {
          "name": "deadline",
          "type": "uint256",
          "internalType": "uint256"
        }
      ]
    },
    {
      "type": "error",
      "name": "ERC2612InvalidSigner",
      "inputs": [
        {
          "name": "signer",
          "type": "address",
          "internalType": "address"
        },
        {
          "name": "owner",
          "type": "address",
          "internalType": "address"
        }
      ]
    },
    {
      "type": "error",
      "name": "InvalidAccountNonce",
      "inputs": [
        {
          "name": "account",
          "type": "address",
          "internalType": "address"
        },
        {
          "name": "currentNonce",
          "type": "uint256",
          "internalType": "uint256"
        }
      ]
    },
    {
      "type": "error",
      "name": "InvalidInitialization",
      "inputs": []
    },
    {
      "type": "error",
      "name": "InvalidTokenType",
      "inputs": []
    },
    {
      "type": "error",
      "name": "NotInitializing",
      "inputs": []
    },
    {
      "type": "error",
      "name": "OnlyHookReceiver",
      "inputs": []
    },
    {
      "type": "error",
      "name": "OnlySilo",
      "inputs": []
    },
    {
      "type": "error",
      "name": "OnlySiloConfig",
      "inputs": []
    },
    {
      "type": "error",
      "name": "OwnerIsZero",
      "inputs": []
    },
    {
      "type": "error",
      "name": "RecipientIsZero",
      "inputs": []
    },
    {
      "type": "error",
      "name": "RecipientNotSolventAfterTransfer",
      "inputs": []
    },
    {
      "type": "error",
      "name": "SenderNotSolventAfterTransfer",
      "inputs": []
    },
    {
      "type": "error",
      "name": "ZeroTransfer",
      "inputs": []
    }
  ],
  "bytecode": "0x6080604052348015600e575f5ffd5b5060156019565b60c9565b7ff0c57e16840df040f15088dc2f81fe391c3923bec73e23a9662efc9c229c6a00805468010000000000000000900460ff161560685760405163f92ee8a960e01b815260040160405180910390fd5b80546001600160401b039081161460c65780546001600160401b0319166001600160401b0390811782556040519081527fc7f505b2f371ae2175ee4913f4499e1f2633a7b5936321eed1cdaeb6115181d29060200160405180910390a15b50565b6129c2806100d65f395ff3fe6080604052600436106101c5575f3560e01c806380d4336e116100f2578063d505accf11610092578063dd62ed3e11610062578063dd62ed3e1461060e578063eb3beb291461062d578063f6b911bc14610641578063ffa1ad7414610660575f5ffd5b8063d505accf14610588578063d714fd19146105a7578063d985616c146105bb578063dce5c2db146105da575f5ffd5b806395d89b41116100cd57806395d89b411461052457806396b298c514610538578063a9059cbb1461054a578063c6c3bbe614610569575f5ffd5b806380d4336e1461048e57806384b0196e146104ad5780638fea8062146104d4575f5ffd5b806334deadf21161016857806362221ca11161013857806362221ca11461041257806370a082311461043157806375d68016146104505780637ecebe001461046f575f5ffd5b806334deadf21461039f5780633644e515146103be57806338a67cf5146103d25780634c7b0f3c146103f3575f5ffd5b806318160ddd116101a357806318160ddd146102fc57806323b872dd14610339578063313ce56714610358578063336c8d701461037e575f5ffd5b806306fdde03146101c9578063095ea7b3146101f35780630ed4fe3114610222575b5f5ffd5b3480156101d4575f5ffd5b506101dd61069c565b6040516101ea91906121d5565b60405180910390f35b3480156101fe575f5ffd5b5061021261020d3660046121fb565b610710565b60405190151581526020016101ea565b34801561022d575f5ffd5b506102b3604080516080810182525f8082526020820181905291810182905260608101919091525f51602061294d5f395f51905f5260408051608081018252600292909201546001600160a01b038116835262ffffff600160a01b820481166020850152600160b81b8204811692840192909252600160d01b9004166060820152919050565b6040516101ea919081516001600160a01b0316815260208083015162ffffff90811691830191909152604080840151821690830152606092830151169181019190915260800190565b348015610307575f5ffd5b507f52c63247e1f47db19d5ce0460030c497f067ca4cebf71ba98eeadabe20bace02545b6040519081526020016101ea565b348015610344575f5ffd5b50610212610353366004612225565b610732565b348015610363575f5ffd5b5061036c6107a1565b60405160ff90911681526020016101ea565b348015610389575f5ffd5b5061039d61039836600461227a565b61080d565b005b3480156103aa575f5ffd5b5061039d6103b93660046121fb565b61081d565b3480156103c9575f5ffd5b5061032b610851565b6103e56103e03660046122be565b61085a565b6040516101ea92919061235a565b3480156103fe575f5ffd5b5061039d61040d36600461237c565b6108b2565b34801561041d575f5ffd5b5061032b61042c3660046123ad565b610946565b34801561043c575f5ffd5b5061032b61044b3660046123e4565b610957565b34801561045b575f5ffd5b5061039d61046a3660046121fb565b61099a565b34801561047a575f5ffd5b5061032b6104893660046123e4565b6109d1565b348015610499575f5ffd5b5061039d6104a83660046121fb565b6109db565b3480156104b8575f5ffd5b506104c1610a22565b6040516101ea97969594939291906123ff565b3480156104df575f5ffd5b507f01b0b3f9d6e360167e522fa2b18ba597ad7b2b35841fec7e1ca4dbb0adea1202546001600160a01b03165b6040516001600160a01b0390911681526020016101ea565b34801561052f575f5ffd5b506101dd610ad0565b348015610543575f5ffd5b505f61032b565b348015610555575f5ffd5b506102126105643660046121fb565b610b18565b348015610574575f5ffd5b5061039d610583366004612225565b610b85565b348015610593575f5ffd5b5061039d6105a23660046124a3565b610bec565b3480156105b2575f5ffd5b5061050c610c0f565b3480156105c6575f5ffd5b5061039d6105d5366004612225565b610c18565b3480156105e5575f5ffd5b506105f96105f43660046123e4565b610ca7565b604080519283526020830191909152016101ea565b348015610619575f5ffd5b5061032b6106283660046123ad565b610cdd565b348015610638575f5ffd5b5061050c610d26565b34801561064c575f5ffd5b5061039d61065b366004612225565b610d2f565b34801561066b575f5ffd5b506040805180820190915260148152730536861726544656274546f6b656e20342e302e360641b60208201526101dd565b606073__$e36323ec861de5853ea34405a6a6c240f5$__6306fdde036040518163ffffffff1660e01b81526004015f60405180830381865af41580156106e4573d5f5f3e3d5ffd5b505050506040513d5f823e601f3d908101601f1916820160405261070b919081019061257e565b905090565b5f61072161071c610d72565b610da0565b61072b8383610e21565b9392505050565b5f5f61073c610e38565b9050610749858585610e94565b9150806001600160a01b03166362402b046040518163ffffffff1660e01b81526004015f604051808303815f87803b158015610783575f5ffd5b505af1158015610795573d5f5f3e3d5ffd5b50505050509392505050565b5f73__$e36323ec861de5853ea34405a6a6c240f5$__63313ce5676040518163ffffffff1660e01b8152600401602060405180830381865af41580156107e9573d5f5f3e3d5ffd5b505050506040513d601f19601f8201168201806040525081019061070b9190612612565b610818838383610eb7565b505050565b6108415f51602061294d5f395f51905f525b600101546001600160a01b0316610da0565b61084d82335b83611076565b5050565b5f61070b611149565b5f60605f51602061294d5f395f51905f52600201546001600160a01b03163314610897576040516380897acb60e01b815260040160405180910390fd5b6108a48787878787611152565b909890975095505050505050565b6108ba61123b565b6001600160a01b0316336001600160a01b0316146108eb576040516310528c6d60e11b815260040160405180910390fd5b7f01b0b3f9d6e360167e522fa2b18ba597ad7b2b35841fec7e1ca4dbb0adea1202805465ffffffffffff60a01b1916600160a01b62ffffff9485160262ffffff60b81b191617600160b81b9290931691909102919091179055565b5f61072b8383611256565b92915050565b5f807f52c63247e1f47db19d5ce0460030c497f067ca4cebf71ba98eeadabe20bace005b6001600160a01b039093165f9081526020939093525050604090205490565b6109b05f51602061294d5f395f51905f5261082f565b5f6109bb8333611256565b905061081883336109cc858561262d565b611076565b5f6109518261129f565b6109f15f51602061294d5f395f51905f5261082f565b5f6109fc8333611256565b90505f828210610a0e57828203610a10565b5f5b9050610a1c8433610847565b50505050565b5f60608082808083815f51602061296d5f395f51905f528054909150158015610a4d57506001810154155b610a965760405162461bcd60e51b81526020600482015260156024820152741152540dcc4c8e88155b9a5b9a5d1a585b1a5e9959605a1b60448201526064015b60405180910390fd5b610a9e6112c7565b610aa6611387565b604080515f80825260208201909252600f60f81b9c939b5091995046985030975095509350915050565b606073__$e36323ec861de5853ea34405a6a6c240f5$__6395d89b416040518163ffffffff1660e01b81526004015f60405180830381865af41580156106e4573d5f5f3e3d5ffd5b5f5f610b22610e38565b9050610b2e84846113c5565b9150806001600160a01b03166362402b046040518163ffffffff1660e01b81526004015f604051808303815f87803b158015610b68575f5ffd5b505af1158015610b7a573d5f5f3e3d5ffd5b505050505092915050565b610b8d61123b565b6001600160a01b0316336001600160a01b031614610bbe576040516310528c6d60e11b815260040160405180910390fd5b816001600160a01b0316836001600160a01b031614610be257610be28284836113d2565b6108188382611415565b610bf761071c610d72565b610c0687878787878787611449565b50505050505050565b5f61070b610d72565b5f51602061294d5f395f51905f52600201546001600160a01b03163314610c52576040516380897acb60e01b815260040160405180910390fd5b7f01b0b3f9d6e360167e522fa2b18ba597ad7b2b35841fec7e1ca4dbb0adea1203805460ff191690555f51602061294d5f395f51905f52610c9484848461159e565b600301805460ff19166001179055505050565b5f5f610cb283610957565b7f52c63247e1f47db19d5ce0460030c497f067ca4cebf71ba98eeadabe20bace025491509150915091565b6001600160a01b039182165f9081527f52c63247e1f47db19d5ce0460030c497f067ca4cebf71ba98eeadabe20bace016020908152604080832093909416825291909152205490565b5f61070b61123b565b610d3761123b565b6001600160a01b0316336001600160a01b031614610d68576040516310528c6d60e11b815260040160405180910390fd5b61081883826115fb565b7f01b0b3f9d6e360167e522fa2b18ba597ad7b2b35841fec7e1ca4dbb0adea1201546001600160a01b031690565b806001600160a01b031663d2c725e06040518163ffffffff1660e01b8152600401602060405180830381865afa158015610ddc573d5f5f3e3d5ffd5b505050506040513d601f19601f82011682018060405250810190610e00919061265b565b15610e1e5760405163e17fbf8960e01b815260040160405180910390fd5b50565b5f33610e2e81858561162f565b5060019392505050565b5f610e41610d72565b9050806001600160a01b0316639dd413306040518163ffffffff1660e01b81526004015f604051808303815f87803b158015610e7b575f5ffd5b505af1158015610e8d573d5f5f3e3d5ffd5b5050505090565b5f33610ea185828561163c565b610eac85858561159e565b506001949350505050565b7ff0c57e16840df040f15088dc2f81fe391c3923bec73e23a9662efc9c229c6a008054600160401b810460ff16159067ffffffffffffffff165f81158015610efc5750825b90505f8267ffffffffffffffff166001148015610f185750303b155b905081158015610f26575080155b15610f445760405163f92ee8a960e01b815260040160405180910390fd5b845467ffffffffffffffff191660011785558315610f6e57845460ff60401b1916600160401b1785555b610fac6040518060400160405280601881526020017f53696c6f5368617265546f6b656e4549503731324e616d650000000000000000815250611699565b604051631983f68f60e21b81526001600160a01b03808a1660048301528816602482015262ffffff8716604482015273__$e36323ec861de5853ea34405a6a6c240f5$__9063660fda3c906064015f6040518083038186803b158015611010575f5ffd5b505af4158015611022573d5f5f3e3d5ffd5b50505050831561106c57845460ff60401b19168555604051600181527fc7f505b2f371ae2175ee4913f4499e1f2633a7b5936321eed1cdaeb6115181d29060200160405180910390a15b5050505050505050565b6001600160a01b03831661109d57604051634269a05960e01b815260040160405180910390fd5b6001600160a01b0382166110c45760405163b05313bb60e01b815260040160405180910390fd5b6001600160a01b038381165f8181527f5a499b742bad5e18c139447ced974d19a977bcf86e03691ee458d10efcd04d0060208181526040808420958816808552958252928390208690559151858152909392917fa80d0efa8328d29034668db835056d5d5e5876f77ffc7bc09f1e06b2ba18b12191015b60405180910390a350505050565b5f61070b6116c4565b5f6060600185600181111561116957611169612674565b036111d057866001600160a01b03168484604051611188929190612688565b5f60405180830381855af49150503d805f81146111c0576040519150601f19603f3d011682016040523d82523d5f602084013e6111c5565b606091505b509092509050611231565b866001600160a01b03168685856040516111eb929190612688565b5f6040518083038185875af1925050503d805f8114611225576040519150601f19603f3d011682016040523d82523d5f602084013e61122a565b606091505b5090925090505b9550959350505050565b5f51602061294d5f395f51905f52546001600160a01b031690565b6001600160a01b039182165f9081527f5a499b742bad5e18c139447ced974d19a977bcf86e03691ee458d10efcd04d006020908152604080832093909416825291909152205490565b5f807f5ab42ced628888259c08ac98db1eb0cf702fc1501344311d8b100cd1bfe4bb0061097b565b7fa16a46d94261c7517cc8ff89f61c0ce93598e3c849801011dee649a6a557d10280546060915f51602061296d5f395f51905f529161130590612697565b80601f016020809104026020016040519081016040528092919081815260200182805461133190612697565b801561137c5780601f106113535761010080835404028352916020019161137c565b820191905f5260205f20905b81548152906001019060200180831161135f57829003601f168201915b505050505091505090565b7fa16a46d94261c7517cc8ff89f61c0ce93598e3c849801011dee649a6a557d10380546060915f51602061296d5f395f51905f529161130590612697565b5f33610e2e81858561159e565b5f6113dd8484611256565b905081811015611400576040516303814af160e61b815260040160405180910390fd5b81810361140e858583611076565b5050505050565b6001600160a01b03821661143e5760405163ec442f0560e01b81525f6004820152602401610a8d565b61084d5f8383611737565b8342111561146d5760405163313c898160e11b815260048101859052602401610a8d565b5f7f6e71edae12b1b97f4d1f60370fef10105fa2faae0126114a169c64845d6126c98888886114d78c6001600160a01b03165f9081527f5ab42ced628888259c08ac98db1eb0cf702fc1501344311d8b100cd1bfe4bb006020526040902080546001810190915590565b6040805160208101969096526001600160a01b0394851690860152929091166060840152608083015260a082015260c0810186905260e0016040516020818303038152906040528051906020012090505f61153182611778565b90505f611540828787876117a4565b9050896001600160a01b0316816001600160a01b031614611587576040516325c0072360e11b81526001600160a01b0380831660048301528b166024820152604401610a8d565b6115928a8a8a61162f565b50505050505050505050565b6001600160a01b0383166115c757604051634b637e8f60e11b81525f6004820152602401610a8d565b6001600160a01b0382166115f05760405163ec442f0560e01b81525f6004820152602401610a8d565b610818838383611737565b6001600160a01b03821661162457604051634b637e8f60e11b81525f6004820152602401610a8d565b61084d825f83611737565b61081883838360016117d0565b5f6116478484610cdd565b90505f198114610a1c578181101561168b57604051637dc7a0d960e11b81526001600160a01b03841660048201526024810182905260448101839052606401610a8d565b610a1c84848484035f6117d0565b6116a16118c6565b610e1e81604051806040016040528060018152602001603160f81b815250611911565b5f7f8b73c3c69bb8fe3d512ecc4cf759cc79239f7b179b0ffacaa9a75d522b39400f6116ee611970565b6116f66119d8565b60408051602081019490945283019190915260608201524660808201523060a082015260c00160405160208183030381529060405280519060200120905090565b805f03611757576040516310cadee360e01b815260040160405180910390fd5b611762838383611a1a565b61176d838383611ab8565b610818838383611bf6565b5f610951611784611149565b8360405161190160f01b8152600281019290925260228201526042902090565b5f5f5f5f6117b488888888611d32565b9250925092506117c48282611dfa565b50909695505050505050565b7f52c63247e1f47db19d5ce0460030c497f067ca4cebf71ba98eeadabe20bace006001600160a01b03851661181a5760405163e602df0560e01b81525f6004820152602401610a8d565b6001600160a01b03841661184357604051634a1406b160e11b81525f6004820152602401610a8d565b6001600160a01b038086165f9081526001830160209081526040808320938816835292905220839055811561140e57836001600160a01b0316856001600160a01b03167f8c5be1e5ebec7d5bd14f71427d1e84f3dd0314c0f7b2291e5b200ac8c7c3b925856040516118b791815260200190565b60405180910390a35050505050565b7ff0c57e16840df040f15088dc2f81fe391c3923bec73e23a9662efc9c229c6a0054600160401b900460ff1661190f57604051631afcd79f60e31b815260040160405180910390fd5b565b6119196118c6565b5f51602061296d5f395f51905f527fa16a46d94261c7517cc8ff89f61c0ce93598e3c849801011dee649a6a557d1026119528482612713565b50600381016119618382612713565b505f8082556001909101555050565b5f5f51602061296d5f395f51905f52816119886112c7565b8051909150156119a057805160209091012092915050565b815480156119af579392505050565b7fc5d2460186f7233c927e7db2dcc703c0e500b653ca82273b7bfad8045d85a470935050505090565b5f5f51602061296d5f395f51905f52816119f0611387565b805190915015611a0857805160209091012092915050565b600182015480156119af579392505050565b5f51602061294d5f395f51905f52611a328484611eb2565b15610a1c5760018101546040516372db655960e01b81526001600160a01b0386811660048301528581166024830152909116906372db6559906044015f604051808303815f87803b158015611a85575f5ffd5b505af1158015611a97573d5f5f3e3d5ffd5b50505050600381015460ff16611aad5750505050565b610a1c8484846113d2565b7f52c63247e1f47db19d5ce0460030c497f067ca4cebf71ba98eeadabe20bace006001600160a01b038416611b055781816002015f828254611afa919061262d565b90915550611b759050565b6001600160a01b0384165f9081526020829052604090205482811015611b575760405163391434e360e21b81526001600160a01b03861660048201526024810182905260448101849052606401610a8d565b6001600160a01b0385165f9081526020839052604090209083900390555b6001600160a01b038316611b93576002810180548390039055611bb1565b6001600160a01b0383165f9081526020829052604090208054830190555b826001600160a01b0316846001600160a01b03167fddf252ad1be2c89b69c2b068fc378daa952ba7f163c4a11628f55a4df523b3ef8460405161113b91815260200190565b5f51602061294d5f395f51905f52611c0e8484611eb2565b8015611c1e5750600381015460ff165b15611d2757806001015f9054906101000a90046001600160a01b03166001600160a01b0316637d16b1f56040518163ffffffff1660e01b81526004015f604051808303815f87803b158015611c71575f5ffd5b505af1158015611c83573d5f5f3e3d5ffd5b5050506001820154611c9f91506001600160a01b031684611ed7565b80546040516338b51ce160e01b81526001600160a01b038581166004830152909116906338b51ce190602401602060405180830381865afa158015611ce6573d5f5f3e3d5ffd5b505050506040513d601f19601f82011682018060405250810190611d0a919061265b565b611d27576040516377b1921f60e11b815260040160405180910390fd5b610a1c848484611f5a565b5f80807f7fffffffffffffffffffffffffffffff5d576e7357a4501ddfe92f46681b20a0841115611d6b57505f91506003905082611df0565b604080515f808252602082018084528a905260ff891692820192909252606081018790526080810186905260019060a0016020604051602081039080840390855afa158015611dbc573d5f5f3e3d5ffd5b5050604051601f1901519150506001600160a01b038116611de757505f925060019150829050611df0565b92505f91508190505b9450945094915050565b5f826003811115611e0d57611e0d612674565b03611e16575050565b6001826003811115611e2a57611e2a612674565b03611e485760405163f645eedf60e01b815260040160405180910390fd5b6002826003811115611e5c57611e5c612674565b03611e7d5760405163fce698f760e01b815260048101829052602401610a8d565b6003826003811115611e9157611e91612674565b0361084d576040516335e2f38360e21b815260048101829052602401610a8d565b5f6001600160a01b0383161580159061072b5750506001600160a01b03161515919050565b6040516394c0527d60e01b81526001600160a01b0382811660048301525f9182918516906394c0527d9060240161044060405180830381865afa158015611f20573d5f5f3e3d5ffd5b505050506040513d601f19601f82011682018060405250810190611f4491906128f1565b91509150611f51826120e5565b610a1c816120e5565b604080516080810182527f01b0b3f9d6e360167e522fa2b18ba597ad7b2b35841fec7e1ca4dbb0adea1202546001600160a01b038116825262ffffff600160a01b820481166020840152600160b81b8204811693830193909352600160d01b9004909116606082018190525f51602061294d5f395f51905f5291905f90611fe090612164565b6040830151909150811662ffffff168114611ffd57505050505050565b815183546001600160a01b039182169163aef2823591168389898961202183610957565b61202a8d610957565b7f52c63247e1f47db19d5ce0460030c497f067ca4cebf71ba98eeadabe20bace02546040516bffffffffffffffffffffffff19606097881b811660208301529590961b909416603486015260488501929092526068840152608883015260a882015260c8016040516020818303038152906040526040518463ffffffff1660e01b81526004016120bc9392919061291d565b5f604051808303815f87803b1580156120d3575f5ffd5b505af1158015611592573d5f5f3e3d5ffd5b8061020001518015612103575060e08101516001600160a01b031615155b15610e1e5760e08101516060820151604051637cfd30cd60e11b81526001600160a01b03918216600482015291169063f9fa619a906024015f604051808303815f87803b158015612152575f5ffd5b505af115801561140e573d5f5f3e3d5ffd5b5f610800821480612176575061100082145b80612182575061200082145b61219f5760405163a1e9dd9d60e01b815260040160405180910390fd5b506104001790565b5f81518084528060208401602086015e5f602082860101526020601f19601f83011685010191505092915050565b602081525f61072b60208301846121a7565b6001600160a01b0381168114610e1e575f5ffd5b5f5f6040838503121561220c575f5ffd5b8235612217816121e7565b946020939093013593505050565b5f5f5f60608486031215612237575f5ffd5b8335612242816121e7565b92506020840135612252816121e7565b929592945050506040919091013590565b803562ffffff81168114612275575f5ffd5b919050565b5f5f5f6060848603121561228c575f5ffd5b8335612297816121e7565b925060208401356122a7816121e7565b91506122b560408501612263565b90509250925092565b5f5f5f5f5f608086880312156122d2575f5ffd5b85356122dd816121e7565b9450602086013593506040860135600281106122f7575f5ffd5b9250606086013567ffffffffffffffff811115612312575f5ffd5b8601601f81018813612322575f5ffd5b803567ffffffffffffffff811115612338575f5ffd5b886020828401011115612349575f5ffd5b959894975092955050506020019190565b8215158152604060208201525f61237460408301846121a7565b949350505050565b5f5f6040838503121561238d575f5ffd5b61239683612263565b91506123a460208401612263565b90509250929050565b5f5f604083850312156123be575f5ffd5b82356123c9816121e7565b915060208301356123d9816121e7565b809150509250929050565b5f602082840312156123f4575f5ffd5b813561072b816121e7565b60ff60f81b8816815260e060208201525f61241d60e08301896121a7565b828103604084015261242f81896121a7565b606084018890526001600160a01b038716608085015260a0840186905283810360c0850152845180825260208087019350909101905f5b81811015612484578351835260209384019390920191600101612466565b50909b9a5050505050505050505050565b60ff81168114610e1e575f5ffd5b5f5f5f5f5f5f5f60e0888a0312156124b9575f5ffd5b87356124c4816121e7565b965060208801356124d4816121e7565b9550604088013594506060880135935060808801356124f281612495565b9699959850939692959460a0840135945060c09093013592915050565b634e487b7160e01b5f52604160045260245ffd5b604051610220810167ffffffffffffffff811182821017156125475761254761250f565b60405290565b604051601f8201601f1916810167ffffffffffffffff811182821017156125765761257661250f565b604052919050565b5f6020828403121561258e575f5ffd5b815167ffffffffffffffff8111156125a4575f5ffd5b8201601f810184136125b4575f5ffd5b805167ffffffffffffffff8111156125ce576125ce61250f565b6125e1601f8201601f191660200161254d565b8181528560208385010111156125f5575f5ffd5b8160208401602083015e5f91810160200191909152949350505050565b5f60208284031215612622575f5ffd5b815161072b81612495565b8082018082111561095157634e487b7160e01b5f52601160045260245ffd5b80518015158114612275575f5ffd5b5f6020828403121561266b575f5ffd5b61072b8261264c565b634e487b7160e01b5f52602160045260245ffd5b818382375f9101908152919050565b600181811c908216806126ab57607f821691505b6020821081036126c957634e487b7160e01b5f52602260045260245ffd5b50919050565b601f82111561081857805f5260205f20601f840160051c810160208510156126f45750805b601f840160051c820191505b8181101561140e575f8155600101612700565b815167ffffffffffffffff81111561272d5761272d61250f565b6127418161273b8454612697565b846126cf565b6020601f821160018114612773575f831561275c5750848201515b5f19600385901b1c1916600184901b17845561140e565b5f84815260208120601f198516915b828110156127a25787850151825560209485019460019092019101612782565b50848210156127bf57868401515f19600387901b60f8161c191681555b50505050600190811b01905550565b8051612275816121e7565b5f61022082840312156127ea575f5ffd5b6127f2612523565b8251815260208084015190820152905061280e604083016127ce565b604082015261281f606083016127ce565b6060820152612830608083016127ce565b608082015261284160a083016127ce565b60a082015261285260c083016127ce565b60c082015261286360e083016127ce565b60e082015261287561010083016127ce565b61010082015261288861012083016127ce565b6101208201526101408281015190820152610160808301519082015261018080830151908201526101a080830151908201526101c080830151908201526128d26101e083016127ce565b6101e08201526128e5610200830161264c565b61020082015292915050565b5f5f6104408385031215612903575f5ffd5b61290d84846127d9565b91506123a48461022085016127d9565b60018060a01b0384168152826020820152606060408201525f61294360608301846121a7565b9594505050505056fe01b0b3f9d6e360167e522fa2b18ba597ad7b2b35841fec7e1ca4dbb0adea1200a16a46d94261c7517cc8ff89f61c0ce93598e3c849801011dee649a6a557d100a26469706673582212206d3cdaeccf14f19abf69d036e3d5aa8d61af67d9940242c98bc43234e0ec5aad64736f6c634300081c0033",
  "language": "Solidity",
  "compiler": "0.8.28+commit.7893614a"
}