{
  "address": "0x319f7155cC65F693E84689535aFb1343C704C0B8",
  "abi": [
    {
      "type": "constructor",
      "inputs": [
        {
          "name": "_initialOwner",
          "type": "address",
          "internalType": "address"
        },
        {
          "name": "_implementation",
          "type": "address",
          "internalType": "address"
        }
      ],
      "stateMutability": "nonpayable"
    },
    {
      "type": "receive",
      "stateMutability": "payable"
    },
    {
      "type": "function",
      "name": "IMPLEMENTATION",
      "inputs": [],
      "outputs": [
        {
          "name": "",
          "type": "address",
          "internalType": "address"
        }
      ],
      "stateMutability": "view"
    },
    {
      "type": "function",
      "name": "VERSION",
      "inputs": [],
      "outputs": [
        {
          "name": "",
          "type": "string",
          "internalType": "string"
        }
      ],
      "stateMutability": "pure"
    },
    {
      "type": "function",
      "name": "acceptOwnership",
      "inputs": [],
      "outputs": [],
      "stateMutability": "nonpayable"
    },
    {
      "type": "function",
      "name": "multicall",
      "inputs": [
        {
          "name": "data",
          "type": "bytes[]",
          "internalType": "bytes[]"
        }
      ],
      "outputs": [
        {
          "name": "results",
          "type": "bytes[]",
          "internalType": "bytes[]"
        }
      ],
      "stateMutability": "payable"
    },
    {
      "type": "function",
      "name": "owner",
      "inputs": [],
      "outputs": [
        {
          "name": "",
          "type": "address",
          "internalType": "address"
        }
      ],
      "stateMutability": "view"
    },
    {
      "type": "function",
      "name": "pause",
      "inputs": [],
      "outputs": [],
      "stateMutability": "nonpayable"
    },
    {
      "type": "function",
      "name": "paused",
      "inputs": [],
      "outputs": [
        {
          "name": "",
          "type": "bool",
          "internalType": "bool"
        }
      ],
      "stateMutability": "view"
    },
    {
      "type": "function",
      "name": "pendingOwner",
      "inputs": [],
      "outputs": [
        {
          "name": "",
          "type": "address",
          "internalType": "address"
        }
      ],
      "stateMutability": "view"
    },
    {
      "type": "function",
      "name": "renounceOwnership",
      "inputs": [],
      "outputs": [],
      "stateMutability": "nonpayable"
    },
    {
      "type": "function",
      "name": "transferOwnership",
      "inputs": [
        {
          "name": "newOwner",
          "type": "address",
          "internalType": "address"
        }
      ],
      "outputs": [],
      "stateMutability": "nonpayable"
    },
    {
      "type": "function",
      "name": "unpause",
      "inputs": [],
      "outputs": [],
      "stateMutability": "nonpayable"
    },
    {
      "type": "event",
      "name": "OwnershipTransferStarted",
      "inputs": [
        {
          "name": "previousOwner",
          "type": "address",
          "indexed": true,
          "internalType": "address"
        },
        {
          "name": "newOwner",
          "type": "address",
          "indexed": true,
          "internalType": "address"
        }
      ],
      "anonymous": false
    },
    {
      "type": "event",
      "name": "OwnershipTransferred",
      "inputs": [
        {
          "name": "previousOwner",
          "type": "address",
          "indexed": true,
          "internalType": "address"
        },
        {
          "name": "newOwner",
          "type": "address",
          "indexed": true,
          "internalType": "address"
        }
      ],
      "anonymous": false
    },
    {
      "type": "event",
      "name": "Paused",
      "inputs": [
        {
          "name": "account",
          "type": "address",
          "indexed": false,
          "internalType": "address"
        }
      ],
      "anonymous": false
    },
    {
      "type": "event",
      "name": "Unpaused",
      "inputs": [
        {
          "name": "account",
          "type": "address",
          "indexed": false,
          "internalType": "address"
        }
      ],
      "anonymous": false
    },
    {
      "type": "error",
      "name": "AddressEmptyCode",
      "inputs": [
        {
          "name": "target",
          "type": "address",
          "internalType": "address"
        }
      ]
    },
    {
      "type": "error",
      "name": "EnforcedPause",
      "inputs": []
    },
    {
      "type": "error",
      "name": "ExpectedPause",
      "inputs": []
    },
    {
      "type": "error",
      "name": "FailedCall",
      "inputs": []
    },
    {
      "type": "error",
      "name": "OwnableInvalidOwner",
      "inputs": [
        {
          "name": "owner",
          "type": "address",
          "internalType": "address"
        }
      ]
    },
    {
      "type": "error",
      "name": "OwnableUnauthorizedAccount",
      "inputs": [
        {
          "name": "account",
          "type": "address",
          "internalType": "address"
        }
      ]
    },
    {
      "type": "error",
      "name": "ReentrancyGuardReentrantCall",
      "inputs": []
    }
  ],
  "bytecode": "0x60a060405234801561000f575f5ffd5b50604051610a35380380610a3583398101604081905261002e91610115565b5f805460ff19169055816001600160a01b03811661006557604051631e4fbdf760e01b81525f600482015260240160405180910390fd5b61006e81610086565b5060016002556001600160a01b031660805250610146565b600180546001600160a01b031916905561009f816100a2565b50565b5f80546001600160a01b03838116610100818102610100600160a81b0319851617855560405193049190911692909183917f8be0079c531659141344cd1fd0a4f28419497f9722a3daafe3b4186f6b6457e091a35050565b80516001600160a01b0381168114610110575f5ffd5b919050565b5f5f60408385031215610126575f5ffd5b61012f836100fa565b915061013d602084016100fa565b90509250929050565b6080516108d16101645f395f818160c1015261033d01526108d15ff3fe60806040526004361061009d575f3560e01c80638456cb59116100625780638456cb591461015d5780638da5cb5b14610171578063ac9650d814610192578063e30c3978146101b2578063f2fde38b146101cf578063ffa1ad74146101ee575f5ffd5b80633a4741bd146100b05780633f4ba83a146101005780635c975abb14610114578063715018a61461013557806379ba509714610149575f5ffd5b366100ac576100aa61022e565b005b5f5ffd5b3480156100bb575f5ffd5b506100e37f000000000000000000000000000000000000000000000000000000000000000081565b6040516001600160a01b0390911681526020015b60405180910390f35b34801561010b575f5ffd5b506100aa610253565b34801561011f575f5ffd5b505f5460ff1660405190151581526020016100f7565b348015610140575f5ffd5b506100aa610263565b348015610154575f5ffd5b506100aa610274565b348015610168575f5ffd5b506100aa6102bd565b34801561017c575f5ffd5b505f5461010090046001600160a01b03166100e3565b6101a56101a03660046106d9565b6102cd565b6040516100f79190610778565b3480156101bd575f5ffd5b506001546001600160a01b03166100e3565b3480156101da575f5ffd5b506100aa6101e93660046107db565b6103ef565b3480156101f9575f5ffd5b506040805180820182526012815271053696c6f526f75746572563220342e302e360741b602082015290516100f79190610801565b5f5460ff16156102515760405163d93c066560e01b815260040160405180910390fd5b565b61025b610465565b610251610497565b61026b610465565b6102515f6104e8565b60015433906001600160a01b031681146102b15760405163118cdaa760e01b81526001600160a01b03821660048201526024015b60405180910390fd5b6102ba816104e8565b50565b6102c5610465565b610251610501565b60606102d761053d565b6102df61022e565b8167ffffffffffffffff8111156102f8576102f8610813565b60405190808252806020026020018201604052801561032b57816020015b60608152602001906001900390816103165790505b5090505f5b828110156103de576103b97f000000000000000000000000000000000000000000000000000000000000000085858481811061036e5761036e610827565b9050602002810190610380919061083b565b8080601f0160208091040260200160405190810160405280939291908181526020018383808284375f9201919091525061056592505050565b8282815181106103cb576103cb610827565b6020908102919091010152600101610330565b506103e96001600255565b92915050565b6103f7610465565b600180546001600160a01b0383166001600160a01b0319909116811790915561042d5f546001600160a01b036101009091041690565b6001600160a01b03167f38d16b8cac22d99fc7c124b9cd0de2d3fa1faef420bfe791d8c362d765e2270060405160405180910390a350565b5f546001600160a01b036101009091041633146102515760405163118cdaa760e01b81523360048201526024016102a8565b61049f6105d7565b5f805460ff191690557f5db9ee0a495bf2e6ff9c91a7834c1ba4fdd244a5e8aa4e537bd38aeae4b073aa335b6040516001600160a01b03909116815260200160405180910390a1565b600180546001600160a01b03191690556102ba816105f9565b61050961022e565b5f805460ff191660011790557f62e78cea01bee320cd4e420270b5ea74000d11b0c9f74754ebdbfc544b05a2586104cb3390565b600280540361055f57604051633ee5aeb560e01b815260040160405180910390fd5b60028055565b60605f5f846001600160a01b0316846040516105819190610885565b5f60405180830381855af49150503d805f81146105b9576040519150601f19603f3d011682016040523d82523d5f602084013e6105be565b606091505b50915091506105ce858383610651565b95945050505050565b5f5460ff1661025157604051638dfc202b60e01b815260040160405180910390fd5b5f80546001600160a01b03838116610100818102610100600160a81b0319851617855560405193049190911692909183917f8be0079c531659141344cd1fd0a4f28419497f9722a3daafe3b4186f6b6457e091a35050565b60608261066657610661826106b0565b6106a9565b815115801561067d57506001600160a01b0384163b155b156106a657604051639996b31560e01b81526001600160a01b03851660048201526024016102a8565b50805b9392505050565b8051156106c05780518082602001fd5b60405163d6bda27560e01b815260040160405180910390fd5b5f5f602083850312156106ea575f5ffd5b823567ffffffffffffffff811115610700575f5ffd5b8301601f81018513610710575f5ffd5b803567ffffffffffffffff811115610726575f5ffd5b8560208260051b840101111561073a575f5ffd5b6020919091019590945092505050565b5f81518084528060208401602086015e5f602082860101526020601f19601f83011685010191505092915050565b5f602082016020835280845180835260408501915060408160051b8601019250602086015f5b828110156107cf57603f198786030184526107ba85835161074a565b9450602093840193919091019060010161079e565b50929695505050505050565b5f602082840312156107eb575f5ffd5b81356001600160a01b03811681146106a9575f5ffd5b602081525f6106a9602083018461074a565b634e487b7160e01b5f52604160045260245ffd5b634e487b7160e01b5f52603260045260245ffd5b5f5f8335601e19843603018112610850575f5ffd5b83018035915067ffffffffffffffff82111561086a575f5ffd5b60200191503681900382131561087e575f5ffd5b9250929050565b5f82518060208501845e5f92019182525091905056fea2646970667358221220cb5f9a3ab47fbead6165cec055b5a387fdb30642d93f1f82b1efca09dad66d2f64736f6c634300081c0033",
  "language": "Solidity",
  "compiler": "0.8.28+commit.7893614a"
}