{
  "address": "0xe3aE3f11D2aFD7031D3C92774166571b057E8A87",
  "abi": [
    {
      "type": "constructor",
      "inputs": [
        {
          "name": "_siloFactory",
          "type": "address",
          "internalType": "contract ISiloFactory"
        }
      ],
      "stateMutability": "nonpayable"
    },
    {
      "type": "receive",
      "stateMutability": "payable"
    },
    {
      "type": "function",
      "name": "DOMAIN_SEPARATOR",
      "inputs": [],
      "outputs": [
        {
          "name": "",
          "type": "bytes32",
          "internalType": "bytes32"
        }
      ],
      "stateMutability": "view"
    },
    {
      "type": "function",
      "name": "VERSION",
      "inputs": [],
      "outputs": [
        {
          "name": "",
          "type": "string",
          "internalType": "string"
        }
      ],
      "stateMutability": "pure"
    },
    {
      "type": "function",
      "name": "accrueInterest",
      "inputs": [],
      "outputs": [
        {
          "name": "accruedInterest",
          "type": "uint256",
          "internalType": "uint256"
        }
      ],
      "stateMutability": "nonpayable"
    },
    {
      "type": "function",
      "name": "accrueInterestForConfig",
      "inputs": [
        {
          "name": "_interestRateModel",
          "type": "address",
          "internalType": "address"
        },
        {
          "name": "_daoFee",
          "type": "uint256",
          "internalType": "uint256"
        },
        {
          "name": "_deployerFee",
          "type": "uint256",
          "internalType": "uint256"
        }
      ],
      "outputs": [],
      "stateMutability": "nonpayable"
    },
    {
      "type": "function",
      "name": "allowance",
      "inputs": [
        {
          "name": "owner",
          "type": "address",
          "internalType": "address"
        },
        {
          "name": "spender",
          "type": "address",
          "internalType": "address"
        }
      ],
      "outputs": [
        {
          "name": "",
          "type": "uint256",
          "internalType": "uint256"
        }
      ],
      "stateMutability": "view"
    },
    {
      "type": "function",
      "name": "approve",
      "inputs": [
        {
          "name": "spender",
          "type": "address",
          "internalType": "address"
        },
        {
          "name": "value",
          "type": "uint256",
          "internalType": "uint256"
        }
      ],
      "outputs": [
        {
          "name": "result",
          "type": "bool",
          "internalType": "bool"
        }
      ],
      "stateMutability": "nonpayable"
    },
    {
      "type": "function",
      "name": "asset",
      "inputs": [],
      "outputs": [
        {
          "name": "assetTokenAddress",
          "type": "address",
          "internalType": "address"
        }
      ],
      "stateMutability": "view"
    },
    {
      "type": "function",
      "name": "balanceOf",
      "inputs": [
        {
          "name": "account",
          "type": "address",
          "internalType": "address"
        }
      ],
      "outputs": [
        {
          "name": "",
          "type": "uint256",
          "internalType": "uint256"
        }
      ],
      "stateMutability": "view"
    },
    {
      "type": "function",
      "name": "balanceOfAndTotalSupply",
      "inputs": [
        {
          "name": "_account",
          "type": "address",
          "internalType": "address"
        }
      ],
      "outputs": [
        {
          "name": "",
          "type": "uint256",
          "internalType": "uint256"
        },
        {
          "name": "",
          "type": "uint256",
          "internalType": "uint256"
        }
      ],
      "stateMutability": "view"
    },
    {
      "type": "function",
      "name": "borrow",
      "inputs": [
        {
          "name": "_assets",
          "type": "uint256",
          "internalType": "uint256"
        },
        {
          "name": "_receiver",
          "type": "address",
          "internalType": "address"
        },
        {
          "name": "_borrower",
          "type": "address",
          "internalType": "address"
        }
      ],
      "outputs": [
        {
          "name": "shares",
          "type": "uint256",
          "internalType": "uint256"
        }
      ],
      "stateMutability": "nonpayable"
    },
    {
      "type": "function",
      "name": "borrowSameAsset",
      "inputs": [
        {
          "name": "",
          "type": "uint256",
          "internalType": "uint256"
        },
        {
          "name": "",
          "type": "address",
          "internalType": "address"
        },
        {
          "name": "",
          "type": "address",
          "internalType": "address"
        }
      ],
      "outputs": [
        {
          "name": "",
          "type": "uint256",
          "internalType": "uint256"
        }
      ],
      "stateMutability": "nonpayable"
    },
    {
      "type": "function",
      "name": "borrowShares",
      "inputs": [
        {
          "name": "_shares",
          "type": "uint256",
          "internalType": "uint256"
        },
        {
          "name": "_receiver",
          "type": "address",
          "internalType": "address"
        },
        {
          "name": "_borrower",
          "type": "address",
          "internalType": "address"
        }
      ],
      "outputs": [
        {
          "name": "assets",
          "type": "uint256",
          "internalType": "uint256"
        }
      ],
      "stateMutability": "nonpayable"
    },
    {
      "type": "function",
      "name": "burn",
      "inputs": [
        {
          "name": "_owner",
          "type": "address",
          "internalType": "address"
        },
        {
          "name": "_spender",
          "type": "address",
          "internalType": "address"
        },
        {
          "name": "_amount",
          "type": "uint256",
          "internalType": "uint256"
        }
      ],
      "outputs": [],
      "stateMutability": "nonpayable"
    },
    {
      "type": "function",
      "name": "callOnBehalfOfSilo",
      "inputs": [
        {
          "name": "_target",
          "type": "address",
          "internalType": "address"
        },
        {
          "name": "_value",
          "type": "uint256",
          "internalType": "uint256"
        },
        {
          "name": "_callType",
          "type": "uint8",
          "internalType": "enum ISilo.CallType"
        },
        {
          "name": "_input",
          "type": "bytes",
          "internalType": "bytes"
        }
      ],
      "outputs": [
        {
          "name": "success",
          "type": "bool",
          "internalType": "bool"
        },
        {
          "name": "result",
          "type": "bytes",
          "internalType": "bytes"
        }
      ],
      "stateMutability": "payable"
    },
    {
      "type": "function",
      "name": "config",
      "inputs": [],
      "outputs": [
        {
          "name": "siloConfig",
          "type": "address",
          "internalType": "contract ISiloConfig"
        }
      ],
      "stateMutability": "view"
    },
    {
      "type": "function",
      "name": "convertToAssets",
      "inputs": [
        {
          "name": "_shares",
          "type": "uint256",
          "internalType": "uint256"
        }
      ],
      "outputs": [
        {
          "name": "assets",
          "type": "uint256",
          "internalType": "uint256"
        }
      ],
      "stateMutability": "view"
    },
    {
      "type": "function",
      "name": "convertToAssets",
      "inputs": [
        {
          "name": "_shares",
          "type": "uint256",
          "internalType": "uint256"
        },
        {
          "name": "_assetType",
          "type": "uint8",
          "internalType": "enum ISilo.AssetType"
        }
      ],
      "outputs": [
        {
          "name": "assets",
          "type": "uint256",
          "internalType": "uint256"
        }
      ],
      "stateMutability": "view"
    },
    {
      "type": "function",
      "name": "convertToShares",
      "inputs": [
        {
          "name": "_assets",
          "type": "uint256",
          "internalType": "uint256"
        },
        {
          "name": "_assetType",
          "type": "uint8",
          "internalType": "enum ISilo.AssetType"
        }
      ],
      "outputs": [
        {
          "name": "shares",
          "type": "uint256",
          "internalType": "uint256"
        }
      ],
      "stateMutability": "view"
    },
    {
      "type": "function",
      "name": "convertToShares",
      "inputs": [
        {
          "name": "_assets",
          "type": "uint256",
          "internalType": "uint256"
        }
      ],
      "outputs": [
        {
          "name": "shares",
          "type": "uint256",
          "internalType": "uint256"
        }
      ],
      "stateMutability": "view"
    },
    {
      "type": "function",
      "name": "decimals",
      "inputs": [],
      "outputs": [
        {
          "name": "",
          "type": "uint8",
          "internalType": "uint8"
        }
      ],
      "stateMutability": "view"
    },
    {
      "type": "function",
      "name": "decimalsOffset",
      "inputs": [],
      "outputs": [
        {
          "name": "",
          "type": "uint256",
          "internalType": "uint256"
        }
      ],
      "stateMutability": "view"
    },
    {
      "type": "function",
      "name": "deposit",
      "inputs": [
        {
          "name": "_assets",
          "type": "uint256",
          "internalType": "uint256"
        },
        {
          "name": "_receiver",
          "type": "address",
          "internalType": "address"
        }
      ],
      "outputs": [
        {
          "name": "shares",
          "type": "uint256",
          "internalType": "uint256"
        }
      ],
      "stateMutability": "nonpayable"
    },
    {
      "type": "function",
      "name": "deposit",
      "inputs": [
        {
          "name": "_assets",
          "type": "uint256",
          "internalType": "uint256"
        },
        {
          "name": "_receiver",
          "type": "address",
          "internalType": "address"
        },
        {
          "name": "_collateralType",
          "type": "uint8",
          "internalType": "enum ISilo.CollateralType"
        }
      ],
      "outputs": [
        {
          "name": "shares",
          "type": "uint256",
          "internalType": "uint256"
        }
      ],
      "stateMutability": "nonpayable"
    },
    {
      "type": "function",
      "name": "eip712Domain",
      "inputs": [],
      "outputs": [
        {
          "name": "fields",
          "type": "bytes1",
          "internalType": "bytes1"
        },
        {
          "name": "name",
          "type": "string",
          "internalType": "string"
        },
        {
          "name": "version",
          "type": "string",
          "internalType": "string"
        },
        {
          "name": "chainId",
          "type": "uint256",
          "internalType": "uint256"
        },
        {
          "name": "verifyingContract",
          "type": "address",
          "internalType": "address"
        },
        {
          "name": "salt",
          "type": "bytes32",
          "internalType": "bytes32"
        },
        {
          "name": "extensions",
          "type": "uint256[]",
          "internalType": "uint256[]"
        }
      ],
      "stateMutability": "view"
    },
    {
      "type": "function",
      "name": "factory",
      "inputs": [],
      "outputs": [
        {
          "name": "",
          "type": "address",
          "internalType": "contract ISiloFactory"
        }
      ],
      "stateMutability": "view"
    },
    {
      "type": "function",
      "name": "flashFee",
      "inputs": [
        {
          "name": "_token",
          "type": "address",
          "internalType": "address"
        },
        {
          "name": "_amount",
          "type": "uint256",
          "internalType": "uint256"
        }
      ],
      "outputs": [
        {
          "name": "fee",
          "type": "uint256",
          "internalType": "uint256"
        }
      ],
      "stateMutability": "view"
    },
    {
      "type": "function",
      "name": "flashLoan",
      "inputs": [
        {
          "name": "_receiver",
          "type": "address",
          "internalType": "contract IERC3156FlashBorrower"
        },
        {
          "name": "_token",
          "type": "address",
          "internalType": "address"
        },
        {
          "name": "_amount",
          "type": "uint256",
          "internalType": "uint256"
        },
        {
          "name": "_data",
          "type": "bytes",
          "internalType": "bytes"
        }
      ],
      "outputs": [
        {
          "name": "success",
          "type": "bool",
          "internalType": "bool"
        }
      ],
      "stateMutability": "nonpayable"
    },
    {
      "type": "function",
      "name": "forwardTransferFromNoChecks",
      "inputs": [
        {
          "name": "_from",
          "type": "address",
          "internalType": "address"
        },
        {
          "name": "_to",
          "type": "address",
          "internalType": "address"
        },
        {
          "name": "_amount",
          "type": "uint256",
          "internalType": "uint256"
        }
      ],
      "outputs": [],
      "stateMutability": "nonpayable"
    },
    {
      "type": "function",
      "name": "getCollateralAndDebtTotalsStorage",
      "inputs": [],
      "outputs": [
        {
          "name": "totalCollateralAssets",
          "type": "uint256",
          "internalType": "uint256"
        },
        {
          "name": "totalDebtAssets",
          "type": "uint256",
          "internalType": "uint256"
        }
      ],
      "stateMutability": "view"
    },
    {
      "type": "function",
      "name": "getCollateralAndProtectedTotalsStorage",
      "inputs": [],
      "outputs": [
        {
          "name": "totalCollateralAssets",
          "type": "uint256",
          "internalType": "uint256"
        },
        {
          "name": "totalProtectedAssets",
          "type": "uint256",
          "internalType": "uint256"
        }
      ],
      "stateMutability": "view"
    },
    {
      "type": "function",
      "name": "getCollateralAssets",
      "inputs": [],
      "outputs": [
        {
          "name": "totalCollateralAssets",
          "type": "uint256",
          "internalType": "uint256"
        }
      ],
      "stateMutability": "view"
    },
    {
      "type": "function",
      "name": "getDebtAssets",
      "inputs": [],
      "outputs": [
        {
          "name": "totalDebtAssets",
          "type": "uint256",
          "internalType": "uint256"
        }
      ],
      "stateMutability": "view"
    },
    {
      "type": "function",
      "name": "getFractionsStorage",
      "inputs": [],
      "outputs": [
        {
          "name": "fractions",
          "type": "tuple",
          "internalType": "struct ISilo.Fractions",
          "components": [
            {
              "name": "interest",
              "type": "uint64",
              "internalType": "uint64"
            },
            {
              "name": "revenue",
              "type": "uint64",
              "internalType": "uint64"
            }
          ]
        }
      ],
      "stateMutability": "view"
    },
    {
      "type": "function",
      "name": "getLiquidity",
      "inputs": [],
      "outputs": [
        {
          "name": "liquidity",
          "type": "uint256",
          "internalType": "uint256"
        }
      ],
      "stateMutability": "view"
    },
    {
      "type": "function",
      "name": "getSiloStorage",
      "inputs": [],
      "outputs": [
        {
          "name": "daoAndDeployerRevenue",
          "type": "uint192",
          "internalType": "uint192"
        },
        {
          "name": "interestRateTimestamp",
          "type": "uint64",
          "internalType": "uint64"
        },
        {
          "name": "protectedAssets",
          "type": "uint256",
          "internalType": "uint256"
        },
        {
          "name": "collateralAssets",
          "type": "uint256",
          "internalType": "uint256"
        },
        {
          "name": "debtAssets",
          "type": "uint256",
          "internalType": "uint256"
        }
      ],
      "stateMutability": "view"
    },
    {
      "type": "function",
      "name": "getTotalAssetsStorage",
      "inputs": [
        {
          "name": "_assetType",
          "type": "uint8",
          "internalType": "enum ISilo.AssetType"
        }
      ],
      "outputs": [
        {
          "name": "totalAssetsByType",
          "type": "uint256",
          "internalType": "uint256"
        }
      ],
      "stateMutability": "view"
    },
    {
      "type": "function",
      "name": "hookReceiver",
      "inputs": [],
      "outputs": [
        {
          "name": "",
          "type": "address",
          "internalType": "address"
        }
      ],
      "stateMutability": "view"
    },
    {
      "type": "function",
      "name": "hookSetup",
      "inputs": [],
      "outputs": [
        {
          "name": "",
          "type": "tuple",
          "internalType": "struct IShareToken.HookSetup",
          "components": [
            {
              "name": "hookReceiver",
              "type": "address",
              "internalType": "address"
            },
            {
              "name": "hooksBefore",
              "type": "uint24",
              "internalType": "uint24"
            },
            {
              "name": "hooksAfter",
              "type": "uint24",
              "internalType": "uint24"
            },
            {
              "name": "tokenType",
              "type": "uint24",
              "internalType": "uint24"
            }
          ]
        }
      ],
      "stateMutability": "view"
    },
    {
      "type": "function",
      "name": "initialize",
      "inputs": [
        {
          "name": "_config",
          "type": "address",
          "internalType": "contract ISiloConfig"
        }
      ],
      "outputs": [],
      "stateMutability": "nonpayable"
    },
    {
      "type": "function",
      "name": "isSolvent",
      "inputs": [
        {
          "name": "_borrower",
          "type": "address",
          "internalType": "address"
        }
      ],
      "outputs": [
        {
          "name": "",
          "type": "bool",
          "internalType": "bool"
        }
      ],
      "stateMutability": "view"
    },
    {
      "type": "function",
      "name": "maxBorrow",
      "inputs": [
        {
          "name": "_borrower",
          "type": "address",
          "internalType": "address"
        }
      ],
      "outputs": [
        {
          "name": "maxAssets",
          "type": "uint256",
          "internalType": "uint256"
        }
      ],
      "stateMutability": "view"
    },
    {
      "type": "function",
      "name": "maxBorrowSameAsset",
      "inputs": [
        {
          "name": "",
          "type": "address",
          "internalType": "address"
        }
      ],
      "outputs": [
        {
          "name": "",
          "type": "uint256",
          "internalType": "uint256"
        }
      ],
      "stateMutability": "pure"
    },
    {
      "type": "function",
      "name": "maxBorrowShares",
      "inputs": [
        {
          "name": "_borrower",
          "type": "address",
          "internalType": "address"
        }
      ],
      "outputs": [
        {
          "name": "maxShares",
          "type": "uint256",
          "internalType": "uint256"
        }
      ],
      "stateMutability": "view"
    },
    {
      "type": "function",
      "name": "maxDeposit",
      "inputs": [
        {
          "name": "",
          "type": "address",
          "internalType": "address"
        }
      ],
      "outputs": [
        {
          "name": "maxAssets",
          "type": "uint256",
          "internalType": "uint256"
        }
      ],
      "stateMutability": "pure"
    },
    {
      "type": "function",
      "name": "maxFlashLoan",
      "inputs": [
        {
          "name": "_token",
          "type": "address",
          "internalType": "address"
        }
      ],
      "outputs": [
        {
          "name": "maxLoan",
          "type": "uint256",
          "internalType": "uint256"
        }
      ],
      "stateMutability": "view"
    },
    {
      "type": "function",
      "name": "maxMint",
      "inputs": [
        {
          "name": "",
          "type": "address",
          "internalType": "address"
        }
      ],
      "outputs": [
        {
          "name": "maxShares",
          "type": "uint256",
          "internalType": "uint256"
        }
      ],
      "stateMutability": "view"
    },
    {
      "type": "function",
      "name": "maxRedeem",
      "inputs": [
        {
          "name": "_owner",
          "type": "address",
          "internalType": "address"
        },
        {
          "name": "_collateralType",
          "type": "uint8",
          "internalType": "enum ISilo.CollateralType"
        }
      ],
      "outputs": [
        {
          "name": "maxShares",
          "type": "uint256",
          "internalType": "uint256"
        }
      ],
      "stateMutability": "view"
    },
    {
      "type": "function",
      "name": "maxRedeem",
      "inputs": [
        {
          "name": "_owner",
          "type": "address",
          "internalType": "address"
        }
      ],
      "outputs": [
        {
          "name": "maxShares",
          "type": "uint256",
          "internalType": "uint256"
        }
      ],
      "stateMutability": "view"
    },
    {
      "type": "function",
      "name": "maxRepay",
      "inputs": [
        {
          "name": "_borrower",
          "type": "address",
          "internalType": "address"
        }
      ],
      "outputs": [
        {
          "name": "assets",
          "type": "uint256",
          "internalType": "uint256"
        }
      ],
      "stateMutability": "view"
    },
    {
      "type": "function",
      "name": "maxRepayShares",
      "inputs": [
        {
          "name": "_borrower",
          "type": "address",
          "internalType": "address"
        }
      ],
      "outputs": [
        {
          "name": "shares",
          "type": "uint256",
          "internalType": "uint256"
        }
      ],
      "stateMutability": "view"
    },
    {
      "type": "function",
      "name": "maxWithdraw",
      "inputs": [
        {
          "name": "_owner",
          "type": "address",
          "internalType": "address"
        },
        {
          "name": "_collateralType",
          "type": "uint8",
          "internalType": "enum ISilo.CollateralType"
        }
      ],
      "outputs": [
        {
          "name": "maxAssets",
          "type": "uint256",
          "internalType": "uint256"
        }
      ],
      "stateMutability": "view"
    },
    {
      "type": "function",
      "name": "maxWithdraw",
      "inputs": [
        {
          "name": "_owner",
          "type": "address",
          "internalType": "address"
        }
      ],
      "outputs": [
        {
          "name": "maxAssets",
          "type": "uint256",
          "internalType": "uint256"
        }
      ],
      "stateMutability": "view"
    },
    {
      "type": "function",
      "name": "mint",
      "inputs": [
        {
          "name": "_shares",
          "type": "uint256",
          "internalType": "uint256"
        },
        {
          "name": "_receiver",
          "type": "address",
          "internalType": "address"
        }
      ],
      "outputs": [
        {
          "name": "assets",
          "type": "uint256",
          "internalType": "uint256"
        }
      ],
      "stateMutability": "nonpayable"
    },
    {
      "type": "function",
      "name": "mint",
      "inputs": [
        {
          "name": "_shares",
          "type": "uint256",
          "internalType": "uint256"
        },
        {
          "name": "_receiver",
          "type": "address",
          "internalType": "address"
        },
        {
          "name": "_collateralType",
          "type": "uint8",
          "internalType": "enum ISilo.CollateralType"
        }
      ],
      "outputs": [
        {
          "name": "assets",
          "type": "uint256",
          "internalType": "uint256"
        }
      ],
      "stateMutability": "nonpayable"
    },
    {
      "type": "function",
      "name": "mint",
      "inputs": [
        {
          "name": "_owner",
          "type": "address",
          "internalType": "address"
        },
        {
          "name": "",
          "type": "address",
          "internalType": "address"
        },
        {
          "name": "_amount",
          "type": "uint256",
          "internalType": "uint256"
        }
      ],
      "outputs": [],
      "stateMutability": "nonpayable"
    },
    {
      "type": "function",
      "name": "name",
      "inputs": [],
      "outputs": [
        {
          "name": "",
          "type": "string",
          "internalType": "string"
        }
      ],
      "stateMutability": "view"
    },
    {
      "type": "function",
      "name": "nonces",
      "inputs": [
        {
          "name": "owner",
          "type": "address",
          "internalType": "address"
        }
      ],
      "outputs": [
        {
          "name": "",
          "type": "uint256",
          "internalType": "uint256"
        }
      ],
      "stateMutability": "view"
    },
    {
      "type": "function",
      "name": "permit",
      "inputs": [
        {
          "name": "owner",
          "type": "address",
          "internalType": "address"
        },
        {
          "name": "spender",
          "type": "address",
          "internalType": "address"
        },
        {
          "name": "value",
          "type": "uint256",
          "internalType": "uint256"
        },
        {
          "name": "deadline",
          "type": "uint256",
          "internalType": "uint256"
        },
        {
          "name": "v",
          "type": "uint8",
          "internalType": "uint8"
        },
        {
          "name": "r",
          "type": "bytes32",
          "internalType": "bytes32"
        },
        {
          "name": "s",
          "type": "bytes32",
          "internalType": "bytes32"
        }
      ],
      "outputs": [],
      "stateMutability": "nonpayable"
    },
    {
      "type": "function",
      "name": "previewBorrow",
      "inputs": [
        {
          "name": "_assets",
          "type": "uint256",
          "internalType": "uint256"
        }
      ],
      "outputs": [
        {
          "name": "shares",
          "type": "uint256",
          "internalType": "uint256"
        }
      ],
      "stateMutability": "view"
    },
    {
      "type": "function",
      "name": "previewBorrowShares",
      "inputs": [
        {
          "name": "_shares",
          "type": "uint256",
          "internalType": "uint256"
        }
      ],
      "outputs": [
        {
          "name": "assets",
          "type": "uint256",
          "internalType": "uint256"
        }
      ],
      "stateMutability": "view"
    },
    {
      "type": "function",
      "name": "previewDeposit",
      "inputs": [
        {
          "name": "_assets",
          "type": "uint256",
          "internalType": "uint256"
        },
        {
          "name": "_collateralType",
          "type": "uint8",
          "internalType": "enum ISilo.CollateralType"
        }
      ],
      "outputs": [
        {
          "name": "shares",
          "type": "uint256",
          "internalType": "uint256"
        }
      ],
      "stateMutability": "view"
    },
    {
      "type": "function",
      "name": "previewDeposit",
      "inputs": [
        {
          "name": "_assets",
          "type": "uint256",
          "internalType": "uint256"
        }
      ],
      "outputs": [
        {
          "name": "shares",
          "type": "uint256",
          "internalType": "uint256"
        }
      ],
      "stateMutability": "view"
    },
    {
      "type": "function",
      "name": "previewMint",
      "inputs": [
        {
          "name": "_shares",
          "type": "uint256",
          "internalType": "uint256"
        },
        {
          "name": "_collateralType",
          "type": "uint8",
          "internalType": "enum ISilo.CollateralType"
        }
      ],
      "outputs": [
        {
          "name": "assets",
          "type": "uint256",
          "internalType": "uint256"
        }
      ],
      "stateMutability": "view"
    },
    {
      "type": "function",
      "name": "previewMint",
      "inputs": [
        {
          "name": "_shares",
          "type": "uint256",
          "internalType": "uint256"
        }
      ],
      "outputs": [
        {
          "name": "assets",
          "type": "uint256",
          "internalType": "uint256"
        }
      ],
      "stateMutability": "view"
    },
    {
      "type": "function",
      "name": "previewRedeem",
      "inputs": [
        {
          "name": "_shares",
          "type": "uint256",
          "internalType": "uint256"
        }
      ],
      "outputs": [
        {
          "name": "assets",
          "type": "uint256",
          "internalType": "uint256"
        }
      ],
      "stateMutability": "view"
    },
    {
      "type": "function",
      "name": "previewRedeem",
      "inputs": [
        {
          "name": "_shares",
          "type": "uint256",
          "internalType": "uint256"
        },
        {
          "name": "_collateralType",
          "type": "uint8",
          "internalType": "enum ISilo.CollateralType"
        }
      ],
      "outputs": [
        {
          "name": "assets",
          "type": "uint256",
          "internalType": "uint256"
        }
      ],
      "stateMutability": "view"
    },
    {
      "type": "function",
      "name": "previewRepay",
      "inputs": [
        {
          "name": "_assets",
          "type": "uint256",
          "internalType": "uint256"
        }
      ],
      "outputs": [
        {
          "name": "shares",
          "type": "uint256",
          "internalType": "uint256"
        }
      ],
      "stateMutability": "view"
    },
    {
      "type": "function",
      "name": "previewRepayShares",
      "inputs": [
        {
          "name": "_shares",
          "type": "uint256",
          "internalType": "uint256"
        }
      ],
      "outputs": [
        {
          "name": "assets",
          "type": "uint256",
          "internalType": "uint256"
        }
      ],
      "stateMutability": "view"
    },
    {
      "type": "function",
      "name": "previewWithdraw",
      "inputs": [
        {
          "name": "_assets",
          "type": "uint256",
          "internalType": "uint256"
        }
      ],
      "outputs": [
        {
          "name": "shares",
          "type": "uint256",
          "internalType": "uint256"
        }
      ],
      "stateMutability": "view"
    },
    {
      "type": "function",
      "name": "previewWithdraw",
      "inputs": [
        {
          "name": "_assets",
          "type": "uint256",
          "internalType": "uint256"
        },
        {
          "name": "_collateralType",
          "type": "uint8",
          "internalType": "enum ISilo.CollateralType"
        }
      ],
      "outputs": [
        {
          "name": "shares",
          "type": "uint256",
          "internalType": "uint256"
        }
      ],
      "stateMutability": "view"
    },
    {
      "type": "function",
      "name": "redeem",
      "inputs": [
        {
          "name": "_shares",
          "type": "uint256",
          "internalType": "uint256"
        },
        {
          "name": "_receiver",
          "type": "address",
          "internalType": "address"
        },
        {
          "name": "_owner",
          "type": "address",
          "internalType": "address"
        }
      ],
      "outputs": [
        {
          "name": "assets",
          "type": "uint256",
          "internalType": "uint256"
        }
      ],
      "stateMutability": "nonpayable"
    },
    {
      "type": "function",
      "name": "redeem",
      "inputs": [
        {
          "name": "_shares",
          "type": "uint256",
          "internalType": "uint256"
        },
        {
          "name": "_receiver",
          "type": "address",
          "internalType": "address"
        },
        {
          "name": "_owner",
          "type": "address",
          "internalType": "address"
        },
        {
          "name": "_collateralType",
          "type": "uint8",
          "internalType": "enum ISilo.CollateralType"
        }
      ],
      "outputs": [
        {
          "name": "assets",
          "type": "uint256",
          "internalType": "uint256"
        }
      ],
      "stateMutability": "nonpayable"
    },
    {
      "type": "function",
      "name": "repay",
      "inputs": [
        {
          "name": "_assets",
          "type": "uint256",
          "internalType": "uint256"
        },
        {
          "name": "_borrower",
          "type": "address",
          "internalType": "address"
        }
      ],
      "outputs": [
        {
          "name": "shares",
          "type": "uint256",
          "internalType": "uint256"
        }
      ],
      "stateMutability": "nonpayable"
    },
    {
      "type": "function",
      "name": "repayShares",
      "inputs": [
        {
          "name": "_shares",
          "type": "uint256",
          "internalType": "uint256"
        },
        {
          "name": "_borrower",
          "type": "address",
          "internalType": "address"
        }
      ],
      "outputs": [
        {
          "name": "assets",
          "type": "uint256",
          "internalType": "uint256"
        }
      ],
      "stateMutability": "nonpayable"
    },
    {
      "type": "function",
      "name": "silo",
      "inputs": [],
      "outputs": [
        {
          "name": "",
          "type": "address",
          "internalType": "contract ISilo"
        }
      ],
      "stateMutability": "view"
    },
    {
      "type": "function",
      "name": "siloConfig",
      "inputs": [],
      "outputs": [
        {
          "name": "",
          "type": "address",
          "internalType": "contract ISiloConfig"
        }
      ],
      "stateMutability": "view"
    },
    {
      "type": "function",
      "name": "switchCollateralToThisSilo",
      "inputs": [],
      "outputs": [],
      "stateMutability": "nonpayable"
    },
    {
      "type": "function",
      "name": "symbol",
      "inputs": [],
      "outputs": [
        {
          "name": "",
          "type": "string",
          "internalType": "string"
        }
      ],
      "stateMutability": "view"
    },
    {
      "type": "function",
      "name": "synchronizeHooks",
      "inputs": [
        {
          "name": "_hooksBefore",
          "type": "uint24",
          "internalType": "uint24"
        },
        {
          "name": "_hooksAfter",
          "type": "uint24",
          "internalType": "uint24"
        }
      ],
      "outputs": [],
      "stateMutability": "nonpayable"
    },
    {
      "type": "function",
      "name": "totalAssets",
      "inputs": [],
      "outputs": [
        {
          "name": "totalManagedAssets",
          "type": "uint256",
          "internalType": "uint256"
        }
      ],
      "stateMutability": "view"
    },
    {
      "type": "function",
      "name": "totalSupply",
      "inputs": [],
      "outputs": [
        {
          "name": "",
          "type": "uint256",
          "internalType": "uint256"
        }
      ],
      "stateMutability": "view"
    },
    {
      "type": "function",
      "name": "transfer",
      "inputs": [
        {
          "name": "_to",
          "type": "address",
          "internalType": "address"
        },
        {
          "name": "_amount",
          "type": "uint256",
          "internalType": "uint256"
        }
      ],
      "outputs": [
        {
          "name": "result",
          "type": "bool",
          "internalType": "bool"
        }
      ],
      "stateMutability": "nonpayable"
    },
    {
      "type": "function",
      "name": "transferFrom",
      "inputs": [
        {
          "name": "_from",
          "type": "address",
          "internalType": "address"
        },
        {
          "name": "_to",
          "type": "address",
          "internalType": "address"
        },
        {
          "name": "_amount",
          "type": "uint256",
          "internalType": "uint256"
        }
      ],
      "outputs": [
        {
          "name": "result",
          "type": "bool",
          "internalType": "bool"
        }
      ],
      "stateMutability": "nonpayable"
    },
    {
      "type": "function",
      "name": "transitionCollateral",
      "inputs": [
        {
          "name": "_shares",
          "type": "uint256",
          "internalType": "uint256"
        },
        {
          "name": "_owner",
          "type": "address",
          "internalType": "address"
        },
        {
          "name": "_transitionFrom",
          "type": "uint8",
          "internalType": "enum ISilo.CollateralType"
        }
      ],
      "outputs": [
        {
          "name": "assets",
          "type": "uint256",
          "internalType": "uint256"
        }
      ],
      "stateMutability": "nonpayable"
    },
    {
      "type": "function",
      "name": "updateHooks",
      "inputs": [],
      "outputs": [],
      "stateMutability": "nonpayable"
    },
    {
      "type": "function",
      "name": "utilizationData",
      "inputs": [],
      "outputs": [
        {
          "name": "",
          "type": "tuple",
          "internalType": "struct ISilo.UtilizationData",
          "components": [
            {
              "name": "collateralAssets",
              "type": "uint256",
              "internalType": "uint256"
            },
            {
              "name": "debtAssets",
              "type": "uint256",
              "internalType": "uint256"
            },
            {
              "name": "interestRateTimestamp",
              "type": "uint64",
              "internalType": "uint64"
            }
          ]
        }
      ],
      "stateMutability": "view"
    },
    {
      "type": "function",
      "name": "withdraw",
      "inputs": [
        {
          "name": "_assets",
          "type": "uint256",
          "internalType": "uint256"
        },
        {
          "name": "_receiver",
          "type": "address",
          "internalType": "address"
        },
        {
          "name": "_owner",
          "type": "address",
          "internalType": "address"
        }
      ],
      "outputs": [
        {
          "name": "shares",
          "type": "uint256",
          "internalType": "uint256"
        }
      ],
      "stateMutability": "nonpayable"
    },
    {
      "type": "function",
      "name": "withdraw",
      "inputs": [
        {
          "name": "_assets",
          "type": "uint256",
          "internalType": "uint256"
        },
        {
          "name": "_receiver",
          "type": "address",
          "internalType": "address"
        },
        {
          "name": "_owner",
          "type": "address",
          "internalType": "address"
        },
        {
          "name": "_collateralType",
          "type": "uint8",
          "internalType": "enum ISilo.CollateralType"
        }
      ],
      "outputs": [
        {
          "name": "shares",
          "type": "uint256",
          "internalType": "uint256"
        }
      ],
      "stateMutability": "nonpayable"
    },
    {
      "type": "function",
      "name": "withdrawFees",
      "inputs": [],
      "outputs": [],
      "stateMutability": "nonpayable"
    },
    {
      "type": "event",
      "name": "AccruedInterest",
      "inputs": [
        {
          "name": "hooksBefore",
          "type": "uint256",
          "indexed": false,
          "internalType": "uint256"
        }
      ],
      "anonymous": false
    },
    {
      "type": "event",
      "name": "Approval",
      "inputs": [
        {
          "name": "owner",
          "type": "address",
          "indexed": true,
          "internalType": "address"
        },
        {
          "name": "spender",
          "type": "address",
          "indexed": true,
          "internalType": "address"
        },
        {
          "name": "value",
          "type": "uint256",
          "indexed": false,
          "internalType": "uint256"
        }
      ],
      "anonymous": false
    },
    {
      "type": "event",
      "name": "Borrow",
      "inputs": [
        {
          "name": "sender",
          "type": "address",
          "indexed": true,
          "internalType": "address"
        },
        {
          "name": "receiver",
          "type": "address",
          "indexed": true,
          "internalType": "address"
        },
        {
          "name": "owner",
          "type": "address",
          "indexed": true,
          "internalType": "address"
        },
        {
          "name": "assets",
          "type": "uint256",
          "indexed": false,
          "internalType": "uint256"
        },
        {
          "name": "shares",
          "type": "uint256",
          "indexed": false,
          "internalType": "uint256"
        }
      ],
      "anonymous": false
    },
    {
      "type": "event",
      "name": "CollateralTypeChanged",
      "inputs": [
        {
          "name": "borrower",
          "type": "address",
          "indexed": true,
          "internalType": "address"
        }
      ],
      "anonymous": false
    },
    {
      "type": "event",
      "name": "DeployerFeesRedirected",
      "inputs": [
        {
          "name": "deployerFees",
          "type": "uint256",
          "indexed": false,
          "internalType": "uint256"
        }
      ],
      "anonymous": false
    },
    {
      "type": "event",
      "name": "Deposit",
      "inputs": [
        {
          "name": "sender",
          "type": "address",
          "indexed": true,
          "internalType": "address"
        },
        {
          "name": "owner",
          "type": "address",
          "indexed": true,
          "internalType": "address"
        },
        {
          "name": "assets",
          "type": "uint256",
          "indexed": false,
          "internalType": "uint256"
        },
        {
          "name": "shares",
          "type": "uint256",
          "indexed": false,
          "internalType": "uint256"
        }
      ],
      "anonymous": false
    },
    {
      "type": "event",
      "name": "DepositProtected",
      "inputs": [
        {
          "name": "sender",
          "type": "address",
          "indexed": true,
          "internalType": "address"
        },
        {
          "name": "owner",
          "type": "address",
          "indexed": true,
          "internalType": "address"
        },
        {
          "name": "assets",
          "type": "uint256",
          "indexed": false,
          "internalType": "uint256"
        },
        {
          "name": "shares",
          "type": "uint256",
          "indexed": false,
          "internalType": "uint256"
        }
      ],
      "anonymous": false
    },
    {
      "type": "event",
      "name": "EIP712DomainChanged",
      "inputs": [],
      "anonymous": false
    },
    {
      "type": "event",
      "name": "FlashLoan",
      "inputs": [
        {
          "name": "amount",
          "type": "uint256",
          "indexed": false,
          "internalType": "uint256"
        }
      ],
      "anonymous": false
    },
    {
      "type": "event",
      "name": "HooksUpdated",
      "inputs": [
        {
          "name": "hooksBefore",
          "type": "uint24",
          "indexed": false,
          "internalType": "uint24"
        },
        {
          "name": "hooksAfter",
          "type": "uint24",
          "indexed": false,
          "internalType": "uint24"
        }
      ],
      "anonymous": false
    },
    {
      "type": "event",
      "name": "Initialized",
      "inputs": [
        {
          "name": "version",
          "type": "uint64",
          "indexed": false,
          "internalType": "uint64"
        }
      ],
      "anonymous": false
    },
    {
      "type": "event",
      "name": "NotificationSent",
      "inputs": [
        {
          "name": "notificationReceiver",
          "type": "address",
          "indexed": true,
          "internalType": "address"
        },
        {
          "name": "success",
          "type": "bool",
          "indexed": false,
          "internalType": "bool"
        }
      ],
      "anonymous": false
    },
    {
      "type": "event",
      "name": "Repay",
      "inputs": [
        {
          "name": "sender",
          "type": "address",
          "indexed": true,
          "internalType": "address"
        },
        {
          "name": "owner",
          "type": "address",
          "indexed": true,
          "internalType": "address"
        },
        {
          "name": "assets",
          "type": "uint256",
          "indexed": false,
          "internalType": "uint256"
        },
        {
          "name": "shares",
          "type": "uint256",
          "indexed": false,
          "internalType": "uint256"
        }
      ],
      "anonymous": false
    },
    {
      "type": "event",
      "name": "Transfer",
      "inputs": [
        {
          "name": "from",
          "type": "address",
          "indexed": true,
          "internalType": "address"
        },
        {
          "name": "to",
          "type": "address",
          "indexed": true,
          "internalType": "address"
        },
        {
          "name": "value",
          "type": "uint256",
          "indexed": false,
          "internalType": "uint256"
        }
      ],
      "anonymous": false
    },
    {
      "type": "event",
      "name": "Withdraw",
      "inputs": [
        {
          "name": "sender",
          "type": "address",
          "indexed": true,
          "internalType": "address"
        },
        {
          "name": "receiver",
          "type": "address",
          "indexed": true,
          "internalType": "address"
        },
        {
          "name": "owner",
          "type": "address",
          "indexed": true,
          "internalType": "address"
        },
        {
          "name": "assets",
          "type": "uint256",
          "indexed": false,
          "internalType": "uint256"
        },
        {
          "name": "shares",
          "type": "uint256",
          "indexed": false,
          "internalType": "uint256"
        }
      ],
      "anonymous": false
    },
    {
      "type": "event",
      "name": "WithdrawProtected",
      "inputs": [
        {
          "name": "sender",
          "type": "address",
          "indexed": true,
          "internalType": "address"
        },
        {
          "name": "receiver",
          "type": "address",
          "indexed": true,
          "internalType": "address"
        },
        {
          "name": "owner",
          "type": "address",
          "indexed": true,
          "internalType": "address"
        },
        {
          "name": "assets",
          "type": "uint256",
          "indexed": false,
          "internalType": "uint256"
        },
        {
          "name": "shares",
          "type": "uint256",
          "indexed": false,
          "internalType": "uint256"
        }
      ],
      "anonymous": false
    },
    {
      "type": "event",
      "name": "WithdrawnFees",
      "inputs": [
        {
          "name": "daoFees",
          "type": "uint256",
          "indexed": false,
          "internalType": "uint256"
        },
        {
          "name": "deployerFees",
          "type": "uint256",
          "indexed": false,
          "internalType": "uint256"
        },
        {
          "name": "redirectedDeployerFees",
          "type": "bool",
          "indexed": false,
          "internalType": "bool"
        }
      ],
      "anonymous": false
    },
    {
      "type": "error",
      "name": "AboveMaxLtv",
      "inputs": []
    },
    {
      "type": "error",
      "name": "AmountExceedsAllowance",
      "inputs": []
    },
    {
      "type": "error",
      "name": "BorrowNotPossible",
      "inputs": []
    },
    {
      "type": "error",
      "name": "CollateralSiloAlreadySet",
      "inputs": []
    },
    {
      "type": "error",
      "name": "CrossReentrantCall",
      "inputs": []
    },
    {
      "type": "error",
      "name": "Deprecated",
      "inputs": []
    },
    {
      "type": "error",
      "name": "ECDSAInvalidSignature",
      "inputs": []
    },
    {
      "type": "error",
      "name": "ECDSAInvalidSignatureLength",
      "inputs": [
        {
          "name": "length",
          "type": "uint256",
          "internalType": "uint256"
        }
      ]
    },
    {
      "type": "error",
      "name": "ECDSAInvalidSignatureS",
      "inputs": [
        {
          "name": "s",
          "type": "bytes32",
          "internalType": "bytes32"
        }
      ]
    },
    {
      "type": "error",
      "name": "ERC20InsufficientAllowance",
      "inputs": [
        {
          "name": "spender",
          "type": "address",
          "internalType": "address"
        },
        {
          "name": "allowance",
          "type": "uint256",
          "internalType": "uint256"
        },
        {
          "name": "needed",
          "type": "uint256",
          "internalType": "uint256"
        }
      ]
    },
    {
      "type": "error",
      "name": "ERC20InsufficientBalance",
      "inputs": [
        {
          "name": "sender",
          "type": "address",
          "internalType": "address"
        },
        {
          "name": "balance",
          "type": "uint256",
          "internalType": "uint256"
        },
        {
          "name": "needed",
          "type": "uint256",
          "internalType": "uint256"
        }
      ]
    },
    {
      "type": "error",
      "name": "ERC20InvalidApprover",
      "inputs": [
        {
          "name": "approver",
          "type": "address",
          "internalType": "address"
        }
      ]
    },
    {
      "type": "error",
      "name": "ERC20InvalidReceiver",
      "inputs": [
        {
          "name": "receiver",
          "type": "address",
          "internalType": "address"
        }
      ]
    },
    {
      "type": "error",
      "name": "ERC20InvalidSender",
      "inputs": [
        {
          "name": "sender",
          "type": "address",
          "internalType": "address"
        }
      ]
    },
    {
      "type": "error",
      "name": "ERC20InvalidSpender",
      "inputs": [
        {
          "name": "spender",
          "type": "address",
          "internalType": "address"
        }
      ]
    },
    {
      "type": "error",
      "name": "ERC2612ExpiredSignature",
      "inputs": [
        {
          "name": "deadline",
          "type": "uint256",
          "internalType": "uint256"
        }
      ]
    },
    {
      "type": "error",
      "name": "ERC2612InvalidSigner",
      "inputs": [
        {
          "name": "signer",
          "type": "address",
          "internalType": "address"
        },
        {
          "name": "owner",
          "type": "address",
          "internalType": "address"
        }
      ]
    },
    {
      "type": "error",
      "name": "EarnedZero",
      "inputs": []
    },
    {
      "type": "error",
      "name": "FlashloanAmountTooBig",
      "inputs": []
    },
    {
      "type": "error",
      "name": "FlashloanFailed",
      "inputs": []
    },
    {
      "type": "error",
      "name": "InputCanBeAssetsOrShares",
      "inputs": []
    },
    {
      "type": "error",
      "name": "InputZeroShares",
      "inputs": []
    },
    {
      "type": "error",
      "name": "InvalidAccountNonce",
      "inputs": [
        {
          "name": "account",
          "type": "address",
          "internalType": "address"
        },
        {
          "name": "currentNonce",
          "type": "uint256",
          "internalType": "uint256"
        }
      ]
    },
    {
      "type": "error",
      "name": "InvalidInitialization",
      "inputs": []
    },
    {
      "type": "error",
      "name": "InvalidTokenType",
      "inputs": []
    },
    {
      "type": "error",
      "name": "NoLiquidity",
      "inputs": []
    },
    {
      "type": "error",
      "name": "NotEnoughLiquidity",
      "inputs": []
    },
    {
      "type": "error",
      "name": "NotInitializing",
      "inputs": []
    },
    {
      "type": "error",
      "name": "NotSolvent",
      "inputs": []
    },
    {
      "type": "error",
      "name": "NothingToWithdraw",
      "inputs": []
    },
    {
      "type": "error",
      "name": "OnlyHookReceiver",
      "inputs": []
    },
    {
      "type": "error",
      "name": "OnlySilo",
      "inputs": []
    },
    {
      "type": "error",
      "name": "OnlySiloConfig",
      "inputs": []
    },
    {
      "type": "error",
      "name": "OwnerIsZero",
      "inputs": []
    },
    {
      "type": "error",
      "name": "ProtectedProtection",
      "inputs": []
    },
    {
      "type": "error",
      "name": "RecipientIsZero",
      "inputs": []
    },
    {
      "type": "error",
      "name": "RecipientNotSolventAfterTransfer",
      "inputs": []
    },
    {
      "type": "error",
      "name": "RepayTooHigh",
      "inputs": []
    },
    {
      "type": "error",
      "name": "ReturnZeroAssets",
      "inputs": []
    },
    {
      "type": "error",
      "name": "ReturnZeroShares",
      "inputs": []
    },
    {
      "type": "error",
      "name": "SenderNotSolventAfterTransfer",
      "inputs": []
    },
    {
      "type": "error",
      "name": "SiloInitialized",
      "inputs": []
    },
    {
      "type": "error",
      "name": "UnsupportedFlashloanToken",
      "inputs": []
    },
    {
      "type": "error",
      "name": "ZeroAmount",
      "inputs": []
    },
    {
      "type": "error",
      "name": "ZeroTransfer",
      "inputs": []
    }
  ],
  "bytecode": "0x60a060405234801561000f575f5ffd5b5060405161586138038061586183398101604081905261002e916100f9565b610036610047565b6001600160a01b0316608052610126565b7ff0c57e16840df040f15088dc2f81fe391c3923bec73e23a9662efc9c229c6a00805468010000000000000000900460ff16156100975760405163f92ee8a960e01b815260040160405180910390fd5b80546001600160401b03908116146100f65780546001600160401b0319166001600160401b0390811782556040519081527fc7f505b2f371ae2175ee4913f4499e1f2633a7b5936321eed1cdaeb6115181d29060200160405180910390a15b50565b5f60208284031215610109575f5ffd5b81516001600160a01b038116811461011f575f5ffd5b9392505050565b60805161572361013e5f395f610dc901526157235ff3fe6080604052600436106104c9575f3560e01c806395d89b4111610278578063c63d75b611610155578063da537660116100c9578063ecd658b411610083578063ecd658b414610fc3578063ef8b30f714610fd7578063f6b911bc14610ff6578063fa9b1c6a14611015578063ffa1ad7414611034578063ffbaaf7a14611066575f5ffd5b8063da53766014610f16578063dce5c2db14610f35578063dd62ed3e14610f54578063e36754eb14610f73578063e72bec5714610f92578063eb3beb2914610fb1575f5ffd5b8063d505accf1161011a578063d505accf14610e7b578063d516418414610e9a578063d714fd1914610a37578063d905777e14610eb9578063d985616c14610ed8578063d9d98ce414610ef7575f5ffd5b8063c63d75b61461084d578063c6c3bbe614610e0a578063c6e6f59214610e29578063cad1aacf14610e48578063ce96cb7714610e5c575f5ffd5b8063b3d7f6b9116101ec578063ba087652116101b1578063ba08765214610d3c578063ba8ffe6514610d5b578063bf722ca214610d7a578063c061ddc714610d99578063c45a015514610db8578063c4d66de814610deb575f5ffd5b8063b3d7f6b914610ca1578063b460af9414610cc0578063b6d821c714610cdf578063b7ec8d4b14610cfe578063b8337c2a14610d1d575f5ffd5b8063a1ecef5c1161023d578063a1ecef5c14610c1c578063a1ff9bee146104d4578063a6afed9514610c30578063a7d6e44b14610c44578063a9059cbb14610c63578063acb7081514610c82575f5ffd5b806395d89b4114610b4957806396b298c514610b5d57806397a9d45714610b705780639d35abaf14610b8f5780639ef2fda014610bdd575f5ffd5b80634624c6a7116103a65780636e553f651161031a5780637fe2c8b7116102df5780637fe2c8b714610a6a5780637ff0007714610a8957806384b0196e14610aa8578063889576f714610acf5780638fea806214610aee57806394bf804d14610b2a575f5ffd5b80636e553f65146109da57806370a08231146109f957806378007e2314610a1857806379502c5514610a375780637ecebe0014610a4b575f5ffd5b80635cffe9de1161036b5780635cffe9de146109205780635d4086af1461093f5780635f3011491461095e578063613255ab1461097d5780636e1f8f7e1461099c5780636e236614146109bb575f5ffd5b80634624c6a71461088c578063476343ee146108ad5780634c7b0f3c146108c35780634cdad506146108e2578063571b954414610901575f5ffd5b806323b872dd1161043d5780633722462611610402578063372246261461079e57806338b51ce1146107d957806338d52e0f146107f857806339c5c50514610824578063402d267d1461084d578063421a1aee1461086d575f5ffd5b806323b872dd14610707578063267e54a71461072657806329d6509a14610745578063313ce567146107645780633644e5151461078a575f5ffd5b8063095ea7b31161048e578063095ea7b31461056e5780630a28a4771461059d5780630ed4fe31146105bc57806311b5e6821461069657806312d4c574146106b557806318160ddd146106d4575f5ffd5b806301e1d114146104d457806306fdde03146104fb578063071bf3ff1461051c57806307a2d13a1461053b5780630910a5101461055a575f5ffd5b366104d057005b5f5ffd5b3480156104df575f5ffd5b506104e861107a565b6040519081526020015b60405180910390f35b348015610506575f5ffd5b5061050f611088565b6040516104f2919061498a565b348015610527575f5ffd5b506104e86105363660046149bc565b6110f7565b348015610546575f5ffd5b506104e86105553660046149f3565b61110a565b348015610565575f5ffd5b506104e861111c565b348015610579575f5ffd5b5061058d610588366004614a0a565b61112d565b60405190151581526020016104f2565b3480156105a8575f5ffd5b506104e86105b73660046149f3565b61114f565b3480156105c7575f5ffd5b5061064d604080516080810182525f8082526020820181905291810182905260608101919091525f51602061564e5f395f51905f5260408051608081018252600292909201546001600160a01b038116835262ffffff600160a01b820481166020850152600160b81b8204811692840192909252600160d01b9004166060820152919050565b6040516104f2919081516001600160a01b0316815260208083015162ffffff90811691830191909152604080840151821690830152606092830151169181019190915260800190565b3480156106a1575f5ffd5b506104e86106b0366004614a34565b61115b565b3480156106c0575f5ffd5b506104e86106cf3660046149bc565b611166565b3480156106df575f5ffd5b507f52c63247e1f47db19d5ce0460030c497f067ca4cebf71ba98eeadabe20bace02546104e8565b348015610712575f5ffd5b5061058d610721366004614a57565b611179565b348015610731575f5ffd5b506104e8610740366004614a34565b6111e8565b348015610750575f5ffd5b506104e861075f366004614a95565b6111f3565b34801561076f575f5ffd5b506107786112d1565b60405160ff90911681526020016104f2565b348015610795575f5ffd5b506104e861133d565b3480156107a9575f5ffd5b506107b2611346565b6040805182516001600160401b0390811682526020938401511692810192909252016104f2565b3480156107e4575f5ffd5b5061058d6107f3366004614a95565b6113b6565b348015610803575f5ffd5b5061080c611432565b6040516001600160a01b0390911681526020016104f2565b34801561082f575f5ffd5b506108386114a3565b604080519283526020830191909152016104f2565b348015610858575f5ffd5b506104e8610867366004614a95565b505f1990565b348015610878575f5ffd5b506104e8610887366004614a95565b6114b6565b61089f61089a366004614aed565b611531565b6040516104f2929190614b5a565b3480156108b8575f5ffd5b506108c161154f565b005b3480156108ce575f5ffd5b506108c16108dd366004614b84565b61161e565b3480156108ed575f5ffd5b506104e86108fc3660046149f3565b6116b2565b34801561090c575f5ffd5b506104e861091b366004614a95565b505f90565b34801561092b575f5ffd5b5061058d61093a366004614bb0565b6116be565b34801561094a575f5ffd5b506104e8610959366004614c13565b611783565b348015610969575f5ffd5b506104e8610978366004614a95565b61178e565b348015610988575f5ffd5b506104e8610997366004614a95565b61180a565b3480156109a7575f5ffd5b506104e86109b6366004614a34565b611814565b3480156109c6575f5ffd5b506108c16109d5366004614c34565b61181f565b3480156109e5575f5ffd5b506104e86109f4366004614c66565b611869565b348015610a04575f5ffd5b506104e8610a13366004614a95565b611877565b348015610a23575f5ffd5b506104e8610a323660046149f3565b6118ba565b348015610a42575f5ffd5b5061080c6118e2565b348015610a56575f5ffd5b506104e8610a65366004614a95565b6118eb565b348015610a75575f5ffd5b506104e8610a84366004614c89565b6118f5565b348015610a94575f5ffd5b506104e8610aa3366004614c13565b61190f565b348015610ab3575f5ffd5b50610abc61191a565b6040516104f29796959493929190614cc8565b348015610ada575f5ffd5b506104e8610ae9366004614c89565b6119c8565b348015610af9575f5ffd5b507f01b0b3f9d6e360167e522fa2b18ba597ad7b2b35841fec7e1ca4dbb0adea1202546001600160a01b031661080c565b348015610b35575f5ffd5b506104e8610b44366004614c66565b611b01565b348015610b54575f5ffd5b5061050f611b0f565b348015610b68575f5ffd5b5060036104e8565b348015610b7b575f5ffd5b506104e8610b8a366004614a95565b611b57565b348015610b9a575f5ffd5b50610ba3611bd9565b604080516001600160c01b0390961686526001600160401b039094166020860152928401919091526060830152608082015260a0016104f2565b348015610be8575f5ffd5b50610bf1611c8b565b604080518251815260208084015190820152918101516001600160401b0316908201526060016104f2565b348015610c27575f5ffd5b506108c1611cbd565b348015610c3b575f5ffd5b506104e8611cd6565b348015610c4f575f5ffd5b506104e8610c5e366004614a34565b611cdf565b348015610c6e575f5ffd5b5061058d610c7d366004614a0a565b611cea565b348015610c8d575f5ffd5b506104e8610c9c366004614c66565b611d57565b348015610cac575f5ffd5b506104e8610cbb3660046149f3565b611e3c565b348015610ccb575f5ffd5b506104e8610cda366004614c89565b611e48565b348015610cea575f5ffd5b506104e8610cf9366004614d5e565b611e58565b348015610d09575f5ffd5b506104e8610d18366004614d77565b611ea0565b348015610d28575f5ffd5b506104e8610d37366004614dab565b611ead565b348015610d47575f5ffd5b506104e8610d56366004614c89565b611ec6565b348015610d66575f5ffd5b506104e8610d753660046149f3565b611edf565b348015610d85575f5ffd5b506104e8610d943660046149f3565b611eff565b348015610da4575f5ffd5b506104e8610db3366004614d77565b611f1f565b348015610dc3575f5ffd5b5061080c7f000000000000000000000000000000000000000000000000000000000000000081565b348015610df6575f5ffd5b506108c1610e05366004614a95565b611f2c565b348015610e15575f5ffd5b506108c1610e24366004614a57565b611fbb565b348015610e34575f5ffd5b506104e8610e433660046149f3565b612003565b348015610e53575f5ffd5b506108c161200f565b348015610e67575f5ffd5b506104e8610e76366004614a95565b6120c4565b348015610e86575f5ffd5b506108c1610e95366004614e09565b6120d0565b348015610ea5575f5ffd5b506104e8610eb4366004614c89565b6120f3565b348015610ec4575f5ffd5b506104e8610ed3366004614a95565b6121ee565b348015610ee3575f5ffd5b506108c1610ef2366004614a57565b6121fa565b348015610f02575f5ffd5b506104e8610f11366004614a0a565b612289565b348015610f21575f5ffd5b506104e8610f30366004614dab565b6122e8565b348015610f40575f5ffd5b50610838610f4f366004614a95565b612301565b348015610f5f575f5ffd5b506104e8610f6e366004614e75565b612337565b348015610f7e575f5ffd5b506104e8610f8d366004614c66565b612380565b348015610f9d575f5ffd5b506104e8610fac3660046149f3565b61245a565b348015610fbc575f5ffd5b503061080c565b348015610fce575f5ffd5b506104e861247b565b348015610fe2575f5ffd5b506104e8610ff13660046149f3565b612484565b348015611001575f5ffd5b506108c1611010366004614a57565b612490565b348015611020575f5ffd5b506104e861102f366004614d77565b6124f7565b34801561103f575f5ffd5b5060408051808201909152600a81526953696c6f20342e312e3360b01b602082015261050f565b348015611071575f5ffd5b506108386126e9565b5f6110836126f3565b905090565b606073__$e36323ec861de5853ea34405a6a6c240f5$__6306fdde036040518163ffffffff1660e01b81526004015f60405180830381865af41580156110d0573d5f5f3e3d5ffd5b505050506040513d5f823e601f3d908101601f191682016040526110839190810190614f0e565b5f611102838361270c565b949350505050565b5f611116826001612791565b92915050565b5f6110836111286127d8565b612806565b5f61113e6111396127d8565b612894565b6111488383612915565b9392505050565b5f61111682600161292c565b5f6111488383612978565b5f611171838361270c565b509392505050565b5f5f6111836129be565b9050611190858585612a1a565b9150806001600160a01b03166362402b046040518163ffffffff1660e01b81526004015f604051808303815f87803b1580156111ca575f5ffd5b505af11580156111dc573d5f5f3e3d5ffd5b50505050509392505050565b5f611148838361292c565b5f5f6111fd6127d8565b604051631e1f560960e11b81523060048201526001600160a01b039190911690633c3eac12906024016040805180830381865afa158015611240573d5f5f3e3d5ffd5b505050506040513d601f19601f820116820180604052508101906112649190614fab565b506040516370a0823160e01b81526001600160a01b038581166004830152919250908216906370a0823190602401602060405180830381865afa1580156112ad573d5f5f3e3d5ffd5b505050506040513d601f19601f820116820180604052508101906111489190614fd8565b5f73__$e36323ec861de5853ea34405a6a6c240f5$__63313ce5676040518163ffffffff1660e01b8152600401602060405180830381865af4158015611319573d5f5f3e3d5ffd5b505050506040513d601f19601f820116820180604052508101906110839190614fef565b5f611083612a3d565b604080518082019091525f80825260208201526110836040805180820182525f80825260209182015281518083019092527fd7513ffe3a01a9f6606089d1b67011bca35bec018ac0faa914e1c529408f8301546001600160401b038082168452600160401b909104169082015290565b6040516338b51ce160e01b81526001600160a01b03821660048201525f9073__$882f5dc3094afdd9d0e814b3c0cd9c4ee7$__906338b51ce190602401602060405180830381865af415801561140e573d5f5f3e3d5ffd5b505050506040513d601f19601f820116820180604052508101906111169190615019565b5f61143b6127d8565b6040516307439b4960e01b81523060048201526001600160a01b0391909116906307439b4990602401602060405180830381865afa15801561147f573d5f5f3e3d5ffd5b505050506040513d601f19601f820116820180604052508101906110839190615032565b5f5f6114ad612a46565b90939092509050565b6040516397a9d45760e01b81526001600160a01b03821660048201525f9073__$882f5dc3094afdd9d0e814b3c0cd9c4ee7$__906397a9d457906024016040805180830381865af415801561150d573d5f5f3e3d5ffd5b505050506040513d601f19601f82011682018060405250810190611148919061504d565b5f60606115418787878787612aa9565b909890975095505050505050565b611557612bcc565b50604051631123456160e31b81523060048201525f908190819073__$1c8c6ee4f595ff59af83bdc8e432701c1d$__9063891a2b0890602401606060405180830381865af41580156115ab573d5f5f3e3d5ffd5b505050506040513d601f19601f820116820180604052508101906115cf919061506f565b604080518481526020810184905282151581830152905193965091945092507f58ce9a502017c1e4e0084fcfd7067e2642dfe9e11757d8017b9cf16d729967c7919081900360600190a1505050565b611626612bf5565b6001600160a01b0316336001600160a01b031614611657576040516310528c6d60e11b815260040160405180910390fd5b7f01b0b3f9d6e360167e522fa2b18ba597ad7b2b35841fec7e1ca4dbb0adea1202805465ffffffffffff60a01b1916600160a01b62ffffff9485160262ffffff60b81b191617600160b81b9290931691909102919091179055565b5f611116826001612c10565b6040516369f958a560e11b81525f9073__$1c8c6ee4f595ff59af83bdc8e432701c1d$__9063d3f2b14a906116ff90899089908990899089906004016150a2565b602060405180830381865af415801561171a573d5f5f3e3d5ffd5b505050506040513d601f19601f8201168201806040525081019061173e9190615019565b9050801561177a576040518481527f97bf554031869ec4edcf72b0dcdc2234dd406afe091f3631be088f348e1795749060200160405180910390a15b95945050505050565b5f6111488383612c55565b604051635f30114960e01b81526001600160a01b03821660048201525f9073__$882f5dc3094afdd9d0e814b3c0cd9c4ee7$__90635f30114990602401602060405180830381865af41580156117e6573d5f5f3e3d5ffd5b505050506040513d601f19601f820116820180604052508101906111169190614fd8565b5f61111682612c96565b5f6111488383612df0565b6118276127d8565b6001600160a01b0316336001600160a01b031614611858576040516359d74a4160e01b815260040160405180910390fd5b611863838383612e35565b50505050565b5f611102835f846001612f01565b5f807f52c63247e1f47db19d5ce0460030c497f067ca4cebf71ba98eeadabe20bace005b6001600160a01b039093165f9081526020939093525050604090205490565b5f5f5f6118cf6118c8613037565b6002613139565b9150915061110284838360016002613328565b5f6110836127d8565b5f61111682613363565b5f6040516331cee75f60e21b815260040160405180910390fd5b5f6111488383612791565b5f60608082808083815f5160206156ae5f395f51905f52805490915015801561194557506001810154155b61198e5760405162461bcd60e51b81526020600482015260156024820152741152540dcc4c8e88155b9a5b9a5d1a585b1a5e9959605a1b60448201526064015b60405180910390fd5b61199661338b565b61199e61344b565b604080515f80825260208201909252600f60f81b9c939b5091995046985030975095509350915050565b5f5f5f73__$1c8c6ee4f595ff59af83bdc8e432701c1d$__635937128b60405180608001604052805f8152602001898152602001886001600160a01b03168152602001876001600160a01b03168152506040518263ffffffff1660e01b8152600401611a3491906150f2565b606060405180830381865af4158015611a4f573d5f5f3e3d5ffd5b505050506040513d601f19601f82011682018060405250810190611a73919061506f565b604080518481526020810184905293965091945092506001600160a01b03868116929088169133917f96558a334f4759f0e7c423d68c84721860bd8fbf94ddc4e55158ecb125ad04b591015b60405180910390a48015611af85760405133907f4aa7ec2e9d912271d4af0f59b2735f825ef583f4d6ee04f0242be6f58febc0fc905f90a25b50509392505050565b5f6111715f84846001612f01565b606073__$e36323ec861de5853ea34405a6a6c240f5$__6395d89b416040518163ffffffff1660e01b81526004015f60405180830381865af41580156110d0573d5f5f3e3d5ffd5b6040516397a9d45760e01b81526001600160a01b03821660048201525f9073__$882f5dc3094afdd9d0e814b3c0cd9c4ee7$__906397a9d457906024016040805180830381865af4158015611bae573d5f5f3e3d5ffd5b505050506040513d601f19601f82011682018060405250810190611bd2919061504d565b5092915050565b5f5f5f5f5f611c7a5f51602061568e5f395f51905f52545f51602061566e5f395f51905f526020527f1d6b5be70a9f383ca45b06b91c80fedc4b8206aae15f8f5652c9213b796e9a02545f5160206156ce5f395f51905f525460025f527f9b40389f0c625a77401470835767c77e909c039c8fc3275d3c2d2a048f8d5757546001600160c01b038416946001600160401b03600160c01b9095049490941693565b945094509450945094509091929394565b611cb560405180606001604052805f81526020015f81526020015f6001600160401b031681525090565b611083613489565b6040516331cee75f60e21b815260040160405180910390fd5b5f611083612bcc565b5f6111488383612c10565b5f5f611cf46129be565b9050611d008484613535565b9150806001600160a01b03166362402b046040518163ffffffff1660e01b81526004015f604051808303815f87803b158015611d3a575f5ffd5b505af1158015611d4c573d5f5f3e3d5ffd5b505050505092915050565b60405163b006213960e01b8152600481018390525f602482018190526001600160a01b038316604483015233606483015290819073__$1c8c6ee4f595ff59af83bdc8e432701c1d$__9063b0062139906084016040805180830381865af4158015611dc4573d5f5f3e3d5ffd5b505050506040513d601f19601f82011682018060405250810190611de8919061504d565b60408051838152602081018390529194509192506001600160a01b0385169133917fe4a1ae657f49cb1fb1c7d3a94ae6093565c4c8c0e03de488f79c377c3c3a24e091015b60405180910390a35092915050565b5f611116826001612978565b5f61177a845f8585336001613542565b5f5f51602061566e5f395f51905f5281836002811115611e7a57611e7a61512c565b6002811115611e8b57611e8b61512c565b81526020019081526020015f20549050919050565b5f61177a845f8585612f01565b5f611ebc855f86863387613542565b9695505050505050565b5f611ed65f858585336001613542565b50949350505050565b5f5f5f611eed6118c8613037565b915091506111028483835f60026136d6565b5f5f5f611f0d6118c8613037565b915091506111028483835f6002613328565b5f611ed65f858585612f01565b604051630f5cbacf60e21b81526001600160a01b03821660048201525f9073__$1c8c6ee4f595ff59af83bdc8e432701c1d$__90633d72eb3c90602401602060405180830381865af4158015611f84573d5f5f3e3d5ffd5b505050506040513d601f19601f82011682018060405250810190611fa89190615032565b9050611fb73082610800613705565b5050565b611fc3612bf5565b6001600160a01b0316336001600160a01b031614611ff4576040516310528c6d60e11b815260040160405180910390fd5b611ffe83826138c2565b505050565b5f611116826001612c55565b5f5f73__$1c8c6ee4f595ff59af83bdc8e432701c1d$__63cad1aacf6040518163ffffffff1660e01b81526004016040805180830381865af4158015612057573d5f5f3e3d5ffd5b505050506040513d601f19601f8201168201806040525081019061207b9190615140565b6040805162ffffff8085168252831660208201529294509092507f2b7ec2cd1f9292c7a9ae800c2479f6be4217beacb0c01ef2d7e4e84fced3d75b910160405180910390a15050565b5f611bd282600161270c565b6120db6111396127d8565b6120ea878787878787876138f6565b50505050505050565b5f5f5f73__$1c8c6ee4f595ff59af83bdc8e432701c1d$__635937128b60405180608001604052808981526020015f8152602001886001600160a01b03168152602001876001600160a01b03168152506040518263ffffffff1660e01b815260040161215f91906150f2565b606060405180830381865af415801561217a573d5f5f3e3d5ffd5b505050506040513d601f19601f8201168201806040525081019061219e919061506f565b604080518481526020810184905292965092945092506001600160a01b03808716929088169133917f96558a334f4759f0e7c423d68c84721860bd8fbf94ddc4e55158ecb125ad04b59101611abf565b5f61114882600161270c565b5f51602061564e5f395f51905f52600201546001600160a01b03163314612234576040516380897acb60e01b815260040160405180910390fd5b7f01b0b3f9d6e360167e522fa2b18ba597ad7b2b35841fec7e1ca4dbb0adea1203805460ff191690555f51602061564e5f395f51905f52612276848484613a4b565b600301805460ff19166001179055505050565b604051633676633960e21b81526001600160a01b0383166004820152602481018290525f9073__$882f5dc3094afdd9d0e814b3c0cd9c4ee7$__9063d9d98ce490604401602060405180830381865af41580156112ad573d5f5f3e3d5ffd5b5f6122f75f8686863387613542565b5095945050505050565b5f5f61230c83611877565b7f52c63247e1f47db19d5ce0460030c497f067ca4cebf71ba98eeadabe20bace025491509150915091565b6001600160a01b039182165f9081527f52c63247e1f47db19d5ce0460030c497f067ca4cebf71ba98eeadabe20bace016020908152604080832093909416825291909152205490565b60405163b006213960e01b81525f60048201819052602482018490526001600160a01b038316604483015233606483015290819073__$1c8c6ee4f595ff59af83bdc8e432701c1d$__9063b0062139906084016040805180830381865af41580156123ed573d5f5f3e3d5ffd5b505050506040513d601f19601f82011682018060405250810190612411919061504d565b60408051838152602081018390529294509092506001600160a01b0385169133917fe4a1ae657f49cb1fb1c7d3a94ae6093565c4c8c0e03de488f79c377c3c3a24e09101611e2d565b5f5f5f6124686118c8613037565b91509150611102848383600160026136d6565b5f611083613aa8565b5f611116826001612df0565b612498612bf5565b6001600160a01b0316336001600160a01b0316146124c9576040516310528c6d60e11b815260040160405180910390fd5b816001600160a01b0316836001600160a01b0316146124ed576124ed838383613ac7565b611ffe8382613b24565b5f5f73__$1c8c6ee4f595ff59af83bdc8e432701c1d$__635ca5797b6040518060600160405280888152602001876001600160a01b031681526020018660018111156125455761254561512c565b8152506040518263ffffffff1660e01b81526004016125649190615181565b6040805180830381865af415801561257e573d5f5f3e3d5ffd5b505050506040513d601f19601f820116820180604052508101906125a2919061504d565b909250905060018360018111156125bb576125bb61512c565b036126535760408051838152602081018790526001600160a01b03861691829133917ffbde797d201c681b91056529119e0b02407c7bb96a4a2c75c01fc9667232c8db910160405180910390a460408051838152602081018390526001600160a01b0386169133917f1ad348f5de3e19e23d88e34248ceb6ab09804a35a3abc0e7758045b7b9036acd910160405180910390a3611171565b60408051838152602081018790526001600160a01b03861691829133917f2dac01ea07cfa812db5881eaad96ba201c018c042b8f9ea7278cdf6f29e65f24910160405180910390a460408051838152602081018390526001600160a01b0386169133917fdcbc1c05240f31ff3ad067ef1ee35ce4997762752e3a095284754544f4c709d7910160405180910390a3509392505050565b5f5f6114ad613b58565b5f6127066126ff613037565b6001613139565b50919050565b5f5f73__$882f5dc3094afdd9d0e814b3c0cd9c4ee7$__6367df3cb485856040518363ffffffff1660e01b81526004016127479291906151af565b6040805180830381865af4158015612761573d5f5f3e3d5ffd5b505050506040513d601f19601f82011682018060405250810190612785919061504d565b915091505b9250929050565b5f5f5f6127a561279f613037565b85613139565b909250905061177a85838360028860028111156127c4576127c461512c565b146127d05760016127d2565b5f5b886136d6565b7f01b0b3f9d6e360167e522fa2b18ba597ad7b2b35841fec7e1ca4dbb0adea1201546001600160a01b031690565b60405163e48a5f7b60e01b81523060048201525f9081906001600160a01b0384169063e48a5f7b9060240161022060405180830381865afa15801561284d573d5f5f3e3d5ffd5b505050506040513d601f19601f8201168201806040525081019061287191906151cc565b905061288a816101200151825f01518360200151613b98565b5090949350505050565b806001600160a01b031663d2c725e06040518163ffffffff1660e01b8152600401602060405180830381865afa1580156128d0573d5f5f3e3d5ffd5b505050506040513d601f19601f820116820180604052508101906128f49190615019565b156129125760405163e17fbf8960e01b815260040160405180910390fd5b50565b5f33612922818585613bca565b5060019392505050565b5f5f8260018111156129405761294061512c565b60028111156129515761295161512c565b90505f5f612966612960613037565b84613139565b91509150611ebc868383600187613328565b5f5f82600181111561298c5761298c61512c565b600281111561299d5761299d61512c565b90505f5f6129ac612960613037565b91509150611ebc8683836001876136d6565b5f6129c76127d8565b9050806001600160a01b0316639dd413306040518163ffffffff1660e01b81526004015f604051808303815f87803b158015612a01575f5ffd5b505af1158015612a13573d5f5f3e3d5ffd5b5050505090565b5f33612a27858285613ac7565b612a32858585613a4b565b506001949350505050565b5f611083613bd7565b60015f9081525f51602061566e5f395f51905f5260208190525f5160206156ce5f395f51905f525491905f51602061568e5f395f51905f52908260025b6002811115612a9457612a9461512c565b81526020019081526020015f20549150509091565b5f60605f51602061564e5f395f51905f52600201546001600160a01b03163314612ae6576040516380897acb60e01b815260040160405180910390fd5b6001856001811115612afa57612afa61512c565b03612b6157866001600160a01b03168484604051612b199291906152e5565b5f60405180830381855af49150503d805f8114612b51576040519150601f19603f3d011682016040523d82523d5f602084013e612b56565b606091505b509092509050612bc2565b866001600160a01b0316868585604051612b7c9291906152e5565b5f6040518083038185875af1925050503d805f8114612bb6576040519150601f19603f3d011682016040523d82523d5f602084013e612bbb565b606091505b5090925090505b9550959350505050565b5f5f612bd6613037565b9050612bef816101200151825f01518360200151612e35565b91505090565b5f51602061564e5f395f51905f52546001600160a01b031690565b5f5f826001811115612c2457612c2461512c565b6002811115612c3557612c3561512c565b90505f5f612c44612960613037565b91509150611ebc8683835f876136d6565b5f5f5f612c6361279f613037565b909250905061177a8583836002886002811115612c8257612c8261512c565b14612c8d575f612c90565b60015b88613328565b5f612c9f6127d8565b6040516307439b4960e01b81523060048201526001600160a01b0391909116906307439b4990602401602060405180830381865afa158015612ce3573d5f5f3e3d5ffd5b505050506040513d601f19601f82011682018060405250810190612d079190615032565b6001600160a01b0316826001600160a01b031614612d2657505f919050565b5f8080525f51602061566e5f395f51905f5260209081527f1d6b5be70a9f383ca45b06b91c80fedc4b8206aae15f8f5652c9213b796e9a0254604080516370a0823160e01b815230600482015290515f51602061568e5f395f51905f529492936001600160a01b038816926370a0823192602480830193928290030181865afa158015612db5573d5f5f3e3d5ffd5b505050506040513d601f19601f82011682018060405250810190612dd99190614fd8565b9050818111612de8575f61177a565b039392505050565b5f5f826001811115612e0457612e0461512c565b6002811115612e1557612e1561512c565b90505f5f612e24612960613037565b91509150611ebc8683835f87613328565b60405163e9c1bd6160e01b81526001600160a01b038416600482015260248101839052604481018290525f9073__$2cb88bc423f502b07e13ce75aaf4711c2a$__9063e9c1bd6190606401602060405180830381865af4158015612e9b573d5f5f3e3d5ffd5b505050506040513d601f19601f82011682018060405250810190612ebf9190614fd8565b90508015611148576040518181527fd1fe0093c54116fe147366ec7de3cfa98e1e02e91d7ccb124241f6beae255b4c9060200160405180910390a19392505050565b5f5f73__$1c8c6ee4f595ff59af83bdc8e432701c1d$__637ca0c3c5878787876040518563ffffffff1660e01b8152600401612f4094939291906152f4565b6040805180830381865af4158015612f5a573d5f5f3e3d5ffd5b505050506040513d601f19601f82011682018060405250810190612f7e919061504d565b90925090506001836001811115612f9757612f9761512c565b03612fe75760408051838152602081018390526001600160a01b0386169133917fdcbc1c05240f31ff3ad067ef1ee35ce4997762752e3a095284754544f4c709d7910160405180910390a361302e565b60408051838152602081018390526001600160a01b0386169133917f1ad348f5de3e19e23d88e34248ceb6ab09804a35a3abc0e7758045b7b9036acd910160405180910390a35b94509492505050565b60408051610220810182525f80825260208201819052918101829052606081018290526080810182905260a0810182905260c0810182905260e08101829052610100810182905261012081018290526101408101829052610160810182905261018081018290526101a081018290526101c081018290526101e081018290526102008101919091525f51602061564e5f395f51905f526001015460405163e48a5f7b60e01b81523060048201526001600160a01b039091169063e48a5f7b9060240161022060405180830381865afa158015613115573d5f5f3e3d5ffd5b505050506040513d601f19601f8201168201806040525081019061108391906151cc565b5f808083600281111561314e5761314e61512c565b0361322f5783604001516001600160a01b031663b6d821c75f6040518263ffffffff1660e01b8152600401613183919061531e565b602060405180830381865afa15801561319e573d5f5f3e3d5ffd5b505050506040513d601f19601f820116820180604052508101906131c29190614fd8565b915083608001516001600160a01b03166318160ddd6040518163ffffffff1660e01b8152600401602060405180830381865afa158015613204573d5f5f3e3d5ffd5b505050506040513d601f19601f820116820180604052508101906132289190614fd8565b905061278a565b60018360028111156132435761324361512c565b036132a6576132648460400151856101200151865f01518760200151613c4a565b91508360a001516001600160a01b03166318160ddd6040518163ffffffff1660e01b8152600401602060405180830381865afa158015613204573d5f5f3e3d5ffd5b6132b98460400151856101200151613d40565b91508360c001516001600160a01b03166318160ddd6040518163ffffffff1660e01b8152600401602060405180830381865afa1580156132fb573d5f5f3e3d5ffd5b505050506040513d601f19601f8201168201806040525081019061331f9190614fd8565b90509250929050565b5f5f5f613336878786613e2a565b91509150815f0361334b57879250505061177a565b61335788838388613e85565b98975050505050505050565b5f807f5ab42ced628888259c08ac98db1eb0cf702fc1501344311d8b100cd1bfe4bb0061189b565b7fa16a46d94261c7517cc8ff89f61c0ce93598e3c849801011dee649a6a557d10280546060915f5160206156ae5f395f51905f52916133c990615338565b80601f01602080910402602001604051908101604052809291908181526020018280546133f590615338565b80156134405780601f1061341757610100808354040283529160200191613440565b820191905f5260205f20905b81548152906001019060200180831161342357829003601f168201915b505050505091505090565b7fa16a46d94261c7517cc8ff89f61c0ce93598e3c849801011dee649a6a557d10380546060915f5160206156ae5f395f51905f52916133c990615338565b6134b360405180606001604052805f81526020015f81526020015f6001600160401b031681525090565b50604080516060810182525f5160206156ce5f395f51905f5254815260025f525f51602061566e5f395f51905f5260209081527f9b40389f0c625a77401470835767c77e909c039c8fc3275d3c2d2a048f8d575754908201525f51602061568e5f395f51905f5254600160c01b90046001600160401b03169181019190915290565b5f33612922818585613a4b565b5f5f73__$1c8c6ee4f595ff59af83bdc8e432701c1d$__635af0d5b86040518060c001604052808b81526020018a8152602001896001600160a01b03168152602001886001600160a01b03168152602001876001600160a01b031681526020018660018111156135b4576135b461512c565b8152506040518263ffffffff1660e01b81526004016135d3919061536a565b6040805180830381865af41580156135ed573d5f5f3e3d5ffd5b505050506040513d601f19601f82011682018060405250810190613611919061504d565b9092509050600183600181111561362a5761362a61512c565b0361367f5760408051838152602081018390526001600160a01b03808816929089169133917ffbde797d201c681b91056529119e0b02407c7bb96a4a2c75c01fc9667232c8db910160405180910390a46136cb565b60408051838152602081018390526001600160a01b03808816929089169133917f2dac01ea07cfa812db5881eaad96ba201c018c042b8f9ea7278cdf6f29e65f24910160405180910390a45b965096945050505050565b5f5f5f6136e4878786613e2a565b91509150815f036136f957879250505061177a565b61335788828488613e85565b7ff0c57e16840df040f15088dc2f81fe391c3923bec73e23a9662efc9c229c6a008054600160401b810460ff1615906001600160401b03165f811580156137495750825b90505f826001600160401b031660011480156137645750303b155b905081158015613772575080155b156137905760405163f92ee8a960e01b815260040160405180910390fd5b845467ffffffffffffffff1916600117855583156137ba57845460ff60401b1916600160401b1785555b6137f86040518060400160405280601881526020017f53696c6f5368617265546f6b656e4549503731324e616d650000000000000000815250613ec7565b604051631983f68f60e21b81526001600160a01b03808a1660048301528816602482015262ffffff8716604482015273__$e36323ec861de5853ea34405a6a6c240f5$__9063660fda3c906064015f6040518083038186803b15801561385c575f5ffd5b505af415801561386e573d5f5f3e3d5ffd5b5050505083156138b857845460ff60401b19168555604051600181527fc7f505b2f371ae2175ee4913f4499e1f2633a7b5936321eed1cdaeb6115181d29060200160405180910390a15b5050505050505050565b6001600160a01b0382166138eb5760405163ec442f0560e01b81525f6004820152602401611985565b611fb75f8383613ef2565b8342111561391a5760405163313c898160e11b815260048101859052602401611985565b5f7f6e71edae12b1b97f4d1f60370fef10105fa2faae0126114a169c64845d6126c98888886139848c6001600160a01b03165f9081527f5ab42ced628888259c08ac98db1eb0cf702fc1501344311d8b100cd1bfe4bb006020526040902080546001810190915590565b6040805160208101969096526001600160a01b0394851690860152929091166060840152608083015260a082015260c0810186905260e0016040516020818303038152906040528051906020012090505f6139de82613f28565b90505f6139ed82878787613f54565b9050896001600160a01b0316816001600160a01b031614613a34576040516325c0072360e11b81526001600160a01b0380831660048301528b166024820152604401611985565b613a3f8a8a8a613bca565b50505050505050505050565b6001600160a01b038316613a7457604051634b637e8f60e11b81525f6004820152602401611985565b6001600160a01b038216613a9d5760405163ec442f0560e01b81525f6004820152602401611985565b611ffe838383613ef2565b5f5f613ab2613037565b9050612bef8160400151826101200151613d40565b5f613ad28484612337565b90505f1981146118635781811015613b1657604051637dc7a0d960e11b81526001600160a01b03841660048201526024810182905260448101839052606401611985565b61186384848484035f613f80565b6001600160a01b038216613b4d57604051634b637e8f60e11b81525f6004820152602401611985565b611fb7825f83613ef2565b60015f9081525f51602061566e5f395f51905f5260208190525f5160206156ce5f395f51905f525491905f51602061568e5f395f51905f52908280612a83565b5f5f5f613ba730878787613c4a565b9150613bb33087613d40565b9050613bbf8282614077565b925093509350939050565b611ffe8383836001613f80565b5f7f8b73c3c69bb8fe3d512ecc4cf759cc79239f7b179b0ffacaa9a75d522b39400f613c0161408f565b613c096140f7565b60408051602081019490945283019190915260608201524660808201523060a082015260c00160405160208183030381529060405280519060200120905090565b6040516367efe7fd60e11b81526001600160a01b0385811660048301524260248301525f91829186169063cfdfcffa90604401602060405180830381865afa925050508015613cb6575060408051601f3d908101601f19168201909252613cb391810190614fd8565b60015b15613cbe5790505b5f5f876001600160a01b03166339c5c5056040518163ffffffff1660e01b81526004016040805180830381865afa158015613cfb573d5f5f3e3d5ffd5b505050506040513d601f19601f82011682018060405250810190613d1f919061504d565b91509150613d308282858989614139565b50919a9950505050505050505050565b6040516367efe7fd60e11b81526001600160a01b0383811660048301524260248301525f91829184169063cfdfcffa90604401602060405180830381865afa925050508015613dac575060408051601f3d908101601f19168201909252613da991810190614fd8565b60015b15613db45790505b60405163b6d821c760e01b8152611ed6906001600160a01b0386169063b6d821c790613de59060029060040161531e565b602060405180830381865afa158015613e00573d5f5f3e3d5ffd5b505050506040513d601f19601f82011682018060405250810190613e249190614fd8565b82614193565b5f5f835f03613e37575f94505b6002836002811115613e4b57613e4b61512c565b14613e7657613e5c6003600a6154b7565b613e6690856154c2565b613e718660016154c2565b613e79565b83855b90969095509350505050565b5f613eb2613e92836141db565b8015613ead57505f8480613ea857613ea86154d5565b868809115b151590565b613ebd868686614207565b61177a91906154c2565b613ecf6142c4565b61291281604051806040016040528060018152602001603160f81b81525061430f565b805f03613f12576040516310cadee360e01b815260040160405180910390fd5b613f1d83838361436e565b611ffe8383836144ba565b5f611116613f34612a3d565b8360405161190160f01b8152600281019290925260228201526042902090565b5f5f5f5f613f6488888888614590565b925092509250613f748282614658565b50909695505050505050565b7f52c63247e1f47db19d5ce0460030c497f067ca4cebf71ba98eeadabe20bace006001600160a01b038516613fca5760405163e602df0560e01b81525f6004820152602401611985565b6001600160a01b038416613ff357604051634a1406b160e11b81525f6004820152602401611985565b6001600160a01b038086165f9081526001830160209081526040808320938816835292905220839055811561407057836001600160a01b0316856001600160a01b03167f8c5be1e5ebec7d5bd14f71427d1e84f3dd0314c0f7b2291e5b200ac8c7c3b9258560405161406791815260200190565b60405180910390a35b5050505050565b5f82821161408757818303611148565b5f9392505050565b5f5f5160206156ae5f395f51905f52816140a761338b565b8051909150156140bf57805160209091012092915050565b815480156140ce579392505050565b7fc5d2460186f7233c927e7db2dcc703c0e500b653ca82273b7bfad8045d85a470935050505090565b5f5f5160206156ae5f395f51905f528161410f61344b565b80519091501561412757805160209091012092915050565b600182015480156140ce579392505050565b5f5f5f5f6141478888614193565b90935090508585016141628282670de0b6b3a7640000614710565b92505f61416f84846154e9565b90508a198181101561417f578091505b818c01965050505095509550955095915050565b5f808315806141a0575082155b156141af57508290505f61278a565b6141c28484670de0b6b3a7640000614710565b905080840191508382101561278a575091925f92509050565b5f60028260038111156141f0576141f061512c565b6141fa91906154fc565b60ff166001149050919050565b5f838302815f1985870982811083820303915050805f0361423b57838281614231576142316154d5565b0492505050611148565b808411614259576142598415614252576011614758565b6012614758565b5f848688095f868103871696879004966002600389028118808a02820302808a02820302808a02820302808a02820302808a02820302808a02909103029181900381900460010186841190950394909402919094039290920491909117919091029150509392505050565b7ff0c57e16840df040f15088dc2f81fe391c3923bec73e23a9662efc9c229c6a0054600160401b900460ff1661430d57604051631afcd79f60e31b815260040160405180910390fd5b565b6143176142c4565b5f5160206156ae5f395f51905f527fa16a46d94261c7517cc8ff89f61c0ce93598e3c849801011dee649a6a557d102614350848261556d565b506003810161435f838261556d565b505f8082556001909101555050565b7f52c63247e1f47db19d5ce0460030c497f067ca4cebf71ba98eeadabe20bace006001600160a01b0384166143bb5781816002015f8282546143b091906154c2565b9091555061442b9050565b6001600160a01b0384165f908152602082905260409020548281101561440d5760405163391434e360e21b81526001600160a01b03861660048201526024810182905260448101849052606401611985565b6001600160a01b0385165f9081526020839052604090209083900390555b6001600160a01b038316614449576002810180548390039055614467565b6001600160a01b0383165f9081526020829052604090208054830190555b826001600160a01b0316846001600160a01b03167fddf252ad1be2c89b69c2b068fc378daa952ba7f163c4a11628f55a4df523b3ef846040516144ac91815260200190565b60405180910390a350505050565b5f51602061564e5f395f51905f526144d28484614769565b80156144e25750600381015460ff165b1561458557604051636f15550f60e11b81526001600160a01b03851660048201525f9073__$0c603b63fef61d2abd9717344845f11cca$__9063de2aaa1e90602401602060405180830381865af415801561453f573d5f5f3e3d5ffd5b505050506040513d601f19601f820116820180604052508101906145639190615019565b90508061458357604051633c3b8e1b60e21b815260040160405180910390fd5b505b61186384848461478e565b5f80807f7fffffffffffffffffffffffffffffff5d576e7357a4501ddfe92f46681b20a08411156145c957505f9150600390508261464e565b604080515f808252602082018084528a905260ff891692820192909252606081018790526080810186905260019060a0016020604051602081039080840390855afa15801561461a573d5f5f3e3d5ffd5b5050604051601f1901519150506001600160a01b03811661464557505f92506001915082905061464e565b92505f91508190505b9450945094915050565b5f82600381111561466b5761466b61512c565b03614674575050565b60018260038111156146885761468861512c565b036146a65760405163f645eedf60e01b815260040160405180910390fd5b60028260038111156146ba576146ba61512c565b036146db5760405163fce698f760e01b815260048101829052602401611985565b60038260038111156146ef576146ef61512c565b03611fb7576040516335e2f38360e21b815260048101829052602401611985565b5f835f0361471f57505f611148565b5082820282848281614733576147336154d5565b041461474057505f611148565b81818161474f5761474f6154d5565b04949350505050565b634e487b715f52806020526024601cfd5b5f6001600160a01b038316158015906111485750506001600160a01b03161515919050565b604080516080810182527f01b0b3f9d6e360167e522fa2b18ba597ad7b2b35841fec7e1ca4dbb0adea1202546001600160a01b038116825262ffffff600160a01b820481166020840152600160b81b8204811693830193909352600160d01b9004909116606082018190525f51602061564e5f395f51905f5291905f9061481490614919565b6040830151909150811662ffffff16811461483157505050505050565b815183546001600160a01b039182169163aef2823591168389898961485583611877565b61485e8d611877565b7f52c63247e1f47db19d5ce0460030c497f067ca4cebf71ba98eeadabe20bace02546040516bffffffffffffffffffffffff19606097881b811660208301529590961b909416603486015260488501929092526068840152608883015260a882015260c8016040516020818303038152906040526040518463ffffffff1660e01b81526004016148f093929190615627565b5f604051808303815f87803b158015614907575f5ffd5b505af1158015613a3f573d5f5f3e3d5ffd5b5f61080082148061492b575061100082145b80614937575061200082145b6149545760405163a1e9dd9d60e01b815260040160405180910390fd5b506104001790565b5f81518084528060208401602086015e5f602082860101526020601f19601f83011685010191505092915050565b602081525f611148602083018461495c565b6001600160a01b0381168114612912575f5ffd5b60028110612912575f5ffd5b5f5f604083850312156149cd575f5ffd5b82356149d88161499c565b915060208301356149e8816149b0565b809150509250929050565b5f60208284031215614a03575f5ffd5b5035919050565b5f5f60408385031215614a1b575f5ffd5b8235614a268161499c565b946020939093013593505050565b5f5f60408385031215614a45575f5ffd5b8235915060208301356149e8816149b0565b5f5f5f60608486031215614a69575f5ffd5b8335614a748161499c565b92506020840135614a848161499c565b929592945050506040919091013590565b5f60208284031215614aa5575f5ffd5b81356111488161499c565b5f5f83601f840112614ac0575f5ffd5b5081356001600160401b03811115614ad6575f5ffd5b60208301915083602082850101111561278a575f5ffd5b5f5f5f5f5f60808688031215614b01575f5ffd5b8535614b0c8161499c565b9450602086013593506040860135614b23816149b0565b925060608601356001600160401b03811115614b3d575f5ffd5b614b4988828901614ab0565b969995985093965092949392505050565b8215158152604060208201525f611102604083018461495c565b62ffffff81168114612912575f5ffd5b5f5f60408385031215614b95575f5ffd5b8235614ba081614b74565b915060208301356149e881614b74565b5f5f5f5f5f60808688031215614bc4575f5ffd5b8535614bcf8161499c565b94506020860135614bdf8161499c565b93506040860135925060608601356001600160401b03811115614b3d575f5ffd5b803560038110614c0e575f5ffd5b919050565b5f5f60408385031215614c24575f5ffd5b8235915061331f60208401614c00565b5f5f5f60608486031215614c46575f5ffd5b8335614c518161499c565b95602085013595506040909401359392505050565b5f5f60408385031215614c77575f5ffd5b8235915060208301356149e88161499c565b5f5f5f60608486031215614c9b575f5ffd5b833592506020840135614cad8161499c565b91506040840135614cbd8161499c565b809150509250925092565b60ff60f81b8816815260e060208201525f614ce660e083018961495c565b8281036040840152614cf8818961495c565b606084018890526001600160a01b038716608085015260a0840186905283810360c0850152845180825260208087019350909101905f5b81811015614d4d578351835260209384019390920191600101614d2f565b50909b9a5050505050505050505050565b5f60208284031215614d6e575f5ffd5b61114882614c00565b5f5f5f60608486031215614d89575f5ffd5b833592506020840135614d9b8161499c565b91506040840135614cbd816149b0565b5f5f5f5f60808587031215614dbe575f5ffd5b843593506020850135614dd08161499c565b92506040850135614de08161499c565b91506060850135614df0816149b0565b939692955090935050565b60ff81168114612912575f5ffd5b5f5f5f5f5f5f5f60e0888a031215614e1f575f5ffd5b8735614e2a8161499c565b96506020880135614e3a8161499c565b955060408801359450606088013593506080880135614e5881614dfb565b9699959850939692959460a0840135945060c09093013592915050565b5f5f60408385031215614e86575f5ffd5b8235614e918161499c565b915060208301356149e88161499c565b634e487b7160e01b5f52604160045260245ffd5b60405161022081016001600160401b0381118282101715614ed857614ed8614ea1565b60405290565b604051601f8201601f191681016001600160401b0381118282101715614f0657614f06614ea1565b604052919050565b5f60208284031215614f1e575f5ffd5b81516001600160401b03811115614f33575f5ffd5b8201601f81018413614f43575f5ffd5b80516001600160401b03811115614f5c57614f5c614ea1565b614f6f601f8201601f1916602001614ede565b818152856020838501011115614f83575f5ffd5b8160208401602083015e5f91810160200191909152949350505050565b8051614c0e8161499c565b5f5f60408385031215614fbc575f5ffd5b8251614fc78161499c565b60208401519092506149e88161499c565b5f60208284031215614fe8575f5ffd5b5051919050565b5f60208284031215614fff575f5ffd5b815161114881614dfb565b80518015158114614c0e575f5ffd5b5f60208284031215615029575f5ffd5b6111488261500a565b5f60208284031215615042575f5ffd5b81516111488161499c565b5f5f6040838503121561505e575f5ffd5b505080516020909101519092909150565b5f5f5f60608486031215615081575f5ffd5b8351602085015190935091506150996040850161500a565b90509250925092565b6001600160a01b03868116825285166020820152604081018490526080606082018190528101829052818360a08301375f81830160a090810191909152601f909201601f19160101949350505050565b81518152602080830151908201526040808301516001600160a01b0390811691830191909152606092830151169181019190915260800190565b634e487b7160e01b5f52602160045260245ffd5b5f5f60408385031215615151575f5ffd5b825161515c81614b74565b60208401519092506149e881614b74565b6002811061517d5761517d61512c565b9052565b815181526020808301516001600160a01b0316908201526040808301516060830191611bd29084018261516d565b6001600160a01b038316815260408101611148602083018461516d565b5f6102208284031280156151de575f5ffd5b506151e7614eb5565b825181526020808401519082015261520160408401614fa0565b604082015261521260608401614fa0565b606082015261522360808401614fa0565b608082015261523460a08401614fa0565b60a082015261524560c08401614fa0565b60c082015261525660e08401614fa0565b60e08201526152686101008401614fa0565b61010082015261527b6101208401614fa0565b6101208201526101408381015190820152610160808401519082015261018080840151908201526101a080840151908201526101c080840151908201526152c56101e08401614fa0565b6101e08201526152d8610200840161500a565b6102008201529392505050565b818382375f9101908152919050565b848152602081018490526001600160a01b03831660408201526080810161177a606083018461516d565b60208101600383106153325761533261512c565b91905290565b600181811c9082168061534c57607f821691505b60208210810361270657634e487b7160e01b5f52602260045260245ffd5b81518152602080830151908201526040808301516001600160a01b03908116918301919091526060808401518216908301526080808401519091169082015260a08083015160c0830191611bd29084018261516d565b634e487b7160e01b5f52601160045260245ffd5b6001815b600184111561540f578085048111156153f3576153f36153c0565b600184161561540157908102905b60019390931c9280026153d8565b935093915050565b5f8261542557506001611116565b8161543157505f611116565b816001811461544757600281146154515761546d565b6001915050611116565b60ff841115615462576154626153c0565b50506001821b611116565b5060208310610133831016604e8410600b8410161715615490575081810a611116565b61549c5f1984846153d4565b805f19048211156154af576154af6153c0565b029392505050565b5f6111488383615417565b80820180821115611116576111166153c0565b634e487b7160e01b5f52601260045260245ffd5b81810381811115611116576111166153c0565b5f60ff83168061551a57634e487b7160e01b5f52601260045260245ffd5b8060ff84160691505092915050565b601f821115611ffe57805f5260205f20601f840160051c8101602085101561554e5750805b601f840160051c820191505b81811015614070575f815560010161555a565b81516001600160401b0381111561558657615586614ea1565b61559a816155948454615338565b84615529565b6020601f8211600181146155cc575f83156155b55750848201515b5f19600385901b1c1916600184901b178455614070565b5f84815260208120601f198516915b828110156155fb57878501518255602094850194600190920191016155db565b508482101561561857868401515f19600387901b60f8161c191681555b50505050600190811b01905550565b60018060a01b0384168152826020820152606060408201525f61177a606083018461495c56fe01b0b3f9d6e360167e522fa2b18ba597ad7b2b35841fec7e1ca4dbb0adea1200d7513ffe3a01a9f6606089d1b67011bca35bec018ac0faa914e1c529408f8302d7513ffe3a01a9f6606089d1b67011bca35bec018ac0faa914e1c529408f8300a16a46d94261c7517cc8ff89f61c0ce93598e3c849801011dee649a6a557d1009f4c9b90b8375e1a1c51483b3ca447c3cef6557c7e1ddcfb2935a045af6b0ec7a264697066735822122004685cad920606bd1389f22754868421540a2592b67a37888720f22507a79b1364736f6c634300081c0033",
  "language": "Solidity",
  "compiler": "0.8.28+commit.7893614a"
}